{
	"tictactoe.sol": {
		"TicTacToe": {
			"abi": [
				{
					"inputs": [],
					"stateMutability": "payable",
					"type": "constructor"
				},
				{
					"anonymous": false,
					"inputs": [],
					"name": "GameOverWithDraw",
					"type": "event"
				},
				{
					"anonymous": false,
					"inputs": [
						{
							"indexed": false,
							"internalType": "address",
							"name": "winner",
							"type": "address"
						}
					],
					"name": "GameOverWithWin",
					"type": "event"
				},
				{
					"anonymous": false,
					"inputs": [
						{
							"indexed": false,
							"internalType": "address",
							"name": "player",
							"type": "address"
						}
					],
					"name": "NextPlayer",
					"type": "event"
				},
				{
					"anonymous": false,
					"inputs": [
						{
							"indexed": false,
							"internalType": "address",
							"name": "receiver",
							"type": "address"
						},
						{
							"indexed": false,
							"internalType": "uint256",
							"name": "amountInWei",
							"type": "uint256"
						}
					],
					"name": "PayoutSuccess",
					"type": "event"
				},
				{
					"anonymous": false,
					"inputs": [
						{
							"indexed": false,
							"internalType": "address",
							"name": "player",
							"type": "address"
						}
					],
					"name": "PlayerJoined",
					"type": "event"
				},
				{
					"inputs": [],
					"name": "boardSize",
					"outputs": [
						{
							"internalType": "uint8",
							"name": "",
							"type": "uint8"
						}
					],
					"stateMutability": "view",
					"type": "function"
				},
				{
					"inputs": [],
					"name": "emergecyCashout",
					"outputs": [],
					"stateMutability": "nonpayable",
					"type": "function"
				},
				{
					"inputs": [],
					"name": "gameCost",
					"outputs": [
						{
							"internalType": "uint256",
							"name": "",
							"type": "uint256"
						}
					],
					"stateMutability": "view",
					"type": "function"
				},
				{
					"inputs": [],
					"name": "getBoard",
					"outputs": [
						{
							"internalType": "address[3][3]",
							"name": "",
							"type": "address[3][3]"
						}
					],
					"stateMutability": "view",
					"type": "function"
				},
				{
					"inputs": [],
					"name": "joinGame",
					"outputs": [],
					"stateMutability": "payable",
					"type": "function"
				},
				{
					"inputs": [],
					"name": "player1",
					"outputs": [
						{
							"internalType": "address payable",
							"name": "",
							"type": "address"
						}
					],
					"stateMutability": "view",
					"type": "function"
				},
				{
					"inputs": [],
					"name": "player2",
					"outputs": [
						{
							"internalType": "address payable",
							"name": "",
							"type": "address"
						}
					],
					"stateMutability": "view",
					"type": "function"
				},
				{
					"inputs": [
						{
							"internalType": "uint8",
							"name": "x",
							"type": "uint8"
						},
						{
							"internalType": "uint8",
							"name": "y",
							"type": "uint8"
						}
					],
					"name": "setStone",
					"outputs": [],
					"stateMutability": "nonpayable",
					"type": "function"
				},
				{
					"inputs": [],
					"name": "withdrawWin",
					"outputs": [],
					"stateMutability": "nonpayable",
					"type": "function"
				}
			],
			"devdoc": {
				"kind": "dev",
				"methods": {},
				"version": 1
			},
			"evm": {
				"assembly": "    /* \"tictactoe.sol\":61:5897  contract TicTacToe {... */\n  mstore(0x40, 0x80)\n    /* \"tictactoe.sol\":167:168  3 */\n  0x03\n    /* \"tictactoe.sol\":142:168  uint8 public boardSize = 3 */\n  0x00\n  dup1\n  0x0100\n  exp\n  dup2\n  sload\n  dup2\n  0xff\n  mul\n  not\n  and\n  swap1\n  dup4\n  0xff\n  and\n  mul\n  or\n  swap1\n  sstore\n  pop\n    /* \"tictactoe.sol\":437:446  3 minutes */\n  0xb4\n    /* \"tictactoe.sol\":418:446  uint timeToReact = 3 minutes */\n  0x0e\n  sstore\n    /* \"tictactoe.sol\":788:798  msg.sender */\n  caller\n    /* \"tictactoe.sol\":770:777  player1 */\n  0x0a\n  0x00\n    /* \"tictactoe.sol\":770:799  player1 = payable(msg.sender) */\n  0x0100\n  exp\n  dup2\n  sload\n  dup2\n  0xffffffffffffffffffffffffffffffffffffffff\n  mul\n  not\n  and\n  swap1\n  dup4\n  0xffffffffffffffffffffffffffffffffffffffff\n  and\n  mul\n  or\n  swap1\n  sstore\n  pop\n    /* \"tictactoe.sol\":119:129  0.01 ether */\n  0x2386f26fc10000\n    /* \"tictactoe.sol\":818:827  msg.value */\n  callvalue\n    /* \"tictactoe.sol\":818:839  msg.value == gameCost */\n  eq\n    /* \"tictactoe.sol\":810:871  require(msg.value == gameCost, \"Submit some money, aborting\") */\n  tag_3\n  jumpi\n  mload(0x40)\n  0x08c379a000000000000000000000000000000000000000000000000000000000\n  dup2\n  mstore\n  0x04\n  add\n  tag_4\n  swap1\n  tag_5\n  jump\t// in\ntag_4:\n  mload(0x40)\n  dup1\n  swap2\n  sub\n  swap1\n  revert\ntag_3:\n    /* \"tictactoe.sol\":917:928  timeToReact */\n  sload(0x0e)\n    /* \"tictactoe.sol\":899:914  block.timestamp */\n  timestamp\n    /* \"tictactoe.sol\":899:928  block.timestamp + timeToReact */\n  tag_6\n  swap2\n  swap1\n  tag_7\n  jump\t// in\ntag_6:\n    /* \"tictactoe.sol\":882:896  gameValidUntil */\n  0x0f\n    /* \"tictactoe.sol\":882:928  gameValidUntil = block.timestamp + timeToReact */\n  dup2\n  swap1\n  sstore\n  pop\n    /* \"tictactoe.sol\":61:5897  contract TicTacToe {... */\n  jump(tag_8)\n    /* \"#utility.yul\":7:176   */\ntag_9:\n    /* \"#utility.yul\":91:102   */\n  0x00\n    /* \"#utility.yul\":125:131   */\n  dup3\n    /* \"#utility.yul\":120:123   */\n  dup3\n    /* \"#utility.yul\":113:132   */\n  mstore\n    /* \"#utility.yul\":165:169   */\n  0x20\n    /* \"#utility.yul\":160:163   */\n  dup3\n    /* \"#utility.yul\":156:170   */\n  add\n    /* \"#utility.yul\":141:170   */\n  swap1\n  pop\n    /* \"#utility.yul\":7:176   */\n  swap3\n  swap2\n  pop\n  pop\n  jump\t// out\n    /* \"#utility.yul\":182:359   */\ntag_10:\n    /* \"#utility.yul\":322:351   */\n  0x5375626d697420736f6d65206d6f6e65792c2061626f7274696e670000000000\n    /* \"#utility.yul\":318:319   */\n  0x00\n    /* \"#utility.yul\":310:316   */\n  dup3\n    /* \"#utility.yul\":306:320   */\n  add\n    /* \"#utility.yul\":299:352   */\n  mstore\n    /* \"#utility.yul\":182:359   */\n  pop\n  jump\t// out\n    /* \"#utility.yul\":365:731   */\ntag_11:\n    /* \"#utility.yul\":507:510   */\n  0x00\n    /* \"#utility.yul\":528:595   */\n  tag_18\n    /* \"#utility.yul\":592:594   */\n  0x1b\n    /* \"#utility.yul\":587:590   */\n  dup4\n    /* \"#utility.yul\":528:595   */\n  tag_9\n  jump\t// in\ntag_18:\n    /* \"#utility.yul\":521:595   */\n  swap2\n  pop\n    /* \"#utility.yul\":604:697   */\n  tag_19\n    /* \"#utility.yul\":693:696   */\n  dup3\n    /* \"#utility.yul\":604:697   */\n  tag_10\n  jump\t// in\ntag_19:\n    /* \"#utility.yul\":722:724   */\n  0x20\n    /* \"#utility.yul\":717:720   */\n  dup3\n    /* \"#utility.yul\":713:725   */\n  add\n    /* \"#utility.yul\":706:725   */\n  swap1\n  pop\n    /* \"#utility.yul\":365:731   */\n  swap2\n  swap1\n  pop\n  jump\t// out\n    /* \"#utility.yul\":737:1156   */\ntag_5:\n    /* \"#utility.yul\":903:907   */\n  0x00\n    /* \"#utility.yul\":941:943   */\n  0x20\n    /* \"#utility.yul\":930:939   */\n  dup3\n    /* \"#utility.yul\":926:944   */\n  add\n    /* \"#utility.yul\":918:944   */\n  swap1\n  pop\n    /* \"#utility.yul\":990:999   */\n  dup2\n    /* \"#utility.yul\":984:988   */\n  dup2\n    /* \"#utility.yul\":980:1000   */\n  sub\n    /* \"#utility.yul\":976:977   */\n  0x00\n    /* \"#utility.yul\":965:974   */\n  dup4\n    /* \"#utility.yul\":961:978   */\n  add\n    /* \"#utility.yul\":954:1001   */\n  mstore\n    /* \"#utility.yul\":1018:1149   */\n  tag_21\n    /* \"#utility.yul\":1144:1148   */\n  dup2\n    /* \"#utility.yul\":1018:1149   */\n  tag_11\n  jump\t// in\ntag_21:\n    /* \"#utility.yul\":1010:1149   */\n  swap1\n  pop\n    /* \"#utility.yul\":737:1156   */\n  swap2\n  swap1\n  pop\n  jump\t// out\n    /* \"#utility.yul\":1162:1239   */\ntag_12:\n    /* \"#utility.yul\":1199:1206   */\n  0x00\n    /* \"#utility.yul\":1228:1233   */\n  dup2\n    /* \"#utility.yul\":1217:1233   */\n  swap1\n  pop\n    /* \"#utility.yul\":1162:1239   */\n  swap2\n  swap1\n  pop\n  jump\t// out\n    /* \"#utility.yul\":1245:1425   */\ntag_13:\n    /* \"#utility.yul\":1293:1370   */\n  0x4e487b7100000000000000000000000000000000000000000000000000000000\n    /* \"#utility.yul\":1290:1291   */\n  0x00\n    /* \"#utility.yul\":1283:1371   */\n  mstore\n    /* \"#utility.yul\":1390:1394   */\n  0x11\n    /* \"#utility.yul\":1387:1388   */\n  0x04\n    /* \"#utility.yul\":1380:1395   */\n  mstore\n    /* \"#utility.yul\":1414:1418   */\n  0x24\n    /* \"#utility.yul\":1411:1412   */\n  0x00\n    /* \"#utility.yul\":1404:1419   */\n  revert\n    /* \"#utility.yul\":1431:1736   */\ntag_7:\n    /* \"#utility.yul\":1471:1474   */\n  0x00\n    /* \"#utility.yul\":1490:1510   */\n  tag_25\n    /* \"#utility.yul\":1508:1509   */\n  dup3\n    /* \"#utility.yul\":1490:1510   */\n  tag_12\n  jump\t// in\ntag_25:\n    /* \"#utility.yul\":1485:1510   */\n  swap2\n  pop\n    /* \"#utility.yul\":1524:1544   */\n  tag_26\n    /* \"#utility.yul\":1542:1543   */\n  dup4\n    /* \"#utility.yul\":1524:1544   */\n  tag_12\n  jump\t// in\ntag_26:\n    /* \"#utility.yul\":1519:1544   */\n  swap3\n  pop\n    /* \"#utility.yul\":1678:1679   */\n  dup3\n    /* \"#utility.yul\":1610:1676   */\n  0xffffffffffffffffffffffffffffffffffffffffffffffffffffffffffffffff\n    /* \"#utility.yul\":1606:1680   */\n  sub\n    /* \"#utility.yul\":1603:1604   */\n  dup3\n    /* \"#utility.yul\":1600:1681   */\n  gt\n    /* \"#utility.yul\":1597:1704   */\n  iszero\n  tag_27\n  jumpi\n    /* \"#utility.yul\":1684:1702   */\n  tag_28\n  tag_13\n  jump\t// in\ntag_28:\n    /* \"#utility.yul\":1597:1704   */\ntag_27:\n    /* \"#utility.yul\":1728:1729   */\n  dup3\n    /* \"#utility.yul\":1725:1726   */\n  dup3\n    /* \"#utility.yul\":1721:1730   */\n  add\n    /* \"#utility.yul\":1714:1730   */\n  swap1\n  pop\n    /* \"#utility.yul\":1431:1736   */\n  swap3\n  swap2\n  pop\n  pop\n  jump\t// out\n    /* \"tictactoe.sol\":61:5897  contract TicTacToe {... */\ntag_8:\n  dataSize(sub_0)\n  dup1\n  dataOffset(sub_0)\n  0x00\n  codecopy\n  0x00\n  return\nstop\n\nsub_0: assembly {\n        /* \"tictactoe.sol\":61:5897  contract TicTacToe {... */\n      mstore(0x40, 0x80)\n      jumpi(tag_1, lt(calldatasize, 0x04))\n      shr(0xe0, calldataload(0x00))\n      dup1\n      0xcab896dc\n      gt\n      tag_11\n      jumpi\n      dup1\n      0xcab896dc\n      eq\n      tag_6\n      jumpi\n      dup1\n      0xd30895e4\n      eq\n      tag_7\n      jumpi\n      dup1\n      0xd4f77b1c\n      eq\n      tag_8\n      jumpi\n      dup1\n      0xea40a2a2\n      eq\n      tag_9\n      jumpi\n      dup1\n      0xfb815503\n      eq\n      tag_10\n      jumpi\n      jump(tag_1)\n    tag_11:\n      dup1\n      0x3264a34b\n      eq\n      tag_2\n      jumpi\n      dup1\n      0x59a5f12d\n      eq\n      tag_3\n      jumpi\n      dup1\n      0x7d3f9074\n      eq\n      tag_4\n      jumpi\n      dup1\n      0xc51d69f4\n      eq\n      tag_5\n      jumpi\n    tag_1:\n      0x00\n      dup1\n      revert\n        /* \"tictactoe.sol\":1426:1519  function getBoard() public view returns(address[3][3] memory) {... */\n    tag_2:\n      callvalue\n      dup1\n      iszero\n      tag_12\n      jumpi\n      0x00\n      dup1\n      revert\n    tag_12:\n      pop\n      tag_13\n      tag_14\n      jump\t// in\n    tag_13:\n      mload(0x40)\n      tag_15\n      swap2\n      swap1\n      tag_16\n      jump\t// in\n    tag_15:\n      mload(0x40)\n      dup1\n      swap2\n      sub\n      swap1\n      return\n        /* \"tictactoe.sol\":305:335  address payable public player2 */\n    tag_3:\n      callvalue\n      dup1\n      iszero\n      tag_17\n      jumpi\n      0x00\n      dup1\n      revert\n    tag_17:\n      pop\n      tag_18\n      tag_19\n      jump\t// in\n    tag_18:\n      mload(0x40)\n      tag_20\n      swap2\n      swap1\n      tag_21\n      jump\t// in\n    tag_20:\n      mload(0x40)\n      dup1\n      swap2\n      sub\n      swap1\n      return\n        /* \"tictactoe.sol\":3690:5894  function setStone(uint8 x, uint8 y) public {... */\n    tag_4:\n      callvalue\n      dup1\n      iszero\n      tag_22\n      jumpi\n      0x00\n      dup1\n      revert\n    tag_22:\n      pop\n      tag_23\n      0x04\n      dup1\n      calldatasize\n      sub\n      dup2\n      add\n      swap1\n      tag_24\n      swap2\n      swap1\n      tag_25\n      jump\t// in\n    tag_24:\n      tag_26\n      jump\t// in\n    tag_23:\n      stop\n        /* \"tictactoe.sol\":142:168  uint8 public boardSize = 3 */\n    tag_5:\n      callvalue\n      dup1\n      iszero\n      tag_27\n      jumpi\n      0x00\n      dup1\n      revert\n    tag_27:\n      pop\n      tag_28\n      tag_29\n      jump\t// in\n    tag_28:\n      mload(0x40)\n      tag_30\n      swap2\n      swap1\n      tag_31\n      jump\t// in\n    tag_30:\n      mload(0x40)\n      dup1\n      swap2\n      sub\n      swap1\n      return\n        /* \"tictactoe.sol\":87:129  uint constant public gameCost = 0.01 ether */\n    tag_6:\n      callvalue\n      dup1\n      iszero\n      tag_32\n      jumpi\n      0x00\n      dup1\n      revert\n    tag_32:\n      pop\n      tag_33\n      tag_34\n      jump\t// in\n    tag_33:\n      mload(0x40)\n      tag_35\n      swap2\n      swap1\n      tag_36\n      jump\t// in\n    tag_35:\n      mload(0x40)\n      dup1\n      swap2\n      sub\n      swap1\n      return\n        /* \"tictactoe.sol\":268:298  address payable public player1 */\n    tag_7:\n      callvalue\n      dup1\n      iszero\n      tag_37\n      jumpi\n      0x00\n      dup1\n      revert\n    tag_37:\n      pop\n      tag_38\n      tag_39\n      jump\t// in\n    tag_38:\n      mload(0x40)\n      tag_40\n      swap2\n      swap1\n      tag_21\n      jump\t// in\n    tag_40:\n      mload(0x40)\n      dup1\n      swap2\n      sub\n      swap1\n      return\n        /* \"tictactoe.sol\":944:1418  function joinGame() public payable {... */\n    tag_8:\n      tag_41\n      tag_42\n      jump\t// in\n    tag_41:\n      stop\n        /* \"tictactoe.sol\":3536:3680  function emergecyCashout() public {... */\n    tag_9:\n      callvalue\n      dup1\n      iszero\n      tag_43\n      jumpi\n      0x00\n      dup1\n      revert\n    tag_43:\n      pop\n      tag_44\n      tag_45\n      jump\t// in\n    tag_44:\n      stop\n        /* \"tictactoe.sol\":2290:2959  function withdrawWin() public {... */\n    tag_10:\n      callvalue\n      dup1\n      iszero\n      tag_46\n      jumpi\n      0x00\n      dup1\n      revert\n    tag_46:\n      pop\n      tag_47\n      tag_48\n      jump\t// in\n    tag_47:\n      stop\n        /* \"tictactoe.sol\":1426:1519  function getBoard() public view returns(address[3][3] memory) {... */\n    tag_14:\n        /* \"tictactoe.sol\":1466:1486  address[3][3] memory */\n      tag_49\n      tag_50\n      jump\t// in\n    tag_49:\n        /* \"tictactoe.sol\":1506:1511  board */\n      0x01\n        /* \"tictactoe.sol\":1499:1511  return board */\n      0x03\n      dup1\n      0x20\n      mul\n      mload(0x40)\n      swap1\n      dup2\n      add\n      0x40\n      mstore\n      dup1\n      swap3\n      swap2\n      swap1\n      0x00\n      swap1\n    tag_52:\n      dup3\n      dup3\n      lt\n      iszero\n      tag_53\n      jumpi\n      dup4\n      dup3\n      0x03\n      mul\n      add\n      0x03\n      dup1\n      0x20\n      mul\n      mload(0x40)\n      swap1\n      dup2\n      add\n      0x40\n      mstore\n      dup1\n      swap3\n      swap2\n      swap1\n      dup3\n      0x03\n      dup1\n      iszero\n      tag_55\n      jumpi\n      0x20\n      mul\n      dup3\n      add\n      swap2\n    tag_56:\n      dup2\n      0x00\n      swap1\n      sload\n      swap1\n      0x0100\n      exp\n      swap1\n      div\n      0xffffffffffffffffffffffffffffffffffffffff\n      and\n      0xffffffffffffffffffffffffffffffffffffffff\n      and\n      dup2\n      mstore\n      0x20\n      add\n      swap1\n      0x01\n      add\n      swap1\n      dup1\n      dup4\n      gt\n      tag_56\n      jumpi\n    tag_55:\n      pop\n      pop\n      pop\n      pop\n      pop\n      dup2\n      mstore\n      0x20\n      add\n      swap1\n      0x01\n      add\n      swap1\n      jump(tag_52)\n    tag_53:\n      pop\n      pop\n      pop\n      pop\n      swap1\n      pop\n        /* \"tictactoe.sol\":1426:1519  function getBoard() public view returns(address[3][3] memory) {... */\n      swap1\n      jump\t// out\n        /* \"tictactoe.sol\":305:335  address payable public player2 */\n    tag_19:\n      0x0b\n      0x00\n      swap1\n      sload\n      swap1\n      0x0100\n      exp\n      swap1\n      div\n      0xffffffffffffffffffffffffffffffffffffffff\n      and\n      dup2\n      jump\t// out\n        /* \"tictactoe.sol\":3690:5894  function setStone(uint8 x, uint8 y) public {... */\n    tag_26:\n        /* \"tictactoe.sol\":3775:3776  0 */\n      0x00\n        /* \"tictactoe.sol\":3752:3777  board[x][y] == address(0) */\n      0xffffffffffffffffffffffffffffffffffffffff\n      and\n        /* \"tictactoe.sol\":3752:3757  board */\n      0x01\n        /* \"tictactoe.sol\":3758:3759  x */\n      dup4\n        /* \"tictactoe.sol\":3752:3760  board[x] */\n      0xff\n      and\n      0x03\n      dup2\n      lt\n      tag_58\n      jumpi\n      tag_59\n      tag_60\n      jump\t// in\n    tag_59:\n    tag_58:\n      0x03\n      mul\n      add\n        /* \"tictactoe.sol\":3761:3762  y */\n      dup3\n        /* \"tictactoe.sol\":3752:3763  board[x][y] */\n      0xff\n      and\n      0x03\n      dup2\n      lt\n      tag_62\n      jumpi\n      tag_63\n      tag_60\n      jump\t// in\n    tag_63:\n    tag_62:\n      add\n      0x00\n      swap1\n      sload\n      swap1\n      0x0100\n      exp\n      swap1\n      div\n      0xffffffffffffffffffffffffffffffffffffffff\n      and\n        /* \"tictactoe.sol\":3752:3777  board[x][y] == address(0) */\n      0xffffffffffffffffffffffffffffffffffffffff\n      and\n      eq\n        /* \"tictactoe.sol\":3744:3778  require(board[x][y] == address(0)) */\n      tag_65\n      jumpi\n      0x00\n      dup1\n      revert\n    tag_65:\n        /* \"tictactoe.sol\":3814:3829  block.timestamp */\n      timestamp\n        /* \"tictactoe.sol\":3797:3811  gameValidUntil */\n      sload(0x0f)\n        /* \"tictactoe.sol\":3797:3829  gameValidUntil > block.timestamp */\n      gt\n        /* \"tictactoe.sol\":3789:3830  require(gameValidUntil > block.timestamp) */\n      tag_66\n      jumpi\n      0x00\n      dup1\n      revert\n    tag_66:\n        /* \"tictactoe.sol\":3848:3858  gameActive */\n      0x00\n      0x02\n      swap1\n      sload\n      swap1\n      0x0100\n      exp\n      swap1\n      div\n      0xff\n      and\n        /* \"tictactoe.sol\":3841:3859  assert(gameActive) */\n      tag_67\n      jumpi\n      tag_68\n      tag_69\n      jump\t// in\n    tag_68:\n    tag_67:\n        /* \"tictactoe.sol\":3881:3890  boardSize */\n      0x00\n      dup1\n      sload\n      swap1\n      0x0100\n      exp\n      swap1\n      div\n      0xff\n      and\n        /* \"tictactoe.sol\":3877:3890  x < boardSize */\n      0xff\n      and\n        /* \"tictactoe.sol\":3877:3878  x */\n      dup3\n        /* \"tictactoe.sol\":3877:3890  x < boardSize */\n      0xff\n      and\n      lt\n        /* \"tictactoe.sol\":3870:3891  assert(x < boardSize) */\n      tag_70\n      jumpi\n      tag_71\n      tag_69\n      jump\t// in\n    tag_71:\n    tag_70:\n        /* \"tictactoe.sol\":3913:3922  boardSize */\n      0x00\n      dup1\n      sload\n      swap1\n      0x0100\n      exp\n      swap1\n      div\n      0xff\n      and\n        /* \"tictactoe.sol\":3909:3922  y < boardSize */\n      0xff\n      and\n        /* \"tictactoe.sol\":3909:3910  y */\n      dup2\n        /* \"tictactoe.sol\":3909:3922  y < boardSize */\n      0xff\n      and\n      lt\n        /* \"tictactoe.sol\":3902:3923  assert(y < boardSize) */\n      tag_72\n      jumpi\n      tag_73\n      tag_69\n      jump\t// in\n    tag_73:\n    tag_72:\n        /* \"tictactoe.sol\":3956:3968  activePlayer */\n      0x10\n      0x00\n      swap1\n      sload\n      swap1\n      0x0100\n      exp\n      swap1\n      div\n      0xffffffffffffffffffffffffffffffffffffffff\n      and\n        /* \"tictactoe.sol\":3942:3968  msg.sender == activePlayer */\n      0xffffffffffffffffffffffffffffffffffffffff\n      and\n        /* \"tictactoe.sol\":3942:3952  msg.sender */\n      caller\n        /* \"tictactoe.sol\":3942:3968  msg.sender == activePlayer */\n      0xffffffffffffffffffffffffffffffffffffffff\n      and\n      eq\n        /* \"tictactoe.sol\":3934:3969  require(msg.sender == activePlayer) */\n      tag_74\n      jumpi\n      0x00\n      dup1\n      revert\n    tag_74:\n        /* \"tictactoe.sol\":3994:4004  msg.sender */\n      caller\n        /* \"tictactoe.sol\":3980:3985  board */\n      0x01\n        /* \"tictactoe.sol\":3986:3987  x */\n      dup4\n        /* \"tictactoe.sol\":3980:3988  board[x] */\n      0xff\n      and\n      0x03\n      dup2\n      lt\n      tag_75\n      jumpi\n      tag_76\n      tag_60\n      jump\t// in\n    tag_76:\n    tag_75:\n      0x03\n      mul\n      add\n        /* \"tictactoe.sol\":3989:3990  y */\n      dup3\n        /* \"tictactoe.sol\":3980:3991  board[x][y] */\n      0xff\n      and\n      0x03\n      dup2\n      lt\n      tag_78\n      jumpi\n      tag_79\n      tag_60\n      jump\t// in\n    tag_79:\n    tag_78:\n      add\n      0x00\n        /* \"tictactoe.sol\":3980:4004  board[x][y] = msg.sender */\n      0x0100\n      exp\n      dup2\n      sload\n      dup2\n      0xffffffffffffffffffffffffffffffffffffffff\n      mul\n      not\n      and\n      swap1\n      dup4\n      0xffffffffffffffffffffffffffffffffffffffff\n      and\n      mul\n      or\n      swap1\n      sstore\n      pop\n        /* \"tictactoe.sol\":4015:4027  movesCounter */\n      0x00\n      0x01\n        /* \"tictactoe.sol\":4015:4029  movesCounter++ */\n      dup2\n      dup2\n      swap1\n      sload\n      swap1\n      0x0100\n      exp\n      swap1\n      div\n      0xff\n      and\n      dup1\n      swap3\n      swap2\n      swap1\n      tag_81\n      swap1\n      tag_82\n      jump\t// in\n    tag_81:\n      swap2\n      swap1\n      0x0100\n      exp\n      dup2\n      sload\n      dup2\n      0xff\n      mul\n      not\n      and\n      swap1\n      dup4\n      0xff\n      and\n      mul\n      or\n      swap1\n      sstore\n      pop\n      pop\n        /* \"tictactoe.sol\":4075:4086  timeToReact */\n      sload(0x0e)\n        /* \"tictactoe.sol\":4057:4072  block.timestamp */\n      timestamp\n        /* \"tictactoe.sol\":4057:4086  block.timestamp + timeToReact */\n      tag_83\n      swap2\n      swap1\n      tag_84\n      jump\t// in\n    tag_83:\n        /* \"tictactoe.sol\":4040:4054  gameValidUntil */\n      0x0f\n        /* \"tictactoe.sol\":4040:4086  gameValidUntil = block.timestamp + timeToReact */\n      dup2\n      swap1\n      sstore\n      pop\n        /* \"tictactoe.sol\":4103:4110  uint8 i */\n      0x00\n        /* \"tictactoe.sol\":4099:4399  for(uint8 i = 0; i < boardSize; i++) {... */\n    tag_85:\n        /* \"tictactoe.sol\":4120:4129  boardSize */\n      0x00\n      dup1\n      sload\n      swap1\n      0x0100\n      exp\n      swap1\n      div\n      0xff\n      and\n        /* \"tictactoe.sol\":4116:4129  i < boardSize */\n      0xff\n      and\n        /* \"tictactoe.sol\":4116:4117  i */\n      dup2\n        /* \"tictactoe.sol\":4116:4129  i < boardSize */\n      0xff\n      and\n      lt\n        /* \"tictactoe.sol\":4099:4399  for(uint8 i = 0; i < boardSize; i++) {... */\n      iszero\n      tag_86\n      jumpi\n        /* \"tictactoe.sol\":4169:4181  activePlayer */\n      0x10\n      0x00\n      swap1\n      sload\n      swap1\n      0x0100\n      exp\n      swap1\n      div\n      0xffffffffffffffffffffffffffffffffffffffff\n      and\n        /* \"tictactoe.sol\":4154:4181  board[i][y] != activePlayer */\n      0xffffffffffffffffffffffffffffffffffffffff\n      and\n        /* \"tictactoe.sol\":4154:4159  board */\n      0x01\n        /* \"tictactoe.sol\":4160:4161  i */\n      dup3\n        /* \"tictactoe.sol\":4154:4162  board[i] */\n      0xff\n      and\n      0x03\n      dup2\n      lt\n      tag_88\n      jumpi\n      tag_89\n      tag_60\n      jump\t// in\n    tag_89:\n    tag_88:\n      0x03\n      mul\n      add\n        /* \"tictactoe.sol\":4163:4164  y */\n      dup4\n        /* \"tictactoe.sol\":4154:4165  board[i][y] */\n      0xff\n      and\n      0x03\n      dup2\n      lt\n      tag_91\n      jumpi\n      tag_92\n      tag_60\n      jump\t// in\n    tag_92:\n    tag_91:\n      add\n      0x00\n      swap1\n      sload\n      swap1\n      0x0100\n      exp\n      swap1\n      div\n      0xffffffffffffffffffffffffffffffffffffffff\n      and\n        /* \"tictactoe.sol\":4154:4181  board[i][y] != activePlayer */\n      0xffffffffffffffffffffffffffffffffffffffff\n      and\n      sub\n        /* \"tictactoe.sol\":4202:4207  break */\n      tag_86\n        /* \"tictactoe.sol\":4151:4223  if(board[i][y] != activePlayer) {... */\n      jumpi\n        /* \"tictactoe.sol\":4276:4277  1 */\n      0x01\n        /* \"tictactoe.sol\":4264:4273  boardSize */\n      0x00\n      dup1\n      sload\n      swap1\n      0x0100\n      exp\n      swap1\n      div\n      0xff\n      and\n        /* \"tictactoe.sol\":4264:4277  boardSize - 1 */\n      tag_95\n      swap2\n      swap1\n      tag_96\n      jump\t// in\n    tag_95:\n        /* \"tictactoe.sol\":4259:4277  i == boardSize - 1 */\n      0xff\n      and\n        /* \"tictactoe.sol\":4259:4260  i */\n      dup2\n        /* \"tictactoe.sol\":4259:4277  i == boardSize - 1 */\n      0xff\n      and\n      sub\n        /* \"tictactoe.sol\":4256:4388  if(i == boardSize - 1) {... */\n      tag_97\n      jumpi\n        /* \"tictactoe.sol\":4324:4347  setWinner(activePlayer) */\n      tag_98\n        /* \"tictactoe.sol\":4334:4346  activePlayer */\n      0x10\n      0x00\n      swap1\n      sload\n      swap1\n      0x0100\n      exp\n      swap1\n      div\n      0xffffffffffffffffffffffffffffffffffffffff\n      and\n        /* \"tictactoe.sol\":4324:4333  setWinner */\n      tag_99\n        /* \"tictactoe.sol\":4324:4347  setWinner(activePlayer) */\n      jump\t// in\n    tag_98:\n        /* \"tictactoe.sol\":4366:4373  return; */\n      pop\n      jump(tag_57)\n        /* \"tictactoe.sol\":4256:4388  if(i == boardSize - 1) {... */\n    tag_97:\n        /* \"tictactoe.sol\":4131:4134  i++ */\n      dup1\n      dup1\n      tag_100\n      swap1\n      tag_82\n      jump\t// in\n    tag_100:\n      swap2\n      pop\n      pop\n        /* \"tictactoe.sol\":4099:4399  for(uint8 i = 0; i < boardSize; i++) {... */\n      jump(tag_85)\n    tag_86:\n      pop\n        /* \"tictactoe.sol\":4413:4419  uint i */\n      0x00\n        /* \"tictactoe.sol\":4409:4710  for(uint i = 0; i < boardSize; i++) {... */\n    tag_101:\n        /* \"tictactoe.sol\":4429:4438  boardSize */\n      0x00\n      dup1\n      sload\n      swap1\n      0x0100\n      exp\n      swap1\n      div\n      0xff\n      and\n        /* \"tictactoe.sol\":4425:4438  i < boardSize */\n      0xff\n      and\n        /* \"tictactoe.sol\":4425:4426  i */\n      dup2\n        /* \"tictactoe.sol\":4425:4438  i < boardSize */\n      lt\n        /* \"tictactoe.sol\":4409:4710  for(uint i = 0; i < boardSize; i++) {... */\n      iszero\n      tag_102\n      jumpi\n        /* \"tictactoe.sol\":4478:4490  activePlayer */\n      0x10\n      0x00\n      swap1\n      sload\n      swap1\n      0x0100\n      exp\n      swap1\n      div\n      0xffffffffffffffffffffffffffffffffffffffff\n      and\n        /* \"tictactoe.sol\":4463:4490  board[x][i] != activePlayer */\n      0xffffffffffffffffffffffffffffffffffffffff\n      and\n        /* \"tictactoe.sol\":4463:4468  board */\n      0x01\n        /* \"tictactoe.sol\":4469:4470  x */\n      dup5\n        /* \"tictactoe.sol\":4463:4471  board[x] */\n      0xff\n      and\n      0x03\n      dup2\n      lt\n      tag_104\n      jumpi\n      tag_105\n      tag_60\n      jump\t// in\n    tag_105:\n    tag_104:\n      0x03\n      mul\n      add\n        /* \"tictactoe.sol\":4472:4473  i */\n      dup3\n        /* \"tictactoe.sol\":4463:4474  board[x][i] */\n      0x03\n      dup2\n      lt\n      tag_107\n      jumpi\n      tag_108\n      tag_60\n      jump\t// in\n    tag_108:\n    tag_107:\n      add\n      0x00\n      swap1\n      sload\n      swap1\n      0x0100\n      exp\n      swap1\n      div\n      0xffffffffffffffffffffffffffffffffffffffff\n      and\n        /* \"tictactoe.sol\":4463:4490  board[x][i] != activePlayer */\n      0xffffffffffffffffffffffffffffffffffffffff\n      and\n      sub\n        /* \"tictactoe.sol\":4511:4516  break */\n      tag_102\n        /* \"tictactoe.sol\":4460:4532  if(board[x][i] != activePlayer) {... */\n      jumpi\n        /* \"tictactoe.sol\":4587:4588  1 */\n      0x01\n        /* \"tictactoe.sol\":4575:4584  boardSize */\n      0x00\n      dup1\n      sload\n      swap1\n      0x0100\n      exp\n      swap1\n      div\n      0xff\n      and\n        /* \"tictactoe.sol\":4575:4588  boardSize - 1 */\n      tag_111\n      swap2\n      swap1\n      tag_96\n      jump\t// in\n    tag_111:\n        /* \"tictactoe.sol\":4570:4588  i == boardSize - 1 */\n      0xff\n      and\n        /* \"tictactoe.sol\":4570:4571  i */\n      dup2\n        /* \"tictactoe.sol\":4570:4588  i == boardSize - 1 */\n      sub\n        /* \"tictactoe.sol\":4567:4699  if(i == boardSize - 1) {... */\n      tag_112\n      jumpi\n        /* \"tictactoe.sol\":4635:4658  setWinner(activePlayer) */\n      tag_113\n        /* \"tictactoe.sol\":4645:4657  activePlayer */\n      0x10\n      0x00\n      swap1\n      sload\n      swap1\n      0x0100\n      exp\n      swap1\n      div\n      0xffffffffffffffffffffffffffffffffffffffff\n      and\n        /* \"tictactoe.sol\":4635:4644  setWinner */\n      tag_99\n        /* \"tictactoe.sol\":4635:4658  setWinner(activePlayer) */\n      jump\t// in\n    tag_113:\n        /* \"tictactoe.sol\":4677:4684  return; */\n      pop\n      jump(tag_57)\n        /* \"tictactoe.sol\":4567:4699  if(i == boardSize - 1) {... */\n    tag_112:\n        /* \"tictactoe.sol\":4440:4443  i++ */\n      dup1\n      dup1\n      tag_114\n      swap1\n      tag_115\n      jump\t// in\n    tag_114:\n      swap2\n      pop\n      pop\n        /* \"tictactoe.sol\":4409:4710  for(uint i = 0; i < boardSize; i++) {... */\n      jump(tag_101)\n    tag_102:\n      pop\n        /* \"tictactoe.sol\":4751:4752  y */\n      dup1\n        /* \"tictactoe.sol\":4746:4752  x == y */\n      0xff\n      and\n        /* \"tictactoe.sol\":4746:4747  x */\n      dup3\n        /* \"tictactoe.sol\":4746:4752  x == y */\n      0xff\n      and\n      sub\n        /* \"tictactoe.sol\":4743:5119  if(x == y) {... */\n      tag_116\n      jumpi\n        /* \"tictactoe.sol\":4773:4779  uint i */\n      0x00\n        /* \"tictactoe.sol\":4769:5108  for(uint i = 0; i < boardSize; i++) {... */\n    tag_117:\n        /* \"tictactoe.sol\":4789:4798  boardSize */\n      0x00\n      dup1\n      sload\n      swap1\n      0x0100\n      exp\n      swap1\n      div\n      0xff\n      and\n        /* \"tictactoe.sol\":4785:4798  i < boardSize */\n      0xff\n      and\n        /* \"tictactoe.sol\":4785:4786  i */\n      dup2\n        /* \"tictactoe.sol\":4785:4798  i < boardSize */\n      lt\n        /* \"tictactoe.sol\":4769:5108  for(uint i = 0; i < boardSize; i++) {... */\n      iszero\n      tag_118\n      jumpi\n        /* \"tictactoe.sol\":4842:4854  activePlayer */\n      0x10\n      0x00\n      swap1\n      sload\n      swap1\n      0x0100\n      exp\n      swap1\n      div\n      0xffffffffffffffffffffffffffffffffffffffff\n      and\n        /* \"tictactoe.sol\":4827:4854  board[i][i] != activePlayer */\n      0xffffffffffffffffffffffffffffffffffffffff\n      and\n        /* \"tictactoe.sol\":4827:4832  board */\n      0x01\n        /* \"tictactoe.sol\":4833:4834  i */\n      dup3\n        /* \"tictactoe.sol\":4827:4835  board[i] */\n      0x03\n      dup2\n      lt\n      tag_120\n      jumpi\n      tag_121\n      tag_60\n      jump\t// in\n    tag_121:\n    tag_120:\n      0x03\n      mul\n      add\n        /* \"tictactoe.sol\":4836:4837  i */\n      dup3\n        /* \"tictactoe.sol\":4827:4838  board[i][i] */\n      0x03\n      dup2\n      lt\n      tag_123\n      jumpi\n      tag_124\n      tag_60\n      jump\t// in\n    tag_124:\n    tag_123:\n      add\n      0x00\n      swap1\n      sload\n      swap1\n      0x0100\n      exp\n      swap1\n      div\n      0xffffffffffffffffffffffffffffffffffffffff\n      and\n        /* \"tictactoe.sol\":4827:4854  board[i][i] != activePlayer */\n      0xffffffffffffffffffffffffffffffffffffffff\n      and\n      sub\n        /* \"tictactoe.sol\":4879:4884  break */\n      tag_118\n        /* \"tictactoe.sol\":4824:4904  if(board[i][i] != activePlayer) {... */\n      jumpi\n        /* \"tictactoe.sol\":4965:4966  1 */\n      0x01\n        /* \"tictactoe.sol\":4953:4962  boardSize */\n      0x00\n      dup1\n      sload\n      swap1\n      0x0100\n      exp\n      swap1\n      div\n      0xff\n      and\n        /* \"tictactoe.sol\":4953:4966  boardSize - 1 */\n      tag_127\n      swap2\n      swap1\n      tag_96\n      jump\t// in\n    tag_127:\n        /* \"tictactoe.sol\":4948:4966  i == boardSize - 1 */\n      0xff\n      and\n        /* \"tictactoe.sol\":4948:4949  i */\n      dup2\n        /* \"tictactoe.sol\":4948:4966  i == boardSize - 1 */\n      sub\n        /* \"tictactoe.sol\":4945:5093  if(i == boardSize - 1) {... */\n      tag_128\n      jumpi\n        /* \"tictactoe.sol\":5021:5044  setWinner(activePlayer) */\n      tag_129\n        /* \"tictactoe.sol\":5031:5043  activePlayer */\n      0x10\n      0x00\n      swap1\n      sload\n      swap1\n      0x0100\n      exp\n      swap1\n      div\n      0xffffffffffffffffffffffffffffffffffffffff\n      and\n        /* \"tictactoe.sol\":5021:5030  setWinner */\n      tag_99\n        /* \"tictactoe.sol\":5021:5044  setWinner(activePlayer) */\n      jump\t// in\n    tag_129:\n        /* \"tictactoe.sol\":5067:5074  return; */\n      pop\n      jump(tag_57)\n        /* \"tictactoe.sol\":4945:5093  if(i == boardSize - 1) {... */\n    tag_128:\n        /* \"tictactoe.sol\":4800:4803  i++ */\n      dup1\n      dup1\n      tag_130\n      swap1\n      tag_115\n      jump\t// in\n    tag_130:\n      swap2\n      pop\n      pop\n        /* \"tictactoe.sol\":4769:5108  for(uint i = 0; i < boardSize; i++) {... */\n      jump(tag_117)\n    tag_118:\n      pop\n        /* \"tictactoe.sol\":4743:5119  if(x == y) {... */\n    tag_116:\n        /* \"tictactoe.sol\":5179:5180  1 */\n      0x01\n        /* \"tictactoe.sol\":5169:5178  boardSize */\n      0x00\n      dup1\n      sload\n      swap1\n      0x0100\n      exp\n      swap1\n      div\n      0xff\n      and\n        /* \"tictactoe.sol\":5169:5180  boardSize-1 */\n      tag_131\n      swap2\n      swap1\n      tag_96\n      jump\t// in\n    tag_131:\n        /* \"tictactoe.sol\":5160:5180  (x+y) == boardSize-1 */\n      0xff\n      and\n        /* \"tictactoe.sol\":5163:5164  y */\n      dup2\n        /* \"tictactoe.sol\":5161:5162  x */\n      dup4\n        /* \"tictactoe.sol\":5161:5164  x+y */\n      tag_132\n      swap2\n      swap1\n      tag_133\n      jump\t// in\n    tag_132:\n        /* \"tictactoe.sol\":5160:5180  (x+y) == boardSize-1 */\n      0xff\n      and\n      sub\n        /* \"tictactoe.sol\":5157:5563  if((x+y) == boardSize-1) {... */\n      tag_134\n      jumpi\n        /* \"tictactoe.sol\":5201:5207  uint i */\n      0x00\n        /* \"tictactoe.sol\":5197:5552  for(uint i = 0; i < boardSize; i++) {... */\n    tag_135:\n        /* \"tictactoe.sol\":5217:5226  boardSize */\n      0x00\n      dup1\n      sload\n      swap1\n      0x0100\n      exp\n      swap1\n      div\n      0xff\n      and\n        /* \"tictactoe.sol\":5213:5226  i < boardSize */\n      0xff\n      and\n        /* \"tictactoe.sol\":5213:5214  i */\n      dup2\n        /* \"tictactoe.sol\":5213:5226  i < boardSize */\n      lt\n        /* \"tictactoe.sol\":5197:5552  for(uint i = 0; i < boardSize; i++) {... */\n      iszero\n      tag_136\n      jumpi\n        /* \"tictactoe.sol\":5284:5296  activePlayer */\n      0x10\n      0x00\n      swap1\n      sload\n      swap1\n      0x0100\n      exp\n      swap1\n      div\n      0xffffffffffffffffffffffffffffffffffffffff\n      and\n        /* \"tictactoe.sol\":5255:5296  board[i][(boardSize-1)-i] != activePlayer */\n      0xffffffffffffffffffffffffffffffffffffffff\n      and\n        /* \"tictactoe.sol\":5255:5260  board */\n      0x01\n        /* \"tictactoe.sol\":5261:5262  i */\n      dup3\n        /* \"tictactoe.sol\":5255:5263  board[i] */\n      0x03\n      dup2\n      lt\n      tag_138\n      jumpi\n      tag_139\n      tag_60\n      jump\t// in\n    tag_139:\n    tag_138:\n      0x03\n      mul\n      add\n        /* \"tictactoe.sol\":5278:5279  i */\n      dup3\n        /* \"tictactoe.sol\":5275:5276  1 */\n      0x01\n        /* \"tictactoe.sol\":5265:5274  boardSize */\n      0x00\n      dup1\n      sload\n      swap1\n      0x0100\n      exp\n      swap1\n      div\n      0xff\n      and\n        /* \"tictactoe.sol\":5265:5276  boardSize-1 */\n      tag_141\n      swap2\n      swap1\n      tag_96\n      jump\t// in\n    tag_141:\n        /* \"tictactoe.sol\":5264:5279  (boardSize-1)-i */\n      0xff\n      and\n      tag_142\n      swap2\n      swap1\n      tag_143\n      jump\t// in\n    tag_142:\n        /* \"tictactoe.sol\":5255:5280  board[i][(boardSize-1)-i] */\n      0x03\n      dup2\n      lt\n      tag_144\n      jumpi\n      tag_145\n      tag_60\n      jump\t// in\n    tag_145:\n    tag_144:\n      add\n      0x00\n      swap1\n      sload\n      swap1\n      0x0100\n      exp\n      swap1\n      div\n      0xffffffffffffffffffffffffffffffffffffffff\n      and\n        /* \"tictactoe.sol\":5255:5296  board[i][(boardSize-1)-i] != activePlayer */\n      0xffffffffffffffffffffffffffffffffffffffff\n      and\n      sub\n        /* \"tictactoe.sol\":5321:5326  break */\n      tag_136\n        /* \"tictactoe.sol\":5252:5346  if(board[i][(boardSize-1)-i] != activePlayer) {... */\n      jumpi\n        /* \"tictactoe.sol\":5409:5410  1 */\n      0x01\n        /* \"tictactoe.sol\":5397:5406  boardSize */\n      0x00\n      dup1\n      sload\n      swap1\n      0x0100\n      exp\n      swap1\n      div\n      0xff\n      and\n        /* \"tictactoe.sol\":5397:5410  boardSize - 1 */\n      tag_148\n      swap2\n      swap1\n      tag_96\n      jump\t// in\n    tag_148:\n        /* \"tictactoe.sol\":5392:5410  i == boardSize - 1 */\n      0xff\n      and\n        /* \"tictactoe.sol\":5392:5393  i */\n      dup2\n        /* \"tictactoe.sol\":5392:5410  i == boardSize - 1 */\n      sub\n        /* \"tictactoe.sol\":5389:5537  if(i == boardSize - 1) {... */\n      tag_149\n      jumpi\n        /* \"tictactoe.sol\":5465:5488  setWinner(activePlayer) */\n      tag_150\n        /* \"tictactoe.sol\":5475:5487  activePlayer */\n      0x10\n      0x00\n      swap1\n      sload\n      swap1\n      0x0100\n      exp\n      swap1\n      div\n      0xffffffffffffffffffffffffffffffffffffffff\n      and\n        /* \"tictactoe.sol\":5465:5474  setWinner */\n      tag_99\n        /* \"tictactoe.sol\":5465:5488  setWinner(activePlayer) */\n      jump\t// in\n    tag_150:\n        /* \"tictactoe.sol\":5511:5518  return; */\n      pop\n      jump(tag_57)\n        /* \"tictactoe.sol\":5389:5537  if(i == boardSize - 1) {... */\n    tag_149:\n        /* \"tictactoe.sol\":5228:5231  i++ */\n      dup1\n      dup1\n      tag_151\n      swap1\n      tag_115\n      jump\t// in\n    tag_151:\n      swap2\n      pop\n      pop\n        /* \"tictactoe.sol\":5197:5552  for(uint i = 0; i < boardSize; i++) {... */\n      jump(tag_135)\n    tag_136:\n      pop\n        /* \"tictactoe.sol\":5157:5563  if((x+y) == boardSize-1) {... */\n    tag_134:\n        /* \"tictactoe.sol\":5622:5623  2 */\n      0x02\n        /* \"tictactoe.sol\":5611:5620  boardSize */\n      0x00\n      dup1\n      sload\n      swap1\n      0x0100\n      exp\n      swap1\n      div\n      0xff\n      and\n        /* \"tictactoe.sol\":5611:5623  boardSize**2 */\n      tag_152\n      swap2\n      swap1\n      tag_153\n      jump\t// in\n    tag_152:\n        /* \"tictactoe.sol\":5594:5624  movesCounter == (boardSize**2) */\n      0xff\n      and\n        /* \"tictactoe.sol\":5594:5606  movesCounter */\n      0x00\n      0x01\n      swap1\n      sload\n      swap1\n      0x0100\n      exp\n      swap1\n      div\n      0xff\n      and\n        /* \"tictactoe.sol\":5594:5624  movesCounter == (boardSize**2) */\n      0xff\n      and\n      sub\n        /* \"tictactoe.sol\":5591:5703  if(movesCounter == (boardSize**2)) {... */\n      tag_154\n      jumpi\n        /* \"tictactoe.sol\":5661:5670  setDraw() */\n      tag_155\n        /* \"tictactoe.sol\":5661:5668  setDraw */\n      tag_156\n        /* \"tictactoe.sol\":5661:5670  setDraw() */\n      jump\t// in\n    tag_155:\n        /* \"tictactoe.sol\":5685:5692  return; */\n      jump(tag_57)\n        /* \"tictactoe.sol\":5591:5703  if(movesCounter == (boardSize**2)) {... */\n    tag_154:\n        /* \"tictactoe.sol\":5734:5741  player1 */\n      0x0a\n      0x00\n      swap1\n      sload\n      swap1\n      0x0100\n      exp\n      swap1\n      div\n      0xffffffffffffffffffffffffffffffffffffffff\n      and\n        /* \"tictactoe.sol\":5718:5741  activePlayer == player1 */\n      0xffffffffffffffffffffffffffffffffffffffff\n      and\n        /* \"tictactoe.sol\":5718:5730  activePlayer */\n      0x10\n      0x00\n      swap1\n      sload\n      swap1\n      0x0100\n      exp\n      swap1\n      div\n      0xffffffffffffffffffffffffffffffffffffffff\n      and\n        /* \"tictactoe.sol\":5718:5741  activePlayer == player1 */\n      0xffffffffffffffffffffffffffffffffffffffff\n      and\n      sub\n        /* \"tictactoe.sol\":5715:5847  if(activePlayer == player1) {... */\n      tag_157\n      jumpi\n        /* \"tictactoe.sol\":5773:5780  player2 */\n      0x0b\n      0x00\n      swap1\n      sload\n      swap1\n      0x0100\n      exp\n      swap1\n      div\n      0xffffffffffffffffffffffffffffffffffffffff\n      and\n        /* \"tictactoe.sol\":5758:5770  activePlayer */\n      0x10\n      0x00\n        /* \"tictactoe.sol\":5758:5780  activePlayer = player2 */\n      0x0100\n      exp\n      dup2\n      sload\n      dup2\n      0xffffffffffffffffffffffffffffffffffffffff\n      mul\n      not\n      and\n      swap1\n      dup4\n      0xffffffffffffffffffffffffffffffffffffffff\n      and\n      mul\n      or\n      swap1\n      sstore\n      pop\n        /* \"tictactoe.sol\":5715:5847  if(activePlayer == player1) {... */\n      jump(tag_158)\n    tag_157:\n        /* \"tictactoe.sol\":5828:5835  player1 */\n      0x0a\n      0x00\n      swap1\n      sload\n      swap1\n      0x0100\n      exp\n      swap1\n      div\n      0xffffffffffffffffffffffffffffffffffffffff\n      and\n        /* \"tictactoe.sol\":5813:5825  activePlayer */\n      0x10\n      0x00\n        /* \"tictactoe.sol\":5813:5835  activePlayer = player1 */\n      0x0100\n      exp\n      dup2\n      sload\n      dup2\n      0xffffffffffffffffffffffffffffffffffffffff\n      mul\n      not\n      and\n      swap1\n      dup4\n      0xffffffffffffffffffffffffffffffffffffffff\n      and\n      mul\n      or\n      swap1\n      sstore\n      pop\n        /* \"tictactoe.sol\":5715:5847  if(activePlayer == player1) {... */\n    tag_158:\n        /* \"tictactoe.sol\":5862:5886  NextPlayer(activePlayer) */\n      0x637351f91da430278368fb3e486c8c3da47b2e6ce4d28b2c404cb044702ca7e1\n        /* \"tictactoe.sol\":5873:5885  activePlayer */\n      0x10\n      0x00\n      swap1\n      sload\n      swap1\n      0x0100\n      exp\n      swap1\n      div\n      0xffffffffffffffffffffffffffffffffffffffff\n      and\n        /* \"tictactoe.sol\":5862:5886  NextPlayer(activePlayer) */\n      mload(0x40)\n      tag_159\n      swap2\n      swap1\n      tag_160\n      jump\t// in\n    tag_159:\n      mload(0x40)\n      dup1\n      swap2\n      sub\n      swap1\n      log1\n        /* \"tictactoe.sol\":3690:5894  function setStone(uint8 x, uint8 y) public {... */\n    tag_57:\n      pop\n      pop\n      jump\t// out\n        /* \"tictactoe.sol\":142:168  uint8 public boardSize = 3 */\n    tag_29:\n      0x00\n      dup1\n      sload\n      swap1\n      0x0100\n      exp\n      swap1\n      div\n      0xff\n      and\n      dup2\n      jump\t// out\n        /* \"tictactoe.sol\":87:129  uint constant public gameCost = 0.01 ether */\n    tag_34:\n        /* \"tictactoe.sol\":119:129  0.01 ether */\n      0x2386f26fc10000\n        /* \"tictactoe.sol\":87:129  uint constant public gameCost = 0.01 ether */\n      dup2\n      jump\t// out\n        /* \"tictactoe.sol\":268:298  address payable public player1 */\n    tag_39:\n      0x0a\n      0x00\n      swap1\n      sload\n      swap1\n      0x0100\n      exp\n      swap1\n      div\n      0xffffffffffffffffffffffffffffffffffffffff\n      and\n      dup2\n      jump\t// out\n        /* \"tictactoe.sol\":944:1418  function joinGame() public payable {... */\n    tag_42:\n        /* \"tictactoe.sol\":1016:1017  0 */\n      0x00\n        /* \"tictactoe.sol\":997:1018  player2 == address(0) */\n      0xffffffffffffffffffffffffffffffffffffffff\n      and\n        /* \"tictactoe.sol\":997:1004  player2 */\n      0x0b\n      0x00\n      swap1\n      sload\n      swap1\n      0x0100\n      exp\n      swap1\n      div\n      0xffffffffffffffffffffffffffffffffffffffff\n      and\n        /* \"tictactoe.sol\":997:1018  player2 == address(0) */\n      0xffffffffffffffffffffffffffffffffffffffff\n      and\n      eq\n        /* \"tictactoe.sol\":990:1019  assert(player2 == address(0)) */\n      tag_162\n      jumpi\n      tag_163\n      tag_69\n      jump\t// in\n    tag_163:\n    tag_162:\n        /* \"tictactoe.sol\":1043:1047  true */\n      0x01\n        /* \"tictactoe.sol\":1030:1040  gameActive */\n      0x00\n      0x02\n        /* \"tictactoe.sol\":1030:1047  gameActive = true */\n      0x0100\n      exp\n      dup2\n      sload\n      dup2\n      0xff\n      mul\n      not\n      and\n      swap1\n      dup4\n      iszero\n      iszero\n      mul\n      or\n      swap1\n      sstore\n      pop\n        /* \"tictactoe.sol\":119:129  0.01 ether */\n      0x2386f26fc10000\n        /* \"tictactoe.sol\":1068:1077  msg.value */\n      callvalue\n        /* \"tictactoe.sol\":1068:1089  msg.value == gameCost */\n      eq\n        /* \"tictactoe.sol\":1060:1090  require(msg.value == gameCost) */\n      tag_164\n      jumpi\n      0x00\n      dup1\n      revert\n    tag_164:\n        /* \"tictactoe.sol\":1121:1131  msg.sender */\n      caller\n        /* \"tictactoe.sol\":1103:1110  player2 */\n      0x0b\n      0x00\n        /* \"tictactoe.sol\":1103:1132  player2 = payable(msg.sender) */\n      0x0100\n      exp\n      dup2\n      sload\n      dup2\n      0xffffffffffffffffffffffffffffffffffffffff\n      mul\n      not\n      and\n      swap1\n      dup4\n      0xffffffffffffffffffffffffffffffffffffffff\n      and\n      mul\n      or\n      swap1\n      sstore\n      pop\n        /* \"tictactoe.sol\":1148:1169  PlayerJoined(player2) */\n      0x31e760aa525306aba638a784082a013b6a1cc0a9a1789f3f22281c0453b10b1f\n        /* \"tictactoe.sol\":1161:1168  player2 */\n      0x0b\n      0x00\n      swap1\n      sload\n      swap1\n      0x0100\n      exp\n      swap1\n      div\n      0xffffffffffffffffffffffffffffffffffffffff\n      and\n        /* \"tictactoe.sol\":1148:1169  PlayerJoined(player2) */\n      mload(0x40)\n      tag_165\n      swap2\n      swap1\n      tag_160\n      jump\t// in\n    tag_165:\n      mload(0x40)\n      dup1\n      swap2\n      sub\n      swap1\n      log1\n        /* \"tictactoe.sol\":1203:1204  0 */\n      0x00\n        /* \"tictactoe.sol\":1198:1199  2 */\n      0x02\n        /* \"tictactoe.sol\":1183:1195  block.number */\n      number\n        /* \"tictactoe.sol\":1183:1199  block.number % 2 */\n      tag_166\n      swap2\n      swap1\n      tag_167\n      jump\t// in\n    tag_166:\n        /* \"tictactoe.sol\":1183:1204  block.number % 2 == 0 */\n      sub\n        /* \"tictactoe.sol\":1180:1310  if(block.number % 2 == 0) {... */\n      tag_168\n      jumpi\n        /* \"tictactoe.sol\":1236:1243  player2 */\n      0x0b\n      0x00\n      swap1\n      sload\n      swap1\n      0x0100\n      exp\n      swap1\n      div\n      0xffffffffffffffffffffffffffffffffffffffff\n      and\n        /* \"tictactoe.sol\":1221:1233  activePlayer */\n      0x10\n      0x00\n        /* \"tictactoe.sol\":1221:1243  activePlayer = player2 */\n      0x0100\n      exp\n      dup2\n      sload\n      dup2\n      0xffffffffffffffffffffffffffffffffffffffff\n      mul\n      not\n      and\n      swap1\n      dup4\n      0xffffffffffffffffffffffffffffffffffffffff\n      and\n      mul\n      or\n      swap1\n      sstore\n      pop\n        /* \"tictactoe.sol\":1180:1310  if(block.number % 2 == 0) {... */\n      jump(tag_169)\n    tag_168:\n        /* \"tictactoe.sol\":1291:1298  player1 */\n      0x0a\n      0x00\n      swap1\n      sload\n      swap1\n      0x0100\n      exp\n      swap1\n      div\n      0xffffffffffffffffffffffffffffffffffffffff\n      and\n        /* \"tictactoe.sol\":1276:1288  activePlayer */\n      0x10\n      0x00\n        /* \"tictactoe.sol\":1276:1298  activePlayer = player1 */\n      0x0100\n      exp\n      dup2\n      sload\n      dup2\n      0xffffffffffffffffffffffffffffffffffffffff\n      mul\n      not\n      and\n      swap1\n      dup4\n      0xffffffffffffffffffffffffffffffffffffffff\n      and\n      mul\n      or\n      swap1\n      sstore\n      pop\n        /* \"tictactoe.sol\":1180:1310  if(block.number % 2 == 0) {... */\n    tag_169:\n        /* \"tictactoe.sol\":1357:1368  timeToReact */\n      sload(0x0e)\n        /* \"tictactoe.sol\":1339:1354  block.timestamp */\n      timestamp\n        /* \"tictactoe.sol\":1339:1368  block.timestamp + timeToReact */\n      tag_170\n      swap2\n      swap1\n      tag_84\n      jump\t// in\n    tag_170:\n        /* \"tictactoe.sol\":1322:1336  gameValidUntil */\n      0x0f\n        /* \"tictactoe.sol\":1322:1368  gameValidUntil = block.timestamp + timeToReact */\n      dup2\n      swap1\n      sstore\n      pop\n        /* \"tictactoe.sol\":1386:1410  NextPlayer(activePlayer) */\n      0x637351f91da430278368fb3e486c8c3da47b2e6ce4d28b2c404cb044702ca7e1\n        /* \"tictactoe.sol\":1397:1409  activePlayer */\n      0x10\n      0x00\n      swap1\n      sload\n      swap1\n      0x0100\n      exp\n      swap1\n      div\n      0xffffffffffffffffffffffffffffffffffffffff\n      and\n        /* \"tictactoe.sol\":1386:1410  NextPlayer(activePlayer) */\n      mload(0x40)\n      tag_171\n      swap2\n      swap1\n      tag_160\n      jump\t// in\n    tag_171:\n      mload(0x40)\n      dup1\n      swap2\n      sub\n      swap1\n      log1\n        /* \"tictactoe.sol\":944:1418  function joinGame() public payable {... */\n      jump\t// out\n        /* \"tictactoe.sol\":3536:3680  function emergecyCashout() public {... */\n    tag_45:\n        /* \"tictactoe.sol\":3606:3621  block.timestamp */\n      timestamp\n        /* \"tictactoe.sol\":3589:3603  gameValidUntil */\n      sload(0x0f)\n        /* \"tictactoe.sol\":3589:3621  gameValidUntil < block.timestamp */\n      lt\n        /* \"tictactoe.sol\":3581:3622  require(gameValidUntil < block.timestamp) */\n      tag_173\n      jumpi\n      0x00\n      dup1\n      revert\n    tag_173:\n        /* \"tictactoe.sol\":3641:3651  gameActive */\n      0x00\n      0x02\n      swap1\n      sload\n      swap1\n      0x0100\n      exp\n      swap1\n      div\n      0xff\n      and\n        /* \"tictactoe.sol\":3633:3652  require(gameActive) */\n      tag_174\n      jumpi\n      0x00\n      dup1\n      revert\n    tag_174:\n        /* \"tictactoe.sol\":3663:3672  setDraw() */\n      tag_175\n        /* \"tictactoe.sol\":3663:3670  setDraw */\n      tag_156\n        /* \"tictactoe.sol\":3663:3672  setDraw() */\n      jump\t// in\n    tag_175:\n        /* \"tictactoe.sol\":3536:3680  function emergecyCashout() public {... */\n      jump\t// out\n        /* \"tictactoe.sol\":2290:2959  function withdrawWin() public {... */\n    tag_48:\n        /* \"tictactoe.sol\":2329:2351  uint balanceToTransfer */\n      0x00\n        /* \"tictactoe.sol\":2379:2386  player1 */\n      0x0a\n      0x00\n      swap1\n      sload\n      swap1\n      0x0100\n      exp\n      swap1\n      div\n      0xffffffffffffffffffffffffffffffffffffffff\n      and\n        /* \"tictactoe.sol\":2365:2386  msg.sender == player1 */\n      0xffffffffffffffffffffffffffffffffffffffff\n      and\n        /* \"tictactoe.sol\":2365:2375  msg.sender */\n      caller\n        /* \"tictactoe.sol\":2365:2386  msg.sender == player1 */\n      0xffffffffffffffffffffffffffffffffffffffff\n      and\n      sub\n        /* \"tictactoe.sol\":2362:2952  if(msg.sender == player1) {... */\n      tag_177\n      jumpi\n        /* \"tictactoe.sol\":2438:2439  0 */\n      0x00\n        /* \"tictactoe.sol\":2411:2435  balanceToWithdrawPlayer1 */\n      sload(0x0c)\n        /* \"tictactoe.sol\":2411:2439  balanceToWithdrawPlayer1 > 0 */\n      gt\n        /* \"tictactoe.sol\":2403:2440  require(balanceToWithdrawPlayer1 > 0) */\n      tag_178\n      jumpi\n      0x00\n      dup1\n      revert\n    tag_178:\n        /* \"tictactoe.sol\":2475:2499  balanceToWithdrawPlayer1 */\n      sload(0x0c)\n        /* \"tictactoe.sol\":2455:2499  balanceToTransfer = balanceToWithdrawPlayer1 */\n      swap1\n      pop\n        /* \"tictactoe.sol\":2541:2542  0 */\n      0x00\n        /* \"tictactoe.sol\":2514:2538  balanceToWithdrawPlayer1 */\n      0x0c\n        /* \"tictactoe.sol\":2514:2542  balanceToWithdrawPlayer1 = 0 */\n      dup2\n      swap1\n      sstore\n      pop\n        /* \"tictactoe.sol\":2557:2564  player1 */\n      0x0a\n      0x00\n      swap1\n      sload\n      swap1\n      0x0100\n      exp\n      swap1\n      div\n      0xffffffffffffffffffffffffffffffffffffffff\n      and\n        /* \"tictactoe.sol\":2557:2573  player1.transfer */\n      0xffffffffffffffffffffffffffffffffffffffff\n      and\n        /* \"tictactoe.sol\":2557:2592  player1.transfer(balanceToTransfer) */\n      0x08fc\n        /* \"tictactoe.sol\":2574:2591  balanceToTransfer */\n      dup3\n        /* \"tictactoe.sol\":2557:2592  player1.transfer(balanceToTransfer) */\n      swap1\n      dup2\n      iszero\n      mul\n      swap1\n      mload(0x40)\n      0x00\n      mload(0x40)\n      dup1\n      dup4\n      sub\n      dup2\n      dup6\n      dup9\n      dup9\n      call\n      swap4\n      pop\n      pop\n      pop\n      pop\n      iszero\n      dup1\n      iszero\n      tag_180\n      jumpi\n      returndatasize\n      0x00\n      dup1\n      returndatacopy\n      revert(0x00, returndatasize)\n    tag_180:\n      pop\n        /* \"tictactoe.sol\":2614:2655  PayoutSuccess(player1, balanceToTransfer) */\n      0x2a44162a2d5223e37cacacc3f626dcfee1396e0be3616534c5c7b718f786b673\n        /* \"tictactoe.sol\":2628:2635  player1 */\n      0x0a\n      0x00\n      swap1\n      sload\n      swap1\n      0x0100\n      exp\n      swap1\n      div\n      0xffffffffffffffffffffffffffffffffffffffff\n      and\n        /* \"tictactoe.sol\":2637:2654  balanceToTransfer */\n      dup3\n        /* \"tictactoe.sol\":2614:2655  PayoutSuccess(player1, balanceToTransfer) */\n      mload(0x40)\n      tag_181\n      swap3\n      swap2\n      swap1\n      tag_182\n      jump\t// in\n    tag_181:\n      mload(0x40)\n      dup1\n      swap2\n      sub\n      swap1\n      log1\n        /* \"tictactoe.sol\":2362:2952  if(msg.sender == player1) {... */\n      jump(tag_183)\n    tag_177:\n        /* \"tictactoe.sol\":2725:2726  0 */\n      0x00\n        /* \"tictactoe.sol\":2698:2722  balanceToWithdrawPlayer2 */\n      sload(0x0d)\n        /* \"tictactoe.sol\":2698:2726  balanceToWithdrawPlayer2 > 0 */\n      gt\n        /* \"tictactoe.sol\":2690:2727  require(balanceToWithdrawPlayer2 > 0) */\n      tag_184\n      jumpi\n      0x00\n      dup1\n      revert\n    tag_184:\n        /* \"tictactoe.sol\":2762:2786  balanceToWithdrawPlayer2 */\n      sload(0x0d)\n        /* \"tictactoe.sol\":2742:2786  balanceToTransfer = balanceToWithdrawPlayer2 */\n      swap1\n      pop\n        /* \"tictactoe.sol\":2828:2829  0 */\n      0x00\n        /* \"tictactoe.sol\":2801:2825  balanceToWithdrawPlayer2 */\n      0x0d\n        /* \"tictactoe.sol\":2801:2829  balanceToWithdrawPlayer2 = 0 */\n      dup2\n      swap1\n      sstore\n      pop\n        /* \"tictactoe.sol\":2844:2851  player2 */\n      0x0b\n      0x00\n      swap1\n      sload\n      swap1\n      0x0100\n      exp\n      swap1\n      div\n      0xffffffffffffffffffffffffffffffffffffffff\n      and\n        /* \"tictactoe.sol\":2844:2860  player2.transfer */\n      0xffffffffffffffffffffffffffffffffffffffff\n      and\n        /* \"tictactoe.sol\":2844:2879  player2.transfer(balanceToTransfer) */\n      0x08fc\n        /* \"tictactoe.sol\":2861:2878  balanceToTransfer */\n      dup3\n        /* \"tictactoe.sol\":2844:2879  player2.transfer(balanceToTransfer) */\n      swap1\n      dup2\n      iszero\n      mul\n      swap1\n      mload(0x40)\n      0x00\n      mload(0x40)\n      dup1\n      dup4\n      sub\n      dup2\n      dup6\n      dup9\n      dup9\n      call\n      swap4\n      pop\n      pop\n      pop\n      pop\n      iszero\n      dup1\n      iszero\n      tag_186\n      jumpi\n      returndatasize\n      0x00\n      dup1\n      returndatacopy\n      revert(0x00, returndatasize)\n    tag_186:\n      pop\n        /* \"tictactoe.sol\":2899:2940  PayoutSuccess(player2, balanceToTransfer) */\n      0x2a44162a2d5223e37cacacc3f626dcfee1396e0be3616534c5c7b718f786b673\n        /* \"tictactoe.sol\":2913:2920  player2 */\n      0x0b\n      0x00\n      swap1\n      sload\n      swap1\n      0x0100\n      exp\n      swap1\n      div\n      0xffffffffffffffffffffffffffffffffffffffff\n      and\n        /* \"tictactoe.sol\":2922:2939  balanceToTransfer */\n      dup3\n        /* \"tictactoe.sol\":2899:2940  PayoutSuccess(player2, balanceToTransfer) */\n      mload(0x40)\n      tag_187\n      swap3\n      swap2\n      swap1\n      tag_182\n      jump\t// in\n    tag_187:\n      mload(0x40)\n      dup1\n      swap2\n      sub\n      swap1\n      log1\n        /* \"tictactoe.sol\":2362:2952  if(msg.sender == player1) {... */\n    tag_183:\n        /* \"tictactoe.sol\":2320:2959  {... */\n      pop\n        /* \"tictactoe.sol\":2290:2959  function withdrawWin() public {... */\n      jump\t// out\n        /* \"tictactoe.sol\":1527:2282  function setWinner(address payable player) private {... */\n    tag_99:\n        /* \"tictactoe.sol\":1602:1607  false */\n      0x00\n        /* \"tictactoe.sol\":1589:1599  gameActive */\n      dup1\n      0x02\n        /* \"tictactoe.sol\":1589:1607  gameActive = false */\n      0x0100\n      exp\n      dup2\n      sload\n      dup2\n      0xff\n      mul\n      not\n      and\n      swap1\n      dup4\n      iszero\n      iszero\n      mul\n      or\n      swap1\n      sstore\n      pop\n        /* \"tictactoe.sol\":1648:1671  GameOverWithWin(player) */\n      0x8245a3876d42d9b0bdb7f24184c03fc24e3d8a079f492b1ec9ceae70b366edf9\n        /* \"tictactoe.sol\":1664:1670  player */\n      dup2\n        /* \"tictactoe.sol\":1648:1671  GameOverWithWin(player) */\n      mload(0x40)\n      tag_189\n      swap2\n      swap1\n      tag_160\n      jump\t// in\n    tag_189:\n      mload(0x40)\n      dup1\n      swap2\n      sub\n      swap1\n      log1\n        /* \"tictactoe.sol\":1682:1702  uint balanceToPayOut */\n      0x00\n        /* \"tictactoe.sol\":1705:1726  address(this).balance */\n      selfbalance\n        /* \"tictactoe.sol\":1682:1726  uint balanceToPayOut = address(this).balance */\n      swap1\n      pop\n        /* \"tictactoe.sol\":1945:1949  true */\n      0x01\n        /* \"tictactoe.sol\":1913:1949  player.send(balanceToPayOut) != true */\n      iszero\n      iszero\n        /* \"tictactoe.sol\":1913:1919  player */\n      dup3\n        /* \"tictactoe.sol\":1913:1924  player.send */\n      0xffffffffffffffffffffffffffffffffffffffff\n      and\n        /* \"tictactoe.sol\":1913:1941  player.send(balanceToPayOut) */\n      0x08fc\n        /* \"tictactoe.sol\":1925:1940  balanceToPayOut */\n      dup4\n        /* \"tictactoe.sol\":1913:1941  player.send(balanceToPayOut) */\n      swap1\n      dup2\n      iszero\n      mul\n      swap1\n      mload(0x40)\n      0x00\n      mload(0x40)\n      dup1\n      dup4\n      sub\n      dup2\n      dup6\n      dup9\n      dup9\n      call\n      swap4\n      pop\n      pop\n      pop\n      pop\n        /* \"tictactoe.sol\":1913:1949  player.send(balanceToPayOut) != true */\n      iszero\n      iszero\n      eq\n        /* \"tictactoe.sol\":1910:2235  if(player.send(balanceToPayOut) != true) {... */\n      tag_191\n      jumpi\n        /* \"tictactoe.sol\":1979:1986  player1 */\n      0x0a\n      0x00\n      swap1\n      sload\n      swap1\n      0x0100\n      exp\n      swap1\n      div\n      0xffffffffffffffffffffffffffffffffffffffff\n      and\n        /* \"tictactoe.sol\":1969:1986  player == player1 */\n      0xffffffffffffffffffffffffffffffffffffffff\n      and\n        /* \"tictactoe.sol\":1969:1975  player */\n      dup3\n        /* \"tictactoe.sol\":1969:1986  player == player1 */\n      0xffffffffffffffffffffffffffffffffffffffff\n      and\n      sub\n        /* \"tictactoe.sol\":1966:2148  if(player == player1) {... */\n      tag_192\n      jumpi\n        /* \"tictactoe.sol\":2034:2049  balanceToPayOut */\n      dup1\n        /* \"tictactoe.sol\":2007:2031  balanceToWithdrawPlayer1 */\n      0x0c\n        /* \"tictactoe.sol\":2007:2049  balanceToWithdrawPlayer1 = balanceToPayOut */\n      dup2\n      swap1\n      sstore\n      pop\n        /* \"tictactoe.sol\":1966:2148  if(player == player1) {... */\n      jump(tag_193)\n    tag_192:\n        /* \"tictactoe.sol\":2117:2132  balanceToPayOut */\n      dup1\n        /* \"tictactoe.sol\":2090:2114  balanceToWithdrawPlayer2 */\n      0x0d\n        /* \"tictactoe.sol\":2090:2132  balanceToWithdrawPlayer2 = balanceToPayOut */\n      dup2\n      swap1\n      sstore\n      pop\n        /* \"tictactoe.sol\":1966:2148  if(player == player1) {... */\n    tag_193:\n        /* \"tictactoe.sol\":1910:2235  if(player.send(balanceToPayOut) != true) {... */\n      jump(tag_194)\n    tag_191:\n        /* \"tictactoe.sol\":2185:2223  PayoutSuccess(player, balanceToPayOut) */\n      0x2a44162a2d5223e37cacacc3f626dcfee1396e0be3616534c5c7b718f786b673\n        /* \"tictactoe.sol\":2199:2205  player */\n      dup3\n        /* \"tictactoe.sol\":2207:2222  balanceToPayOut */\n      dup3\n        /* \"tictactoe.sol\":2185:2223  PayoutSuccess(player, balanceToPayOut) */\n      mload(0x40)\n      tag_195\n      swap3\n      swap2\n      swap1\n      tag_182\n      jump\t// in\n    tag_195:\n      mload(0x40)\n      dup1\n      swap2\n      sub\n      swap1\n      log1\n        /* \"tictactoe.sol\":1910:2235  if(player.send(balanceToPayOut) != true) {... */\n    tag_194:\n        /* \"tictactoe.sol\":1578:2282  {... */\n      pop\n        /* \"tictactoe.sol\":1527:2282  function setWinner(address payable player) private {... */\n      pop\n      jump\t// out\n        /* \"tictactoe.sol\":2967:3528  function setDraw() private {... */\n    tag_156:\n        /* \"tictactoe.sol\":3018:3023  false */\n      0x00\n        /* \"tictactoe.sol\":3005:3015  gameActive */\n      dup1\n      0x02\n        /* \"tictactoe.sol\":3005:3023  gameActive = false */\n      0x0100\n      exp\n      dup2\n      sload\n      dup2\n      0xff\n      mul\n      not\n      and\n      swap1\n      dup4\n      iszero\n      iszero\n      mul\n      or\n      swap1\n      sstore\n      pop\n        /* \"tictactoe.sol\":3039:3057  GameOverWithDraw() */\n      0x2207d46a2ba0f2acda06e9a222b40fd004e385738b3f868e63b2c0bfe4bc094c\n      mload(0x40)\n      mload(0x40)\n      dup1\n      swap2\n      sub\n      swap1\n      log1\n        /* \"tictactoe.sol\":3070:3090  uint balanceToPayOut */\n      0x00\n        /* \"tictactoe.sol\":3115:3116  2 */\n      0x02\n        /* \"tictactoe.sol\":3093:3114  address(this).balance */\n      selfbalance\n        /* \"tictactoe.sol\":3093:3116  address(this).balance/2 */\n      tag_197\n      swap2\n      swap1\n      tag_198\n      jump\t// in\n    tag_197:\n        /* \"tictactoe.sol\":3070:3116  uint balanceToPayOut = address(this).balance/2 */\n      swap1\n      pop\n        /* \"tictactoe.sol\":3165:3170  false */\n      0x00\n        /* \"tictactoe.sol\":3132:3170  player1.send(balanceToPayOut) == false */\n      iszero\n      iszero\n        /* \"tictactoe.sol\":3132:3139  player1 */\n      0x0a\n      0x00\n      swap1\n      sload\n      swap1\n      0x0100\n      exp\n      swap1\n      div\n      0xffffffffffffffffffffffffffffffffffffffff\n      and\n        /* \"tictactoe.sol\":3132:3144  player1.send */\n      0xffffffffffffffffffffffffffffffffffffffff\n      and\n        /* \"tictactoe.sol\":3132:3161  player1.send(balanceToPayOut) */\n      0x08fc\n        /* \"tictactoe.sol\":3145:3160  balanceToPayOut */\n      dup4\n        /* \"tictactoe.sol\":3132:3161  player1.send(balanceToPayOut) */\n      swap1\n      dup2\n      iszero\n      mul\n      swap1\n      mload(0x40)\n      0x00\n      mload(0x40)\n      dup1\n      dup4\n      sub\n      dup2\n      dup6\n      dup9\n      dup9\n      call\n      swap4\n      pop\n      pop\n      pop\n      pop\n        /* \"tictactoe.sol\":3132:3170  player1.send(balanceToPayOut) == false */\n      iszero\n      iszero\n      sub\n        /* \"tictactoe.sol\":3129:3319  if(player1.send(balanceToPayOut) == false) {... */\n      tag_200\n      jumpi\n        /* \"tictactoe.sol\":3215:3230  balanceToPayOut */\n      dup1\n        /* \"tictactoe.sol\":3187:3211  balanceToWithdrawPlayer1 */\n      0x0c\n      0x00\n        /* \"tictactoe.sol\":3187:3230  balanceToWithdrawPlayer1 += balanceToPayOut */\n      dup3\n      dup3\n      sload\n      tag_201\n      swap2\n      swap1\n      tag_84\n      jump\t// in\n    tag_201:\n      swap3\n      pop\n      pop\n      dup2\n      swap1\n      sstore\n      pop\n        /* \"tictactoe.sol\":3129:3319  if(player1.send(balanceToPayOut) == false) {... */\n      jump(tag_202)\n    tag_200:\n        /* \"tictactoe.sol\":3268:3307  PayoutSuccess(player1, balanceToPayOut) */\n      0x2a44162a2d5223e37cacacc3f626dcfee1396e0be3616534c5c7b718f786b673\n        /* \"tictactoe.sol\":3282:3289  player1 */\n      0x0a\n      0x00\n      swap1\n      sload\n      swap1\n      0x0100\n      exp\n      swap1\n      div\n      0xffffffffffffffffffffffffffffffffffffffff\n      and\n        /* \"tictactoe.sol\":3291:3306  balanceToPayOut */\n      dup3\n        /* \"tictactoe.sol\":3268:3307  PayoutSuccess(player1, balanceToPayOut) */\n      mload(0x40)\n      tag_203\n      swap3\n      swap2\n      swap1\n      tag_182\n      jump\t// in\n    tag_203:\n      mload(0x40)\n      dup1\n      swap2\n      sub\n      swap1\n      log1\n        /* \"tictactoe.sol\":3129:3319  if(player1.send(balanceToPayOut) == false) {... */\n    tag_202:\n        /* \"tictactoe.sol\":3365:3370  false */\n      0x00\n        /* \"tictactoe.sol\":3332:3370  player2.send(balanceToPayOut) == false */\n      iszero\n      iszero\n        /* \"tictactoe.sol\":3332:3339  player2 */\n      0x0b\n      0x00\n      swap1\n      sload\n      swap1\n      0x0100\n      exp\n      swap1\n      div\n      0xffffffffffffffffffffffffffffffffffffffff\n      and\n        /* \"tictactoe.sol\":3332:3344  player2.send */\n      0xffffffffffffffffffffffffffffffffffffffff\n      and\n        /* \"tictactoe.sol\":3332:3361  player2.send(balanceToPayOut) */\n      0x08fc\n        /* \"tictactoe.sol\":3345:3360  balanceToPayOut */\n      dup4\n        /* \"tictactoe.sol\":3332:3361  player2.send(balanceToPayOut) */\n      swap1\n      dup2\n      iszero\n      mul\n      swap1\n      mload(0x40)\n      0x00\n      mload(0x40)\n      dup1\n      dup4\n      sub\n      dup2\n      dup6\n      dup9\n      dup9\n      call\n      swap4\n      pop\n      pop\n      pop\n      pop\n        /* \"tictactoe.sol\":3332:3370  player2.send(balanceToPayOut) == false */\n      iszero\n      iszero\n      sub\n        /* \"tictactoe.sol\":3329:3519  if(player2.send(balanceToPayOut) == false) {... */\n      tag_205\n      jumpi\n        /* \"tictactoe.sol\":3415:3430  balanceToPayOut */\n      dup1\n        /* \"tictactoe.sol\":3387:3411  balanceToWithdrawPlayer2 */\n      0x0d\n      0x00\n        /* \"tictactoe.sol\":3387:3430  balanceToWithdrawPlayer2 += balanceToPayOut */\n      dup3\n      dup3\n      sload\n      tag_206\n      swap2\n      swap1\n      tag_84\n      jump\t// in\n    tag_206:\n      swap3\n      pop\n      pop\n      dup2\n      swap1\n      sstore\n      pop\n        /* \"tictactoe.sol\":3329:3519  if(player2.send(balanceToPayOut) == false) {... */\n      jump(tag_207)\n    tag_205:\n        /* \"tictactoe.sol\":3468:3507  PayoutSuccess(player2, balanceToPayOut) */\n      0x2a44162a2d5223e37cacacc3f626dcfee1396e0be3616534c5c7b718f786b673\n        /* \"tictactoe.sol\":3482:3489  player2 */\n      0x0b\n      0x00\n      swap1\n      sload\n      swap1\n      0x0100\n      exp\n      swap1\n      div\n      0xffffffffffffffffffffffffffffffffffffffff\n      and\n        /* \"tictactoe.sol\":3491:3506  balanceToPayOut */\n      dup3\n        /* \"tictactoe.sol\":3468:3507  PayoutSuccess(player2, balanceToPayOut) */\n      mload(0x40)\n      tag_208\n      swap3\n      swap2\n      swap1\n      tag_182\n      jump\t// in\n    tag_208:\n      mload(0x40)\n      dup1\n      swap2\n      sub\n      swap1\n      log1\n        /* \"tictactoe.sol\":3329:3519  if(player2.send(balanceToPayOut) == false) {... */\n    tag_207:\n        /* \"tictactoe.sol\":2994:3528  {... */\n      pop\n        /* \"tictactoe.sol\":2967:3528  function setDraw() private {... */\n      jump\t// out\n    tag_50:\n      mload(0x40)\n      dup1\n      0x60\n      add\n      0x40\n      mstore\n      dup1\n      0x03\n      swap1\n    tag_209:\n      tag_210\n      tag_211\n      jump\t// in\n    tag_210:\n      dup2\n      mstore\n      0x20\n      add\n      swap1\n      0x01\n      swap1\n      sub\n      swap1\n      dup2\n      tag_209\n      jumpi\n      swap1\n      pop\n      pop\n      swap1\n      jump\t// out\n    tag_211:\n      mload(0x40)\n      dup1\n      0x60\n      add\n      0x40\n      mstore\n      dup1\n      0x03\n      swap1\n      0x20\n      dup3\n      mul\n      dup1\n      calldatasize\n      dup4\n      calldatacopy\n      dup1\n      dup3\n      add\n      swap2\n      pop\n      pop\n      swap1\n      pop\n      pop\n      swap1\n      jump\t// out\n        /* \"#utility.yul\":7:134   */\n    tag_212:\n        /* \"#utility.yul\":95:101   */\n      0x00\n        /* \"#utility.yul\":123:127   */\n      0x03\n        /* \"#utility.yul\":113:127   */\n      swap1\n      pop\n        /* \"#utility.yul\":7:134   */\n      swap2\n      swap1\n      pop\n      jump\t// out\n        /* \"#utility.yul\":140:306   */\n    tag_213:\n        /* \"#utility.yul\":260:271   */\n      0x00\n        /* \"#utility.yul\":297:300   */\n      dup2\n        /* \"#utility.yul\":282:300   */\n      swap1\n      pop\n        /* \"#utility.yul\":140:306   */\n      swap3\n      swap2\n      pop\n      pop\n      jump\t// out\n        /* \"#utility.yul\":312:433   */\n    tag_214:\n        /* \"#utility.yul\":400:404   */\n      0x00\n        /* \"#utility.yul\":423:426   */\n      dup2\n        /* \"#utility.yul\":415:426   */\n      swap1\n      pop\n        /* \"#utility.yul\":312:433   */\n      swap2\n      swap1\n      pop\n      jump\t// out\n        /* \"#utility.yul\":439:543   */\n    tag_215:\n        /* \"#utility.yul\":504:510   */\n      0x00\n        /* \"#utility.yul\":532:536   */\n      0x03\n        /* \"#utility.yul\":522:536   */\n      swap1\n      pop\n        /* \"#utility.yul\":439:543   */\n      swap2\n      swap1\n      pop\n      jump\t// out\n        /* \"#utility.yul\":549:682   */\n    tag_216:\n        /* \"#utility.yul\":636:647   */\n      0x00\n        /* \"#utility.yul\":673:676   */\n      dup2\n        /* \"#utility.yul\":658:676   */\n      swap1\n      pop\n        /* \"#utility.yul\":549:682   */\n      swap3\n      swap2\n      pop\n      pop\n      jump\t// out\n        /* \"#utility.yul\":688:786   */\n    tag_217:\n        /* \"#utility.yul\":753:757   */\n      0x00\n        /* \"#utility.yul\":776:779   */\n      dup2\n        /* \"#utility.yul\":768:779   */\n      swap1\n      pop\n        /* \"#utility.yul\":688:786   */\n      swap2\n      swap1\n      pop\n      jump\t// out\n        /* \"#utility.yul\":792:918   */\n    tag_218:\n        /* \"#utility.yul\":829:836   */\n      0x00\n        /* \"#utility.yul\":869:911   */\n      0xffffffffffffffffffffffffffffffffffffffff\n        /* \"#utility.yul\":862:867   */\n      dup3\n        /* \"#utility.yul\":858:912   */\n      and\n        /* \"#utility.yul\":847:912   */\n      swap1\n      pop\n        /* \"#utility.yul\":792:918   */\n      swap2\n      swap1\n      pop\n      jump\t// out\n        /* \"#utility.yul\":924:1020   */\n    tag_219:\n        /* \"#utility.yul\":961:968   */\n      0x00\n        /* \"#utility.yul\":990:1014   */\n      tag_257\n        /* \"#utility.yul\":1008:1013   */\n      dup3\n        /* \"#utility.yul\":990:1014   */\n      tag_218\n      jump\t// in\n    tag_257:\n        /* \"#utility.yul\":979:1014   */\n      swap1\n      pop\n        /* \"#utility.yul\":924:1020   */\n      swap2\n      swap1\n      pop\n      jump\t// out\n        /* \"#utility.yul\":1026:1134   */\n    tag_220:\n        /* \"#utility.yul\":1103:1127   */\n      tag_259\n        /* \"#utility.yul\":1121:1126   */\n      dup2\n        /* \"#utility.yul\":1103:1127   */\n      tag_219\n      jump\t// in\n    tag_259:\n        /* \"#utility.yul\":1098:1101   */\n      dup3\n        /* \"#utility.yul\":1091:1128   */\n      mstore\n        /* \"#utility.yul\":1026:1134   */\n      pop\n      pop\n      jump\t// out\n        /* \"#utility.yul\":1140:1319   */\n    tag_221:\n        /* \"#utility.yul\":1209:1219   */\n      0x00\n        /* \"#utility.yul\":1230:1276   */\n      tag_261\n        /* \"#utility.yul\":1272:1275   */\n      dup4\n        /* \"#utility.yul\":1264:1270   */\n      dup4\n        /* \"#utility.yul\":1230:1276   */\n      tag_220\n      jump\t// in\n    tag_261:\n        /* \"#utility.yul\":1308:1312   */\n      0x20\n        /* \"#utility.yul\":1303:1306   */\n      dup4\n        /* \"#utility.yul\":1299:1313   */\n      add\n        /* \"#utility.yul\":1285:1313   */\n      swap1\n      pop\n        /* \"#utility.yul\":1140:1319   */\n      swap3\n      swap2\n      pop\n      pop\n      jump\t// out\n        /* \"#utility.yul\":1325:1436   */\n    tag_222:\n        /* \"#utility.yul\":1393:1397   */\n      0x00\n        /* \"#utility.yul\":1425:1429   */\n      0x20\n        /* \"#utility.yul\":1420:1423   */\n      dup3\n        /* \"#utility.yul\":1416:1430   */\n      add\n        /* \"#utility.yul\":1408:1430   */\n      swap1\n      pop\n        /* \"#utility.yul\":1325:1436   */\n      swap2\n      swap1\n      pop\n      jump\t// out\n        /* \"#utility.yul\":1474:2148   */\n    tag_223:\n        /* \"#utility.yul\":1600:1652   */\n      tag_264\n        /* \"#utility.yul\":1646:1651   */\n      dup2\n        /* \"#utility.yul\":1600:1652   */\n      tag_215\n      jump\t// in\n    tag_264:\n        /* \"#utility.yul\":1668:1742   */\n      tag_265\n        /* \"#utility.yul\":1735:1741   */\n      dup2\n        /* \"#utility.yul\":1730:1733   */\n      dup5\n        /* \"#utility.yul\":1668:1742   */\n      tag_216\n      jump\t// in\n    tag_265:\n        /* \"#utility.yul\":1661:1742   */\n      swap3\n      pop\n        /* \"#utility.yul\":1766:1820   */\n      tag_266\n        /* \"#utility.yul\":1814:1819   */\n      dup3\n        /* \"#utility.yul\":1766:1820   */\n      tag_217\n      jump\t// in\n    tag_266:\n        /* \"#utility.yul\":1843:1850   */\n      dup1\n        /* \"#utility.yul\":1874:1875   */\n      0x00\n        /* \"#utility.yul\":1859:2141   */\n    tag_267:\n        /* \"#utility.yul\":1884:1890   */\n      dup4\n        /* \"#utility.yul\":1881:1882   */\n      dup2\n        /* \"#utility.yul\":1878:1891   */\n      lt\n        /* \"#utility.yul\":1859:2141   */\n      iszero\n      tag_269\n      jumpi\n        /* \"#utility.yul\":1960:1966   */\n      dup2\n        /* \"#utility.yul\":1954:1967   */\n      mload\n        /* \"#utility.yul\":1987:2050   */\n      tag_270\n        /* \"#utility.yul\":2046:2049   */\n      dup8\n        /* \"#utility.yul\":2031:2044   */\n      dup3\n        /* \"#utility.yul\":1987:2050   */\n      tag_221\n      jump\t// in\n    tag_270:\n        /* \"#utility.yul\":1980:2050   */\n      swap7\n      pop\n        /* \"#utility.yul\":2073:2131   */\n      tag_271\n        /* \"#utility.yul\":2124:2130   */\n      dup4\n        /* \"#utility.yul\":2073:2131   */\n      tag_222\n      jump\t// in\n    tag_271:\n        /* \"#utility.yul\":2063:2131   */\n      swap3\n      pop\n        /* \"#utility.yul\":1919:2141   */\n      pop\n        /* \"#utility.yul\":1906:1907   */\n      0x01\n        /* \"#utility.yul\":1903:1904   */\n      dup2\n        /* \"#utility.yul\":1899:1908   */\n      add\n        /* \"#utility.yul\":1894:1908   */\n      swap1\n      pop\n        /* \"#utility.yul\":1859:2141   */\n      jump(tag_267)\n    tag_269:\n        /* \"#utility.yul\":1863:1877   */\n      pop\n        /* \"#utility.yul\":1576:2148   */\n      pop\n      pop\n      pop\n        /* \"#utility.yul\":1474:2148   */\n      pop\n      pop\n      jump\t// out\n        /* \"#utility.yul\":2154:2425   */\n    tag_224:\n        /* \"#utility.yul\":2269:2279   */\n      0x00\n        /* \"#utility.yul\":2290:2382   */\n      tag_273\n        /* \"#utility.yul\":2378:2381   */\n      dup4\n        /* \"#utility.yul\":2370:2376   */\n      dup4\n        /* \"#utility.yul\":2290:2382   */\n      tag_223\n      jump\t// in\n    tag_273:\n        /* \"#utility.yul\":2414:2418   */\n      0x60\n        /* \"#utility.yul\":2409:2412   */\n      dup4\n        /* \"#utility.yul\":2405:2419   */\n      add\n        /* \"#utility.yul\":2391:2419   */\n      swap1\n      pop\n        /* \"#utility.yul\":2154:2425   */\n      swap3\n      swap2\n      pop\n      pop\n      jump\t// out\n        /* \"#utility.yul\":2431:2565   */\n    tag_225:\n        /* \"#utility.yul\":2522:2526   */\n      0x00\n        /* \"#utility.yul\":2554:2558   */\n      0x20\n        /* \"#utility.yul\":2549:2552   */\n      dup3\n        /* \"#utility.yul\":2545:2559   */\n      add\n        /* \"#utility.yul\":2537:2559   */\n      swap1\n      pop\n        /* \"#utility.yul\":2431:2565   */\n      swap2\n      swap1\n      pop\n      jump\t// out\n        /* \"#utility.yul\":2609:3487   */\n    tag_226:\n        /* \"#utility.yul\":2791:2866   */\n      tag_276\n        /* \"#utility.yul\":2860:2865   */\n      dup2\n        /* \"#utility.yul\":2791:2866   */\n      tag_212\n      jump\t// in\n    tag_276:\n        /* \"#utility.yul\":2882:2989   */\n      tag_277\n        /* \"#utility.yul\":2982:2988   */\n      dup2\n        /* \"#utility.yul\":2977:2980   */\n      dup5\n        /* \"#utility.yul\":2882:2989   */\n      tag_213\n      jump\t// in\n    tag_277:\n        /* \"#utility.yul\":2875:2989   */\n      swap3\n      pop\n        /* \"#utility.yul\":3013:3090   */\n      tag_278\n        /* \"#utility.yul\":3084:3089   */\n      dup3\n        /* \"#utility.yul\":3013:3090   */\n      tag_214\n      jump\t// in\n    tag_278:\n        /* \"#utility.yul\":3113:3120   */\n      dup1\n        /* \"#utility.yul\":3144:3145   */\n      0x00\n        /* \"#utility.yul\":3129:3480   */\n    tag_279:\n        /* \"#utility.yul\":3154:3160   */\n      dup4\n        /* \"#utility.yul\":3151:3152   */\n      dup2\n        /* \"#utility.yul\":3148:3161   */\n      lt\n        /* \"#utility.yul\":3129:3480   */\n      iszero\n      tag_281\n      jumpi\n        /* \"#utility.yul\":3230:3236   */\n      dup2\n        /* \"#utility.yul\":3224:3237   */\n      mload\n        /* \"#utility.yul\":3257:3366   */\n      tag_282\n        /* \"#utility.yul\":3362:3365   */\n      dup8\n        /* \"#utility.yul\":3347:3360   */\n      dup3\n        /* \"#utility.yul\":3257:3366   */\n      tag_224\n      jump\t// in\n    tag_282:\n        /* \"#utility.yul\":3250:3366   */\n      swap7\n      pop\n        /* \"#utility.yul\":3389:3470   */\n      tag_283\n        /* \"#utility.yul\":3463:3469   */\n      dup4\n        /* \"#utility.yul\":3389:3470   */\n      tag_225\n      jump\t// in\n    tag_283:\n        /* \"#utility.yul\":3379:3470   */\n      swap3\n      pop\n        /* \"#utility.yul\":3189:3480   */\n      pop\n        /* \"#utility.yul\":3176:3177   */\n      0x01\n        /* \"#utility.yul\":3173:3174   */\n      dup2\n        /* \"#utility.yul\":3169:3178   */\n      add\n        /* \"#utility.yul\":3164:3178   */\n      swap1\n      pop\n        /* \"#utility.yul\":3129:3480   */\n      jump(tag_279)\n    tag_281:\n        /* \"#utility.yul\":3133:3147   */\n      pop\n        /* \"#utility.yul\":2767:3487   */\n      pop\n      pop\n      pop\n        /* \"#utility.yul\":2609:3487   */\n      pop\n      pop\n      jump\t// out\n        /* \"#utility.yul\":3493:3900   */\n    tag_16:\n        /* \"#utility.yul\":3678:3682   */\n      0x00\n        /* \"#utility.yul\":3716:3719   */\n      0x0120\n        /* \"#utility.yul\":3705:3714   */\n      dup3\n        /* \"#utility.yul\":3701:3720   */\n      add\n        /* \"#utility.yul\":3693:3720   */\n      swap1\n      pop\n        /* \"#utility.yul\":3730:3893   */\n      tag_285\n        /* \"#utility.yul\":3890:3891   */\n      0x00\n        /* \"#utility.yul\":3879:3888   */\n      dup4\n        /* \"#utility.yul\":3875:3892   */\n      add\n        /* \"#utility.yul\":3866:3872   */\n      dup5\n        /* \"#utility.yul\":3730:3893   */\n      tag_226\n      jump\t// in\n    tag_285:\n        /* \"#utility.yul\":3493:3900   */\n      swap3\n      swap2\n      pop\n      pop\n      jump\t// out\n        /* \"#utility.yul\":3906:4010   */\n    tag_227:\n        /* \"#utility.yul\":3951:3958   */\n      0x00\n        /* \"#utility.yul\":3980:4004   */\n      tag_287\n        /* \"#utility.yul\":3998:4003   */\n      dup3\n        /* \"#utility.yul\":3980:4004   */\n      tag_218\n      jump\t// in\n    tag_287:\n        /* \"#utility.yul\":3969:4004   */\n      swap1\n      pop\n        /* \"#utility.yul\":3906:4010   */\n      swap2\n      swap1\n      pop\n      jump\t// out\n        /* \"#utility.yul\":4016:4158   */\n    tag_228:\n        /* \"#utility.yul\":4119:4151   */\n      tag_289\n        /* \"#utility.yul\":4145:4150   */\n      dup2\n        /* \"#utility.yul\":4119:4151   */\n      tag_227\n      jump\t// in\n    tag_289:\n        /* \"#utility.yul\":4114:4117   */\n      dup3\n        /* \"#utility.yul\":4107:4152   */\n      mstore\n        /* \"#utility.yul\":4016:4158   */\n      pop\n      pop\n      jump\t// out\n        /* \"#utility.yul\":4164:4418   */\n    tag_21:\n        /* \"#utility.yul\":4273:4277   */\n      0x00\n        /* \"#utility.yul\":4311:4313   */\n      0x20\n        /* \"#utility.yul\":4300:4309   */\n      dup3\n        /* \"#utility.yul\":4296:4314   */\n      add\n        /* \"#utility.yul\":4288:4314   */\n      swap1\n      pop\n        /* \"#utility.yul\":4324:4411   */\n      tag_291\n        /* \"#utility.yul\":4408:4409   */\n      0x00\n        /* \"#utility.yul\":4397:4406   */\n      dup4\n        /* \"#utility.yul\":4393:4410   */\n      add\n        /* \"#utility.yul\":4384:4390   */\n      dup5\n        /* \"#utility.yul\":4324:4411   */\n      tag_228\n      jump\t// in\n    tag_291:\n        /* \"#utility.yul\":4164:4418   */\n      swap3\n      swap2\n      pop\n      pop\n      jump\t// out\n        /* \"#utility.yul\":4505:4622   */\n    tag_230:\n        /* \"#utility.yul\":4614:4615   */\n      0x00\n        /* \"#utility.yul\":4611:4612   */\n      dup1\n        /* \"#utility.yul\":4604:4616   */\n      revert\n        /* \"#utility.yul\":4751:4837   */\n    tag_232:\n        /* \"#utility.yul\":4786:4793   */\n      0x00\n        /* \"#utility.yul\":4826:4830   */\n      0xff\n        /* \"#utility.yul\":4819:4824   */\n      dup3\n        /* \"#utility.yul\":4815:4831   */\n      and\n        /* \"#utility.yul\":4804:4831   */\n      swap1\n      pop\n        /* \"#utility.yul\":4751:4837   */\n      swap2\n      swap1\n      pop\n      jump\t// out\n        /* \"#utility.yul\":4843:4961   */\n    tag_233:\n        /* \"#utility.yul\":4914:4936   */\n      tag_297\n        /* \"#utility.yul\":4930:4935   */\n      dup2\n        /* \"#utility.yul\":4914:4936   */\n      tag_232\n      jump\t// in\n    tag_297:\n        /* \"#utility.yul\":4907:4912   */\n      dup2\n        /* \"#utility.yul\":4904:4937   */\n      eq\n        /* \"#utility.yul\":4894:4955   */\n      tag_298\n      jumpi\n        /* \"#utility.yul\":4951:4952   */\n      0x00\n        /* \"#utility.yul\":4948:4949   */\n      dup1\n        /* \"#utility.yul\":4941:4953   */\n      revert\n        /* \"#utility.yul\":4894:4955   */\n    tag_298:\n        /* \"#utility.yul\":4843:4961   */\n      pop\n      jump\t// out\n        /* \"#utility.yul\":4967:5102   */\n    tag_234:\n        /* \"#utility.yul\":5011:5016   */\n      0x00\n        /* \"#utility.yul\":5049:5055   */\n      dup2\n        /* \"#utility.yul\":5036:5056   */\n      calldataload\n        /* \"#utility.yul\":5027:5056   */\n      swap1\n      pop\n        /* \"#utility.yul\":5065:5096   */\n      tag_300\n        /* \"#utility.yul\":5090:5095   */\n      dup2\n        /* \"#utility.yul\":5065:5096   */\n      tag_233\n      jump\t// in\n    tag_300:\n        /* \"#utility.yul\":4967:5102   */\n      swap3\n      swap2\n      pop\n      pop\n      jump\t// out\n        /* \"#utility.yul\":5108:5574   */\n    tag_25:\n        /* \"#utility.yul\":5172:5178   */\n      0x00\n        /* \"#utility.yul\":5180:5186   */\n      dup1\n        /* \"#utility.yul\":5229:5231   */\n      0x40\n        /* \"#utility.yul\":5217:5226   */\n      dup4\n        /* \"#utility.yul\":5208:5215   */\n      dup6\n        /* \"#utility.yul\":5204:5227   */\n      sub\n        /* \"#utility.yul\":5200:5232   */\n      slt\n        /* \"#utility.yul\":5197:5316   */\n      iszero\n      tag_302\n      jumpi\n        /* \"#utility.yul\":5235:5314   */\n      tag_303\n      tag_230\n      jump\t// in\n    tag_303:\n        /* \"#utility.yul\":5197:5316   */\n    tag_302:\n        /* \"#utility.yul\":5355:5356   */\n      0x00\n        /* \"#utility.yul\":5380:5431   */\n      tag_304\n        /* \"#utility.yul\":5423:5430   */\n      dup6\n        /* \"#utility.yul\":5414:5420   */\n      dup3\n        /* \"#utility.yul\":5403:5412   */\n      dup7\n        /* \"#utility.yul\":5399:5421   */\n      add\n        /* \"#utility.yul\":5380:5431   */\n      tag_234\n      jump\t// in\n    tag_304:\n        /* \"#utility.yul\":5370:5431   */\n      swap3\n      pop\n        /* \"#utility.yul\":5326:5441   */\n      pop\n        /* \"#utility.yul\":5480:5482   */\n      0x20\n        /* \"#utility.yul\":5506:5557   */\n      tag_305\n        /* \"#utility.yul\":5549:5556   */\n      dup6\n        /* \"#utility.yul\":5540:5546   */\n      dup3\n        /* \"#utility.yul\":5529:5538   */\n      dup7\n        /* \"#utility.yul\":5525:5547   */\n      add\n        /* \"#utility.yul\":5506:5557   */\n      tag_234\n      jump\t// in\n    tag_305:\n        /* \"#utility.yul\":5496:5557   */\n      swap2\n      pop\n        /* \"#utility.yul\":5451:5567   */\n      pop\n        /* \"#utility.yul\":5108:5574   */\n      swap3\n      pop\n      swap3\n      swap1\n      pop\n      jump\t// out\n        /* \"#utility.yul\":5580:5692   */\n    tag_235:\n        /* \"#utility.yul\":5663:5685   */\n      tag_307\n        /* \"#utility.yul\":5679:5684   */\n      dup2\n        /* \"#utility.yul\":5663:5685   */\n      tag_232\n      jump\t// in\n    tag_307:\n        /* \"#utility.yul\":5658:5661   */\n      dup3\n        /* \"#utility.yul\":5651:5686   */\n      mstore\n        /* \"#utility.yul\":5580:5692   */\n      pop\n      pop\n      jump\t// out\n        /* \"#utility.yul\":5698:5912   */\n    tag_31:\n        /* \"#utility.yul\":5787:5791   */\n      0x00\n        /* \"#utility.yul\":5825:5827   */\n      0x20\n        /* \"#utility.yul\":5814:5823   */\n      dup3\n        /* \"#utility.yul\":5810:5828   */\n      add\n        /* \"#utility.yul\":5802:5828   */\n      swap1\n      pop\n        /* \"#utility.yul\":5838:5905   */\n      tag_309\n        /* \"#utility.yul\":5902:5903   */\n      0x00\n        /* \"#utility.yul\":5891:5900   */\n      dup4\n        /* \"#utility.yul\":5887:5904   */\n      add\n        /* \"#utility.yul\":5878:5884   */\n      dup5\n        /* \"#utility.yul\":5838:5905   */\n      tag_235\n      jump\t// in\n    tag_309:\n        /* \"#utility.yul\":5698:5912   */\n      swap3\n      swap2\n      pop\n      pop\n      jump\t// out\n        /* \"#utility.yul\":5918:5995   */\n    tag_236:\n        /* \"#utility.yul\":5955:5962   */\n      0x00\n        /* \"#utility.yul\":5984:5989   */\n      dup2\n        /* \"#utility.yul\":5973:5989   */\n      swap1\n      pop\n        /* \"#utility.yul\":5918:5995   */\n      swap2\n      swap1\n      pop\n      jump\t// out\n        /* \"#utility.yul\":6001:6119   */\n    tag_237:\n        /* \"#utility.yul\":6088:6112   */\n      tag_312\n        /* \"#utility.yul\":6106:6111   */\n      dup2\n        /* \"#utility.yul\":6088:6112   */\n      tag_236\n      jump\t// in\n    tag_312:\n        /* \"#utility.yul\":6083:6086   */\n      dup3\n        /* \"#utility.yul\":6076:6113   */\n      mstore\n        /* \"#utility.yul\":6001:6119   */\n      pop\n      pop\n      jump\t// out\n        /* \"#utility.yul\":6125:6347   */\n    tag_36:\n        /* \"#utility.yul\":6218:6222   */\n      0x00\n        /* \"#utility.yul\":6256:6258   */\n      0x20\n        /* \"#utility.yul\":6245:6254   */\n      dup3\n        /* \"#utility.yul\":6241:6259   */\n      add\n        /* \"#utility.yul\":6233:6259   */\n      swap1\n      pop\n        /* \"#utility.yul\":6269:6340   */\n      tag_314\n        /* \"#utility.yul\":6337:6338   */\n      0x00\n        /* \"#utility.yul\":6326:6335   */\n      dup4\n        /* \"#utility.yul\":6322:6339   */\n      add\n        /* \"#utility.yul\":6313:6319   */\n      dup5\n        /* \"#utility.yul\":6269:6340   */\n      tag_237\n      jump\t// in\n    tag_314:\n        /* \"#utility.yul\":6125:6347   */\n      swap3\n      swap2\n      pop\n      pop\n      jump\t// out\n        /* \"#utility.yul\":6353:6533   */\n    tag_60:\n        /* \"#utility.yul\":6401:6478   */\n      0x4e487b7100000000000000000000000000000000000000000000000000000000\n        /* \"#utility.yul\":6398:6399   */\n      0x00\n        /* \"#utility.yul\":6391:6479   */\n      mstore\n        /* \"#utility.yul\":6498:6502   */\n      0x32\n        /* \"#utility.yul\":6495:6496   */\n      0x04\n        /* \"#utility.yul\":6488:6503   */\n      mstore\n        /* \"#utility.yul\":6522:6526   */\n      0x24\n        /* \"#utility.yul\":6519:6520   */\n      0x00\n        /* \"#utility.yul\":6512:6527   */\n      revert\n        /* \"#utility.yul\":6539:6719   */\n    tag_69:\n        /* \"#utility.yul\":6587:6664   */\n      0x4e487b7100000000000000000000000000000000000000000000000000000000\n        /* \"#utility.yul\":6584:6585   */\n      0x00\n        /* \"#utility.yul\":6577:6665   */\n      mstore\n        /* \"#utility.yul\":6684:6688   */\n      0x01\n        /* \"#utility.yul\":6681:6682   */\n      0x04\n        /* \"#utility.yul\":6674:6689   */\n      mstore\n        /* \"#utility.yul\":6708:6712   */\n      0x24\n        /* \"#utility.yul\":6705:6706   */\n      0x00\n        /* \"#utility.yul\":6698:6713   */\n      revert\n        /* \"#utility.yul\":6725:6905   */\n    tag_238:\n        /* \"#utility.yul\":6773:6850   */\n      0x4e487b7100000000000000000000000000000000000000000000000000000000\n        /* \"#utility.yul\":6770:6771   */\n      0x00\n        /* \"#utility.yul\":6763:6851   */\n      mstore\n        /* \"#utility.yul\":6870:6874   */\n      0x11\n        /* \"#utility.yul\":6867:6868   */\n      0x04\n        /* \"#utility.yul\":6860:6875   */\n      mstore\n        /* \"#utility.yul\":6894:6898   */\n      0x24\n        /* \"#utility.yul\":6891:6892   */\n      0x00\n        /* \"#utility.yul\":6884:6899   */\n      revert\n        /* \"#utility.yul\":6911:7078   */\n    tag_82:\n        /* \"#utility.yul\":6948:6951   */\n      0x00\n        /* \"#utility.yul\":6971:6993   */\n      tag_319\n        /* \"#utility.yul\":6987:6992   */\n      dup3\n        /* \"#utility.yul\":6971:6993   */\n      tag_232\n      jump\t// in\n    tag_319:\n        /* \"#utility.yul\":6962:6993   */\n      swap2\n      pop\n        /* \"#utility.yul\":7015:7019   */\n      0xff\n        /* \"#utility.yul\":7008:7013   */\n      dup3\n        /* \"#utility.yul\":7005:7020   */\n      sub\n        /* \"#utility.yul\":7002:7043   */\n      tag_320\n      jumpi\n        /* \"#utility.yul\":7023:7041   */\n      tag_321\n      tag_238\n      jump\t// in\n    tag_321:\n        /* \"#utility.yul\":7002:7043   */\n    tag_320:\n        /* \"#utility.yul\":7070:7071   */\n      0x01\n        /* \"#utility.yul\":7063:7068   */\n      dup3\n        /* \"#utility.yul\":7059:7072   */\n      add\n        /* \"#utility.yul\":7052:7072   */\n      swap1\n      pop\n        /* \"#utility.yul\":6911:7078   */\n      swap2\n      swap1\n      pop\n      jump\t// out\n        /* \"#utility.yul\":7084:7389   */\n    tag_84:\n        /* \"#utility.yul\":7124:7127   */\n      0x00\n        /* \"#utility.yul\":7143:7163   */\n      tag_323\n        /* \"#utility.yul\":7161:7162   */\n      dup3\n        /* \"#utility.yul\":7143:7163   */\n      tag_236\n      jump\t// in\n    tag_323:\n        /* \"#utility.yul\":7138:7163   */\n      swap2\n      pop\n        /* \"#utility.yul\":7177:7197   */\n      tag_324\n        /* \"#utility.yul\":7195:7196   */\n      dup4\n        /* \"#utility.yul\":7177:7197   */\n      tag_236\n      jump\t// in\n    tag_324:\n        /* \"#utility.yul\":7172:7197   */\n      swap3\n      pop\n        /* \"#utility.yul\":7331:7332   */\n      dup3\n        /* \"#utility.yul\":7263:7329   */\n      0xffffffffffffffffffffffffffffffffffffffffffffffffffffffffffffffff\n        /* \"#utility.yul\":7259:7333   */\n      sub\n        /* \"#utility.yul\":7256:7257   */\n      dup3\n        /* \"#utility.yul\":7253:7334   */\n      gt\n        /* \"#utility.yul\":7250:7357   */\n      iszero\n      tag_325\n      jumpi\n        /* \"#utility.yul\":7337:7355   */\n      tag_326\n      tag_238\n      jump\t// in\n    tag_326:\n        /* \"#utility.yul\":7250:7357   */\n    tag_325:\n        /* \"#utility.yul\":7381:7382   */\n      dup3\n        /* \"#utility.yul\":7378:7379   */\n      dup3\n        /* \"#utility.yul\":7374:7383   */\n      add\n        /* \"#utility.yul\":7367:7383   */\n      swap1\n      pop\n        /* \"#utility.yul\":7084:7389   */\n      swap3\n      swap2\n      pop\n      pop\n      jump\t// out\n        /* \"#utility.yul\":7395:7580   */\n    tag_96:\n        /* \"#utility.yul\":7433:7437   */\n      0x00\n        /* \"#utility.yul\":7453:7471   */\n      tag_328\n        /* \"#utility.yul\":7469:7470   */\n      dup3\n        /* \"#utility.yul\":7453:7471   */\n      tag_232\n      jump\t// in\n    tag_328:\n        /* \"#utility.yul\":7448:7471   */\n      swap2\n      pop\n        /* \"#utility.yul\":7485:7503   */\n      tag_329\n        /* \"#utility.yul\":7501:7502   */\n      dup4\n        /* \"#utility.yul\":7485:7503   */\n      tag_232\n      jump\t// in\n    tag_329:\n        /* \"#utility.yul\":7480:7503   */\n      swap3\n      pop\n        /* \"#utility.yul\":7522:7523   */\n      dup3\n        /* \"#utility.yul\":7519:7520   */\n      dup3\n        /* \"#utility.yul\":7516:7524   */\n      lt\n        /* \"#utility.yul\":7513:7547   */\n      iszero\n      tag_330\n      jumpi\n        /* \"#utility.yul\":7527:7545   */\n      tag_331\n      tag_238\n      jump\t// in\n    tag_331:\n        /* \"#utility.yul\":7513:7547   */\n    tag_330:\n        /* \"#utility.yul\":7572:7573   */\n      dup3\n        /* \"#utility.yul\":7569:7570   */\n      dup3\n        /* \"#utility.yul\":7565:7574   */\n      sub\n        /* \"#utility.yul\":7557:7574   */\n      swap1\n      pop\n        /* \"#utility.yul\":7395:7580   */\n      swap3\n      swap2\n      pop\n      pop\n      jump\t// out\n        /* \"#utility.yul\":7586:7819   */\n    tag_115:\n        /* \"#utility.yul\":7625:7628   */\n      0x00\n        /* \"#utility.yul\":7648:7672   */\n      tag_333\n        /* \"#utility.yul\":7666:7671   */\n      dup3\n        /* \"#utility.yul\":7648:7672   */\n      tag_236\n      jump\t// in\n    tag_333:\n        /* \"#utility.yul\":7639:7672   */\n      swap2\n      pop\n        /* \"#utility.yul\":7694:7760   */\n      0xffffffffffffffffffffffffffffffffffffffffffffffffffffffffffffffff\n        /* \"#utility.yul\":7687:7692   */\n      dup3\n        /* \"#utility.yul\":7684:7761   */\n      sub\n        /* \"#utility.yul\":7681:7784   */\n      tag_334\n      jumpi\n        /* \"#utility.yul\":7764:7782   */\n      tag_335\n      tag_238\n      jump\t// in\n    tag_335:\n        /* \"#utility.yul\":7681:7784   */\n    tag_334:\n        /* \"#utility.yul\":7811:7812   */\n      0x01\n        /* \"#utility.yul\":7804:7809   */\n      dup3\n        /* \"#utility.yul\":7800:7813   */\n      add\n        /* \"#utility.yul\":7793:7813   */\n      swap1\n      pop\n        /* \"#utility.yul\":7586:7819   */\n      swap2\n      swap1\n      pop\n      jump\t// out\n        /* \"#utility.yul\":7825:8062   */\n    tag_133:\n        /* \"#utility.yul\":7863:7866   */\n      0x00\n        /* \"#utility.yul\":7882:7900   */\n      tag_337\n        /* \"#utility.yul\":7898:7899   */\n      dup3\n        /* \"#utility.yul\":7882:7900   */\n      tag_232\n      jump\t// in\n    tag_337:\n        /* \"#utility.yul\":7877:7900   */\n      swap2\n      pop\n        /* \"#utility.yul\":7914:7932   */\n      tag_338\n        /* \"#utility.yul\":7930:7931   */\n      dup4\n        /* \"#utility.yul\":7914:7932   */\n      tag_232\n      jump\t// in\n    tag_338:\n        /* \"#utility.yul\":7909:7932   */\n      swap3\n      pop\n        /* \"#utility.yul\":8004:8005   */\n      dup3\n        /* \"#utility.yul\":7998:8002   */\n      0xff\n        /* \"#utility.yul\":7994:8006   */\n      sub\n        /* \"#utility.yul\":7991:7992   */\n      dup3\n        /* \"#utility.yul\":7988:8007   */\n      gt\n        /* \"#utility.yul\":7985:8030   */\n      iszero\n      tag_339\n      jumpi\n        /* \"#utility.yul\":8010:8028   */\n      tag_340\n      tag_238\n      jump\t// in\n    tag_340:\n        /* \"#utility.yul\":7985:8030   */\n    tag_339:\n        /* \"#utility.yul\":8054:8055   */\n      dup3\n        /* \"#utility.yul\":8051:8052   */\n      dup3\n        /* \"#utility.yul\":8047:8056   */\n      add\n        /* \"#utility.yul\":8040:8056   */\n      swap1\n      pop\n        /* \"#utility.yul\":7825:8062   */\n      swap3\n      swap2\n      pop\n      pop\n      jump\t// out\n        /* \"#utility.yul\":8068:8259   */\n    tag_143:\n        /* \"#utility.yul\":8108:8112   */\n      0x00\n        /* \"#utility.yul\":8128:8148   */\n      tag_342\n        /* \"#utility.yul\":8146:8147   */\n      dup3\n        /* \"#utility.yul\":8128:8148   */\n      tag_236\n      jump\t// in\n    tag_342:\n        /* \"#utility.yul\":8123:8148   */\n      swap2\n      pop\n        /* \"#utility.yul\":8162:8182   */\n      tag_343\n        /* \"#utility.yul\":8180:8181   */\n      dup4\n        /* \"#utility.yul\":8162:8182   */\n      tag_236\n      jump\t// in\n    tag_343:\n        /* \"#utility.yul\":8157:8182   */\n      swap3\n      pop\n        /* \"#utility.yul\":8201:8202   */\n      dup3\n        /* \"#utility.yul\":8198:8199   */\n      dup3\n        /* \"#utility.yul\":8195:8203   */\n      lt\n        /* \"#utility.yul\":8192:8226   */\n      iszero\n      tag_344\n      jumpi\n        /* \"#utility.yul\":8206:8224   */\n      tag_345\n      tag_238\n      jump\t// in\n    tag_345:\n        /* \"#utility.yul\":8192:8226   */\n    tag_344:\n        /* \"#utility.yul\":8251:8252   */\n      dup3\n        /* \"#utility.yul\":8248:8249   */\n      dup3\n        /* \"#utility.yul\":8244:8253   */\n      sub\n        /* \"#utility.yul\":8236:8253   */\n      swap1\n      pop\n        /* \"#utility.yul\":8068:8259   */\n      swap3\n      swap2\n      pop\n      pop\n      jump\t// out\n        /* \"#utility.yul\":8265:8367   */\n    tag_239:\n        /* \"#utility.yul\":8307:8315   */\n      0x00\n        /* \"#utility.yul\":8354:8359   */\n      dup2\n        /* \"#utility.yul\":8351:8352   */\n      0x01\n        /* \"#utility.yul\":8347:8360   */\n      shr\n        /* \"#utility.yul\":8326:8360   */\n      swap1\n      pop\n        /* \"#utility.yul\":8265:8367   */\n      swap2\n      swap1\n      pop\n      jump\t// out\n        /* \"#utility.yul\":8373:9221   */\n    tag_240:\n        /* \"#utility.yul\":8434:8439   */\n      0x00\n        /* \"#utility.yul\":8441:8445   */\n      dup1\n        /* \"#utility.yul\":8465:8471   */\n      dup3\n        /* \"#utility.yul\":8456:8471   */\n      swap2\n      pop\n        /* \"#utility.yul\":8489:8494   */\n      dup4\n        /* \"#utility.yul\":8480:8494   */\n      swap1\n      pop\n        /* \"#utility.yul\":8503:9215   */\n    tag_348:\n        /* \"#utility.yul\":8524:8525   */\n      0x01\n        /* \"#utility.yul\":8514:8522   */\n      dup6\n        /* \"#utility.yul\":8511:8526   */\n      gt\n        /* \"#utility.yul\":8503:9215   */\n      iszero\n      tag_350\n      jumpi\n        /* \"#utility.yul\":8619:8623   */\n      dup1\n        /* \"#utility.yul\":8614:8617   */\n      dup7\n        /* \"#utility.yul\":8610:8624   */\n      div\n        /* \"#utility.yul\":8604:8608   */\n      dup2\n        /* \"#utility.yul\":8601:8625   */\n      gt\n        /* \"#utility.yul\":8598:8648   */\n      iszero\n      tag_351\n      jumpi\n        /* \"#utility.yul\":8628:8646   */\n      tag_352\n      tag_238\n      jump\t// in\n    tag_352:\n        /* \"#utility.yul\":8598:8648   */\n    tag_351:\n        /* \"#utility.yul\":8678:8679   */\n      0x01\n        /* \"#utility.yul\":8668:8676   */\n      dup6\n        /* \"#utility.yul\":8664:8680   */\n      and\n        /* \"#utility.yul\":8661:9112   */\n      iszero\n      tag_353\n      jumpi\n        /* \"#utility.yul\":9093:9097   */\n      dup1\n        /* \"#utility.yul\":9086:9091   */\n      dup3\n        /* \"#utility.yul\":9082:9098   */\n      mul\n        /* \"#utility.yul\":9073:9098   */\n      swap2\n      pop\n        /* \"#utility.yul\":8661:9112   */\n    tag_353:\n        /* \"#utility.yul\":9143:9147   */\n      dup1\n        /* \"#utility.yul\":9137:9141   */\n      dup2\n        /* \"#utility.yul\":9133:9148   */\n      mul\n        /* \"#utility.yul\":9125:9148   */\n      swap1\n      pop\n        /* \"#utility.yul\":9173:9205   */\n      tag_354\n        /* \"#utility.yul\":9196:9204   */\n      dup6\n        /* \"#utility.yul\":9173:9205   */\n      tag_239\n      jump\t// in\n    tag_354:\n        /* \"#utility.yul\":9161:9205   */\n      swap5\n      pop\n        /* \"#utility.yul\":8503:9215   */\n      jump(tag_348)\n    tag_350:\n        /* \"#utility.yul\":8373:9221   */\n      swap5\n      pop\n      swap5\n      swap3\n      pop\n      pop\n      pop\n      jump\t// out\n        /* \"#utility.yul\":9227:10300   */\n    tag_241:\n        /* \"#utility.yul\":9281:9286   */\n      0x00\n        /* \"#utility.yul\":9472:9480   */\n      dup3\n        /* \"#utility.yul\":9462:9502   */\n      tag_356\n      jumpi\n        /* \"#utility.yul\":9493:9494   */\n      0x01\n        /* \"#utility.yul\":9484:9494   */\n      swap1\n      pop\n        /* \"#utility.yul\":9495:9500   */\n      jump(tag_355)\n        /* \"#utility.yul\":9462:9502   */\n    tag_356:\n        /* \"#utility.yul\":9521:9525   */\n      dup2\n        /* \"#utility.yul\":9511:9547   */\n      tag_357\n      jumpi\n        /* \"#utility.yul\":9538:9539   */\n      0x00\n        /* \"#utility.yul\":9529:9539   */\n      swap1\n      pop\n        /* \"#utility.yul\":9540:9545   */\n      jump(tag_355)\n        /* \"#utility.yul\":9511:9547   */\n    tag_357:\n        /* \"#utility.yul\":9607:9611   */\n      dup2\n        /* \"#utility.yul\":9655:9656   */\n      0x01\n        /* \"#utility.yul\":9650:9677   */\n      dup2\n      eq\n      tag_359\n      jumpi\n        /* \"#utility.yul\":9691:9692   */\n      0x02\n        /* \"#utility.yul\":9686:9877   */\n      dup2\n      eq\n      tag_360\n      jumpi\n        /* \"#utility.yul\":9600:9877   */\n      jump(tag_358)\n        /* \"#utility.yul\":9650:9677   */\n    tag_359:\n        /* \"#utility.yul\":9668:9669   */\n      0x01\n        /* \"#utility.yul\":9659:9669   */\n      swap2\n      pop\n        /* \"#utility.yul\":9670:9675   */\n      pop\n      jump(tag_355)\n        /* \"#utility.yul\":9686:9877   */\n    tag_360:\n        /* \"#utility.yul\":9731:9734   */\n      0xff\n        /* \"#utility.yul\":9721:9729   */\n      dup5\n        /* \"#utility.yul\":9718:9735   */\n      gt\n        /* \"#utility.yul\":9715:9758   */\n      iszero\n      tag_361\n      jumpi\n        /* \"#utility.yul\":9738:9756   */\n      tag_362\n      tag_238\n      jump\t// in\n    tag_362:\n        /* \"#utility.yul\":9715:9758   */\n    tag_361:\n        /* \"#utility.yul\":9787:9795   */\n      dup4\n        /* \"#utility.yul\":9784:9785   */\n      0x02\n        /* \"#utility.yul\":9780:9796   */\n      exp\n        /* \"#utility.yul\":9771:9796   */\n      swap2\n      pop\n        /* \"#utility.yul\":9822:9825   */\n      dup5\n        /* \"#utility.yul\":9815:9820   */\n      dup3\n        /* \"#utility.yul\":9812:9826   */\n      gt\n        /* \"#utility.yul\":9809:9849   */\n      iszero\n      tag_363\n      jumpi\n        /* \"#utility.yul\":9829:9847   */\n      tag_364\n      tag_238\n      jump\t// in\n    tag_364:\n        /* \"#utility.yul\":9809:9849   */\n    tag_363:\n        /* \"#utility.yul\":9862:9867   */\n      pop\n      jump(tag_355)\n        /* \"#utility.yul\":9600:9877   */\n    tag_358:\n      pop\n        /* \"#utility.yul\":9986:9988   */\n      0x20\n        /* \"#utility.yul\":9976:9984   */\n      dup4\n        /* \"#utility.yul\":9973:9989   */\n      lt\n        /* \"#utility.yul\":9967:9970   */\n      0x0133\n        /* \"#utility.yul\":9961:9965   */\n      dup4\n        /* \"#utility.yul\":9958:9971   */\n      lt\n        /* \"#utility.yul\":9954:9990   */\n      and\n        /* \"#utility.yul\":9936:9938   */\n      0x4e\n        /* \"#utility.yul\":9926:9934   */\n      dup5\n        /* \"#utility.yul\":9923:9939   */\n      lt\n        /* \"#utility.yul\":9918:9920   */\n      0x0b\n        /* \"#utility.yul\":9912:9916   */\n      dup5\n        /* \"#utility.yul\":9909:9921   */\n      lt\n        /* \"#utility.yul\":9905:9940   */\n      and\n        /* \"#utility.yul\":9889:10000   */\n      or\n        /* \"#utility.yul\":9886:10132   */\n      iszero\n      tag_365\n      jumpi\n        /* \"#utility.yul\":10042:10050   */\n      dup3\n        /* \"#utility.yul\":10036:10040   */\n      dup3\n        /* \"#utility.yul\":10032:10051   */\n      exp\n        /* \"#utility.yul\":10023:10051   */\n      swap1\n      pop\n        /* \"#utility.yul\":10077:10080   */\n      dup4\n        /* \"#utility.yul\":10070:10075   */\n      dup2\n        /* \"#utility.yul\":10067:10081   */\n      gt\n        /* \"#utility.yul\":10064:10104   */\n      iszero\n      tag_366\n      jumpi\n        /* \"#utility.yul\":10084:10102   */\n      tag_367\n      tag_238\n      jump\t// in\n    tag_367:\n        /* \"#utility.yul\":10064:10104   */\n    tag_366:\n        /* \"#utility.yul\":10117:10122   */\n      jump(tag_355)\n        /* \"#utility.yul\":9886:10132   */\n    tag_365:\n        /* \"#utility.yul\":10157:10199   */\n      tag_368\n        /* \"#utility.yul\":10195:10198   */\n      dup5\n        /* \"#utility.yul\":10185:10193   */\n      dup5\n        /* \"#utility.yul\":10179:10183   */\n      dup5\n        /* \"#utility.yul\":10176:10177   */\n      0x01\n        /* \"#utility.yul\":10157:10199   */\n      tag_240\n      jump\t// in\n    tag_368:\n        /* \"#utility.yul\":10142:10199   */\n      swap3\n      pop\n      swap1\n      pop\n        /* \"#utility.yul\":10231:10235   */\n      dup2\n        /* \"#utility.yul\":10226:10229   */\n      dup5\n        /* \"#utility.yul\":10222:10236   */\n      div\n        /* \"#utility.yul\":10215:10220   */\n      dup2\n        /* \"#utility.yul\":10212:10237   */\n      gt\n        /* \"#utility.yul\":10209:10260   */\n      iszero\n      tag_369\n      jumpi\n        /* \"#utility.yul\":10240:10258   */\n      tag_370\n      tag_238\n      jump\t// in\n    tag_370:\n        /* \"#utility.yul\":10209:10260   */\n    tag_369:\n        /* \"#utility.yul\":10289:10293   */\n      dup2\n        /* \"#utility.yul\":10282:10287   */\n      dup2\n        /* \"#utility.yul\":10278:10294   */\n      mul\n        /* \"#utility.yul\":10269:10294   */\n      swap1\n      pop\n        /* \"#utility.yul\":9227:10300   */\n    tag_355:\n      swap4\n      swap3\n      pop\n      pop\n      pop\n      jump\t// out\n        /* \"#utility.yul\":10306:10521   */\n    tag_153:\n        /* \"#utility.yul\":10362:10367   */\n      0x00\n        /* \"#utility.yul\":10386:10407   */\n      tag_372\n        /* \"#utility.yul\":10402:10406   */\n      dup3\n        /* \"#utility.yul\":10386:10407   */\n      tag_232\n      jump\t// in\n    tag_372:\n        /* \"#utility.yul\":10378:10407   */\n      swap2\n      pop\n        /* \"#utility.yul\":10428:10453   */\n      tag_373\n        /* \"#utility.yul\":10444:10452   */\n      dup4\n        /* \"#utility.yul\":10428:10453   */\n      tag_232\n      jump\t// in\n    tag_373:\n        /* \"#utility.yul\":10416:10453   */\n      swap3\n      pop\n        /* \"#utility.yul\":10472:10514   */\n      tag_374\n        /* \"#utility.yul\":10509:10513   */\n      0xff\n        /* \"#utility.yul\":10499:10507   */\n      dup5\n        /* \"#utility.yul\":10493:10497   */\n      dup5\n        /* \"#utility.yul\":10472:10514   */\n      tag_241\n      jump\t// in\n    tag_374:\n        /* \"#utility.yul\":10463:10514   */\n      swap1\n      pop\n        /* \"#utility.yul\":10306:10521   */\n      swap3\n      swap2\n      pop\n      pop\n      jump\t// out\n        /* \"#utility.yul\":10527:10587   */\n    tag_242:\n        /* \"#utility.yul\":10555:10558   */\n      0x00\n        /* \"#utility.yul\":10576:10581   */\n      dup2\n        /* \"#utility.yul\":10569:10581   */\n      swap1\n      pop\n        /* \"#utility.yul\":10527:10587   */\n      swap2\n      swap1\n      pop\n      jump\t// out\n        /* \"#utility.yul\":10593:10735   */\n    tag_243:\n        /* \"#utility.yul\":10643:10652   */\n      0x00\n        /* \"#utility.yul\":10676:10729   */\n      tag_377\n        /* \"#utility.yul\":10694:10728   */\n      tag_378\n        /* \"#utility.yul\":10703:10727   */\n      tag_379\n        /* \"#utility.yul\":10721:10726   */\n      dup5\n        /* \"#utility.yul\":10703:10727   */\n      tag_218\n      jump\t// in\n    tag_379:\n        /* \"#utility.yul\":10694:10728   */\n      tag_242\n      jump\t// in\n    tag_378:\n        /* \"#utility.yul\":10676:10729   */\n      tag_218\n      jump\t// in\n    tag_377:\n        /* \"#utility.yul\":10663:10729   */\n      swap1\n      pop\n        /* \"#utility.yul\":10593:10735   */\n      swap2\n      swap1\n      pop\n      jump\t// out\n        /* \"#utility.yul\":10741:10867   */\n    tag_244:\n        /* \"#utility.yul\":10791:10800   */\n      0x00\n        /* \"#utility.yul\":10824:10861   */\n      tag_381\n        /* \"#utility.yul\":10855:10860   */\n      dup3\n        /* \"#utility.yul\":10824:10861   */\n      tag_243\n      jump\t// in\n    tag_381:\n        /* \"#utility.yul\":10811:10861   */\n      swap1\n      pop\n        /* \"#utility.yul\":10741:10867   */\n      swap2\n      swap1\n      pop\n      jump\t// out\n        /* \"#utility.yul\":10873:11007   */\n    tag_245:\n        /* \"#utility.yul\":10931:10940   */\n      0x00\n        /* \"#utility.yul\":10964:11001   */\n      tag_383\n        /* \"#utility.yul\":10995:11000   */\n      dup3\n        /* \"#utility.yul\":10964:11001   */\n      tag_244\n      jump\t// in\n    tag_383:\n        /* \"#utility.yul\":10951:11001   */\n      swap1\n      pop\n        /* \"#utility.yul\":10873:11007   */\n      swap2\n      swap1\n      pop\n      jump\t// out\n        /* \"#utility.yul\":11013:11160   */\n    tag_246:\n        /* \"#utility.yul\":11108:11153   */\n      tag_385\n        /* \"#utility.yul\":11147:11152   */\n      dup2\n        /* \"#utility.yul\":11108:11153   */\n      tag_245\n      jump\t// in\n    tag_385:\n        /* \"#utility.yul\":11103:11106   */\n      dup3\n        /* \"#utility.yul\":11096:11154   */\n      mstore\n        /* \"#utility.yul\":11013:11160   */\n      pop\n      pop\n      jump\t// out\n        /* \"#utility.yul\":11166:11404   */\n    tag_160:\n        /* \"#utility.yul\":11267:11271   */\n      0x00\n        /* \"#utility.yul\":11305:11307   */\n      0x20\n        /* \"#utility.yul\":11294:11303   */\n      dup3\n        /* \"#utility.yul\":11290:11308   */\n      add\n        /* \"#utility.yul\":11282:11308   */\n      swap1\n      pop\n        /* \"#utility.yul\":11318:11397   */\n      tag_387\n        /* \"#utility.yul\":11394:11395   */\n      0x00\n        /* \"#utility.yul\":11383:11392   */\n      dup4\n        /* \"#utility.yul\":11379:11396   */\n      add\n        /* \"#utility.yul\":11370:11376   */\n      dup5\n        /* \"#utility.yul\":11318:11397   */\n      tag_246\n      jump\t// in\n    tag_387:\n        /* \"#utility.yul\":11166:11404   */\n      swap3\n      swap2\n      pop\n      pop\n      jump\t// out\n        /* \"#utility.yul\":11410:11590   */\n    tag_247:\n        /* \"#utility.yul\":11458:11535   */\n      0x4e487b7100000000000000000000000000000000000000000000000000000000\n        /* \"#utility.yul\":11455:11456   */\n      0x00\n        /* \"#utility.yul\":11448:11536   */\n      mstore\n        /* \"#utility.yul\":11555:11559   */\n      0x12\n        /* \"#utility.yul\":11552:11553   */\n      0x04\n        /* \"#utility.yul\":11545:11560   */\n      mstore\n        /* \"#utility.yul\":11579:11583   */\n      0x24\n        /* \"#utility.yul\":11576:11577   */\n      0x00\n        /* \"#utility.yul\":11569:11584   */\n      revert\n        /* \"#utility.yul\":11596:11772   */\n    tag_167:\n        /* \"#utility.yul\":11628:11629   */\n      0x00\n        /* \"#utility.yul\":11645:11665   */\n      tag_390\n        /* \"#utility.yul\":11663:11664   */\n      dup3\n        /* \"#utility.yul\":11645:11665   */\n      tag_236\n      jump\t// in\n    tag_390:\n        /* \"#utility.yul\":11640:11665   */\n      swap2\n      pop\n        /* \"#utility.yul\":11679:11699   */\n      tag_391\n        /* \"#utility.yul\":11697:11698   */\n      dup4\n        /* \"#utility.yul\":11679:11699   */\n      tag_236\n      jump\t// in\n    tag_391:\n        /* \"#utility.yul\":11674:11699   */\n      swap3\n      pop\n        /* \"#utility.yul\":11718:11719   */\n      dup3\n        /* \"#utility.yul\":11708:11743   */\n      tag_392\n      jumpi\n        /* \"#utility.yul\":11723:11741   */\n      tag_393\n      tag_247\n      jump\t// in\n    tag_393:\n        /* \"#utility.yul\":11708:11743   */\n    tag_392:\n        /* \"#utility.yul\":11764:11765   */\n      dup3\n        /* \"#utility.yul\":11761:11762   */\n      dup3\n        /* \"#utility.yul\":11757:11766   */\n      mod\n        /* \"#utility.yul\":11752:11766   */\n      swap1\n      pop\n        /* \"#utility.yul\":11596:11772   */\n      swap3\n      swap2\n      pop\n      pop\n      jump\t// out\n        /* \"#utility.yul\":11778:12126   */\n    tag_182:\n        /* \"#utility.yul\":11907:11911   */\n      0x00\n        /* \"#utility.yul\":11945:11947   */\n      0x40\n        /* \"#utility.yul\":11934:11943   */\n      dup3\n        /* \"#utility.yul\":11930:11948   */\n      add\n        /* \"#utility.yul\":11922:11948   */\n      swap1\n      pop\n        /* \"#utility.yul\":11958:12037   */\n      tag_395\n        /* \"#utility.yul\":12034:12035   */\n      0x00\n        /* \"#utility.yul\":12023:12032   */\n      dup4\n        /* \"#utility.yul\":12019:12036   */\n      add\n        /* \"#utility.yul\":12010:12016   */\n      dup6\n        /* \"#utility.yul\":11958:12037   */\n      tag_246\n      jump\t// in\n    tag_395:\n        /* \"#utility.yul\":12047:12119   */\n      tag_396\n        /* \"#utility.yul\":12115:12117   */\n      0x20\n        /* \"#utility.yul\":12104:12113   */\n      dup4\n        /* \"#utility.yul\":12100:12118   */\n      add\n        /* \"#utility.yul\":12091:12097   */\n      dup5\n        /* \"#utility.yul\":12047:12119   */\n      tag_237\n      jump\t// in\n    tag_396:\n        /* \"#utility.yul\":11778:12126   */\n      swap4\n      swap3\n      pop\n      pop\n      pop\n      jump\t// out\n        /* \"#utility.yul\":12132:12317   */\n    tag_198:\n        /* \"#utility.yul\":12172:12173   */\n      0x00\n        /* \"#utility.yul\":12189:12209   */\n      tag_398\n        /* \"#utility.yul\":12207:12208   */\n      dup3\n        /* \"#utility.yul\":12189:12209   */\n      tag_236\n      jump\t// in\n    tag_398:\n        /* \"#utility.yul\":12184:12209   */\n      swap2\n      pop\n        /* \"#utility.yul\":12223:12243   */\n      tag_399\n        /* \"#utility.yul\":12241:12242   */\n      dup4\n        /* \"#utility.yul\":12223:12243   */\n      tag_236\n      jump\t// in\n    tag_399:\n        /* \"#utility.yul\":12218:12243   */\n      swap3\n      pop\n        /* \"#utility.yul\":12262:12263   */\n      dup3\n        /* \"#utility.yul\":12252:12287   */\n      tag_400\n      jumpi\n        /* \"#utility.yul\":12267:12285   */\n      tag_401\n      tag_247\n      jump\t// in\n    tag_401:\n        /* \"#utility.yul\":12252:12287   */\n    tag_400:\n        /* \"#utility.yul\":12309:12310   */\n      dup3\n        /* \"#utility.yul\":12306:12307   */\n      dup3\n        /* \"#utility.yul\":12302:12311   */\n      div\n        /* \"#utility.yul\":12297:12311   */\n      swap1\n      pop\n        /* \"#utility.yul\":12132:12317   */\n      swap3\n      swap2\n      pop\n      pop\n      jump\t// out\n\n    auxdata: 0xa26469706673582212201da759589d1479e478641585f3e871a609e40e141bc798df908174e10dc9324064736f6c634300080e0033\n}\n",
				"bytecode": {
					"linkReferences": {},
					"object": "608060405260036000806101000a81548160ff021916908360ff16021790555060b4600e5533600a60006101000a81548173ffffffffffffffffffffffffffffffffffffffff021916908373ffffffffffffffffffffffffffffffffffffffff160217905550662386f26fc100003414620000b1576040517f08c379a0000000000000000000000000000000000000000000000000000000008152600401620000a8906200012e565b60405180910390fd5b600e5442620000c1919062000189565b600f81905550620001e6565b600082825260208201905092915050565b7f5375626d697420736f6d65206d6f6e65792c2061626f7274696e670000000000600082015250565b600062000116601b83620000cd565b91506200012382620000de565b602082019050919050565b60006020820190508181036000830152620001498162000107565b9050919050565b6000819050919050565b7f4e487b7100000000000000000000000000000000000000000000000000000000600052601160045260246000fd5b6000620001968262000150565b9150620001a38362000150565b9250827fffffffffffffffffffffffffffffffffffffffffffffffffffffffffffffffff03821115620001db57620001da6200015a565b5b828201905092915050565b611bad80620001f66000396000f3fe6080604052600436106100865760003560e01c8063cab896dc11610059578063cab896dc14610135578063d30895e414610160578063d4f77b1c1461018b578063ea40a2a214610195578063fb815503146101ac57610086565b80633264a34b1461008b57806359a5f12d146100b65780637d3f9074146100e1578063c51d69f41461010a575b600080fd5b34801561009757600080fd5b506100a06101c3565b6040516100ad91906115bd565b60405180910390f35b3480156100c257600080fd5b506100cb61027c565b6040516100d891906115fa565b60405180910390f35b3480156100ed57600080fd5b5061010860048036038101906101039190611653565b6102a2565b005b34801561011657600080fd5b5061011f610b98565b60405161012c91906116a2565b60405180910390f35b34801561014157600080fd5b5061014a610ba9565b60405161015791906116d6565b60405180910390f35b34801561016c57600080fd5b50610175610bb4565b60405161018291906115fa565b60405180910390f35b610193610bda565b005b3480156101a157600080fd5b506101aa610e50565b005b3480156101b857600080fd5b506101c1610e81565b005b6101cb6113f5565b6001600380602002604051908101604052809291906000905b828210156102735783826003020160038060200260405190810160405280929190826003801561025f576020028201915b8160009054906101000a900473ffffffffffffffffffffffffffffffffffffffff1673ffffffffffffffffffffffffffffffffffffffff1681526020019060010190808311610215575b5050505050815260200190600101906101e4565b50505050905090565b600b60009054906101000a900473ffffffffffffffffffffffffffffffffffffffff1681565b600073ffffffffffffffffffffffffffffffffffffffff1660018360ff16600381106102d1576102d06116f1565b5b600302018260ff16600381106102ea576102e96116f1565b5b0160009054906101000a900473ffffffffffffffffffffffffffffffffffffffff1673ffffffffffffffffffffffffffffffffffffffff161461032c57600080fd5b42600f541161033a57600080fd5b600060029054906101000a900460ff1661035757610356611720565b5b60008054906101000a900460ff1660ff168260ff161061037a57610379611720565b5b60008054906101000a900460ff1660ff168160ff161061039d5761039c611720565b5b601060009054906101000a900473ffffffffffffffffffffffffffffffffffffffff1673ffffffffffffffffffffffffffffffffffffffff163373ffffffffffffffffffffffffffffffffffffffff16146103f757600080fd5b3360018360ff166003811061040f5761040e6116f1565b5b600302018260ff1660038110610428576104276116f1565b5b0160006101000a81548173ffffffffffffffffffffffffffffffffffffffff021916908373ffffffffffffffffffffffffffffffffffffffff1602179055506000600181819054906101000a900460ff16809291906104869061177e565b91906101000a81548160ff021916908360ff16021790555050600e54426104ad91906117a7565b600f8190555060005b60008054906101000a900460ff1660ff168160ff1610156105e157601060009054906101000a900473ffffffffffffffffffffffffffffffffffffffff1673ffffffffffffffffffffffffffffffffffffffff1660018260ff1660038110610521576105206116f1565b5b600302018360ff166003811061053a576105396116f1565b5b0160009054906101000a900473ffffffffffffffffffffffffffffffffffffffff1673ffffffffffffffffffffffffffffffffffffffff16036105e157600160008054906101000a900460ff1661059191906117fd565b60ff168160ff16036105ce576105c8601060009054906101000a900473ffffffffffffffffffffffffffffffffffffffff166110a1565b50610b94565b80806105d99061177e565b9150506104b6565b5060005b60008054906101000a900460ff1660ff1681101561070757601060009054906101000a900473ffffffffffffffffffffffffffffffffffffffff1673ffffffffffffffffffffffffffffffffffffffff1660018460ff166003811061064d5761064c6116f1565b5b600302018260038110610663576106626116f1565b5b0160009054906101000a900473ffffffffffffffffffffffffffffffffffffffff1673ffffffffffffffffffffffffffffffffffffffff160361070757600160008054906101000a900460ff166106ba91906117fd565b60ff1681036106f4576106ee601060009054906101000a900473ffffffffffffffffffffffffffffffffffffffff166110a1565b50610b94565b80806106ff90611831565b9150506105e5565b508060ff168260ff16036108395760005b60008054906101000a900460ff1660ff1681101561083757601060009054906101000a900473ffffffffffffffffffffffffffffffffffffffff1673ffffffffffffffffffffffffffffffffffffffff166001826003811061077d5761077c6116f1565b5b600302018260038110610793576107926116f1565b5b0160009054906101000a900473ffffffffffffffffffffffffffffffffffffffff1673ffffffffffffffffffffffffffffffffffffffff160361083757600160008054906101000a900460ff166107ea91906117fd565b60ff1681036108245761081e601060009054906101000a900473ffffffffffffffffffffffffffffffffffffffff166110a1565b50610b94565b808061082f90611831565b915050610718565b505b600160008054906101000a900460ff1661085391906117fd565b60ff1681836108629190611879565b60ff16036109b55760005b60008054906101000a900460ff1660ff168110156109b357601060009054906101000a900473ffffffffffffffffffffffffffffffffffffffff1673ffffffffffffffffffffffffffffffffffffffff16600182600381106108d2576108d16116f1565b5b6003020182600160008054906101000a900460ff166108f191906117fd565b60ff166108fe91906118b0565b6003811061090f5761090e6116f1565b5b0160009054906101000a900473ffffffffffffffffffffffffffffffffffffffff1673ffffffffffffffffffffffffffffffffffffffff16036109b357600160008054906101000a900460ff1661096691906117fd565b60ff1681036109a05761099a601060009054906101000a900473ffffffffffffffffffffffffffffffffffffffff166110a1565b50610b94565b80806109ab90611831565b91505061086d565b505b600260008054906101000a900460ff166109cf9190611a17565b60ff16600060019054906101000a900460ff1660ff16036109f7576109f26111e3565b610b94565b600a60009054906101000a900473ffffffffffffffffffffffffffffffffffffffff1673ffffffffffffffffffffffffffffffffffffffff16601060009054906101000a900473ffffffffffffffffffffffffffffffffffffffff1673ffffffffffffffffffffffffffffffffffffffff1603610ad657600b60009054906101000a900473ffffffffffffffffffffffffffffffffffffffff16601060006101000a81548173ffffffffffffffffffffffffffffffffffffffff021916908373ffffffffffffffffffffffffffffffffffffffff160217905550610b3a565b600a60009054906101000a900473ffffffffffffffffffffffffffffffffffffffff16601060006101000a81548173ffffffffffffffffffffffffffffffffffffffff021916908373ffffffffffffffffffffffffffffffffffffffff1602179055505b7f637351f91da430278368fb3e486c8c3da47b2e6ce4d28b2c404cb044702ca7e1601060009054906101000a900473ffffffffffffffffffffffffffffffffffffffff16604051610b8b9190611aa2565b60405180910390a15b5050565b60008054906101000a900460ff1681565b662386f26fc1000081565b600a60009054906101000a900473ffffffffffffffffffffffffffffffffffffffff1681565b600073ffffffffffffffffffffffffffffffffffffffff16600b60009054906101000a900473ffffffffffffffffffffffffffffffffffffffff1673ffffffffffffffffffffffffffffffffffffffff1614610c3957610c38611720565b5b6001600060026101000a81548160ff021916908315150217905550662386f26fc100003414610c6757600080fd5b33600b60006101000a81548173ffffffffffffffffffffffffffffffffffffffff021916908373ffffffffffffffffffffffffffffffffffffffff1602179055507f31e760aa525306aba638a784082a013b6a1cc0a9a1789f3f22281c0453b10b1f600b60009054906101000a900473ffffffffffffffffffffffffffffffffffffffff16604051610cf99190611aa2565b60405180910390a16000600243610d109190611aec565b03610d7d57600b60009054906101000a900473ffffffffffffffffffffffffffffffffffffffff16601060006101000a81548173ffffffffffffffffffffffffffffffffffffffff021916908373ffffffffffffffffffffffffffffffffffffffff160217905550610de1565b600a60009054906101000a900473ffffffffffffffffffffffffffffffffffffffff16601060006101000a81548173ffffffffffffffffffffffffffffffffffffffff021916908373ffffffffffffffffffffffffffffffffffffffff1602179055505b600e5442610def91906117a7565b600f819055507f637351f91da430278368fb3e486c8c3da47b2e6ce4d28b2c404cb044702ca7e1601060009054906101000a900473ffffffffffffffffffffffffffffffffffffffff16604051610e469190611aa2565b60405180910390a1565b42600f5410610e5e57600080fd5b600060029054906101000a900460ff16610e7757600080fd5b610e7f6111e3565b565b6000600a60009054906101000a900473ffffffffffffffffffffffffffffffffffffffff1673ffffffffffffffffffffffffffffffffffffffff163373ffffffffffffffffffffffffffffffffffffffff1603610fbd576000600c5411610ee757600080fd5b600c5490506000600c81905550600a60009054906101000a900473ffffffffffffffffffffffffffffffffffffffff1673ffffffffffffffffffffffffffffffffffffffff166108fc829081150290604051600060405180830381858888f19350505050158015610f5c573d6000803e3d6000fd5b507f2a44162a2d5223e37cacacc3f626dcfee1396e0be3616534c5c7b718f786b673600a60009054906101000a900473ffffffffffffffffffffffffffffffffffffffff1682604051610fb0929190611b1d565b60405180910390a161109e565b6000600d5411610fcc57600080fd5b600d5490506000600d81905550600b60009054906101000a900473ffffffffffffffffffffffffffffffffffffffff1673ffffffffffffffffffffffffffffffffffffffff166108fc829081150290604051600060405180830381858888f19350505050158015611041573d6000803e3d6000fd5b507f2a44162a2d5223e37cacacc3f626dcfee1396e0be3616534c5c7b718f786b673600b60009054906101000a900473ffffffffffffffffffffffffffffffffffffffff1682604051611095929190611b1d565b60405180910390a15b50565b60008060026101000a81548160ff0219169083151502179055507f8245a3876d42d9b0bdb7f24184c03fc24e3d8a079f492b1ec9ceae70b366edf9816040516110ea9190611aa2565b60405180910390a16000479050600115158273ffffffffffffffffffffffffffffffffffffffff166108fc839081150290604051600060405180830381858888f193505050501515146111a557600a60009054906101000a900473ffffffffffffffffffffffffffffffffffffffff1673ffffffffffffffffffffffffffffffffffffffff168273ffffffffffffffffffffffffffffffffffffffff16036111985780600c819055506111a0565b80600d819055505b6111df565b7f2a44162a2d5223e37cacacc3f626dcfee1396e0be3616534c5c7b718f786b67382826040516111d6929190611b1d565b60405180910390a15b5050565b60008060026101000a81548160ff0219169083151502179055507f2207d46a2ba0f2acda06e9a222b40fd004e385738b3f868e63b2c0bfe4bc094c60405160405180910390a160006002476112389190611b46565b905060001515600a60009054906101000a900473ffffffffffffffffffffffffffffffffffffffff1673ffffffffffffffffffffffffffffffffffffffff166108fc839081150290604051600060405180830381858888f193505050501515036112ba5780600c60008282546112ae91906117a7565b92505081905550611316565b7f2a44162a2d5223e37cacacc3f626dcfee1396e0be3616534c5c7b718f786b673600a60009054906101000a900473ffffffffffffffffffffffffffffffffffffffff168260405161130d929190611b1d565b60405180910390a15b60001515600b60009054906101000a900473ffffffffffffffffffffffffffffffffffffffff1673ffffffffffffffffffffffffffffffffffffffff166108fc839081150290604051600060405180830381858888f193505050501515036113965780600d600082825461138a91906117a7565b925050819055506113f2565b7f2a44162a2d5223e37cacacc3f626dcfee1396e0be3616534c5c7b718f786b673600b60009054906101000a900473ffffffffffffffffffffffffffffffffffffffff16826040516113e9929190611b1d565b60405180910390a15b50565b60405180606001604052806003905b61140c611422565b8152602001906001900390816114045790505090565b6040518060600160405280600390602082028036833780820191505090505090565b600060039050919050565b600081905092915050565b6000819050919050565b600060039050919050565b600081905092915050565b6000819050919050565b600073ffffffffffffffffffffffffffffffffffffffff82169050919050565b60006114af82611484565b9050919050565b6114bf816114a4565b82525050565b60006114d183836114b6565b60208301905092915050565b6000602082019050919050565b6114f381611464565b6114fd818461146f565b92506115088261147a565b8060005b8381101561153957815161152087826114c5565b965061152b836114dd565b92505060018101905061150c565b505050505050565b600061154d83836114ea565b60608301905092915050565b6000602082019050919050565b61156f81611444565b611579818461144f565b92506115848261145a565b8060005b838110156115b557815161159c8782611541565b96506115a783611559565b925050600181019050611588565b505050505050565b6000610120820190506115d36000830184611566565b92915050565b60006115e482611484565b9050919050565b6115f4816115d9565b82525050565b600060208201905061160f60008301846115eb565b92915050565b600080fd5b600060ff82169050919050565b6116308161161a565b811461163b57600080fd5b50565b60008135905061164d81611627565b92915050565b6000806040838503121561166a57611669611615565b5b60006116788582860161163e565b92505060206116898582860161163e565b9150509250929050565b61169c8161161a565b82525050565b60006020820190506116b76000830184611693565b92915050565b6000819050919050565b6116d0816116bd565b82525050565b60006020820190506116eb60008301846116c7565b92915050565b7f4e487b7100000000000000000000000000000000000000000000000000000000600052603260045260246000fd5b7f4e487b7100000000000000000000000000000000000000000000000000000000600052600160045260246000fd5b7f4e487b7100000000000000000000000000000000000000000000000000000000600052601160045260246000fd5b60006117898261161a565b915060ff820361179c5761179b61174f565b5b600182019050919050565b60006117b2826116bd565b91506117bd836116bd565b9250827fffffffffffffffffffffffffffffffffffffffffffffffffffffffffffffffff038211156117f2576117f161174f565b5b828201905092915050565b60006118088261161a565b91506118138361161a565b9250828210156118265761182561174f565b5b828203905092915050565b600061183c826116bd565b91507fffffffffffffffffffffffffffffffffffffffffffffffffffffffffffffffff820361186e5761186d61174f565b5b600182019050919050565b60006118848261161a565b915061188f8361161a565b92508260ff038211156118a5576118a461174f565b5b828201905092915050565b60006118bb826116bd565b91506118c6836116bd565b9250828210156118d9576118d861174f565b5b828203905092915050565b60008160011c9050919050565b6000808291508390505b600185111561193b578086048111156119175761191661174f565b5b60018516156119265780820291505b8081029050611934856118e4565b94506118fb565b94509492505050565b6000826119545760019050611a10565b816119625760009050611a10565b81600181146119785760028114611982576119b1565b6001915050611a10565b60ff8411156119945761199361174f565b5b8360020a9150848211156119ab576119aa61174f565b5b50611a10565b5060208310610133831016604e8410600b84101617156119e65782820a9050838111156119e1576119e061174f565b5b611a10565b6119f384848460016118f1565b92509050818404811115611a0a57611a0961174f565b5b81810290505b9392505050565b6000611a228261161a565b9150611a2d8361161a565b9250611a3b60ff8484611944565b905092915050565b6000819050919050565b6000611a68611a63611a5e84611484565b611a43565b611484565b9050919050565b6000611a7a82611a4d565b9050919050565b6000611a8c82611a6f565b9050919050565b611a9c81611a81565b82525050565b6000602082019050611ab76000830184611a93565b92915050565b7f4e487b7100000000000000000000000000000000000000000000000000000000600052601260045260246000fd5b6000611af7826116bd565b9150611b02836116bd565b925082611b1257611b11611abd565b5b828206905092915050565b6000604082019050611b326000830185611a93565b611b3f60208301846116c7565b9392505050565b6000611b51826116bd565b9150611b5c836116bd565b925082611b6c57611b6b611abd565b5b82820490509291505056fea26469706673582212201da759589d1479e478641585f3e871a609e40e141bc798df908174e10dc9324064736f6c634300080e0033",
					"opcodes": "PUSH1 0x80 PUSH1 0x40 MSTORE PUSH1 0x3 PUSH1 0x0 DUP1 PUSH2 0x100 EXP DUP2 SLOAD DUP2 PUSH1 0xFF MUL NOT AND SWAP1 DUP4 PUSH1 0xFF AND MUL OR SWAP1 SSTORE POP PUSH1 0xB4 PUSH1 0xE SSTORE CALLER PUSH1 0xA PUSH1 0x0 PUSH2 0x100 EXP DUP2 SLOAD DUP2 PUSH20 0xFFFFFFFFFFFFFFFFFFFFFFFFFFFFFFFFFFFFFFFF MUL NOT AND SWAP1 DUP4 PUSH20 0xFFFFFFFFFFFFFFFFFFFFFFFFFFFFFFFFFFFFFFFF AND MUL OR SWAP1 SSTORE POP PUSH7 0x2386F26FC10000 CALLVALUE EQ PUSH3 0xB1 JUMPI PUSH1 0x40 MLOAD PUSH32 0x8C379A000000000000000000000000000000000000000000000000000000000 DUP2 MSTORE PUSH1 0x4 ADD PUSH3 0xA8 SWAP1 PUSH3 0x12E JUMP JUMPDEST PUSH1 0x40 MLOAD DUP1 SWAP2 SUB SWAP1 REVERT JUMPDEST PUSH1 0xE SLOAD TIMESTAMP PUSH3 0xC1 SWAP2 SWAP1 PUSH3 0x189 JUMP JUMPDEST PUSH1 0xF DUP2 SWAP1 SSTORE POP PUSH3 0x1E6 JUMP JUMPDEST PUSH1 0x0 DUP3 DUP3 MSTORE PUSH1 0x20 DUP3 ADD SWAP1 POP SWAP3 SWAP2 POP POP JUMP JUMPDEST PUSH32 0x5375626D697420736F6D65206D6F6E65792C2061626F7274696E670000000000 PUSH1 0x0 DUP3 ADD MSTORE POP JUMP JUMPDEST PUSH1 0x0 PUSH3 0x116 PUSH1 0x1B DUP4 PUSH3 0xCD JUMP JUMPDEST SWAP2 POP PUSH3 0x123 DUP3 PUSH3 0xDE JUMP JUMPDEST PUSH1 0x20 DUP3 ADD SWAP1 POP SWAP2 SWAP1 POP JUMP JUMPDEST PUSH1 0x0 PUSH1 0x20 DUP3 ADD SWAP1 POP DUP2 DUP2 SUB PUSH1 0x0 DUP4 ADD MSTORE PUSH3 0x149 DUP2 PUSH3 0x107 JUMP JUMPDEST SWAP1 POP SWAP2 SWAP1 POP JUMP JUMPDEST PUSH1 0x0 DUP2 SWAP1 POP SWAP2 SWAP1 POP JUMP JUMPDEST PUSH32 0x4E487B7100000000000000000000000000000000000000000000000000000000 PUSH1 0x0 MSTORE PUSH1 0x11 PUSH1 0x4 MSTORE PUSH1 0x24 PUSH1 0x0 REVERT JUMPDEST PUSH1 0x0 PUSH3 0x196 DUP3 PUSH3 0x150 JUMP JUMPDEST SWAP2 POP PUSH3 0x1A3 DUP4 PUSH3 0x150 JUMP JUMPDEST SWAP3 POP DUP3 PUSH32 0xFFFFFFFFFFFFFFFFFFFFFFFFFFFFFFFFFFFFFFFFFFFFFFFFFFFFFFFFFFFFFFFF SUB DUP3 GT ISZERO PUSH3 0x1DB JUMPI PUSH3 0x1DA PUSH3 0x15A JUMP JUMPDEST JUMPDEST DUP3 DUP3 ADD SWAP1 POP SWAP3 SWAP2 POP POP JUMP JUMPDEST PUSH2 0x1BAD DUP1 PUSH3 0x1F6 PUSH1 0x0 CODECOPY PUSH1 0x0 RETURN INVALID PUSH1 0x80 PUSH1 0x40 MSTORE PUSH1 0x4 CALLDATASIZE LT PUSH2 0x86 JUMPI PUSH1 0x0 CALLDATALOAD PUSH1 0xE0 SHR DUP1 PUSH4 0xCAB896DC GT PUSH2 0x59 JUMPI DUP1 PUSH4 0xCAB896DC EQ PUSH2 0x135 JUMPI DUP1 PUSH4 0xD30895E4 EQ PUSH2 0x160 JUMPI DUP1 PUSH4 0xD4F77B1C EQ PUSH2 0x18B JUMPI DUP1 PUSH4 0xEA40A2A2 EQ PUSH2 0x195 JUMPI DUP1 PUSH4 0xFB815503 EQ PUSH2 0x1AC JUMPI PUSH2 0x86 JUMP JUMPDEST DUP1 PUSH4 0x3264A34B EQ PUSH2 0x8B JUMPI DUP1 PUSH4 0x59A5F12D EQ PUSH2 0xB6 JUMPI DUP1 PUSH4 0x7D3F9074 EQ PUSH2 0xE1 JUMPI DUP1 PUSH4 0xC51D69F4 EQ PUSH2 0x10A JUMPI JUMPDEST PUSH1 0x0 DUP1 REVERT JUMPDEST CALLVALUE DUP1 ISZERO PUSH2 0x97 JUMPI PUSH1 0x0 DUP1 REVERT JUMPDEST POP PUSH2 0xA0 PUSH2 0x1C3 JUMP JUMPDEST PUSH1 0x40 MLOAD PUSH2 0xAD SWAP2 SWAP1 PUSH2 0x15BD JUMP JUMPDEST PUSH1 0x40 MLOAD DUP1 SWAP2 SUB SWAP1 RETURN JUMPDEST CALLVALUE DUP1 ISZERO PUSH2 0xC2 JUMPI PUSH1 0x0 DUP1 REVERT JUMPDEST POP PUSH2 0xCB PUSH2 0x27C JUMP JUMPDEST PUSH1 0x40 MLOAD PUSH2 0xD8 SWAP2 SWAP1 PUSH2 0x15FA JUMP JUMPDEST PUSH1 0x40 MLOAD DUP1 SWAP2 SUB SWAP1 RETURN JUMPDEST CALLVALUE DUP1 ISZERO PUSH2 0xED JUMPI PUSH1 0x0 DUP1 REVERT JUMPDEST POP PUSH2 0x108 PUSH1 0x4 DUP1 CALLDATASIZE SUB DUP2 ADD SWAP1 PUSH2 0x103 SWAP2 SWAP1 PUSH2 0x1653 JUMP JUMPDEST PUSH2 0x2A2 JUMP JUMPDEST STOP JUMPDEST CALLVALUE DUP1 ISZERO PUSH2 0x116 JUMPI PUSH1 0x0 DUP1 REVERT JUMPDEST POP PUSH2 0x11F PUSH2 0xB98 JUMP JUMPDEST PUSH1 0x40 MLOAD PUSH2 0x12C SWAP2 SWAP1 PUSH2 0x16A2 JUMP JUMPDEST PUSH1 0x40 MLOAD DUP1 SWAP2 SUB SWAP1 RETURN JUMPDEST CALLVALUE DUP1 ISZERO PUSH2 0x141 JUMPI PUSH1 0x0 DUP1 REVERT JUMPDEST POP PUSH2 0x14A PUSH2 0xBA9 JUMP JUMPDEST PUSH1 0x40 MLOAD PUSH2 0x157 SWAP2 SWAP1 PUSH2 0x16D6 JUMP JUMPDEST PUSH1 0x40 MLOAD DUP1 SWAP2 SUB SWAP1 RETURN JUMPDEST CALLVALUE DUP1 ISZERO PUSH2 0x16C JUMPI PUSH1 0x0 DUP1 REVERT JUMPDEST POP PUSH2 0x175 PUSH2 0xBB4 JUMP JUMPDEST PUSH1 0x40 MLOAD PUSH2 0x182 SWAP2 SWAP1 PUSH2 0x15FA JUMP JUMPDEST PUSH1 0x40 MLOAD DUP1 SWAP2 SUB SWAP1 RETURN JUMPDEST PUSH2 0x193 PUSH2 0xBDA JUMP JUMPDEST STOP JUMPDEST CALLVALUE DUP1 ISZERO PUSH2 0x1A1 JUMPI PUSH1 0x0 DUP1 REVERT JUMPDEST POP PUSH2 0x1AA PUSH2 0xE50 JUMP JUMPDEST STOP JUMPDEST CALLVALUE DUP1 ISZERO PUSH2 0x1B8 JUMPI PUSH1 0x0 DUP1 REVERT JUMPDEST POP PUSH2 0x1C1 PUSH2 0xE81 JUMP JUMPDEST STOP JUMPDEST PUSH2 0x1CB PUSH2 0x13F5 JUMP JUMPDEST PUSH1 0x1 PUSH1 0x3 DUP1 PUSH1 0x20 MUL PUSH1 0x40 MLOAD SWAP1 DUP2 ADD PUSH1 0x40 MSTORE DUP1 SWAP3 SWAP2 SWAP1 PUSH1 0x0 SWAP1 JUMPDEST DUP3 DUP3 LT ISZERO PUSH2 0x273 JUMPI DUP4 DUP3 PUSH1 0x3 MUL ADD PUSH1 0x3 DUP1 PUSH1 0x20 MUL PUSH1 0x40 MLOAD SWAP1 DUP2 ADD PUSH1 0x40 MSTORE DUP1 SWAP3 SWAP2 SWAP1 DUP3 PUSH1 0x3 DUP1 ISZERO PUSH2 0x25F JUMPI PUSH1 0x20 MUL DUP3 ADD SWAP2 JUMPDEST DUP2 PUSH1 0x0 SWAP1 SLOAD SWAP1 PUSH2 0x100 EXP SWAP1 DIV PUSH20 0xFFFFFFFFFFFFFFFFFFFFFFFFFFFFFFFFFFFFFFFF AND PUSH20 0xFFFFFFFFFFFFFFFFFFFFFFFFFFFFFFFFFFFFFFFF AND DUP2 MSTORE PUSH1 0x20 ADD SWAP1 PUSH1 0x1 ADD SWAP1 DUP1 DUP4 GT PUSH2 0x215 JUMPI JUMPDEST POP POP POP POP POP DUP2 MSTORE PUSH1 0x20 ADD SWAP1 PUSH1 0x1 ADD SWAP1 PUSH2 0x1E4 JUMP JUMPDEST POP POP POP POP SWAP1 POP SWAP1 JUMP JUMPDEST PUSH1 0xB PUSH1 0x0 SWAP1 SLOAD SWAP1 PUSH2 0x100 EXP SWAP1 DIV PUSH20 0xFFFFFFFFFFFFFFFFFFFFFFFFFFFFFFFFFFFFFFFF AND DUP2 JUMP JUMPDEST PUSH1 0x0 PUSH20 0xFFFFFFFFFFFFFFFFFFFFFFFFFFFFFFFFFFFFFFFF AND PUSH1 0x1 DUP4 PUSH1 0xFF AND PUSH1 0x3 DUP2 LT PUSH2 0x2D1 JUMPI PUSH2 0x2D0 PUSH2 0x16F1 JUMP JUMPDEST JUMPDEST PUSH1 0x3 MUL ADD DUP3 PUSH1 0xFF AND PUSH1 0x3 DUP2 LT PUSH2 0x2EA JUMPI PUSH2 0x2E9 PUSH2 0x16F1 JUMP JUMPDEST JUMPDEST ADD PUSH1 0x0 SWAP1 SLOAD SWAP1 PUSH2 0x100 EXP SWAP1 DIV PUSH20 0xFFFFFFFFFFFFFFFFFFFFFFFFFFFFFFFFFFFFFFFF AND PUSH20 0xFFFFFFFFFFFFFFFFFFFFFFFFFFFFFFFFFFFFFFFF AND EQ PUSH2 0x32C JUMPI PUSH1 0x0 DUP1 REVERT JUMPDEST TIMESTAMP PUSH1 0xF SLOAD GT PUSH2 0x33A JUMPI PUSH1 0x0 DUP1 REVERT JUMPDEST PUSH1 0x0 PUSH1 0x2 SWAP1 SLOAD SWAP1 PUSH2 0x100 EXP SWAP1 DIV PUSH1 0xFF AND PUSH2 0x357 JUMPI PUSH2 0x356 PUSH2 0x1720 JUMP JUMPDEST JUMPDEST PUSH1 0x0 DUP1 SLOAD SWAP1 PUSH2 0x100 EXP SWAP1 DIV PUSH1 0xFF AND PUSH1 0xFF AND DUP3 PUSH1 0xFF AND LT PUSH2 0x37A JUMPI PUSH2 0x379 PUSH2 0x1720 JUMP JUMPDEST JUMPDEST PUSH1 0x0 DUP1 SLOAD SWAP1 PUSH2 0x100 EXP SWAP1 DIV PUSH1 0xFF AND PUSH1 0xFF AND DUP2 PUSH1 0xFF AND LT PUSH2 0x39D JUMPI PUSH2 0x39C PUSH2 0x1720 JUMP JUMPDEST JUMPDEST PUSH1 0x10 PUSH1 0x0 SWAP1 SLOAD SWAP1 PUSH2 0x100 EXP SWAP1 DIV PUSH20 0xFFFFFFFFFFFFFFFFFFFFFFFFFFFFFFFFFFFFFFFF AND PUSH20 0xFFFFFFFFFFFFFFFFFFFFFFFFFFFFFFFFFFFFFFFF AND CALLER PUSH20 0xFFFFFFFFFFFFFFFFFFFFFFFFFFFFFFFFFFFFFFFF AND EQ PUSH2 0x3F7 JUMPI PUSH1 0x0 DUP1 REVERT JUMPDEST CALLER PUSH1 0x1 DUP4 PUSH1 0xFF AND PUSH1 0x3 DUP2 LT PUSH2 0x40F JUMPI PUSH2 0x40E PUSH2 0x16F1 JUMP JUMPDEST JUMPDEST PUSH1 0x3 MUL ADD DUP3 PUSH1 0xFF AND PUSH1 0x3 DUP2 LT PUSH2 0x428 JUMPI PUSH2 0x427 PUSH2 0x16F1 JUMP JUMPDEST JUMPDEST ADD PUSH1 0x0 PUSH2 0x100 EXP DUP2 SLOAD DUP2 PUSH20 0xFFFFFFFFFFFFFFFFFFFFFFFFFFFFFFFFFFFFFFFF MUL NOT AND SWAP1 DUP4 PUSH20 0xFFFFFFFFFFFFFFFFFFFFFFFFFFFFFFFFFFFFFFFF AND MUL OR SWAP1 SSTORE POP PUSH1 0x0 PUSH1 0x1 DUP2 DUP2 SWAP1 SLOAD SWAP1 PUSH2 0x100 EXP SWAP1 DIV PUSH1 0xFF AND DUP1 SWAP3 SWAP2 SWAP1 PUSH2 0x486 SWAP1 PUSH2 0x177E JUMP JUMPDEST SWAP2 SWAP1 PUSH2 0x100 EXP DUP2 SLOAD DUP2 PUSH1 0xFF MUL NOT AND SWAP1 DUP4 PUSH1 0xFF AND MUL OR SWAP1 SSTORE POP POP PUSH1 0xE SLOAD TIMESTAMP PUSH2 0x4AD SWAP2 SWAP1 PUSH2 0x17A7 JUMP JUMPDEST PUSH1 0xF DUP2 SWAP1 SSTORE POP PUSH1 0x0 JUMPDEST PUSH1 0x0 DUP1 SLOAD SWAP1 PUSH2 0x100 EXP SWAP1 DIV PUSH1 0xFF AND PUSH1 0xFF AND DUP2 PUSH1 0xFF AND LT ISZERO PUSH2 0x5E1 JUMPI PUSH1 0x10 PUSH1 0x0 SWAP1 SLOAD SWAP1 PUSH2 0x100 EXP SWAP1 DIV PUSH20 0xFFFFFFFFFFFFFFFFFFFFFFFFFFFFFFFFFFFFFFFF AND PUSH20 0xFFFFFFFFFFFFFFFFFFFFFFFFFFFFFFFFFFFFFFFF AND PUSH1 0x1 DUP3 PUSH1 0xFF AND PUSH1 0x3 DUP2 LT PUSH2 0x521 JUMPI PUSH2 0x520 PUSH2 0x16F1 JUMP JUMPDEST JUMPDEST PUSH1 0x3 MUL ADD DUP4 PUSH1 0xFF AND PUSH1 0x3 DUP2 LT PUSH2 0x53A JUMPI PUSH2 0x539 PUSH2 0x16F1 JUMP JUMPDEST JUMPDEST ADD PUSH1 0x0 SWAP1 SLOAD SWAP1 PUSH2 0x100 EXP SWAP1 DIV PUSH20 0xFFFFFFFFFFFFFFFFFFFFFFFFFFFFFFFFFFFFFFFF AND PUSH20 0xFFFFFFFFFFFFFFFFFFFFFFFFFFFFFFFFFFFFFFFF AND SUB PUSH2 0x5E1 JUMPI PUSH1 0x1 PUSH1 0x0 DUP1 SLOAD SWAP1 PUSH2 0x100 EXP SWAP1 DIV PUSH1 0xFF AND PUSH2 0x591 SWAP2 SWAP1 PUSH2 0x17FD JUMP JUMPDEST PUSH1 0xFF AND DUP2 PUSH1 0xFF AND SUB PUSH2 0x5CE JUMPI PUSH2 0x5C8 PUSH1 0x10 PUSH1 0x0 SWAP1 SLOAD SWAP1 PUSH2 0x100 EXP SWAP1 DIV PUSH20 0xFFFFFFFFFFFFFFFFFFFFFFFFFFFFFFFFFFFFFFFF AND PUSH2 0x10A1 JUMP JUMPDEST POP PUSH2 0xB94 JUMP JUMPDEST DUP1 DUP1 PUSH2 0x5D9 SWAP1 PUSH2 0x177E JUMP JUMPDEST SWAP2 POP POP PUSH2 0x4B6 JUMP JUMPDEST POP PUSH1 0x0 JUMPDEST PUSH1 0x0 DUP1 SLOAD SWAP1 PUSH2 0x100 EXP SWAP1 DIV PUSH1 0xFF AND PUSH1 0xFF AND DUP2 LT ISZERO PUSH2 0x707 JUMPI PUSH1 0x10 PUSH1 0x0 SWAP1 SLOAD SWAP1 PUSH2 0x100 EXP SWAP1 DIV PUSH20 0xFFFFFFFFFFFFFFFFFFFFFFFFFFFFFFFFFFFFFFFF AND PUSH20 0xFFFFFFFFFFFFFFFFFFFFFFFFFFFFFFFFFFFFFFFF AND PUSH1 0x1 DUP5 PUSH1 0xFF AND PUSH1 0x3 DUP2 LT PUSH2 0x64D JUMPI PUSH2 0x64C PUSH2 0x16F1 JUMP JUMPDEST JUMPDEST PUSH1 0x3 MUL ADD DUP3 PUSH1 0x3 DUP2 LT PUSH2 0x663 JUMPI PUSH2 0x662 PUSH2 0x16F1 JUMP JUMPDEST JUMPDEST ADD PUSH1 0x0 SWAP1 SLOAD SWAP1 PUSH2 0x100 EXP SWAP1 DIV PUSH20 0xFFFFFFFFFFFFFFFFFFFFFFFFFFFFFFFFFFFFFFFF AND PUSH20 0xFFFFFFFFFFFFFFFFFFFFFFFFFFFFFFFFFFFFFFFF AND SUB PUSH2 0x707 JUMPI PUSH1 0x1 PUSH1 0x0 DUP1 SLOAD SWAP1 PUSH2 0x100 EXP SWAP1 DIV PUSH1 0xFF AND PUSH2 0x6BA SWAP2 SWAP1 PUSH2 0x17FD JUMP JUMPDEST PUSH1 0xFF AND DUP2 SUB PUSH2 0x6F4 JUMPI PUSH2 0x6EE PUSH1 0x10 PUSH1 0x0 SWAP1 SLOAD SWAP1 PUSH2 0x100 EXP SWAP1 DIV PUSH20 0xFFFFFFFFFFFFFFFFFFFFFFFFFFFFFFFFFFFFFFFF AND PUSH2 0x10A1 JUMP JUMPDEST POP PUSH2 0xB94 JUMP JUMPDEST DUP1 DUP1 PUSH2 0x6FF SWAP1 PUSH2 0x1831 JUMP JUMPDEST SWAP2 POP POP PUSH2 0x5E5 JUMP JUMPDEST POP DUP1 PUSH1 0xFF AND DUP3 PUSH1 0xFF AND SUB PUSH2 0x839 JUMPI PUSH1 0x0 JUMPDEST PUSH1 0x0 DUP1 SLOAD SWAP1 PUSH2 0x100 EXP SWAP1 DIV PUSH1 0xFF AND PUSH1 0xFF AND DUP2 LT ISZERO PUSH2 0x837 JUMPI PUSH1 0x10 PUSH1 0x0 SWAP1 SLOAD SWAP1 PUSH2 0x100 EXP SWAP1 DIV PUSH20 0xFFFFFFFFFFFFFFFFFFFFFFFFFFFFFFFFFFFFFFFF AND PUSH20 0xFFFFFFFFFFFFFFFFFFFFFFFFFFFFFFFFFFFFFFFF AND PUSH1 0x1 DUP3 PUSH1 0x3 DUP2 LT PUSH2 0x77D JUMPI PUSH2 0x77C PUSH2 0x16F1 JUMP JUMPDEST JUMPDEST PUSH1 0x3 MUL ADD DUP3 PUSH1 0x3 DUP2 LT PUSH2 0x793 JUMPI PUSH2 0x792 PUSH2 0x16F1 JUMP JUMPDEST JUMPDEST ADD PUSH1 0x0 SWAP1 SLOAD SWAP1 PUSH2 0x100 EXP SWAP1 DIV PUSH20 0xFFFFFFFFFFFFFFFFFFFFFFFFFFFFFFFFFFFFFFFF AND PUSH20 0xFFFFFFFFFFFFFFFFFFFFFFFFFFFFFFFFFFFFFFFF AND SUB PUSH2 0x837 JUMPI PUSH1 0x1 PUSH1 0x0 DUP1 SLOAD SWAP1 PUSH2 0x100 EXP SWAP1 DIV PUSH1 0xFF AND PUSH2 0x7EA SWAP2 SWAP1 PUSH2 0x17FD JUMP JUMPDEST PUSH1 0xFF AND DUP2 SUB PUSH2 0x824 JUMPI PUSH2 0x81E PUSH1 0x10 PUSH1 0x0 SWAP1 SLOAD SWAP1 PUSH2 0x100 EXP SWAP1 DIV PUSH20 0xFFFFFFFFFFFFFFFFFFFFFFFFFFFFFFFFFFFFFFFF AND PUSH2 0x10A1 JUMP JUMPDEST POP PUSH2 0xB94 JUMP JUMPDEST DUP1 DUP1 PUSH2 0x82F SWAP1 PUSH2 0x1831 JUMP JUMPDEST SWAP2 POP POP PUSH2 0x718 JUMP JUMPDEST POP JUMPDEST PUSH1 0x1 PUSH1 0x0 DUP1 SLOAD SWAP1 PUSH2 0x100 EXP SWAP1 DIV PUSH1 0xFF AND PUSH2 0x853 SWAP2 SWAP1 PUSH2 0x17FD JUMP JUMPDEST PUSH1 0xFF AND DUP2 DUP4 PUSH2 0x862 SWAP2 SWAP1 PUSH2 0x1879 JUMP JUMPDEST PUSH1 0xFF AND SUB PUSH2 0x9B5 JUMPI PUSH1 0x0 JUMPDEST PUSH1 0x0 DUP1 SLOAD SWAP1 PUSH2 0x100 EXP SWAP1 DIV PUSH1 0xFF AND PUSH1 0xFF AND DUP2 LT ISZERO PUSH2 0x9B3 JUMPI PUSH1 0x10 PUSH1 0x0 SWAP1 SLOAD SWAP1 PUSH2 0x100 EXP SWAP1 DIV PUSH20 0xFFFFFFFFFFFFFFFFFFFFFFFFFFFFFFFFFFFFFFFF AND PUSH20 0xFFFFFFFFFFFFFFFFFFFFFFFFFFFFFFFFFFFFFFFF AND PUSH1 0x1 DUP3 PUSH1 0x3 DUP2 LT PUSH2 0x8D2 JUMPI PUSH2 0x8D1 PUSH2 0x16F1 JUMP JUMPDEST JUMPDEST PUSH1 0x3 MUL ADD DUP3 PUSH1 0x1 PUSH1 0x0 DUP1 SLOAD SWAP1 PUSH2 0x100 EXP SWAP1 DIV PUSH1 0xFF AND PUSH2 0x8F1 SWAP2 SWAP1 PUSH2 0x17FD JUMP JUMPDEST PUSH1 0xFF AND PUSH2 0x8FE SWAP2 SWAP1 PUSH2 0x18B0 JUMP JUMPDEST PUSH1 0x3 DUP2 LT PUSH2 0x90F JUMPI PUSH2 0x90E PUSH2 0x16F1 JUMP JUMPDEST JUMPDEST ADD PUSH1 0x0 SWAP1 SLOAD SWAP1 PUSH2 0x100 EXP SWAP1 DIV PUSH20 0xFFFFFFFFFFFFFFFFFFFFFFFFFFFFFFFFFFFFFFFF AND PUSH20 0xFFFFFFFFFFFFFFFFFFFFFFFFFFFFFFFFFFFFFFFF AND SUB PUSH2 0x9B3 JUMPI PUSH1 0x1 PUSH1 0x0 DUP1 SLOAD SWAP1 PUSH2 0x100 EXP SWAP1 DIV PUSH1 0xFF AND PUSH2 0x966 SWAP2 SWAP1 PUSH2 0x17FD JUMP JUMPDEST PUSH1 0xFF AND DUP2 SUB PUSH2 0x9A0 JUMPI PUSH2 0x99A PUSH1 0x10 PUSH1 0x0 SWAP1 SLOAD SWAP1 PUSH2 0x100 EXP SWAP1 DIV PUSH20 0xFFFFFFFFFFFFFFFFFFFFFFFFFFFFFFFFFFFFFFFF AND PUSH2 0x10A1 JUMP JUMPDEST POP PUSH2 0xB94 JUMP JUMPDEST DUP1 DUP1 PUSH2 0x9AB SWAP1 PUSH2 0x1831 JUMP JUMPDEST SWAP2 POP POP PUSH2 0x86D JUMP JUMPDEST POP JUMPDEST PUSH1 0x2 PUSH1 0x0 DUP1 SLOAD SWAP1 PUSH2 0x100 EXP SWAP1 DIV PUSH1 0xFF AND PUSH2 0x9CF SWAP2 SWAP1 PUSH2 0x1A17 JUMP JUMPDEST PUSH1 0xFF AND PUSH1 0x0 PUSH1 0x1 SWAP1 SLOAD SWAP1 PUSH2 0x100 EXP SWAP1 DIV PUSH1 0xFF AND PUSH1 0xFF AND SUB PUSH2 0x9F7 JUMPI PUSH2 0x9F2 PUSH2 0x11E3 JUMP JUMPDEST PUSH2 0xB94 JUMP JUMPDEST PUSH1 0xA PUSH1 0x0 SWAP1 SLOAD SWAP1 PUSH2 0x100 EXP SWAP1 DIV PUSH20 0xFFFFFFFFFFFFFFFFFFFFFFFFFFFFFFFFFFFFFFFF AND PUSH20 0xFFFFFFFFFFFFFFFFFFFFFFFFFFFFFFFFFFFFFFFF AND PUSH1 0x10 PUSH1 0x0 SWAP1 SLOAD SWAP1 PUSH2 0x100 EXP SWAP1 DIV PUSH20 0xFFFFFFFFFFFFFFFFFFFFFFFFFFFFFFFFFFFFFFFF AND PUSH20 0xFFFFFFFFFFFFFFFFFFFFFFFFFFFFFFFFFFFFFFFF AND SUB PUSH2 0xAD6 JUMPI PUSH1 0xB PUSH1 0x0 SWAP1 SLOAD SWAP1 PUSH2 0x100 EXP SWAP1 DIV PUSH20 0xFFFFFFFFFFFFFFFFFFFFFFFFFFFFFFFFFFFFFFFF AND PUSH1 0x10 PUSH1 0x0 PUSH2 0x100 EXP DUP2 SLOAD DUP2 PUSH20 0xFFFFFFFFFFFFFFFFFFFFFFFFFFFFFFFFFFFFFFFF MUL NOT AND SWAP1 DUP4 PUSH20 0xFFFFFFFFFFFFFFFFFFFFFFFFFFFFFFFFFFFFFFFF AND MUL OR SWAP1 SSTORE POP PUSH2 0xB3A JUMP JUMPDEST PUSH1 0xA PUSH1 0x0 SWAP1 SLOAD SWAP1 PUSH2 0x100 EXP SWAP1 DIV PUSH20 0xFFFFFFFFFFFFFFFFFFFFFFFFFFFFFFFFFFFFFFFF AND PUSH1 0x10 PUSH1 0x0 PUSH2 0x100 EXP DUP2 SLOAD DUP2 PUSH20 0xFFFFFFFFFFFFFFFFFFFFFFFFFFFFFFFFFFFFFFFF MUL NOT AND SWAP1 DUP4 PUSH20 0xFFFFFFFFFFFFFFFFFFFFFFFFFFFFFFFFFFFFFFFF AND MUL OR SWAP1 SSTORE POP JUMPDEST PUSH32 0x637351F91DA430278368FB3E486C8C3DA47B2E6CE4D28B2C404CB044702CA7E1 PUSH1 0x10 PUSH1 0x0 SWAP1 SLOAD SWAP1 PUSH2 0x100 EXP SWAP1 DIV PUSH20 0xFFFFFFFFFFFFFFFFFFFFFFFFFFFFFFFFFFFFFFFF AND PUSH1 0x40 MLOAD PUSH2 0xB8B SWAP2 SWAP1 PUSH2 0x1AA2 JUMP JUMPDEST PUSH1 0x40 MLOAD DUP1 SWAP2 SUB SWAP1 LOG1 JUMPDEST POP POP JUMP JUMPDEST PUSH1 0x0 DUP1 SLOAD SWAP1 PUSH2 0x100 EXP SWAP1 DIV PUSH1 0xFF AND DUP2 JUMP JUMPDEST PUSH7 0x2386F26FC10000 DUP2 JUMP JUMPDEST PUSH1 0xA PUSH1 0x0 SWAP1 SLOAD SWAP1 PUSH2 0x100 EXP SWAP1 DIV PUSH20 0xFFFFFFFFFFFFFFFFFFFFFFFFFFFFFFFFFFFFFFFF AND DUP2 JUMP JUMPDEST PUSH1 0x0 PUSH20 0xFFFFFFFFFFFFFFFFFFFFFFFFFFFFFFFFFFFFFFFF AND PUSH1 0xB PUSH1 0x0 SWAP1 SLOAD SWAP1 PUSH2 0x100 EXP SWAP1 DIV PUSH20 0xFFFFFFFFFFFFFFFFFFFFFFFFFFFFFFFFFFFFFFFF AND PUSH20 0xFFFFFFFFFFFFFFFFFFFFFFFFFFFFFFFFFFFFFFFF AND EQ PUSH2 0xC39 JUMPI PUSH2 0xC38 PUSH2 0x1720 JUMP JUMPDEST JUMPDEST PUSH1 0x1 PUSH1 0x0 PUSH1 0x2 PUSH2 0x100 EXP DUP2 SLOAD DUP2 PUSH1 0xFF MUL NOT AND SWAP1 DUP4 ISZERO ISZERO MUL OR SWAP1 SSTORE POP PUSH7 0x2386F26FC10000 CALLVALUE EQ PUSH2 0xC67 JUMPI PUSH1 0x0 DUP1 REVERT JUMPDEST CALLER PUSH1 0xB PUSH1 0x0 PUSH2 0x100 EXP DUP2 SLOAD DUP2 PUSH20 0xFFFFFFFFFFFFFFFFFFFFFFFFFFFFFFFFFFFFFFFF MUL NOT AND SWAP1 DUP4 PUSH20 0xFFFFFFFFFFFFFFFFFFFFFFFFFFFFFFFFFFFFFFFF AND MUL OR SWAP1 SSTORE POP PUSH32 0x31E760AA525306ABA638A784082A013B6A1CC0A9A1789F3F22281C0453B10B1F PUSH1 0xB PUSH1 0x0 SWAP1 SLOAD SWAP1 PUSH2 0x100 EXP SWAP1 DIV PUSH20 0xFFFFFFFFFFFFFFFFFFFFFFFFFFFFFFFFFFFFFFFF AND PUSH1 0x40 MLOAD PUSH2 0xCF9 SWAP2 SWAP1 PUSH2 0x1AA2 JUMP JUMPDEST PUSH1 0x40 MLOAD DUP1 SWAP2 SUB SWAP1 LOG1 PUSH1 0x0 PUSH1 0x2 NUMBER PUSH2 0xD10 SWAP2 SWAP1 PUSH2 0x1AEC JUMP JUMPDEST SUB PUSH2 0xD7D JUMPI PUSH1 0xB PUSH1 0x0 SWAP1 SLOAD SWAP1 PUSH2 0x100 EXP SWAP1 DIV PUSH20 0xFFFFFFFFFFFFFFFFFFFFFFFFFFFFFFFFFFFFFFFF AND PUSH1 0x10 PUSH1 0x0 PUSH2 0x100 EXP DUP2 SLOAD DUP2 PUSH20 0xFFFFFFFFFFFFFFFFFFFFFFFFFFFFFFFFFFFFFFFF MUL NOT AND SWAP1 DUP4 PUSH20 0xFFFFFFFFFFFFFFFFFFFFFFFFFFFFFFFFFFFFFFFF AND MUL OR SWAP1 SSTORE POP PUSH2 0xDE1 JUMP JUMPDEST PUSH1 0xA PUSH1 0x0 SWAP1 SLOAD SWAP1 PUSH2 0x100 EXP SWAP1 DIV PUSH20 0xFFFFFFFFFFFFFFFFFFFFFFFFFFFFFFFFFFFFFFFF AND PUSH1 0x10 PUSH1 0x0 PUSH2 0x100 EXP DUP2 SLOAD DUP2 PUSH20 0xFFFFFFFFFFFFFFFFFFFFFFFFFFFFFFFFFFFFFFFF MUL NOT AND SWAP1 DUP4 PUSH20 0xFFFFFFFFFFFFFFFFFFFFFFFFFFFFFFFFFFFFFFFF AND MUL OR SWAP1 SSTORE POP JUMPDEST PUSH1 0xE SLOAD TIMESTAMP PUSH2 0xDEF SWAP2 SWAP1 PUSH2 0x17A7 JUMP JUMPDEST PUSH1 0xF DUP2 SWAP1 SSTORE POP PUSH32 0x637351F91DA430278368FB3E486C8C3DA47B2E6CE4D28B2C404CB044702CA7E1 PUSH1 0x10 PUSH1 0x0 SWAP1 SLOAD SWAP1 PUSH2 0x100 EXP SWAP1 DIV PUSH20 0xFFFFFFFFFFFFFFFFFFFFFFFFFFFFFFFFFFFFFFFF AND PUSH1 0x40 MLOAD PUSH2 0xE46 SWAP2 SWAP1 PUSH2 0x1AA2 JUMP JUMPDEST PUSH1 0x40 MLOAD DUP1 SWAP2 SUB SWAP1 LOG1 JUMP JUMPDEST TIMESTAMP PUSH1 0xF SLOAD LT PUSH2 0xE5E JUMPI PUSH1 0x0 DUP1 REVERT JUMPDEST PUSH1 0x0 PUSH1 0x2 SWAP1 SLOAD SWAP1 PUSH2 0x100 EXP SWAP1 DIV PUSH1 0xFF AND PUSH2 0xE77 JUMPI PUSH1 0x0 DUP1 REVERT JUMPDEST PUSH2 0xE7F PUSH2 0x11E3 JUMP JUMPDEST JUMP JUMPDEST PUSH1 0x0 PUSH1 0xA PUSH1 0x0 SWAP1 SLOAD SWAP1 PUSH2 0x100 EXP SWAP1 DIV PUSH20 0xFFFFFFFFFFFFFFFFFFFFFFFFFFFFFFFFFFFFFFFF AND PUSH20 0xFFFFFFFFFFFFFFFFFFFFFFFFFFFFFFFFFFFFFFFF AND CALLER PUSH20 0xFFFFFFFFFFFFFFFFFFFFFFFFFFFFFFFFFFFFFFFF AND SUB PUSH2 0xFBD JUMPI PUSH1 0x0 PUSH1 0xC SLOAD GT PUSH2 0xEE7 JUMPI PUSH1 0x0 DUP1 REVERT JUMPDEST PUSH1 0xC SLOAD SWAP1 POP PUSH1 0x0 PUSH1 0xC DUP2 SWAP1 SSTORE POP PUSH1 0xA PUSH1 0x0 SWAP1 SLOAD SWAP1 PUSH2 0x100 EXP SWAP1 DIV PUSH20 0xFFFFFFFFFFFFFFFFFFFFFFFFFFFFFFFFFFFFFFFF AND PUSH20 0xFFFFFFFFFFFFFFFFFFFFFFFFFFFFFFFFFFFFFFFF AND PUSH2 0x8FC DUP3 SWAP1 DUP2 ISZERO MUL SWAP1 PUSH1 0x40 MLOAD PUSH1 0x0 PUSH1 0x40 MLOAD DUP1 DUP4 SUB DUP2 DUP6 DUP9 DUP9 CALL SWAP4 POP POP POP POP ISZERO DUP1 ISZERO PUSH2 0xF5C JUMPI RETURNDATASIZE PUSH1 0x0 DUP1 RETURNDATACOPY RETURNDATASIZE PUSH1 0x0 REVERT JUMPDEST POP PUSH32 0x2A44162A2D5223E37CACACC3F626DCFEE1396E0BE3616534C5C7B718F786B673 PUSH1 0xA PUSH1 0x0 SWAP1 SLOAD SWAP1 PUSH2 0x100 EXP SWAP1 DIV PUSH20 0xFFFFFFFFFFFFFFFFFFFFFFFFFFFFFFFFFFFFFFFF AND DUP3 PUSH1 0x40 MLOAD PUSH2 0xFB0 SWAP3 SWAP2 SWAP1 PUSH2 0x1B1D JUMP JUMPDEST PUSH1 0x40 MLOAD DUP1 SWAP2 SUB SWAP1 LOG1 PUSH2 0x109E JUMP JUMPDEST PUSH1 0x0 PUSH1 0xD SLOAD GT PUSH2 0xFCC JUMPI PUSH1 0x0 DUP1 REVERT JUMPDEST PUSH1 0xD SLOAD SWAP1 POP PUSH1 0x0 PUSH1 0xD DUP2 SWAP1 SSTORE POP PUSH1 0xB PUSH1 0x0 SWAP1 SLOAD SWAP1 PUSH2 0x100 EXP SWAP1 DIV PUSH20 0xFFFFFFFFFFFFFFFFFFFFFFFFFFFFFFFFFFFFFFFF AND PUSH20 0xFFFFFFFFFFFFFFFFFFFFFFFFFFFFFFFFFFFFFFFF AND PUSH2 0x8FC DUP3 SWAP1 DUP2 ISZERO MUL SWAP1 PUSH1 0x40 MLOAD PUSH1 0x0 PUSH1 0x40 MLOAD DUP1 DUP4 SUB DUP2 DUP6 DUP9 DUP9 CALL SWAP4 POP POP POP POP ISZERO DUP1 ISZERO PUSH2 0x1041 JUMPI RETURNDATASIZE PUSH1 0x0 DUP1 RETURNDATACOPY RETURNDATASIZE PUSH1 0x0 REVERT JUMPDEST POP PUSH32 0x2A44162A2D5223E37CACACC3F626DCFEE1396E0BE3616534C5C7B718F786B673 PUSH1 0xB PUSH1 0x0 SWAP1 SLOAD SWAP1 PUSH2 0x100 EXP SWAP1 DIV PUSH20 0xFFFFFFFFFFFFFFFFFFFFFFFFFFFFFFFFFFFFFFFF AND DUP3 PUSH1 0x40 MLOAD PUSH2 0x1095 SWAP3 SWAP2 SWAP1 PUSH2 0x1B1D JUMP JUMPDEST PUSH1 0x40 MLOAD DUP1 SWAP2 SUB SWAP1 LOG1 JUMPDEST POP JUMP JUMPDEST PUSH1 0x0 DUP1 PUSH1 0x2 PUSH2 0x100 EXP DUP2 SLOAD DUP2 PUSH1 0xFF MUL NOT AND SWAP1 DUP4 ISZERO ISZERO MUL OR SWAP1 SSTORE POP PUSH32 0x8245A3876D42D9B0BDB7F24184C03FC24E3D8A079F492B1EC9CEAE70B366EDF9 DUP2 PUSH1 0x40 MLOAD PUSH2 0x10EA SWAP2 SWAP1 PUSH2 0x1AA2 JUMP JUMPDEST PUSH1 0x40 MLOAD DUP1 SWAP2 SUB SWAP1 LOG1 PUSH1 0x0 SELFBALANCE SWAP1 POP PUSH1 0x1 ISZERO ISZERO DUP3 PUSH20 0xFFFFFFFFFFFFFFFFFFFFFFFFFFFFFFFFFFFFFFFF AND PUSH2 0x8FC DUP4 SWAP1 DUP2 ISZERO MUL SWAP1 PUSH1 0x40 MLOAD PUSH1 0x0 PUSH1 0x40 MLOAD DUP1 DUP4 SUB DUP2 DUP6 DUP9 DUP9 CALL SWAP4 POP POP POP POP ISZERO ISZERO EQ PUSH2 0x11A5 JUMPI PUSH1 0xA PUSH1 0x0 SWAP1 SLOAD SWAP1 PUSH2 0x100 EXP SWAP1 DIV PUSH20 0xFFFFFFFFFFFFFFFFFFFFFFFFFFFFFFFFFFFFFFFF AND PUSH20 0xFFFFFFFFFFFFFFFFFFFFFFFFFFFFFFFFFFFFFFFF AND DUP3 PUSH20 0xFFFFFFFFFFFFFFFFFFFFFFFFFFFFFFFFFFFFFFFF AND SUB PUSH2 0x1198 JUMPI DUP1 PUSH1 0xC DUP2 SWAP1 SSTORE POP PUSH2 0x11A0 JUMP JUMPDEST DUP1 PUSH1 0xD DUP2 SWAP1 SSTORE POP JUMPDEST PUSH2 0x11DF JUMP JUMPDEST PUSH32 0x2A44162A2D5223E37CACACC3F626DCFEE1396E0BE3616534C5C7B718F786B673 DUP3 DUP3 PUSH1 0x40 MLOAD PUSH2 0x11D6 SWAP3 SWAP2 SWAP1 PUSH2 0x1B1D JUMP JUMPDEST PUSH1 0x40 MLOAD DUP1 SWAP2 SUB SWAP1 LOG1 JUMPDEST POP POP JUMP JUMPDEST PUSH1 0x0 DUP1 PUSH1 0x2 PUSH2 0x100 EXP DUP2 SLOAD DUP2 PUSH1 0xFF MUL NOT AND SWAP1 DUP4 ISZERO ISZERO MUL OR SWAP1 SSTORE POP PUSH32 0x2207D46A2BA0F2ACDA06E9A222B40FD004E385738B3F868E63B2C0BFE4BC094C PUSH1 0x40 MLOAD PUSH1 0x40 MLOAD DUP1 SWAP2 SUB SWAP1 LOG1 PUSH1 0x0 PUSH1 0x2 SELFBALANCE PUSH2 0x1238 SWAP2 SWAP1 PUSH2 0x1B46 JUMP JUMPDEST SWAP1 POP PUSH1 0x0 ISZERO ISZERO PUSH1 0xA PUSH1 0x0 SWAP1 SLOAD SWAP1 PUSH2 0x100 EXP SWAP1 DIV PUSH20 0xFFFFFFFFFFFFFFFFFFFFFFFFFFFFFFFFFFFFFFFF AND PUSH20 0xFFFFFFFFFFFFFFFFFFFFFFFFFFFFFFFFFFFFFFFF AND PUSH2 0x8FC DUP4 SWAP1 DUP2 ISZERO MUL SWAP1 PUSH1 0x40 MLOAD PUSH1 0x0 PUSH1 0x40 MLOAD DUP1 DUP4 SUB DUP2 DUP6 DUP9 DUP9 CALL SWAP4 POP POP POP POP ISZERO ISZERO SUB PUSH2 0x12BA JUMPI DUP1 PUSH1 0xC PUSH1 0x0 DUP3 DUP3 SLOAD PUSH2 0x12AE SWAP2 SWAP1 PUSH2 0x17A7 JUMP JUMPDEST SWAP3 POP POP DUP2 SWAP1 SSTORE POP PUSH2 0x1316 JUMP JUMPDEST PUSH32 0x2A44162A2D5223E37CACACC3F626DCFEE1396E0BE3616534C5C7B718F786B673 PUSH1 0xA PUSH1 0x0 SWAP1 SLOAD SWAP1 PUSH2 0x100 EXP SWAP1 DIV PUSH20 0xFFFFFFFFFFFFFFFFFFFFFFFFFFFFFFFFFFFFFFFF AND DUP3 PUSH1 0x40 MLOAD PUSH2 0x130D SWAP3 SWAP2 SWAP1 PUSH2 0x1B1D JUMP JUMPDEST PUSH1 0x40 MLOAD DUP1 SWAP2 SUB SWAP1 LOG1 JUMPDEST PUSH1 0x0 ISZERO ISZERO PUSH1 0xB PUSH1 0x0 SWAP1 SLOAD SWAP1 PUSH2 0x100 EXP SWAP1 DIV PUSH20 0xFFFFFFFFFFFFFFFFFFFFFFFFFFFFFFFFFFFFFFFF AND PUSH20 0xFFFFFFFFFFFFFFFFFFFFFFFFFFFFFFFFFFFFFFFF AND PUSH2 0x8FC DUP4 SWAP1 DUP2 ISZERO MUL SWAP1 PUSH1 0x40 MLOAD PUSH1 0x0 PUSH1 0x40 MLOAD DUP1 DUP4 SUB DUP2 DUP6 DUP9 DUP9 CALL SWAP4 POP POP POP POP ISZERO ISZERO SUB PUSH2 0x1396 JUMPI DUP1 PUSH1 0xD PUSH1 0x0 DUP3 DUP3 SLOAD PUSH2 0x138A SWAP2 SWAP1 PUSH2 0x17A7 JUMP JUMPDEST SWAP3 POP POP DUP2 SWAP1 SSTORE POP PUSH2 0x13F2 JUMP JUMPDEST PUSH32 0x2A44162A2D5223E37CACACC3F626DCFEE1396E0BE3616534C5C7B718F786B673 PUSH1 0xB PUSH1 0x0 SWAP1 SLOAD SWAP1 PUSH2 0x100 EXP SWAP1 DIV PUSH20 0xFFFFFFFFFFFFFFFFFFFFFFFFFFFFFFFFFFFFFFFF AND DUP3 PUSH1 0x40 MLOAD PUSH2 0x13E9 SWAP3 SWAP2 SWAP1 PUSH2 0x1B1D JUMP JUMPDEST PUSH1 0x40 MLOAD DUP1 SWAP2 SUB SWAP1 LOG1 JUMPDEST POP JUMP JUMPDEST PUSH1 0x40 MLOAD DUP1 PUSH1 0x60 ADD PUSH1 0x40 MSTORE DUP1 PUSH1 0x3 SWAP1 JUMPDEST PUSH2 0x140C PUSH2 0x1422 JUMP JUMPDEST DUP2 MSTORE PUSH1 0x20 ADD SWAP1 PUSH1 0x1 SWAP1 SUB SWAP1 DUP2 PUSH2 0x1404 JUMPI SWAP1 POP POP SWAP1 JUMP JUMPDEST PUSH1 0x40 MLOAD DUP1 PUSH1 0x60 ADD PUSH1 0x40 MSTORE DUP1 PUSH1 0x3 SWAP1 PUSH1 0x20 DUP3 MUL DUP1 CALLDATASIZE DUP4 CALLDATACOPY DUP1 DUP3 ADD SWAP2 POP POP SWAP1 POP POP SWAP1 JUMP JUMPDEST PUSH1 0x0 PUSH1 0x3 SWAP1 POP SWAP2 SWAP1 POP JUMP JUMPDEST PUSH1 0x0 DUP2 SWAP1 POP SWAP3 SWAP2 POP POP JUMP JUMPDEST PUSH1 0x0 DUP2 SWAP1 POP SWAP2 SWAP1 POP JUMP JUMPDEST PUSH1 0x0 PUSH1 0x3 SWAP1 POP SWAP2 SWAP1 POP JUMP JUMPDEST PUSH1 0x0 DUP2 SWAP1 POP SWAP3 SWAP2 POP POP JUMP JUMPDEST PUSH1 0x0 DUP2 SWAP1 POP SWAP2 SWAP1 POP JUMP JUMPDEST PUSH1 0x0 PUSH20 0xFFFFFFFFFFFFFFFFFFFFFFFFFFFFFFFFFFFFFFFF DUP3 AND SWAP1 POP SWAP2 SWAP1 POP JUMP JUMPDEST PUSH1 0x0 PUSH2 0x14AF DUP3 PUSH2 0x1484 JUMP JUMPDEST SWAP1 POP SWAP2 SWAP1 POP JUMP JUMPDEST PUSH2 0x14BF DUP2 PUSH2 0x14A4 JUMP JUMPDEST DUP3 MSTORE POP POP JUMP JUMPDEST PUSH1 0x0 PUSH2 0x14D1 DUP4 DUP4 PUSH2 0x14B6 JUMP JUMPDEST PUSH1 0x20 DUP4 ADD SWAP1 POP SWAP3 SWAP2 POP POP JUMP JUMPDEST PUSH1 0x0 PUSH1 0x20 DUP3 ADD SWAP1 POP SWAP2 SWAP1 POP JUMP JUMPDEST PUSH2 0x14F3 DUP2 PUSH2 0x1464 JUMP JUMPDEST PUSH2 0x14FD DUP2 DUP5 PUSH2 0x146F JUMP JUMPDEST SWAP3 POP PUSH2 0x1508 DUP3 PUSH2 0x147A JUMP JUMPDEST DUP1 PUSH1 0x0 JUMPDEST DUP4 DUP2 LT ISZERO PUSH2 0x1539 JUMPI DUP2 MLOAD PUSH2 0x1520 DUP8 DUP3 PUSH2 0x14C5 JUMP JUMPDEST SWAP7 POP PUSH2 0x152B DUP4 PUSH2 0x14DD JUMP JUMPDEST SWAP3 POP POP PUSH1 0x1 DUP2 ADD SWAP1 POP PUSH2 0x150C JUMP JUMPDEST POP POP POP POP POP POP JUMP JUMPDEST PUSH1 0x0 PUSH2 0x154D DUP4 DUP4 PUSH2 0x14EA JUMP JUMPDEST PUSH1 0x60 DUP4 ADD SWAP1 POP SWAP3 SWAP2 POP POP JUMP JUMPDEST PUSH1 0x0 PUSH1 0x20 DUP3 ADD SWAP1 POP SWAP2 SWAP1 POP JUMP JUMPDEST PUSH2 0x156F DUP2 PUSH2 0x1444 JUMP JUMPDEST PUSH2 0x1579 DUP2 DUP5 PUSH2 0x144F JUMP JUMPDEST SWAP3 POP PUSH2 0x1584 DUP3 PUSH2 0x145A JUMP JUMPDEST DUP1 PUSH1 0x0 JUMPDEST DUP4 DUP2 LT ISZERO PUSH2 0x15B5 JUMPI DUP2 MLOAD PUSH2 0x159C DUP8 DUP3 PUSH2 0x1541 JUMP JUMPDEST SWAP7 POP PUSH2 0x15A7 DUP4 PUSH2 0x1559 JUMP JUMPDEST SWAP3 POP POP PUSH1 0x1 DUP2 ADD SWAP1 POP PUSH2 0x1588 JUMP JUMPDEST POP POP POP POP POP POP JUMP JUMPDEST PUSH1 0x0 PUSH2 0x120 DUP3 ADD SWAP1 POP PUSH2 0x15D3 PUSH1 0x0 DUP4 ADD DUP5 PUSH2 0x1566 JUMP JUMPDEST SWAP3 SWAP2 POP POP JUMP JUMPDEST PUSH1 0x0 PUSH2 0x15E4 DUP3 PUSH2 0x1484 JUMP JUMPDEST SWAP1 POP SWAP2 SWAP1 POP JUMP JUMPDEST PUSH2 0x15F4 DUP2 PUSH2 0x15D9 JUMP JUMPDEST DUP3 MSTORE POP POP JUMP JUMPDEST PUSH1 0x0 PUSH1 0x20 DUP3 ADD SWAP1 POP PUSH2 0x160F PUSH1 0x0 DUP4 ADD DUP5 PUSH2 0x15EB JUMP JUMPDEST SWAP3 SWAP2 POP POP JUMP JUMPDEST PUSH1 0x0 DUP1 REVERT JUMPDEST PUSH1 0x0 PUSH1 0xFF DUP3 AND SWAP1 POP SWAP2 SWAP1 POP JUMP JUMPDEST PUSH2 0x1630 DUP2 PUSH2 0x161A JUMP JUMPDEST DUP2 EQ PUSH2 0x163B JUMPI PUSH1 0x0 DUP1 REVERT JUMPDEST POP JUMP JUMPDEST PUSH1 0x0 DUP2 CALLDATALOAD SWAP1 POP PUSH2 0x164D DUP2 PUSH2 0x1627 JUMP JUMPDEST SWAP3 SWAP2 POP POP JUMP JUMPDEST PUSH1 0x0 DUP1 PUSH1 0x40 DUP4 DUP6 SUB SLT ISZERO PUSH2 0x166A JUMPI PUSH2 0x1669 PUSH2 0x1615 JUMP JUMPDEST JUMPDEST PUSH1 0x0 PUSH2 0x1678 DUP6 DUP3 DUP7 ADD PUSH2 0x163E JUMP JUMPDEST SWAP3 POP POP PUSH1 0x20 PUSH2 0x1689 DUP6 DUP3 DUP7 ADD PUSH2 0x163E JUMP JUMPDEST SWAP2 POP POP SWAP3 POP SWAP3 SWAP1 POP JUMP JUMPDEST PUSH2 0x169C DUP2 PUSH2 0x161A JUMP JUMPDEST DUP3 MSTORE POP POP JUMP JUMPDEST PUSH1 0x0 PUSH1 0x20 DUP3 ADD SWAP1 POP PUSH2 0x16B7 PUSH1 0x0 DUP4 ADD DUP5 PUSH2 0x1693 JUMP JUMPDEST SWAP3 SWAP2 POP POP JUMP JUMPDEST PUSH1 0x0 DUP2 SWAP1 POP SWAP2 SWAP1 POP JUMP JUMPDEST PUSH2 0x16D0 DUP2 PUSH2 0x16BD JUMP JUMPDEST DUP3 MSTORE POP POP JUMP JUMPDEST PUSH1 0x0 PUSH1 0x20 DUP3 ADD SWAP1 POP PUSH2 0x16EB PUSH1 0x0 DUP4 ADD DUP5 PUSH2 0x16C7 JUMP JUMPDEST SWAP3 SWAP2 POP POP JUMP JUMPDEST PUSH32 0x4E487B7100000000000000000000000000000000000000000000000000000000 PUSH1 0x0 MSTORE PUSH1 0x32 PUSH1 0x4 MSTORE PUSH1 0x24 PUSH1 0x0 REVERT JUMPDEST PUSH32 0x4E487B7100000000000000000000000000000000000000000000000000000000 PUSH1 0x0 MSTORE PUSH1 0x1 PUSH1 0x4 MSTORE PUSH1 0x24 PUSH1 0x0 REVERT JUMPDEST PUSH32 0x4E487B7100000000000000000000000000000000000000000000000000000000 PUSH1 0x0 MSTORE PUSH1 0x11 PUSH1 0x4 MSTORE PUSH1 0x24 PUSH1 0x0 REVERT JUMPDEST PUSH1 0x0 PUSH2 0x1789 DUP3 PUSH2 0x161A JUMP JUMPDEST SWAP2 POP PUSH1 0xFF DUP3 SUB PUSH2 0x179C JUMPI PUSH2 0x179B PUSH2 0x174F JUMP JUMPDEST JUMPDEST PUSH1 0x1 DUP3 ADD SWAP1 POP SWAP2 SWAP1 POP JUMP JUMPDEST PUSH1 0x0 PUSH2 0x17B2 DUP3 PUSH2 0x16BD JUMP JUMPDEST SWAP2 POP PUSH2 0x17BD DUP4 PUSH2 0x16BD JUMP JUMPDEST SWAP3 POP DUP3 PUSH32 0xFFFFFFFFFFFFFFFFFFFFFFFFFFFFFFFFFFFFFFFFFFFFFFFFFFFFFFFFFFFFFFFF SUB DUP3 GT ISZERO PUSH2 0x17F2 JUMPI PUSH2 0x17F1 PUSH2 0x174F JUMP JUMPDEST JUMPDEST DUP3 DUP3 ADD SWAP1 POP SWAP3 SWAP2 POP POP JUMP JUMPDEST PUSH1 0x0 PUSH2 0x1808 DUP3 PUSH2 0x161A JUMP JUMPDEST SWAP2 POP PUSH2 0x1813 DUP4 PUSH2 0x161A JUMP JUMPDEST SWAP3 POP DUP3 DUP3 LT ISZERO PUSH2 0x1826 JUMPI PUSH2 0x1825 PUSH2 0x174F JUMP JUMPDEST JUMPDEST DUP3 DUP3 SUB SWAP1 POP SWAP3 SWAP2 POP POP JUMP JUMPDEST PUSH1 0x0 PUSH2 0x183C DUP3 PUSH2 0x16BD JUMP JUMPDEST SWAP2 POP PUSH32 0xFFFFFFFFFFFFFFFFFFFFFFFFFFFFFFFFFFFFFFFFFFFFFFFFFFFFFFFFFFFFFFFF DUP3 SUB PUSH2 0x186E JUMPI PUSH2 0x186D PUSH2 0x174F JUMP JUMPDEST JUMPDEST PUSH1 0x1 DUP3 ADD SWAP1 POP SWAP2 SWAP1 POP JUMP JUMPDEST PUSH1 0x0 PUSH2 0x1884 DUP3 PUSH2 0x161A JUMP JUMPDEST SWAP2 POP PUSH2 0x188F DUP4 PUSH2 0x161A JUMP JUMPDEST SWAP3 POP DUP3 PUSH1 0xFF SUB DUP3 GT ISZERO PUSH2 0x18A5 JUMPI PUSH2 0x18A4 PUSH2 0x174F JUMP JUMPDEST JUMPDEST DUP3 DUP3 ADD SWAP1 POP SWAP3 SWAP2 POP POP JUMP JUMPDEST PUSH1 0x0 PUSH2 0x18BB DUP3 PUSH2 0x16BD JUMP JUMPDEST SWAP2 POP PUSH2 0x18C6 DUP4 PUSH2 0x16BD JUMP JUMPDEST SWAP3 POP DUP3 DUP3 LT ISZERO PUSH2 0x18D9 JUMPI PUSH2 0x18D8 PUSH2 0x174F JUMP JUMPDEST JUMPDEST DUP3 DUP3 SUB SWAP1 POP SWAP3 SWAP2 POP POP JUMP JUMPDEST PUSH1 0x0 DUP2 PUSH1 0x1 SHR SWAP1 POP SWAP2 SWAP1 POP JUMP JUMPDEST PUSH1 0x0 DUP1 DUP3 SWAP2 POP DUP4 SWAP1 POP JUMPDEST PUSH1 0x1 DUP6 GT ISZERO PUSH2 0x193B JUMPI DUP1 DUP7 DIV DUP2 GT ISZERO PUSH2 0x1917 JUMPI PUSH2 0x1916 PUSH2 0x174F JUMP JUMPDEST JUMPDEST PUSH1 0x1 DUP6 AND ISZERO PUSH2 0x1926 JUMPI DUP1 DUP3 MUL SWAP2 POP JUMPDEST DUP1 DUP2 MUL SWAP1 POP PUSH2 0x1934 DUP6 PUSH2 0x18E4 JUMP JUMPDEST SWAP5 POP PUSH2 0x18FB JUMP JUMPDEST SWAP5 POP SWAP5 SWAP3 POP POP POP JUMP JUMPDEST PUSH1 0x0 DUP3 PUSH2 0x1954 JUMPI PUSH1 0x1 SWAP1 POP PUSH2 0x1A10 JUMP JUMPDEST DUP2 PUSH2 0x1962 JUMPI PUSH1 0x0 SWAP1 POP PUSH2 0x1A10 JUMP JUMPDEST DUP2 PUSH1 0x1 DUP2 EQ PUSH2 0x1978 JUMPI PUSH1 0x2 DUP2 EQ PUSH2 0x1982 JUMPI PUSH2 0x19B1 JUMP JUMPDEST PUSH1 0x1 SWAP2 POP POP PUSH2 0x1A10 JUMP JUMPDEST PUSH1 0xFF DUP5 GT ISZERO PUSH2 0x1994 JUMPI PUSH2 0x1993 PUSH2 0x174F JUMP JUMPDEST JUMPDEST DUP4 PUSH1 0x2 EXP SWAP2 POP DUP5 DUP3 GT ISZERO PUSH2 0x19AB JUMPI PUSH2 0x19AA PUSH2 0x174F JUMP JUMPDEST JUMPDEST POP PUSH2 0x1A10 JUMP JUMPDEST POP PUSH1 0x20 DUP4 LT PUSH2 0x133 DUP4 LT AND PUSH1 0x4E DUP5 LT PUSH1 0xB DUP5 LT AND OR ISZERO PUSH2 0x19E6 JUMPI DUP3 DUP3 EXP SWAP1 POP DUP4 DUP2 GT ISZERO PUSH2 0x19E1 JUMPI PUSH2 0x19E0 PUSH2 0x174F JUMP JUMPDEST JUMPDEST PUSH2 0x1A10 JUMP JUMPDEST PUSH2 0x19F3 DUP5 DUP5 DUP5 PUSH1 0x1 PUSH2 0x18F1 JUMP JUMPDEST SWAP3 POP SWAP1 POP DUP2 DUP5 DIV DUP2 GT ISZERO PUSH2 0x1A0A JUMPI PUSH2 0x1A09 PUSH2 0x174F JUMP JUMPDEST JUMPDEST DUP2 DUP2 MUL SWAP1 POP JUMPDEST SWAP4 SWAP3 POP POP POP JUMP JUMPDEST PUSH1 0x0 PUSH2 0x1A22 DUP3 PUSH2 0x161A JUMP JUMPDEST SWAP2 POP PUSH2 0x1A2D DUP4 PUSH2 0x161A JUMP JUMPDEST SWAP3 POP PUSH2 0x1A3B PUSH1 0xFF DUP5 DUP5 PUSH2 0x1944 JUMP JUMPDEST SWAP1 POP SWAP3 SWAP2 POP POP JUMP JUMPDEST PUSH1 0x0 DUP2 SWAP1 POP SWAP2 SWAP1 POP JUMP JUMPDEST PUSH1 0x0 PUSH2 0x1A68 PUSH2 0x1A63 PUSH2 0x1A5E DUP5 PUSH2 0x1484 JUMP JUMPDEST PUSH2 0x1A43 JUMP JUMPDEST PUSH2 0x1484 JUMP JUMPDEST SWAP1 POP SWAP2 SWAP1 POP JUMP JUMPDEST PUSH1 0x0 PUSH2 0x1A7A DUP3 PUSH2 0x1A4D JUMP JUMPDEST SWAP1 POP SWAP2 SWAP1 POP JUMP JUMPDEST PUSH1 0x0 PUSH2 0x1A8C DUP3 PUSH2 0x1A6F JUMP JUMPDEST SWAP1 POP SWAP2 SWAP1 POP JUMP JUMPDEST PUSH2 0x1A9C DUP2 PUSH2 0x1A81 JUMP JUMPDEST DUP3 MSTORE POP POP JUMP JUMPDEST PUSH1 0x0 PUSH1 0x20 DUP3 ADD SWAP1 POP PUSH2 0x1AB7 PUSH1 0x0 DUP4 ADD DUP5 PUSH2 0x1A93 JUMP JUMPDEST SWAP3 SWAP2 POP POP JUMP JUMPDEST PUSH32 0x4E487B7100000000000000000000000000000000000000000000000000000000 PUSH1 0x0 MSTORE PUSH1 0x12 PUSH1 0x4 MSTORE PUSH1 0x24 PUSH1 0x0 REVERT JUMPDEST PUSH1 0x0 PUSH2 0x1AF7 DUP3 PUSH2 0x16BD JUMP JUMPDEST SWAP2 POP PUSH2 0x1B02 DUP4 PUSH2 0x16BD JUMP JUMPDEST SWAP3 POP DUP3 PUSH2 0x1B12 JUMPI PUSH2 0x1B11 PUSH2 0x1ABD JUMP JUMPDEST JUMPDEST DUP3 DUP3 MOD SWAP1 POP SWAP3 SWAP2 POP POP JUMP JUMPDEST PUSH1 0x0 PUSH1 0x40 DUP3 ADD SWAP1 POP PUSH2 0x1B32 PUSH1 0x0 DUP4 ADD DUP6 PUSH2 0x1A93 JUMP JUMPDEST PUSH2 0x1B3F PUSH1 0x20 DUP4 ADD DUP5 PUSH2 0x16C7 JUMP JUMPDEST SWAP4 SWAP3 POP POP POP JUMP JUMPDEST PUSH1 0x0 PUSH2 0x1B51 DUP3 PUSH2 0x16BD JUMP JUMPDEST SWAP2 POP PUSH2 0x1B5C DUP4 PUSH2 0x16BD JUMP JUMPDEST SWAP3 POP DUP3 PUSH2 0x1B6C JUMPI PUSH2 0x1B6B PUSH2 0x1ABD JUMP JUMPDEST JUMPDEST DUP3 DUP3 DIV SWAP1 POP SWAP3 SWAP2 POP POP JUMP INVALID LOG2 PUSH5 0x6970667358 0x22 SLT KECCAK256 SAR 0xA7 MSIZE PC SWAP14 EQ PUSH26 0xE478641585F3E871A609E40E141BC798DF908174E10DC9324064 PUSH20 0x6F6C634300080E00330000000000000000000000 "
				},
				"gasEstimates": {
					"creation": {
						"codeDepositCost": "1417000",
						"executionCost": "infinite",
						"totalCost": "infinite"
					},
					"external": {
						"boardSize()": "2535",
						"emergecyCashout()": "infinite",
						"gameCost()": "329",
						"getBoard()": "infinite",
						"joinGame()": "infinite",
						"player1()": "2536",
						"player2()": "2537",
						"setStone(uint8,uint8)": "infinite",
						"withdrawWin()": "infinite"
					},
					"internal": {
						"setDraw()": "infinite",
						"setWinner(address payable)": "infinite"
					}
				},
				"methodIdentifiers": {
					"boardSize()": "c51d69f4",
					"emergecyCashout()": "ea40a2a2",
					"gameCost()": "cab896dc",
					"getBoard()": "3264a34b",
					"joinGame()": "d4f77b1c",
					"player1()": "d30895e4",
					"player2()": "59a5f12d",
					"setStone(uint8,uint8)": "7d3f9074",
					"withdrawWin()": "fb815503"
				}
			},
			"storageLayout": {
				"storage": [
					{
						"astId": 7,
						"contract": "tictactoe.sol:TicTacToe",
						"label": "boardSize",
						"offset": 0,
						"slot": "0",
						"type": "t_uint8"
					},
					{
						"astId": 9,
						"contract": "tictactoe.sol:TicTacToe",
						"label": "movesCounter",
						"offset": 1,
						"slot": "0",
						"type": "t_uint8"
					},
					{
						"astId": 11,
						"contract": "tictactoe.sol:TicTacToe",
						"label": "gameActive",
						"offset": 2,
						"slot": "0",
						"type": "t_bool"
					},
					{
						"astId": 17,
						"contract": "tictactoe.sol:TicTacToe",
						"label": "board",
						"offset": 0,
						"slot": "1",
						"type": "t_array(t_array(t_address)3_storage)3_storage"
					},
					{
						"astId": 19,
						"contract": "tictactoe.sol:TicTacToe",
						"label": "player1",
						"offset": 0,
						"slot": "10",
						"type": "t_address_payable"
					},
					{
						"astId": 21,
						"contract": "tictactoe.sol:TicTacToe",
						"label": "player2",
						"offset": 0,
						"slot": "11",
						"type": "t_address_payable"
					},
					{
						"astId": 23,
						"contract": "tictactoe.sol:TicTacToe",
						"label": "balanceToWithdrawPlayer1",
						"offset": 0,
						"slot": "12",
						"type": "t_uint256"
					},
					{
						"astId": 25,
						"contract": "tictactoe.sol:TicTacToe",
						"label": "balanceToWithdrawPlayer2",
						"offset": 0,
						"slot": "13",
						"type": "t_uint256"
					},
					{
						"astId": 28,
						"contract": "tictactoe.sol:TicTacToe",
						"label": "timeToReact",
						"offset": 0,
						"slot": "14",
						"type": "t_uint256"
					},
					{
						"astId": 30,
						"contract": "tictactoe.sol:TicTacToe",
						"label": "gameValidUntil",
						"offset": 0,
						"slot": "15",
						"type": "t_uint256"
					},
					{
						"astId": 32,
						"contract": "tictactoe.sol:TicTacToe",
						"label": "activePlayer",
						"offset": 0,
						"slot": "16",
						"type": "t_address_payable"
					}
				],
				"types": {
					"t_address": {
						"encoding": "inplace",
						"label": "address",
						"numberOfBytes": "20"
					},
					"t_address_payable": {
						"encoding": "inplace",
						"label": "address payable",
						"numberOfBytes": "20"
					},
					"t_array(t_address)3_storage": {
						"base": "t_address",
						"encoding": "inplace",
						"label": "address[3]",
						"numberOfBytes": "96"
					},
					"t_array(t_array(t_address)3_storage)3_storage": {
						"base": "t_array(t_address)3_storage",
						"encoding": "inplace",
						"label": "address[3][3]",
						"numberOfBytes": "288"
					},
					"t_bool": {
						"encoding": "inplace",
						"label": "bool",
						"numberOfBytes": "1"
					},
					"t_uint256": {
						"encoding": "inplace",
						"label": "uint256",
						"numberOfBytes": "32"
					},
					"t_uint8": {
						"encoding": "inplace",
						"label": "uint8",
						"numberOfBytes": "1"
					}
				}
			},
			"userdoc": {
				"kind": "user",
				"methods": {},
				"version": 1
			}
		}
	}
}