{
	"TicTacToe.sol": {
		"TicTacToe": {
			"abi": [
				{
					"inputs": [],
					"stateMutability": "payable",
					"type": "constructor"
				},
				{
					"anonymous": false,
					"inputs": [],
					"name": "GameOverWithDraw",
					"type": "event"
				},
				{
					"anonymous": false,
					"inputs": [
						{
							"indexed": false,
							"internalType": "address",
							"name": "winner",
							"type": "address"
						}
					],
					"name": "GameOverWithWin",
					"type": "event"
				},
				{
					"anonymous": false,
					"inputs": [
						{
							"indexed": false,
							"internalType": "address",
							"name": "player",
							"type": "address"
						}
					],
					"name": "NextPlayer",
					"type": "event"
				},
				{
					"anonymous": false,
					"inputs": [
						{
							"indexed": false,
							"internalType": "address",
							"name": "receiver",
							"type": "address"
						},
						{
							"indexed": false,
							"internalType": "uint256",
							"name": "amountInWei",
							"type": "uint256"
						}
					],
					"name": "PayoutSuccess",
					"type": "event"
				},
				{
					"anonymous": false,
					"inputs": [
						{
							"indexed": false,
							"internalType": "address",
							"name": "player",
							"type": "address"
						}
					],
					"name": "PlayerJoined",
					"type": "event"
				},
				{
					"inputs": [],
					"name": "activePlayer",
					"outputs": [
						{
							"internalType": "address payable",
							"name": "",
							"type": "address"
						}
					],
					"stateMutability": "view",
					"type": "function"
				},
				{
					"inputs": [],
					"name": "balanceToWithdrawPlayer1",
					"outputs": [
						{
							"internalType": "uint256",
							"name": "",
							"type": "uint256"
						}
					],
					"stateMutability": "view",
					"type": "function"
				},
				{
					"inputs": [],
					"name": "balanceToWithdrawPlayer2",
					"outputs": [
						{
							"internalType": "uint256",
							"name": "",
							"type": "uint256"
						}
					],
					"stateMutability": "view",
					"type": "function"
				},
				{
					"inputs": [],
					"name": "boardSize",
					"outputs": [
						{
							"internalType": "uint8",
							"name": "",
							"type": "uint8"
						}
					],
					"stateMutability": "view",
					"type": "function"
				},
				{
					"inputs": [],
					"name": "emergecyCashout",
					"outputs": [],
					"stateMutability": "nonpayable",
					"type": "function"
				},
				{
					"inputs": [],
					"name": "gameActive",
					"outputs": [
						{
							"internalType": "bool",
							"name": "",
							"type": "bool"
						}
					],
					"stateMutability": "view",
					"type": "function"
				},
				{
					"inputs": [],
					"name": "gameCost",
					"outputs": [
						{
							"internalType": "uint256",
							"name": "",
							"type": "uint256"
						}
					],
					"stateMutability": "view",
					"type": "function"
				},
				{
					"inputs": [],
					"name": "gameValidUntil",
					"outputs": [
						{
							"internalType": "uint256",
							"name": "",
							"type": "uint256"
						}
					],
					"stateMutability": "view",
					"type": "function"
				},
				{
					"inputs": [],
					"name": "getBoard",
					"outputs": [
						{
							"internalType": "address[3][3]",
							"name": "",
							"type": "address[3][3]"
						}
					],
					"stateMutability": "view",
					"type": "function"
				},
				{
					"inputs": [],
					"name": "joinGameasPlayer1",
					"outputs": [],
					"stateMutability": "payable",
					"type": "function"
				},
				{
					"inputs": [],
					"name": "joinGameasPlayer2",
					"outputs": [],
					"stateMutability": "payable",
					"type": "function"
				},
				{
					"inputs": [],
					"name": "movesCounter",
					"outputs": [
						{
							"internalType": "uint8",
							"name": "",
							"type": "uint8"
						}
					],
					"stateMutability": "view",
					"type": "function"
				},
				{
					"inputs": [],
					"name": "player1",
					"outputs": [
						{
							"internalType": "address payable",
							"name": "",
							"type": "address"
						}
					],
					"stateMutability": "view",
					"type": "function"
				},
				{
					"inputs": [],
					"name": "player2",
					"outputs": [
						{
							"internalType": "address payable",
							"name": "",
							"type": "address"
						}
					],
					"stateMutability": "view",
					"type": "function"
				},
				{
					"inputs": [],
					"name": "resetGame",
					"outputs": [],
					"stateMutability": "nonpayable",
					"type": "function"
				},
				{
					"inputs": [
						{
							"internalType": "uint8",
							"name": "x",
							"type": "uint8"
						},
						{
							"internalType": "uint8",
							"name": "y",
							"type": "uint8"
						}
					],
					"name": "setStone",
					"outputs": [],
					"stateMutability": "nonpayable",
					"type": "function"
				},
				{
					"inputs": [],
					"name": "timeToReact",
					"outputs": [
						{
							"internalType": "uint256",
							"name": "",
							"type": "uint256"
						}
					],
					"stateMutability": "view",
					"type": "function"
				},
				{
					"inputs": [],
					"name": "withdrawWin",
					"outputs": [],
					"stateMutability": "nonpayable",
					"type": "function"
				}
			],
			"devdoc": {
				"kind": "dev",
				"methods": {},
				"version": 1
			},
			"evm": {
				"assembly": "    /* \"TicTacToe.sol\":61:6810  contract TicTacToe {... */\n  mstore(0x40, 0x80)\n    /* \"TicTacToe.sol\":168:169  3 */\n  0x03\n    /* \"TicTacToe.sol\":143:169  uint8 public boardSize = 3 */\n  0x00\n  dup1\n  0x0100\n  exp\n  dup2\n  sload\n  dup2\n  0xff\n  mul\n  not\n  and\n  swap1\n  dup4\n  0xff\n  and\n  mul\n  or\n  swap1\n  sstore\n  pop\n    /* \"TicTacToe.sol\":504:512  365 days */\n  0x01e13380\n    /* \"TicTacToe.sol\":478:512  uint public timeToReact = 365 days */\n  0x17\n  sstore\n    /* \"TicTacToe.sol\":885:896  timeToReact */\n  sload(0x17)\n    /* \"TicTacToe.sol\":867:882  block.timestamp */\n  timestamp\n    /* \"TicTacToe.sol\":867:896  block.timestamp + timeToReact */\n  tag_3\n  swap2\n  swap1\n  tag_4\n  jump\t// in\ntag_3:\n    /* \"TicTacToe.sol\":850:864  gameValidUntil */\n  0x18\n    /* \"TicTacToe.sol\":850:896  gameValidUntil = block.timestamp + timeToReact */\n  dup2\n  swap1\n  sstore\n  pop\n    /* \"TicTacToe.sol\":61:6810  contract TicTacToe {... */\n  jump(tag_5)\n    /* \"#utility.yul\":7:84   */\ntag_6:\n    /* \"#utility.yul\":44:51   */\n  0x00\n    /* \"#utility.yul\":73:78   */\n  dup2\n    /* \"#utility.yul\":62:78   */\n  swap1\n  pop\n    /* \"#utility.yul\":7:84   */\n  swap2\n  swap1\n  pop\n  jump\t// out\n    /* \"#utility.yul\":90:270   */\ntag_7:\n    /* \"#utility.yul\":138:215   */\n  0x4e487b7100000000000000000000000000000000000000000000000000000000\n    /* \"#utility.yul\":135:136   */\n  0x00\n    /* \"#utility.yul\":128:216   */\n  mstore\n    /* \"#utility.yul\":235:239   */\n  0x11\n    /* \"#utility.yul\":232:233   */\n  0x04\n    /* \"#utility.yul\":225:240   */\n  mstore\n    /* \"#utility.yul\":259:263   */\n  0x24\n    /* \"#utility.yul\":256:257   */\n  0x00\n    /* \"#utility.yul\":249:264   */\n  revert\n    /* \"#utility.yul\":276:467   */\ntag_4:\n    /* \"#utility.yul\":316:319   */\n  0x00\n    /* \"#utility.yul\":335:355   */\n  tag_12\n    /* \"#utility.yul\":353:354   */\n  dup3\n    /* \"#utility.yul\":335:355   */\n  tag_6\n  jump\t// in\ntag_12:\n    /* \"#utility.yul\":330:355   */\n  swap2\n  pop\n    /* \"#utility.yul\":369:389   */\n  tag_13\n    /* \"#utility.yul\":387:388   */\n  dup4\n    /* \"#utility.yul\":369:389   */\n  tag_6\n  jump\t// in\ntag_13:\n    /* \"#utility.yul\":364:389   */\n  swap3\n  pop\n    /* \"#utility.yul\":412:413   */\n  dup3\n    /* \"#utility.yul\":409:410   */\n  dup3\n    /* \"#utility.yul\":405:414   */\n  add\n    /* \"#utility.yul\":398:414   */\n  swap1\n  pop\n    /* \"#utility.yul\":433:436   */\n  dup1\n    /* \"#utility.yul\":430:431   */\n  dup3\n    /* \"#utility.yul\":427:437   */\n  gt\n    /* \"#utility.yul\":424:460   */\n  iszero\n  tag_14\n  jumpi\n    /* \"#utility.yul\":440:458   */\n  tag_15\n  tag_7\n  jump\t// in\ntag_15:\n    /* \"#utility.yul\":424:460   */\ntag_14:\n    /* \"#utility.yul\":276:467   */\n  swap3\n  swap2\n  pop\n  pop\n  jump\t// out\n    /* \"TicTacToe.sol\":61:6810  contract TicTacToe {... */\ntag_5:\n  dataSize(sub_0)\n  dup1\n  dataOffset(sub_0)\n  0x00\n  codecopy\n  0x00\n  return\nstop\n\nsub_0: assembly {\n        /* \"TicTacToe.sol\":61:6810  contract TicTacToe {... */\n      mstore(0x40, 0x80)\n      jumpi(tag_1, lt(calldatasize, 0x04))\n      shr(0xe0, calldataload(0x00))\n      dup1\n      0x976306f0\n      gt\n      tag_20\n      jumpi\n      dup1\n      0xcab896dc\n      gt\n      tag_21\n      jumpi\n      dup1\n      0xcab896dc\n      eq\n      tag_15\n      jumpi\n      dup1\n      0xd30895e4\n      eq\n      tag_16\n      jumpi\n      dup1\n      0xea40a2a2\n      eq\n      tag_17\n      jumpi\n      dup1\n      0xf020044f\n      eq\n      tag_18\n      jumpi\n      dup1\n      0xfb815503\n      eq\n      tag_19\n      jumpi\n      jump(tag_1)\n    tag_21:\n      dup1\n      0x976306f0\n      eq\n      tag_11\n      jumpi\n      dup1\n      0xbb472219\n      eq\n      tag_12\n      jumpi\n      dup1\n      0xc51d69f4\n      eq\n      tag_13\n      jumpi\n      dup1\n      0xc95fe2ad\n      eq\n      tag_14\n      jumpi\n      jump(tag_1)\n    tag_20:\n      dup1\n      0x47cc53ad\n      gt\n      tag_22\n      jumpi\n      dup1\n      0x47cc53ad\n      eq\n      tag_6\n      jumpi\n      dup1\n      0x59a5f12d\n      eq\n      tag_7\n      jumpi\n      dup1\n      0x6c5c8df3\n      eq\n      tag_8\n      jumpi\n      dup1\n      0x7d3f9074\n      eq\n      tag_9\n      jumpi\n      dup1\n      0x7fdffd23\n      eq\n      tag_10\n      jumpi\n      jump(tag_1)\n    tag_22:\n      dup1\n      0x0d8a5258\n      eq\n      tag_2\n      jumpi\n      dup1\n      0x0f2f9868\n      eq\n      tag_3\n      jumpi\n      dup1\n      0x15885694\n      eq\n      tag_4\n      jumpi\n      dup1\n      0x3264a34b\n      eq\n      tag_5\n      jumpi\n    tag_1:\n      0x00\n      dup1\n      revert\n        /* \"TicTacToe.sol\":390:426  uint public balanceToWithdrawPlayer1 */\n    tag_2:\n      callvalue\n      dup1\n      iszero\n      tag_23\n      jumpi\n      0x00\n      dup1\n      revert\n    tag_23:\n      pop\n      tag_24\n      tag_25\n      jump\t// in\n    tag_24:\n      mload(0x40)\n      tag_26\n      swap2\n      swap1\n      tag_27\n      jump\t// in\n    tag_26:\n      mload(0x40)\n      dup1\n      swap2\n      sub\n      swap1\n      return\n        /* \"TicTacToe.sol\":433:469  uint public balanceToWithdrawPlayer2 */\n    tag_3:\n      callvalue\n      dup1\n      iszero\n      tag_28\n      jumpi\n      0x00\n      dup1\n      revert\n    tag_28:\n      pop\n      tag_29\n      tag_30\n      jump\t// in\n    tag_29:\n      mload(0x40)\n      tag_31\n      swap2\n      swap1\n      tag_27\n      jump\t// in\n    tag_31:\n      mload(0x40)\n      dup1\n      swap2\n      sub\n      swap1\n      return\n        /* \"TicTacToe.sol\":178:203  uint8 public movesCounter */\n    tag_4:\n      callvalue\n      dup1\n      iszero\n      tag_32\n      jumpi\n      0x00\n      dup1\n      revert\n    tag_32:\n      pop\n      tag_33\n      tag_34\n      jump\t// in\n    tag_33:\n      mload(0x40)\n      tag_35\n      swap2\n      swap1\n      tag_36\n      jump\t// in\n    tag_35:\n      mload(0x40)\n      dup1\n      swap2\n      sub\n      swap1\n      return\n        /* \"TicTacToe.sol\":2118:2211  function getBoard() public view returns(address[3][3] memory) {... */\n    tag_5:\n      callvalue\n      dup1\n      iszero\n      tag_37\n      jumpi\n      0x00\n      dup1\n      revert\n    tag_37:\n      pop\n      tag_38\n      tag_39\n      jump\t// in\n    tag_38:\n      mload(0x40)\n      tag_40\n      swap2\n      swap1\n      tag_41\n      jump\t// in\n    tag_40:\n      mload(0x40)\n      dup1\n      swap2\n      sub\n      swap1\n      return\n        /* \"TicTacToe.sol\":519:545  uint public gameValidUntil */\n    tag_6:\n      callvalue\n      dup1\n      iszero\n      tag_42\n      jumpi\n      0x00\n      dup1\n      revert\n    tag_42:\n      pop\n      tag_43\n      tag_44\n      jump\t// in\n    tag_43:\n      mload(0x40)\n      tag_45\n      swap2\n      swap1\n      tag_27\n      jump\t// in\n    tag_45:\n      mload(0x40)\n      dup1\n      swap2\n      sub\n      swap1\n      return\n        /* \"TicTacToe.sol\":351:381  address payable public player2 */\n    tag_7:\n      callvalue\n      dup1\n      iszero\n      tag_46\n      jumpi\n      0x00\n      dup1\n      revert\n    tag_46:\n      pop\n      tag_47\n      tag_48\n      jump\t// in\n    tag_47:\n      mload(0x40)\n      tag_49\n      swap2\n      swap1\n      tag_50\n      jump\t// in\n    tag_49:\n      mload(0x40)\n      dup1\n      swap2\n      sub\n      swap1\n      return\n        /* \"TicTacToe.sol\":912:1507  function joinGameasPlayer1() public payable {... */\n    tag_8:\n      tag_51\n      tag_52\n      jump\t// in\n    tag_51:\n      stop\n        /* \"TicTacToe.sol\":4603:6807  function setStone(uint8 x, uint8 y) public {... */\n    tag_9:\n      callvalue\n      dup1\n      iszero\n      tag_53\n      jumpi\n      0x00\n      dup1\n      revert\n    tag_53:\n      pop\n      tag_54\n      0x04\n      dup1\n      calldatasize\n      sub\n      dup2\n      add\n      swap1\n      tag_55\n      swap2\n      swap1\n      tag_56\n      jump\t// in\n    tag_55:\n      tag_57\n      jump\t// in\n    tag_54:\n      stop\n        /* \"TicTacToe.sol\":554:589  address payable public activePlayer */\n    tag_10:\n      callvalue\n      dup1\n      iszero\n      tag_58\n      jumpi\n      0x00\n      dup1\n      revert\n    tag_58:\n      pop\n      tag_59\n      tag_60\n      jump\t// in\n    tag_59:\n      mload(0x40)\n      tag_61\n      swap2\n      swap1\n      tag_50\n      jump\t// in\n    tag_61:\n      mload(0x40)\n      dup1\n      swap2\n      sub\n      swap1\n      return\n        /* \"TicTacToe.sol\":478:512  uint public timeToReact = 365 days */\n    tag_11:\n      callvalue\n      dup1\n      iszero\n      tag_62\n      jumpi\n      0x00\n      dup1\n      revert\n    tag_62:\n      pop\n      tag_63\n      tag_64\n      jump\t// in\n    tag_63:\n      mload(0x40)\n      tag_65\n      swap2\n      swap1\n      tag_27\n      jump\t// in\n    tag_65:\n      mload(0x40)\n      dup1\n      swap2\n      sub\n      swap1\n      return\n        /* \"TicTacToe.sol\":2219:2432  function resetGame() public {... */\n    tag_12:\n      callvalue\n      dup1\n      iszero\n      tag_66\n      jumpi\n      0x00\n      dup1\n      revert\n    tag_66:\n      pop\n      tag_67\n      tag_68\n      jump\t// in\n    tag_67:\n      stop\n        /* \"TicTacToe.sol\":143:169  uint8 public boardSize = 3 */\n    tag_13:\n      callvalue\n      dup1\n      iszero\n      tag_69\n      jumpi\n      0x00\n      dup1\n      revert\n    tag_69:\n      pop\n      tag_70\n      tag_71\n      jump\t// in\n    tag_70:\n      mload(0x40)\n      tag_72\n      swap2\n      swap1\n      tag_36\n      jump\t// in\n    tag_72:\n      mload(0x40)\n      dup1\n      swap2\n      sub\n      swap1\n      return\n        /* \"TicTacToe.sol\":1515:2110  function joinGameasPlayer2() public payable {... */\n    tag_14:\n      tag_73\n      tag_74\n      jump\t// in\n    tag_73:\n      stop\n        /* \"TicTacToe.sol\":87:130  uint constant public gameCost = 0.001 ether */\n    tag_15:\n      callvalue\n      dup1\n      iszero\n      tag_75\n      jumpi\n      0x00\n      dup1\n      revert\n    tag_75:\n      pop\n      tag_76\n      tag_77\n      jump\t// in\n    tag_76:\n      mload(0x40)\n      tag_78\n      swap2\n      swap1\n      tag_27\n      jump\t// in\n    tag_78:\n      mload(0x40)\n      dup1\n      swap2\n      sub\n      swap1\n      return\n        /* \"TicTacToe.sol\":314:344  address payable public player1 */\n    tag_16:\n      callvalue\n      dup1\n      iszero\n      tag_79\n      jumpi\n      0x00\n      dup1\n      revert\n    tag_79:\n      pop\n      tag_80\n      tag_81\n      jump\t// in\n    tag_80:\n      mload(0x40)\n      tag_82\n      swap2\n      swap1\n      tag_50\n      jump\t// in\n    tag_82:\n      mload(0x40)\n      dup1\n      swap2\n      sub\n      swap1\n      return\n        /* \"TicTacToe.sol\":4449:4593  function emergecyCashout() public {... */\n    tag_17:\n      callvalue\n      dup1\n      iszero\n      tag_83\n      jumpi\n      0x00\n      dup1\n      revert\n    tag_83:\n      pop\n      tag_84\n      tag_85\n      jump\t// in\n    tag_84:\n      stop\n        /* \"TicTacToe.sol\":216:238  bool public gameActive */\n    tag_18:\n      callvalue\n      dup1\n      iszero\n      tag_86\n      jumpi\n      0x00\n      dup1\n      revert\n    tag_86:\n      pop\n      tag_87\n      tag_88\n      jump\t// in\n    tag_87:\n      mload(0x40)\n      tag_89\n      swap2\n      swap1\n      tag_90\n      jump\t// in\n    tag_89:\n      mload(0x40)\n      dup1\n      swap2\n      sub\n      swap1\n      return\n        /* \"TicTacToe.sol\":3203:3872  function withdrawWin() public {... */\n    tag_19:\n      callvalue\n      dup1\n      iszero\n      tag_91\n      jumpi\n      0x00\n      dup1\n      revert\n    tag_91:\n      pop\n      tag_92\n      tag_93\n      jump\t// in\n    tag_92:\n      stop\n        /* \"TicTacToe.sol\":390:426  uint public balanceToWithdrawPlayer1 */\n    tag_25:\n      sload(0x15)\n      dup2\n      jump\t// out\n        /* \"TicTacToe.sol\":433:469  uint public balanceToWithdrawPlayer2 */\n    tag_30:\n      sload(0x16)\n      dup2\n      jump\t// out\n        /* \"TicTacToe.sol\":178:203  uint8 public movesCounter */\n    tag_34:\n      0x00\n      0x01\n      swap1\n      sload\n      swap1\n      0x0100\n      exp\n      swap1\n      div\n      0xff\n      and\n      dup2\n      jump\t// out\n        /* \"TicTacToe.sol\":2118:2211  function getBoard() public view returns(address[3][3] memory) {... */\n    tag_39:\n        /* \"TicTacToe.sol\":2158:2178  address[3][3] memory */\n      tag_94\n      tag_95\n      jump\t// in\n    tag_94:\n        /* \"TicTacToe.sol\":2198:2203  board */\n      0x01\n        /* \"TicTacToe.sol\":2191:2203  return board */\n      0x03\n      dup1\n      0x20\n      mul\n      mload(0x40)\n      swap1\n      dup2\n      add\n      0x40\n      mstore\n      dup1\n      swap3\n      swap2\n      swap1\n      0x00\n      swap1\n    tag_97:\n      dup3\n      dup3\n      lt\n      iszero\n      tag_98\n      jumpi\n      dup4\n      dup3\n      0x03\n      mul\n      add\n      0x03\n      dup1\n      0x20\n      mul\n      mload(0x40)\n      swap1\n      dup2\n      add\n      0x40\n      mstore\n      dup1\n      swap3\n      swap2\n      swap1\n      dup3\n      0x03\n      dup1\n      iszero\n      tag_100\n      jumpi\n      0x20\n      mul\n      dup3\n      add\n      swap2\n    tag_101:\n      dup2\n      0x00\n      swap1\n      sload\n      swap1\n      0x0100\n      exp\n      swap1\n      div\n      0xffffffffffffffffffffffffffffffffffffffff\n      and\n      0xffffffffffffffffffffffffffffffffffffffff\n      and\n      dup2\n      mstore\n      0x20\n      add\n      swap1\n      0x01\n      add\n      swap1\n      dup1\n      dup4\n      gt\n      tag_101\n      jumpi\n    tag_100:\n      pop\n      pop\n      pop\n      pop\n      pop\n      dup2\n      mstore\n      0x20\n      add\n      swap1\n      0x01\n      add\n      swap1\n      jump(tag_97)\n    tag_98:\n      pop\n      pop\n      pop\n      pop\n      swap1\n      pop\n        /* \"TicTacToe.sol\":2118:2211  function getBoard() public view returns(address[3][3] memory) {... */\n      swap1\n      jump\t// out\n        /* \"TicTacToe.sol\":519:545  uint public gameValidUntil */\n    tag_44:\n      sload(0x18)\n      dup2\n      jump\t// out\n        /* \"TicTacToe.sol\":351:381  address payable public player2 */\n    tag_48:\n      0x14\n      0x00\n      swap1\n      sload\n      swap1\n      0x0100\n      exp\n      swap1\n      div\n      0xffffffffffffffffffffffffffffffffffffffff\n      and\n      dup2\n      jump\t// out\n        /* \"TicTacToe.sol\":912:1507  function joinGameasPlayer1() public payable {... */\n    tag_52:\n        /* \"TicTacToe.sol\":993:994  0 */\n      0x00\n        /* \"TicTacToe.sol\":974:995  player1 == address(0) */\n      0xffffffffffffffffffffffffffffffffffffffff\n      and\n        /* \"TicTacToe.sol\":974:981  player1 */\n      0x13\n      0x00\n      swap1\n      sload\n      swap1\n      0x0100\n      exp\n      swap1\n      div\n      0xffffffffffffffffffffffffffffffffffffffff\n      and\n        /* \"TicTacToe.sol\":974:995  player1 == address(0) */\n      0xffffffffffffffffffffffffffffffffffffffff\n      and\n      eq\n        /* \"TicTacToe.sol\":967:996  assert(player1 == address(0)) */\n      tag_103\n      jumpi\n      tag_104\n      tag_105\n      jump\t// in\n    tag_104:\n    tag_103:\n        /* \"TicTacToe.sol\":1029:1030  0 */\n      0x00\n        /* \"TicTacToe.sol\":1010:1031  player2 != address(0) */\n      0xffffffffffffffffffffffffffffffffffffffff\n      and\n        /* \"TicTacToe.sol\":1010:1017  player2 */\n      0x14\n      0x00\n      swap1\n      sload\n      swap1\n      0x0100\n      exp\n      swap1\n      div\n      0xffffffffffffffffffffffffffffffffffffffff\n      and\n        /* \"TicTacToe.sol\":1010:1031  player2 != address(0) */\n      0xffffffffffffffffffffffffffffffffffffffff\n      and\n      eq\n        /* \"TicTacToe.sol\":1007:1137  if(player2 != address(0)){... */\n      tag_106\n      jumpi\n        /* \"TicTacToe.sol\":1060:1064  true */\n      0x01\n        /* \"TicTacToe.sol\":1047:1057  gameActive */\n      0x00\n      0x02\n        /* \"TicTacToe.sol\":1047:1064  gameActive = true */\n      0x0100\n      exp\n      dup2\n      sload\n      dup2\n      0xff\n      mul\n      not\n      and\n      swap1\n      dup4\n      iszero\n      iszero\n      mul\n      or\n      swap1\n      sstore\n      pop\n        /* \"TicTacToe.sol\":1007:1137  if(player2 != address(0)){... */\n      jump(tag_107)\n    tag_106:\n        /* \"TicTacToe.sol\":1108:1113  false */\n      0x00\n        /* \"TicTacToe.sol\":1095:1105  gameActive */\n      dup1\n      0x02\n        /* \"TicTacToe.sol\":1095:1113  gameActive = false */\n      0x0100\n      exp\n      dup2\n      sload\n      dup2\n      0xff\n      mul\n      not\n      and\n      swap1\n      dup4\n      iszero\n      iszero\n      mul\n      or\n      swap1\n      sstore\n      pop\n        /* \"TicTacToe.sol\":1007:1137  if(player2 != address(0)){... */\n    tag_107:\n        /* \"TicTacToe.sol\":119:130  0.001 ether */\n      0x038d7ea4c68000\n        /* \"TicTacToe.sol\":1157:1166  msg.value */\n      callvalue\n        /* \"TicTacToe.sol\":1157:1178  msg.value == gameCost */\n      eq\n        /* \"TicTacToe.sol\":1149:1179  require(msg.value == gameCost) */\n      tag_108\n      jumpi\n      0x00\n      dup1\n      revert\n    tag_108:\n        /* \"TicTacToe.sol\":1210:1220  msg.sender */\n      caller\n        /* \"TicTacToe.sol\":1192:1199  player1 */\n      0x13\n      0x00\n        /* \"TicTacToe.sol\":1192:1221  player1 = payable(msg.sender) */\n      0x0100\n      exp\n      dup2\n      sload\n      dup2\n      0xffffffffffffffffffffffffffffffffffffffff\n      mul\n      not\n      and\n      swap1\n      dup4\n      0xffffffffffffffffffffffffffffffffffffffff\n      and\n      mul\n      or\n      swap1\n      sstore\n      pop\n        /* \"TicTacToe.sol\":1237:1258  PlayerJoined(player1) */\n      0x31e760aa525306aba638a784082a013b6a1cc0a9a1789f3f22281c0453b10b1f\n        /* \"TicTacToe.sol\":1250:1257  player1 */\n      0x13\n      0x00\n      swap1\n      sload\n      swap1\n      0x0100\n      exp\n      swap1\n      div\n      0xffffffffffffffffffffffffffffffffffffffff\n      and\n        /* \"TicTacToe.sol\":1237:1258  PlayerJoined(player1) */\n      mload(0x40)\n      tag_109\n      swap2\n      swap1\n      tag_110\n      jump\t// in\n    tag_109:\n      mload(0x40)\n      dup1\n      swap2\n      sub\n      swap1\n      log1\n        /* \"TicTacToe.sol\":1292:1293  0 */\n      0x00\n        /* \"TicTacToe.sol\":1287:1288  2 */\n      0x02\n        /* \"TicTacToe.sol\":1272:1284  block.number */\n      number\n        /* \"TicTacToe.sol\":1272:1288  block.number % 2 */\n      tag_111\n      swap2\n      swap1\n      tag_112\n      jump\t// in\n    tag_111:\n        /* \"TicTacToe.sol\":1272:1293  block.number % 2 == 0 */\n      sub\n        /* \"TicTacToe.sol\":1269:1399  if(block.number % 2 == 0) {... */\n      tag_113\n      jumpi\n        /* \"TicTacToe.sol\":1325:1332  player2 */\n      0x14\n      0x00\n      swap1\n      sload\n      swap1\n      0x0100\n      exp\n      swap1\n      div\n      0xffffffffffffffffffffffffffffffffffffffff\n      and\n        /* \"TicTacToe.sol\":1310:1322  activePlayer */\n      0x19\n      0x00\n        /* \"TicTacToe.sol\":1310:1332  activePlayer = player2 */\n      0x0100\n      exp\n      dup2\n      sload\n      dup2\n      0xffffffffffffffffffffffffffffffffffffffff\n      mul\n      not\n      and\n      swap1\n      dup4\n      0xffffffffffffffffffffffffffffffffffffffff\n      and\n      mul\n      or\n      swap1\n      sstore\n      pop\n        /* \"TicTacToe.sol\":1269:1399  if(block.number % 2 == 0) {... */\n      jump(tag_114)\n    tag_113:\n        /* \"TicTacToe.sol\":1380:1387  player1 */\n      0x13\n      0x00\n      swap1\n      sload\n      swap1\n      0x0100\n      exp\n      swap1\n      div\n      0xffffffffffffffffffffffffffffffffffffffff\n      and\n        /* \"TicTacToe.sol\":1365:1377  activePlayer */\n      0x19\n      0x00\n        /* \"TicTacToe.sol\":1365:1387  activePlayer = player1 */\n      0x0100\n      exp\n      dup2\n      sload\n      dup2\n      0xffffffffffffffffffffffffffffffffffffffff\n      mul\n      not\n      and\n      swap1\n      dup4\n      0xffffffffffffffffffffffffffffffffffffffff\n      and\n      mul\n      or\n      swap1\n      sstore\n      pop\n        /* \"TicTacToe.sol\":1269:1399  if(block.number % 2 == 0) {... */\n    tag_114:\n        /* \"TicTacToe.sol\":1446:1457  timeToReact */\n      sload(0x17)\n        /* \"TicTacToe.sol\":1428:1443  block.timestamp */\n      timestamp\n        /* \"TicTacToe.sol\":1428:1457  block.timestamp + timeToReact */\n      tag_115\n      swap2\n      swap1\n      tag_116\n      jump\t// in\n    tag_115:\n        /* \"TicTacToe.sol\":1411:1425  gameValidUntil */\n      0x18\n        /* \"TicTacToe.sol\":1411:1457  gameValidUntil = block.timestamp + timeToReact */\n      dup2\n      swap1\n      sstore\n      pop\n        /* \"TicTacToe.sol\":1475:1499  NextPlayer(activePlayer) */\n      0x637351f91da430278368fb3e486c8c3da47b2e6ce4d28b2c404cb044702ca7e1\n        /* \"TicTacToe.sol\":1486:1498  activePlayer */\n      0x19\n      0x00\n      swap1\n      sload\n      swap1\n      0x0100\n      exp\n      swap1\n      div\n      0xffffffffffffffffffffffffffffffffffffffff\n      and\n        /* \"TicTacToe.sol\":1475:1499  NextPlayer(activePlayer) */\n      mload(0x40)\n      tag_117\n      swap2\n      swap1\n      tag_110\n      jump\t// in\n    tag_117:\n      mload(0x40)\n      dup1\n      swap2\n      sub\n      swap1\n      log1\n        /* \"TicTacToe.sol\":912:1507  function joinGameasPlayer1() public payable {... */\n      jump\t// out\n        /* \"TicTacToe.sol\":4603:6807  function setStone(uint8 x, uint8 y) public {... */\n    tag_57:\n        /* \"TicTacToe.sol\":4688:4689  0 */\n      0x00\n        /* \"TicTacToe.sol\":4665:4690  board[x][y] == address(0) */\n      0xffffffffffffffffffffffffffffffffffffffff\n      and\n        /* \"TicTacToe.sol\":4665:4670  board */\n      0x01\n        /* \"TicTacToe.sol\":4671:4672  x */\n      dup4\n        /* \"TicTacToe.sol\":4665:4673  board[x] */\n      0xff\n      and\n      0x03\n      dup2\n      lt\n      tag_119\n      jumpi\n      tag_120\n      tag_121\n      jump\t// in\n    tag_120:\n    tag_119:\n      0x03\n      mul\n      add\n        /* \"TicTacToe.sol\":4674:4675  y */\n      dup3\n        /* \"TicTacToe.sol\":4665:4676  board[x][y] */\n      0xff\n      and\n      0x03\n      dup2\n      lt\n      tag_123\n      jumpi\n      tag_124\n      tag_121\n      jump\t// in\n    tag_124:\n    tag_123:\n      add\n      0x00\n      swap1\n      sload\n      swap1\n      0x0100\n      exp\n      swap1\n      div\n      0xffffffffffffffffffffffffffffffffffffffff\n      and\n        /* \"TicTacToe.sol\":4665:4690  board[x][y] == address(0) */\n      0xffffffffffffffffffffffffffffffffffffffff\n      and\n      eq\n        /* \"TicTacToe.sol\":4657:4691  require(board[x][y] == address(0)) */\n      tag_126\n      jumpi\n      0x00\n      dup1\n      revert\n    tag_126:\n        /* \"TicTacToe.sol\":4727:4742  block.timestamp */\n      timestamp\n        /* \"TicTacToe.sol\":4710:4724  gameValidUntil */\n      sload(0x18)\n        /* \"TicTacToe.sol\":4710:4742  gameValidUntil > block.timestamp */\n      gt\n        /* \"TicTacToe.sol\":4702:4743  require(gameValidUntil > block.timestamp) */\n      tag_127\n      jumpi\n      0x00\n      dup1\n      revert\n    tag_127:\n        /* \"TicTacToe.sol\":4761:4771  gameActive */\n      0x00\n      0x02\n      swap1\n      sload\n      swap1\n      0x0100\n      exp\n      swap1\n      div\n      0xff\n      and\n        /* \"TicTacToe.sol\":4754:4772  assert(gameActive) */\n      tag_128\n      jumpi\n      tag_129\n      tag_105\n      jump\t// in\n    tag_129:\n    tag_128:\n        /* \"TicTacToe.sol\":4794:4803  boardSize */\n      0x00\n      dup1\n      sload\n      swap1\n      0x0100\n      exp\n      swap1\n      div\n      0xff\n      and\n        /* \"TicTacToe.sol\":4790:4803  x < boardSize */\n      0xff\n      and\n        /* \"TicTacToe.sol\":4790:4791  x */\n      dup3\n        /* \"TicTacToe.sol\":4790:4803  x < boardSize */\n      0xff\n      and\n      lt\n        /* \"TicTacToe.sol\":4783:4804  assert(x < boardSize) */\n      tag_130\n      jumpi\n      tag_131\n      tag_105\n      jump\t// in\n    tag_131:\n    tag_130:\n        /* \"TicTacToe.sol\":4826:4835  boardSize */\n      0x00\n      dup1\n      sload\n      swap1\n      0x0100\n      exp\n      swap1\n      div\n      0xff\n      and\n        /* \"TicTacToe.sol\":4822:4835  y < boardSize */\n      0xff\n      and\n        /* \"TicTacToe.sol\":4822:4823  y */\n      dup2\n        /* \"TicTacToe.sol\":4822:4835  y < boardSize */\n      0xff\n      and\n      lt\n        /* \"TicTacToe.sol\":4815:4836  assert(y < boardSize) */\n      tag_132\n      jumpi\n      tag_133\n      tag_105\n      jump\t// in\n    tag_133:\n    tag_132:\n        /* \"TicTacToe.sol\":4869:4881  activePlayer */\n      0x19\n      0x00\n      swap1\n      sload\n      swap1\n      0x0100\n      exp\n      swap1\n      div\n      0xffffffffffffffffffffffffffffffffffffffff\n      and\n        /* \"TicTacToe.sol\":4855:4881  msg.sender == activePlayer */\n      0xffffffffffffffffffffffffffffffffffffffff\n      and\n        /* \"TicTacToe.sol\":4855:4865  msg.sender */\n      caller\n        /* \"TicTacToe.sol\":4855:4881  msg.sender == activePlayer */\n      0xffffffffffffffffffffffffffffffffffffffff\n      and\n      eq\n        /* \"TicTacToe.sol\":4847:4882  require(msg.sender == activePlayer) */\n      tag_134\n      jumpi\n      0x00\n      dup1\n      revert\n    tag_134:\n        /* \"TicTacToe.sol\":4907:4917  msg.sender */\n      caller\n        /* \"TicTacToe.sol\":4893:4898  board */\n      0x01\n        /* \"TicTacToe.sol\":4899:4900  x */\n      dup4\n        /* \"TicTacToe.sol\":4893:4901  board[x] */\n      0xff\n      and\n      0x03\n      dup2\n      lt\n      tag_135\n      jumpi\n      tag_136\n      tag_121\n      jump\t// in\n    tag_136:\n    tag_135:\n      0x03\n      mul\n      add\n        /* \"TicTacToe.sol\":4902:4903  y */\n      dup3\n        /* \"TicTacToe.sol\":4893:4904  board[x][y] */\n      0xff\n      and\n      0x03\n      dup2\n      lt\n      tag_138\n      jumpi\n      tag_139\n      tag_121\n      jump\t// in\n    tag_139:\n    tag_138:\n      add\n      0x00\n        /* \"TicTacToe.sol\":4893:4917  board[x][y] = msg.sender */\n      0x0100\n      exp\n      dup2\n      sload\n      dup2\n      0xffffffffffffffffffffffffffffffffffffffff\n      mul\n      not\n      and\n      swap1\n      dup4\n      0xffffffffffffffffffffffffffffffffffffffff\n      and\n      mul\n      or\n      swap1\n      sstore\n      pop\n        /* \"TicTacToe.sol\":4928:4940  movesCounter */\n      0x00\n      0x01\n        /* \"TicTacToe.sol\":4928:4942  movesCounter++ */\n      dup2\n      dup2\n      swap1\n      sload\n      swap1\n      0x0100\n      exp\n      swap1\n      div\n      0xff\n      and\n      dup1\n      swap3\n      swap2\n      swap1\n      tag_141\n      swap1\n      tag_142\n      jump\t// in\n    tag_141:\n      swap2\n      swap1\n      0x0100\n      exp\n      dup2\n      sload\n      dup2\n      0xff\n      mul\n      not\n      and\n      swap1\n      dup4\n      0xff\n      and\n      mul\n      or\n      swap1\n      sstore\n      pop\n      pop\n        /* \"TicTacToe.sol\":4988:4999  timeToReact */\n      sload(0x17)\n        /* \"TicTacToe.sol\":4970:4985  block.timestamp */\n      timestamp\n        /* \"TicTacToe.sol\":4970:4999  block.timestamp + timeToReact */\n      tag_143\n      swap2\n      swap1\n      tag_116\n      jump\t// in\n    tag_143:\n        /* \"TicTacToe.sol\":4953:4967  gameValidUntil */\n      0x18\n        /* \"TicTacToe.sol\":4953:4999  gameValidUntil = block.timestamp + timeToReact */\n      dup2\n      swap1\n      sstore\n      pop\n        /* \"TicTacToe.sol\":5016:5023  uint8 i */\n      0x00\n        /* \"TicTacToe.sol\":5012:5312  for(uint8 i = 0; i < boardSize; i++) {... */\n    tag_144:\n        /* \"TicTacToe.sol\":5033:5042  boardSize */\n      0x00\n      dup1\n      sload\n      swap1\n      0x0100\n      exp\n      swap1\n      div\n      0xff\n      and\n        /* \"TicTacToe.sol\":5029:5042  i < boardSize */\n      0xff\n      and\n        /* \"TicTacToe.sol\":5029:5030  i */\n      dup2\n        /* \"TicTacToe.sol\":5029:5042  i < boardSize */\n      0xff\n      and\n      lt\n        /* \"TicTacToe.sol\":5012:5312  for(uint8 i = 0; i < boardSize; i++) {... */\n      iszero\n      tag_145\n      jumpi\n        /* \"TicTacToe.sol\":5082:5094  activePlayer */\n      0x19\n      0x00\n      swap1\n      sload\n      swap1\n      0x0100\n      exp\n      swap1\n      div\n      0xffffffffffffffffffffffffffffffffffffffff\n      and\n        /* \"TicTacToe.sol\":5067:5094  board[i][y] != activePlayer */\n      0xffffffffffffffffffffffffffffffffffffffff\n      and\n        /* \"TicTacToe.sol\":5067:5072  board */\n      0x01\n        /* \"TicTacToe.sol\":5073:5074  i */\n      dup3\n        /* \"TicTacToe.sol\":5067:5075  board[i] */\n      0xff\n      and\n      0x03\n      dup2\n      lt\n      tag_147\n      jumpi\n      tag_148\n      tag_121\n      jump\t// in\n    tag_148:\n    tag_147:\n      0x03\n      mul\n      add\n        /* \"TicTacToe.sol\":5076:5077  y */\n      dup4\n        /* \"TicTacToe.sol\":5067:5078  board[i][y] */\n      0xff\n      and\n      0x03\n      dup2\n      lt\n      tag_150\n      jumpi\n      tag_151\n      tag_121\n      jump\t// in\n    tag_151:\n    tag_150:\n      add\n      0x00\n      swap1\n      sload\n      swap1\n      0x0100\n      exp\n      swap1\n      div\n      0xffffffffffffffffffffffffffffffffffffffff\n      and\n        /* \"TicTacToe.sol\":5067:5094  board[i][y] != activePlayer */\n      0xffffffffffffffffffffffffffffffffffffffff\n      and\n      sub\n        /* \"TicTacToe.sol\":5115:5120  break */\n      tag_145\n        /* \"TicTacToe.sol\":5064:5136  if(board[i][y] != activePlayer) {... */\n      jumpi\n        /* \"TicTacToe.sol\":5189:5190  1 */\n      0x01\n        /* \"TicTacToe.sol\":5177:5186  boardSize */\n      0x00\n      dup1\n      sload\n      swap1\n      0x0100\n      exp\n      swap1\n      div\n      0xff\n      and\n        /* \"TicTacToe.sol\":5177:5190  boardSize - 1 */\n      tag_154\n      swap2\n      swap1\n      tag_155\n      jump\t// in\n    tag_154:\n        /* \"TicTacToe.sol\":5172:5190  i == boardSize - 1 */\n      0xff\n      and\n        /* \"TicTacToe.sol\":5172:5173  i */\n      dup2\n        /* \"TicTacToe.sol\":5172:5190  i == boardSize - 1 */\n      0xff\n      and\n      sub\n        /* \"TicTacToe.sol\":5169:5301  if(i == boardSize - 1) {... */\n      tag_156\n      jumpi\n        /* \"TicTacToe.sol\":5237:5260  setWinner(activePlayer) */\n      tag_157\n        /* \"TicTacToe.sol\":5247:5259  activePlayer */\n      0x19\n      0x00\n      swap1\n      sload\n      swap1\n      0x0100\n      exp\n      swap1\n      div\n      0xffffffffffffffffffffffffffffffffffffffff\n      and\n        /* \"TicTacToe.sol\":5237:5246  setWinner */\n      tag_158\n        /* \"TicTacToe.sol\":5237:5260  setWinner(activePlayer) */\n      jump\t// in\n    tag_157:\n        /* \"TicTacToe.sol\":5279:5286  return; */\n      pop\n      jump(tag_118)\n        /* \"TicTacToe.sol\":5169:5301  if(i == boardSize - 1) {... */\n    tag_156:\n        /* \"TicTacToe.sol\":5044:5047  i++ */\n      dup1\n      dup1\n      tag_159\n      swap1\n      tag_142\n      jump\t// in\n    tag_159:\n      swap2\n      pop\n      pop\n        /* \"TicTacToe.sol\":5012:5312  for(uint8 i = 0; i < boardSize; i++) {... */\n      jump(tag_144)\n    tag_145:\n      pop\n        /* \"TicTacToe.sol\":5326:5332  uint i */\n      0x00\n        /* \"TicTacToe.sol\":5322:5623  for(uint i = 0; i < boardSize; i++) {... */\n    tag_160:\n        /* \"TicTacToe.sol\":5342:5351  boardSize */\n      0x00\n      dup1\n      sload\n      swap1\n      0x0100\n      exp\n      swap1\n      div\n      0xff\n      and\n        /* \"TicTacToe.sol\":5338:5351  i < boardSize */\n      0xff\n      and\n        /* \"TicTacToe.sol\":5338:5339  i */\n      dup2\n        /* \"TicTacToe.sol\":5338:5351  i < boardSize */\n      lt\n        /* \"TicTacToe.sol\":5322:5623  for(uint i = 0; i < boardSize; i++) {... */\n      iszero\n      tag_161\n      jumpi\n        /* \"TicTacToe.sol\":5391:5403  activePlayer */\n      0x19\n      0x00\n      swap1\n      sload\n      swap1\n      0x0100\n      exp\n      swap1\n      div\n      0xffffffffffffffffffffffffffffffffffffffff\n      and\n        /* \"TicTacToe.sol\":5376:5403  board[x][i] != activePlayer */\n      0xffffffffffffffffffffffffffffffffffffffff\n      and\n        /* \"TicTacToe.sol\":5376:5381  board */\n      0x01\n        /* \"TicTacToe.sol\":5382:5383  x */\n      dup5\n        /* \"TicTacToe.sol\":5376:5384  board[x] */\n      0xff\n      and\n      0x03\n      dup2\n      lt\n      tag_163\n      jumpi\n      tag_164\n      tag_121\n      jump\t// in\n    tag_164:\n    tag_163:\n      0x03\n      mul\n      add\n        /* \"TicTacToe.sol\":5385:5386  i */\n      dup3\n        /* \"TicTacToe.sol\":5376:5387  board[x][i] */\n      0x03\n      dup2\n      lt\n      tag_166\n      jumpi\n      tag_167\n      tag_121\n      jump\t// in\n    tag_167:\n    tag_166:\n      add\n      0x00\n      swap1\n      sload\n      swap1\n      0x0100\n      exp\n      swap1\n      div\n      0xffffffffffffffffffffffffffffffffffffffff\n      and\n        /* \"TicTacToe.sol\":5376:5403  board[x][i] != activePlayer */\n      0xffffffffffffffffffffffffffffffffffffffff\n      and\n      sub\n        /* \"TicTacToe.sol\":5424:5429  break */\n      tag_161\n        /* \"TicTacToe.sol\":5373:5445  if(board[x][i] != activePlayer) {... */\n      jumpi\n        /* \"TicTacToe.sol\":5500:5501  1 */\n      0x01\n        /* \"TicTacToe.sol\":5488:5497  boardSize */\n      0x00\n      dup1\n      sload\n      swap1\n      0x0100\n      exp\n      swap1\n      div\n      0xff\n      and\n        /* \"TicTacToe.sol\":5488:5501  boardSize - 1 */\n      tag_170\n      swap2\n      swap1\n      tag_155\n      jump\t// in\n    tag_170:\n        /* \"TicTacToe.sol\":5483:5501  i == boardSize - 1 */\n      0xff\n      and\n        /* \"TicTacToe.sol\":5483:5484  i */\n      dup2\n        /* \"TicTacToe.sol\":5483:5501  i == boardSize - 1 */\n      sub\n        /* \"TicTacToe.sol\":5480:5612  if(i == boardSize - 1) {... */\n      tag_171\n      jumpi\n        /* \"TicTacToe.sol\":5548:5571  setWinner(activePlayer) */\n      tag_172\n        /* \"TicTacToe.sol\":5558:5570  activePlayer */\n      0x19\n      0x00\n      swap1\n      sload\n      swap1\n      0x0100\n      exp\n      swap1\n      div\n      0xffffffffffffffffffffffffffffffffffffffff\n      and\n        /* \"TicTacToe.sol\":5548:5557  setWinner */\n      tag_158\n        /* \"TicTacToe.sol\":5548:5571  setWinner(activePlayer) */\n      jump\t// in\n    tag_172:\n        /* \"TicTacToe.sol\":5590:5597  return; */\n      pop\n      jump(tag_118)\n        /* \"TicTacToe.sol\":5480:5612  if(i == boardSize - 1) {... */\n    tag_171:\n        /* \"TicTacToe.sol\":5353:5356  i++ */\n      dup1\n      dup1\n      tag_173\n      swap1\n      tag_174\n      jump\t// in\n    tag_173:\n      swap2\n      pop\n      pop\n        /* \"TicTacToe.sol\":5322:5623  for(uint i = 0; i < boardSize; i++) {... */\n      jump(tag_160)\n    tag_161:\n      pop\n        /* \"TicTacToe.sol\":5664:5665  y */\n      dup1\n        /* \"TicTacToe.sol\":5659:5665  x == y */\n      0xff\n      and\n        /* \"TicTacToe.sol\":5659:5660  x */\n      dup3\n        /* \"TicTacToe.sol\":5659:5665  x == y */\n      0xff\n      and\n      sub\n        /* \"TicTacToe.sol\":5656:6032  if(x == y) {... */\n      tag_175\n      jumpi\n        /* \"TicTacToe.sol\":5686:5692  uint i */\n      0x00\n        /* \"TicTacToe.sol\":5682:6021  for(uint i = 0; i < boardSize; i++) {... */\n    tag_176:\n        /* \"TicTacToe.sol\":5702:5711  boardSize */\n      0x00\n      dup1\n      sload\n      swap1\n      0x0100\n      exp\n      swap1\n      div\n      0xff\n      and\n        /* \"TicTacToe.sol\":5698:5711  i < boardSize */\n      0xff\n      and\n        /* \"TicTacToe.sol\":5698:5699  i */\n      dup2\n        /* \"TicTacToe.sol\":5698:5711  i < boardSize */\n      lt\n        /* \"TicTacToe.sol\":5682:6021  for(uint i = 0; i < boardSize; i++) {... */\n      iszero\n      tag_177\n      jumpi\n        /* \"TicTacToe.sol\":5755:5767  activePlayer */\n      0x19\n      0x00\n      swap1\n      sload\n      swap1\n      0x0100\n      exp\n      swap1\n      div\n      0xffffffffffffffffffffffffffffffffffffffff\n      and\n        /* \"TicTacToe.sol\":5740:5767  board[i][i] != activePlayer */\n      0xffffffffffffffffffffffffffffffffffffffff\n      and\n        /* \"TicTacToe.sol\":5740:5745  board */\n      0x01\n        /* \"TicTacToe.sol\":5746:5747  i */\n      dup3\n        /* \"TicTacToe.sol\":5740:5748  board[i] */\n      0x03\n      dup2\n      lt\n      tag_179\n      jumpi\n      tag_180\n      tag_121\n      jump\t// in\n    tag_180:\n    tag_179:\n      0x03\n      mul\n      add\n        /* \"TicTacToe.sol\":5749:5750  i */\n      dup3\n        /* \"TicTacToe.sol\":5740:5751  board[i][i] */\n      0x03\n      dup2\n      lt\n      tag_182\n      jumpi\n      tag_183\n      tag_121\n      jump\t// in\n    tag_183:\n    tag_182:\n      add\n      0x00\n      swap1\n      sload\n      swap1\n      0x0100\n      exp\n      swap1\n      div\n      0xffffffffffffffffffffffffffffffffffffffff\n      and\n        /* \"TicTacToe.sol\":5740:5767  board[i][i] != activePlayer */\n      0xffffffffffffffffffffffffffffffffffffffff\n      and\n      sub\n        /* \"TicTacToe.sol\":5792:5797  break */\n      tag_177\n        /* \"TicTacToe.sol\":5737:5817  if(board[i][i] != activePlayer) {... */\n      jumpi\n        /* \"TicTacToe.sol\":5878:5879  1 */\n      0x01\n        /* \"TicTacToe.sol\":5866:5875  boardSize */\n      0x00\n      dup1\n      sload\n      swap1\n      0x0100\n      exp\n      swap1\n      div\n      0xff\n      and\n        /* \"TicTacToe.sol\":5866:5879  boardSize - 1 */\n      tag_186\n      swap2\n      swap1\n      tag_155\n      jump\t// in\n    tag_186:\n        /* \"TicTacToe.sol\":5861:5879  i == boardSize - 1 */\n      0xff\n      and\n        /* \"TicTacToe.sol\":5861:5862  i */\n      dup2\n        /* \"TicTacToe.sol\":5861:5879  i == boardSize - 1 */\n      sub\n        /* \"TicTacToe.sol\":5858:6006  if(i == boardSize - 1) {... */\n      tag_187\n      jumpi\n        /* \"TicTacToe.sol\":5934:5957  setWinner(activePlayer) */\n      tag_188\n        /* \"TicTacToe.sol\":5944:5956  activePlayer */\n      0x19\n      0x00\n      swap1\n      sload\n      swap1\n      0x0100\n      exp\n      swap1\n      div\n      0xffffffffffffffffffffffffffffffffffffffff\n      and\n        /* \"TicTacToe.sol\":5934:5943  setWinner */\n      tag_158\n        /* \"TicTacToe.sol\":5934:5957  setWinner(activePlayer) */\n      jump\t// in\n    tag_188:\n        /* \"TicTacToe.sol\":5980:5987  return; */\n      pop\n      jump(tag_118)\n        /* \"TicTacToe.sol\":5858:6006  if(i == boardSize - 1) {... */\n    tag_187:\n        /* \"TicTacToe.sol\":5713:5716  i++ */\n      dup1\n      dup1\n      tag_189\n      swap1\n      tag_174\n      jump\t// in\n    tag_189:\n      swap2\n      pop\n      pop\n        /* \"TicTacToe.sol\":5682:6021  for(uint i = 0; i < boardSize; i++) {... */\n      jump(tag_176)\n    tag_177:\n      pop\n        /* \"TicTacToe.sol\":5656:6032  if(x == y) {... */\n    tag_175:\n        /* \"TicTacToe.sol\":6092:6093  1 */\n      0x01\n        /* \"TicTacToe.sol\":6082:6091  boardSize */\n      0x00\n      dup1\n      sload\n      swap1\n      0x0100\n      exp\n      swap1\n      div\n      0xff\n      and\n        /* \"TicTacToe.sol\":6082:6093  boardSize-1 */\n      tag_190\n      swap2\n      swap1\n      tag_155\n      jump\t// in\n    tag_190:\n        /* \"TicTacToe.sol\":6073:6093  (x+y) == boardSize-1 */\n      0xff\n      and\n        /* \"TicTacToe.sol\":6076:6077  y */\n      dup2\n        /* \"TicTacToe.sol\":6074:6075  x */\n      dup4\n        /* \"TicTacToe.sol\":6074:6077  x+y */\n      tag_191\n      swap2\n      swap1\n      tag_192\n      jump\t// in\n    tag_191:\n        /* \"TicTacToe.sol\":6073:6093  (x+y) == boardSize-1 */\n      0xff\n      and\n      sub\n        /* \"TicTacToe.sol\":6070:6476  if((x+y) == boardSize-1) {... */\n      tag_193\n      jumpi\n        /* \"TicTacToe.sol\":6114:6120  uint i */\n      0x00\n        /* \"TicTacToe.sol\":6110:6465  for(uint i = 0; i < boardSize; i++) {... */\n    tag_194:\n        /* \"TicTacToe.sol\":6130:6139  boardSize */\n      0x00\n      dup1\n      sload\n      swap1\n      0x0100\n      exp\n      swap1\n      div\n      0xff\n      and\n        /* \"TicTacToe.sol\":6126:6139  i < boardSize */\n      0xff\n      and\n        /* \"TicTacToe.sol\":6126:6127  i */\n      dup2\n        /* \"TicTacToe.sol\":6126:6139  i < boardSize */\n      lt\n        /* \"TicTacToe.sol\":6110:6465  for(uint i = 0; i < boardSize; i++) {... */\n      iszero\n      tag_195\n      jumpi\n        /* \"TicTacToe.sol\":6197:6209  activePlayer */\n      0x19\n      0x00\n      swap1\n      sload\n      swap1\n      0x0100\n      exp\n      swap1\n      div\n      0xffffffffffffffffffffffffffffffffffffffff\n      and\n        /* \"TicTacToe.sol\":6168:6209  board[i][(boardSize-1)-i] != activePlayer */\n      0xffffffffffffffffffffffffffffffffffffffff\n      and\n        /* \"TicTacToe.sol\":6168:6173  board */\n      0x01\n        /* \"TicTacToe.sol\":6174:6175  i */\n      dup3\n        /* \"TicTacToe.sol\":6168:6176  board[i] */\n      0x03\n      dup2\n      lt\n      tag_197\n      jumpi\n      tag_198\n      tag_121\n      jump\t// in\n    tag_198:\n    tag_197:\n      0x03\n      mul\n      add\n        /* \"TicTacToe.sol\":6191:6192  i */\n      dup3\n        /* \"TicTacToe.sol\":6188:6189  1 */\n      0x01\n        /* \"TicTacToe.sol\":6178:6187  boardSize */\n      0x00\n      dup1\n      sload\n      swap1\n      0x0100\n      exp\n      swap1\n      div\n      0xff\n      and\n        /* \"TicTacToe.sol\":6178:6189  boardSize-1 */\n      tag_200\n      swap2\n      swap1\n      tag_155\n      jump\t// in\n    tag_200:\n        /* \"TicTacToe.sol\":6177:6192  (boardSize-1)-i */\n      0xff\n      and\n      tag_201\n      swap2\n      swap1\n      tag_202\n      jump\t// in\n    tag_201:\n        /* \"TicTacToe.sol\":6168:6193  board[i][(boardSize-1)-i] */\n      0x03\n      dup2\n      lt\n      tag_203\n      jumpi\n      tag_204\n      tag_121\n      jump\t// in\n    tag_204:\n    tag_203:\n      add\n      0x00\n      swap1\n      sload\n      swap1\n      0x0100\n      exp\n      swap1\n      div\n      0xffffffffffffffffffffffffffffffffffffffff\n      and\n        /* \"TicTacToe.sol\":6168:6209  board[i][(boardSize-1)-i] != activePlayer */\n      0xffffffffffffffffffffffffffffffffffffffff\n      and\n      sub\n        /* \"TicTacToe.sol\":6234:6239  break */\n      tag_195\n        /* \"TicTacToe.sol\":6165:6259  if(board[i][(boardSize-1)-i] != activePlayer) {... */\n      jumpi\n        /* \"TicTacToe.sol\":6322:6323  1 */\n      0x01\n        /* \"TicTacToe.sol\":6310:6319  boardSize */\n      0x00\n      dup1\n      sload\n      swap1\n      0x0100\n      exp\n      swap1\n      div\n      0xff\n      and\n        /* \"TicTacToe.sol\":6310:6323  boardSize - 1 */\n      tag_207\n      swap2\n      swap1\n      tag_155\n      jump\t// in\n    tag_207:\n        /* \"TicTacToe.sol\":6305:6323  i == boardSize - 1 */\n      0xff\n      and\n        /* \"TicTacToe.sol\":6305:6306  i */\n      dup2\n        /* \"TicTacToe.sol\":6305:6323  i == boardSize - 1 */\n      sub\n        /* \"TicTacToe.sol\":6302:6450  if(i == boardSize - 1) {... */\n      tag_208\n      jumpi\n        /* \"TicTacToe.sol\":6378:6401  setWinner(activePlayer) */\n      tag_209\n        /* \"TicTacToe.sol\":6388:6400  activePlayer */\n      0x19\n      0x00\n      swap1\n      sload\n      swap1\n      0x0100\n      exp\n      swap1\n      div\n      0xffffffffffffffffffffffffffffffffffffffff\n      and\n        /* \"TicTacToe.sol\":6378:6387  setWinner */\n      tag_158\n        /* \"TicTacToe.sol\":6378:6401  setWinner(activePlayer) */\n      jump\t// in\n    tag_209:\n        /* \"TicTacToe.sol\":6424:6431  return; */\n      pop\n      jump(tag_118)\n        /* \"TicTacToe.sol\":6302:6450  if(i == boardSize - 1) {... */\n    tag_208:\n        /* \"TicTacToe.sol\":6141:6144  i++ */\n      dup1\n      dup1\n      tag_210\n      swap1\n      tag_174\n      jump\t// in\n    tag_210:\n      swap2\n      pop\n      pop\n        /* \"TicTacToe.sol\":6110:6465  for(uint i = 0; i < boardSize; i++) {... */\n      jump(tag_194)\n    tag_195:\n      pop\n        /* \"TicTacToe.sol\":6070:6476  if((x+y) == boardSize-1) {... */\n    tag_193:\n        /* \"TicTacToe.sol\":6535:6536  2 */\n      0x02\n        /* \"TicTacToe.sol\":6524:6533  boardSize */\n      0x00\n      dup1\n      sload\n      swap1\n      0x0100\n      exp\n      swap1\n      div\n      0xff\n      and\n        /* \"TicTacToe.sol\":6524:6536  boardSize**2 */\n      tag_211\n      swap2\n      swap1\n      tag_212\n      jump\t// in\n    tag_211:\n        /* \"TicTacToe.sol\":6507:6537  movesCounter == (boardSize**2) */\n      0xff\n      and\n        /* \"TicTacToe.sol\":6507:6519  movesCounter */\n      0x00\n      0x01\n      swap1\n      sload\n      swap1\n      0x0100\n      exp\n      swap1\n      div\n      0xff\n      and\n        /* \"TicTacToe.sol\":6507:6537  movesCounter == (boardSize**2) */\n      0xff\n      and\n      sub\n        /* \"TicTacToe.sol\":6504:6616  if(movesCounter == (boardSize**2)) {... */\n      tag_213\n      jumpi\n        /* \"TicTacToe.sol\":6574:6583  setDraw() */\n      tag_214\n        /* \"TicTacToe.sol\":6574:6581  setDraw */\n      tag_215\n        /* \"TicTacToe.sol\":6574:6583  setDraw() */\n      jump\t// in\n    tag_214:\n        /* \"TicTacToe.sol\":6598:6605  return; */\n      jump(tag_118)\n        /* \"TicTacToe.sol\":6504:6616  if(movesCounter == (boardSize**2)) {... */\n    tag_213:\n        /* \"TicTacToe.sol\":6647:6654  player1 */\n      0x13\n      0x00\n      swap1\n      sload\n      swap1\n      0x0100\n      exp\n      swap1\n      div\n      0xffffffffffffffffffffffffffffffffffffffff\n      and\n        /* \"TicTacToe.sol\":6631:6654  activePlayer == player1 */\n      0xffffffffffffffffffffffffffffffffffffffff\n      and\n        /* \"TicTacToe.sol\":6631:6643  activePlayer */\n      0x19\n      0x00\n      swap1\n      sload\n      swap1\n      0x0100\n      exp\n      swap1\n      div\n      0xffffffffffffffffffffffffffffffffffffffff\n      and\n        /* \"TicTacToe.sol\":6631:6654  activePlayer == player1 */\n      0xffffffffffffffffffffffffffffffffffffffff\n      and\n      sub\n        /* \"TicTacToe.sol\":6628:6760  if(activePlayer == player1) {... */\n      tag_216\n      jumpi\n        /* \"TicTacToe.sol\":6686:6693  player2 */\n      0x14\n      0x00\n      swap1\n      sload\n      swap1\n      0x0100\n      exp\n      swap1\n      div\n      0xffffffffffffffffffffffffffffffffffffffff\n      and\n        /* \"TicTacToe.sol\":6671:6683  activePlayer */\n      0x19\n      0x00\n        /* \"TicTacToe.sol\":6671:6693  activePlayer = player2 */\n      0x0100\n      exp\n      dup2\n      sload\n      dup2\n      0xffffffffffffffffffffffffffffffffffffffff\n      mul\n      not\n      and\n      swap1\n      dup4\n      0xffffffffffffffffffffffffffffffffffffffff\n      and\n      mul\n      or\n      swap1\n      sstore\n      pop\n        /* \"TicTacToe.sol\":6628:6760  if(activePlayer == player1) {... */\n      jump(tag_217)\n    tag_216:\n        /* \"TicTacToe.sol\":6741:6748  player1 */\n      0x13\n      0x00\n      swap1\n      sload\n      swap1\n      0x0100\n      exp\n      swap1\n      div\n      0xffffffffffffffffffffffffffffffffffffffff\n      and\n        /* \"TicTacToe.sol\":6726:6738  activePlayer */\n      0x19\n      0x00\n        /* \"TicTacToe.sol\":6726:6748  activePlayer = player1 */\n      0x0100\n      exp\n      dup2\n      sload\n      dup2\n      0xffffffffffffffffffffffffffffffffffffffff\n      mul\n      not\n      and\n      swap1\n      dup4\n      0xffffffffffffffffffffffffffffffffffffffff\n      and\n      mul\n      or\n      swap1\n      sstore\n      pop\n        /* \"TicTacToe.sol\":6628:6760  if(activePlayer == player1) {... */\n    tag_217:\n        /* \"TicTacToe.sol\":6775:6799  NextPlayer(activePlayer) */\n      0x637351f91da430278368fb3e486c8c3da47b2e6ce4d28b2c404cb044702ca7e1\n        /* \"TicTacToe.sol\":6786:6798  activePlayer */\n      0x19\n      0x00\n      swap1\n      sload\n      swap1\n      0x0100\n      exp\n      swap1\n      div\n      0xffffffffffffffffffffffffffffffffffffffff\n      and\n        /* \"TicTacToe.sol\":6775:6799  NextPlayer(activePlayer) */\n      mload(0x40)\n      tag_218\n      swap2\n      swap1\n      tag_110\n      jump\t// in\n    tag_218:\n      mload(0x40)\n      dup1\n      swap2\n      sub\n      swap1\n      log1\n        /* \"TicTacToe.sol\":4603:6807  function setStone(uint8 x, uint8 y) public {... */\n    tag_118:\n      pop\n      pop\n      jump\t// out\n        /* \"TicTacToe.sol\":554:589  address payable public activePlayer */\n    tag_60:\n      0x19\n      0x00\n      swap1\n      sload\n      swap1\n      0x0100\n      exp\n      swap1\n      div\n      0xffffffffffffffffffffffffffffffffffffffff\n      and\n      dup2\n      jump\t// out\n        /* \"TicTacToe.sol\":478:512  uint public timeToReact = 365 days */\n    tag_64:\n      sload(0x17)\n      dup2\n      jump\t// out\n        /* \"TicTacToe.sol\":2219:2432  function resetGame() public {... */\n    tag_68:\n        /* \"TicTacToe.sol\":2281:2288  player1 */\n      0x13\n      0x00\n      swap1\n      sload\n      swap1\n      0x0100\n      exp\n      swap1\n      div\n      0xffffffffffffffffffffffffffffffffffffffff\n      and\n        /* \"TicTacToe.sol\":2267:2288  msg.sender == player1 */\n      0xffffffffffffffffffffffffffffffffffffffff\n      and\n        /* \"TicTacToe.sol\":2267:2277  msg.sender */\n      caller\n        /* \"TicTacToe.sol\":2267:2288  msg.sender == player1 */\n      0xffffffffffffffffffffffffffffffffffffffff\n      and\n      eq\n        /* \"TicTacToe.sol\":2266:2314  (msg.sender == player1)||(msg.sender == player2) */\n      dup1\n      tag_220\n      jumpi\n      pop\n        /* \"TicTacToe.sol\":2306:2313  player2 */\n      0x14\n      0x00\n      swap1\n      sload\n      swap1\n      0x0100\n      exp\n      swap1\n      div\n      0xffffffffffffffffffffffffffffffffffffffff\n      and\n        /* \"TicTacToe.sol\":2292:2313  msg.sender == player2 */\n      0xffffffffffffffffffffffffffffffffffffffff\n      and\n        /* \"TicTacToe.sol\":2292:2302  msg.sender */\n      caller\n        /* \"TicTacToe.sol\":2292:2313  msg.sender == player2 */\n      0xffffffffffffffffffffffffffffffffffffffff\n      and\n      eq\n        /* \"TicTacToe.sol\":2266:2314  (msg.sender == player1)||(msg.sender == player2) */\n    tag_220:\n        /* \"TicTacToe.sol\":2258:2315  require((msg.sender == player1)||(msg.sender == player2)) */\n      tag_221\n      jumpi\n      0x00\n      dup1\n      revert\n    tag_221:\n        /* \"TicTacToe.sol\":2334:2344  emptyBoard */\n      0x0a\n        /* \"TicTacToe.sol\":2326:2331  board */\n      0x01\n        /* \"TicTacToe.sol\":2326:2344  board = emptyBoard */\n      swap1\n      0x03\n      tag_222\n      swap3\n      swap2\n      swap1\n      tag_223\n      jump\t// in\n    tag_222:\n      pop\n        /* \"TicTacToe.sol\":2381:2382  0 */\n      0x00\n        /* \"TicTacToe.sol\":2355:2362  player1 */\n      0x13\n      0x00\n        /* \"TicTacToe.sol\":2355:2384  player1 = payable(address(0)) */\n      0x0100\n      exp\n      dup2\n      sload\n      dup2\n      0xffffffffffffffffffffffffffffffffffffffff\n      mul\n      not\n      and\n      swap1\n      dup4\n      0xffffffffffffffffffffffffffffffffffffffff\n      and\n      mul\n      or\n      swap1\n      sstore\n      pop\n        /* \"TicTacToe.sol\":2421:2422  0 */\n      0x00\n        /* \"TicTacToe.sol\":2395:2402  player2 */\n      0x14\n      0x00\n        /* \"TicTacToe.sol\":2395:2424  player2 = payable(address(0)) */\n      0x0100\n      exp\n      dup2\n      sload\n      dup2\n      0xffffffffffffffffffffffffffffffffffffffff\n      mul\n      not\n      and\n      swap1\n      dup4\n      0xffffffffffffffffffffffffffffffffffffffff\n      and\n      mul\n      or\n      swap1\n      sstore\n      pop\n        /* \"TicTacToe.sol\":2219:2432  function resetGame() public {... */\n      jump\t// out\n        /* \"TicTacToe.sol\":143:169  uint8 public boardSize = 3 */\n    tag_71:\n      0x00\n      dup1\n      sload\n      swap1\n      0x0100\n      exp\n      swap1\n      div\n      0xff\n      and\n      dup2\n      jump\t// out\n        /* \"TicTacToe.sol\":1515:2110  function joinGameasPlayer2() public payable {... */\n    tag_74:\n        /* \"TicTacToe.sol\":1596:1597  0 */\n      0x00\n        /* \"TicTacToe.sol\":1577:1598  player2 == address(0) */\n      0xffffffffffffffffffffffffffffffffffffffff\n      and\n        /* \"TicTacToe.sol\":1577:1584  player2 */\n      0x14\n      0x00\n      swap1\n      sload\n      swap1\n      0x0100\n      exp\n      swap1\n      div\n      0xffffffffffffffffffffffffffffffffffffffff\n      and\n        /* \"TicTacToe.sol\":1577:1598  player2 == address(0) */\n      0xffffffffffffffffffffffffffffffffffffffff\n      and\n      eq\n        /* \"TicTacToe.sol\":1570:1599  assert(player2 == address(0)) */\n      tag_225\n      jumpi\n      tag_226\n      tag_105\n      jump\t// in\n    tag_226:\n    tag_225:\n        /* \"TicTacToe.sol\":1632:1633  0 */\n      0x00\n        /* \"TicTacToe.sol\":1613:1634  player1 != address(0) */\n      0xffffffffffffffffffffffffffffffffffffffff\n      and\n        /* \"TicTacToe.sol\":1613:1620  player1 */\n      0x13\n      0x00\n      swap1\n      sload\n      swap1\n      0x0100\n      exp\n      swap1\n      div\n      0xffffffffffffffffffffffffffffffffffffffff\n      and\n        /* \"TicTacToe.sol\":1613:1634  player1 != address(0) */\n      0xffffffffffffffffffffffffffffffffffffffff\n      and\n      eq\n        /* \"TicTacToe.sol\":1610:1740  if(player1 != address(0)){... */\n      tag_227\n      jumpi\n        /* \"TicTacToe.sol\":1663:1667  true */\n      0x01\n        /* \"TicTacToe.sol\":1650:1660  gameActive */\n      0x00\n      0x02\n        /* \"TicTacToe.sol\":1650:1667  gameActive = true */\n      0x0100\n      exp\n      dup2\n      sload\n      dup2\n      0xff\n      mul\n      not\n      and\n      swap1\n      dup4\n      iszero\n      iszero\n      mul\n      or\n      swap1\n      sstore\n      pop\n        /* \"TicTacToe.sol\":1610:1740  if(player1 != address(0)){... */\n      jump(tag_228)\n    tag_227:\n        /* \"TicTacToe.sol\":1711:1716  false */\n      0x00\n        /* \"TicTacToe.sol\":1698:1708  gameActive */\n      dup1\n      0x02\n        /* \"TicTacToe.sol\":1698:1716  gameActive = false */\n      0x0100\n      exp\n      dup2\n      sload\n      dup2\n      0xff\n      mul\n      not\n      and\n      swap1\n      dup4\n      iszero\n      iszero\n      mul\n      or\n      swap1\n      sstore\n      pop\n        /* \"TicTacToe.sol\":1610:1740  if(player1 != address(0)){... */\n    tag_228:\n        /* \"TicTacToe.sol\":119:130  0.001 ether */\n      0x038d7ea4c68000\n        /* \"TicTacToe.sol\":1760:1769  msg.value */\n      callvalue\n        /* \"TicTacToe.sol\":1760:1781  msg.value == gameCost */\n      eq\n        /* \"TicTacToe.sol\":1752:1782  require(msg.value == gameCost) */\n      tag_229\n      jumpi\n      0x00\n      dup1\n      revert\n    tag_229:\n        /* \"TicTacToe.sol\":1813:1823  msg.sender */\n      caller\n        /* \"TicTacToe.sol\":1795:1802  player2 */\n      0x14\n      0x00\n        /* \"TicTacToe.sol\":1795:1824  player2 = payable(msg.sender) */\n      0x0100\n      exp\n      dup2\n      sload\n      dup2\n      0xffffffffffffffffffffffffffffffffffffffff\n      mul\n      not\n      and\n      swap1\n      dup4\n      0xffffffffffffffffffffffffffffffffffffffff\n      and\n      mul\n      or\n      swap1\n      sstore\n      pop\n        /* \"TicTacToe.sol\":1840:1861  PlayerJoined(player2) */\n      0x31e760aa525306aba638a784082a013b6a1cc0a9a1789f3f22281c0453b10b1f\n        /* \"TicTacToe.sol\":1853:1860  player2 */\n      0x14\n      0x00\n      swap1\n      sload\n      swap1\n      0x0100\n      exp\n      swap1\n      div\n      0xffffffffffffffffffffffffffffffffffffffff\n      and\n        /* \"TicTacToe.sol\":1840:1861  PlayerJoined(player2) */\n      mload(0x40)\n      tag_230\n      swap2\n      swap1\n      tag_110\n      jump\t// in\n    tag_230:\n      mload(0x40)\n      dup1\n      swap2\n      sub\n      swap1\n      log1\n        /* \"TicTacToe.sol\":1895:1896  0 */\n      0x00\n        /* \"TicTacToe.sol\":1890:1891  2 */\n      0x02\n        /* \"TicTacToe.sol\":1875:1887  block.number */\n      number\n        /* \"TicTacToe.sol\":1875:1891  block.number % 2 */\n      tag_231\n      swap2\n      swap1\n      tag_112\n      jump\t// in\n    tag_231:\n        /* \"TicTacToe.sol\":1875:1896  block.number % 2 == 0 */\n      sub\n        /* \"TicTacToe.sol\":1872:2002  if(block.number % 2 == 0) {... */\n      tag_232\n      jumpi\n        /* \"TicTacToe.sol\":1928:1935  player2 */\n      0x14\n      0x00\n      swap1\n      sload\n      swap1\n      0x0100\n      exp\n      swap1\n      div\n      0xffffffffffffffffffffffffffffffffffffffff\n      and\n        /* \"TicTacToe.sol\":1913:1925  activePlayer */\n      0x19\n      0x00\n        /* \"TicTacToe.sol\":1913:1935  activePlayer = player2 */\n      0x0100\n      exp\n      dup2\n      sload\n      dup2\n      0xffffffffffffffffffffffffffffffffffffffff\n      mul\n      not\n      and\n      swap1\n      dup4\n      0xffffffffffffffffffffffffffffffffffffffff\n      and\n      mul\n      or\n      swap1\n      sstore\n      pop\n        /* \"TicTacToe.sol\":1872:2002  if(block.number % 2 == 0) {... */\n      jump(tag_233)\n    tag_232:\n        /* \"TicTacToe.sol\":1983:1990  player1 */\n      0x13\n      0x00\n      swap1\n      sload\n      swap1\n      0x0100\n      exp\n      swap1\n      div\n      0xffffffffffffffffffffffffffffffffffffffff\n      and\n        /* \"TicTacToe.sol\":1968:1980  activePlayer */\n      0x19\n      0x00\n        /* \"TicTacToe.sol\":1968:1990  activePlayer = player1 */\n      0x0100\n      exp\n      dup2\n      sload\n      dup2\n      0xffffffffffffffffffffffffffffffffffffffff\n      mul\n      not\n      and\n      swap1\n      dup4\n      0xffffffffffffffffffffffffffffffffffffffff\n      and\n      mul\n      or\n      swap1\n      sstore\n      pop\n        /* \"TicTacToe.sol\":1872:2002  if(block.number % 2 == 0) {... */\n    tag_233:\n        /* \"TicTacToe.sol\":2049:2060  timeToReact */\n      sload(0x17)\n        /* \"TicTacToe.sol\":2031:2046  block.timestamp */\n      timestamp\n        /* \"TicTacToe.sol\":2031:2060  block.timestamp + timeToReact */\n      tag_234\n      swap2\n      swap1\n      tag_116\n      jump\t// in\n    tag_234:\n        /* \"TicTacToe.sol\":2014:2028  gameValidUntil */\n      0x18\n        /* \"TicTacToe.sol\":2014:2060  gameValidUntil = block.timestamp + timeToReact */\n      dup2\n      swap1\n      sstore\n      pop\n        /* \"TicTacToe.sol\":2078:2102  NextPlayer(activePlayer) */\n      0x637351f91da430278368fb3e486c8c3da47b2e6ce4d28b2c404cb044702ca7e1\n        /* \"TicTacToe.sol\":2089:2101  activePlayer */\n      0x19\n      0x00\n      swap1\n      sload\n      swap1\n      0x0100\n      exp\n      swap1\n      div\n      0xffffffffffffffffffffffffffffffffffffffff\n      and\n        /* \"TicTacToe.sol\":2078:2102  NextPlayer(activePlayer) */\n      mload(0x40)\n      tag_235\n      swap2\n      swap1\n      tag_110\n      jump\t// in\n    tag_235:\n      mload(0x40)\n      dup1\n      swap2\n      sub\n      swap1\n      log1\n        /* \"TicTacToe.sol\":1515:2110  function joinGameasPlayer2() public payable {... */\n      jump\t// out\n        /* \"TicTacToe.sol\":87:130  uint constant public gameCost = 0.001 ether */\n    tag_77:\n        /* \"TicTacToe.sol\":119:130  0.001 ether */\n      0x038d7ea4c68000\n        /* \"TicTacToe.sol\":87:130  uint constant public gameCost = 0.001 ether */\n      dup2\n      jump\t// out\n        /* \"TicTacToe.sol\":314:344  address payable public player1 */\n    tag_81:\n      0x13\n      0x00\n      swap1\n      sload\n      swap1\n      0x0100\n      exp\n      swap1\n      div\n      0xffffffffffffffffffffffffffffffffffffffff\n      and\n      dup2\n      jump\t// out\n        /* \"TicTacToe.sol\":4449:4593  function emergecyCashout() public {... */\n    tag_85:\n        /* \"TicTacToe.sol\":4519:4534  block.timestamp */\n      timestamp\n        /* \"TicTacToe.sol\":4502:4516  gameValidUntil */\n      sload(0x18)\n        /* \"TicTacToe.sol\":4502:4534  gameValidUntil < block.timestamp */\n      lt\n        /* \"TicTacToe.sol\":4494:4535  require(gameValidUntil < block.timestamp) */\n      tag_237\n      jumpi\n      0x00\n      dup1\n      revert\n    tag_237:\n        /* \"TicTacToe.sol\":4554:4564  gameActive */\n      0x00\n      0x02\n      swap1\n      sload\n      swap1\n      0x0100\n      exp\n      swap1\n      div\n      0xff\n      and\n        /* \"TicTacToe.sol\":4546:4565  require(gameActive) */\n      tag_238\n      jumpi\n      0x00\n      dup1\n      revert\n    tag_238:\n        /* \"TicTacToe.sol\":4576:4585  setDraw() */\n      tag_239\n        /* \"TicTacToe.sol\":4576:4583  setDraw */\n      tag_215\n        /* \"TicTacToe.sol\":4576:4585  setDraw() */\n      jump\t// in\n    tag_239:\n        /* \"TicTacToe.sol\":4449:4593  function emergecyCashout() public {... */\n      jump\t// out\n        /* \"TicTacToe.sol\":216:238  bool public gameActive */\n    tag_88:\n      0x00\n      0x02\n      swap1\n      sload\n      swap1\n      0x0100\n      exp\n      swap1\n      div\n      0xff\n      and\n      dup2\n      jump\t// out\n        /* \"TicTacToe.sol\":3203:3872  function withdrawWin() public {... */\n    tag_93:\n        /* \"TicTacToe.sol\":3242:3264  uint balanceToTransfer */\n      0x00\n        /* \"TicTacToe.sol\":3292:3299  player1 */\n      0x13\n      0x00\n      swap1\n      sload\n      swap1\n      0x0100\n      exp\n      swap1\n      div\n      0xffffffffffffffffffffffffffffffffffffffff\n      and\n        /* \"TicTacToe.sol\":3278:3299  msg.sender == player1 */\n      0xffffffffffffffffffffffffffffffffffffffff\n      and\n        /* \"TicTacToe.sol\":3278:3288  msg.sender */\n      caller\n        /* \"TicTacToe.sol\":3278:3299  msg.sender == player1 */\n      0xffffffffffffffffffffffffffffffffffffffff\n      and\n      sub\n        /* \"TicTacToe.sol\":3275:3865  if(msg.sender == player1) {... */\n      tag_241\n      jumpi\n        /* \"TicTacToe.sol\":3351:3352  0 */\n      0x00\n        /* \"TicTacToe.sol\":3324:3348  balanceToWithdrawPlayer1 */\n      sload(0x15)\n        /* \"TicTacToe.sol\":3324:3352  balanceToWithdrawPlayer1 > 0 */\n      gt\n        /* \"TicTacToe.sol\":3316:3353  require(balanceToWithdrawPlayer1 > 0) */\n      tag_242\n      jumpi\n      0x00\n      dup1\n      revert\n    tag_242:\n        /* \"TicTacToe.sol\":3388:3412  balanceToWithdrawPlayer1 */\n      sload(0x15)\n        /* \"TicTacToe.sol\":3368:3412  balanceToTransfer = balanceToWithdrawPlayer1 */\n      swap1\n      pop\n        /* \"TicTacToe.sol\":3454:3455  0 */\n      0x00\n        /* \"TicTacToe.sol\":3427:3451  balanceToWithdrawPlayer1 */\n      0x15\n        /* \"TicTacToe.sol\":3427:3455  balanceToWithdrawPlayer1 = 0 */\n      dup2\n      swap1\n      sstore\n      pop\n        /* \"TicTacToe.sol\":3470:3477  player1 */\n      0x13\n      0x00\n      swap1\n      sload\n      swap1\n      0x0100\n      exp\n      swap1\n      div\n      0xffffffffffffffffffffffffffffffffffffffff\n      and\n        /* \"TicTacToe.sol\":3470:3486  player1.transfer */\n      0xffffffffffffffffffffffffffffffffffffffff\n      and\n        /* \"TicTacToe.sol\":3470:3505  player1.transfer(balanceToTransfer) */\n      0x08fc\n        /* \"TicTacToe.sol\":3487:3504  balanceToTransfer */\n      dup3\n        /* \"TicTacToe.sol\":3470:3505  player1.transfer(balanceToTransfer) */\n      swap1\n      dup2\n      iszero\n      mul\n      swap1\n      mload(0x40)\n      0x00\n      mload(0x40)\n      dup1\n      dup4\n      sub\n      dup2\n      dup6\n      dup9\n      dup9\n      call\n      swap4\n      pop\n      pop\n      pop\n      pop\n      iszero\n      dup1\n      iszero\n      tag_244\n      jumpi\n      returndatasize\n      0x00\n      dup1\n      returndatacopy\n      revert(0x00, returndatasize)\n    tag_244:\n      pop\n        /* \"TicTacToe.sol\":3527:3568  PayoutSuccess(player1, balanceToTransfer) */\n      0x2a44162a2d5223e37cacacc3f626dcfee1396e0be3616534c5c7b718f786b673\n        /* \"TicTacToe.sol\":3541:3548  player1 */\n      0x13\n      0x00\n      swap1\n      sload\n      swap1\n      0x0100\n      exp\n      swap1\n      div\n      0xffffffffffffffffffffffffffffffffffffffff\n      and\n        /* \"TicTacToe.sol\":3550:3567  balanceToTransfer */\n      dup3\n        /* \"TicTacToe.sol\":3527:3568  PayoutSuccess(player1, balanceToTransfer) */\n      mload(0x40)\n      tag_245\n      swap3\n      swap2\n      swap1\n      tag_246\n      jump\t// in\n    tag_245:\n      mload(0x40)\n      dup1\n      swap2\n      sub\n      swap1\n      log1\n        /* \"TicTacToe.sol\":3275:3865  if(msg.sender == player1) {... */\n      jump(tag_247)\n    tag_241:\n        /* \"TicTacToe.sol\":3638:3639  0 */\n      0x00\n        /* \"TicTacToe.sol\":3611:3635  balanceToWithdrawPlayer2 */\n      sload(0x16)\n        /* \"TicTacToe.sol\":3611:3639  balanceToWithdrawPlayer2 > 0 */\n      gt\n        /* \"TicTacToe.sol\":3603:3640  require(balanceToWithdrawPlayer2 > 0) */\n      tag_248\n      jumpi\n      0x00\n      dup1\n      revert\n    tag_248:\n        /* \"TicTacToe.sol\":3675:3699  balanceToWithdrawPlayer2 */\n      sload(0x16)\n        /* \"TicTacToe.sol\":3655:3699  balanceToTransfer = balanceToWithdrawPlayer2 */\n      swap1\n      pop\n        /* \"TicTacToe.sol\":3741:3742  0 */\n      0x00\n        /* \"TicTacToe.sol\":3714:3738  balanceToWithdrawPlayer2 */\n      0x16\n        /* \"TicTacToe.sol\":3714:3742  balanceToWithdrawPlayer2 = 0 */\n      dup2\n      swap1\n      sstore\n      pop\n        /* \"TicTacToe.sol\":3757:3764  player2 */\n      0x14\n      0x00\n      swap1\n      sload\n      swap1\n      0x0100\n      exp\n      swap1\n      div\n      0xffffffffffffffffffffffffffffffffffffffff\n      and\n        /* \"TicTacToe.sol\":3757:3773  player2.transfer */\n      0xffffffffffffffffffffffffffffffffffffffff\n      and\n        /* \"TicTacToe.sol\":3757:3792  player2.transfer(balanceToTransfer) */\n      0x08fc\n        /* \"TicTacToe.sol\":3774:3791  balanceToTransfer */\n      dup3\n        /* \"TicTacToe.sol\":3757:3792  player2.transfer(balanceToTransfer) */\n      swap1\n      dup2\n      iszero\n      mul\n      swap1\n      mload(0x40)\n      0x00\n      mload(0x40)\n      dup1\n      dup4\n      sub\n      dup2\n      dup6\n      dup9\n      dup9\n      call\n      swap4\n      pop\n      pop\n      pop\n      pop\n      iszero\n      dup1\n      iszero\n      tag_250\n      jumpi\n      returndatasize\n      0x00\n      dup1\n      returndatacopy\n      revert(0x00, returndatasize)\n    tag_250:\n      pop\n        /* \"TicTacToe.sol\":3812:3853  PayoutSuccess(player2, balanceToTransfer) */\n      0x2a44162a2d5223e37cacacc3f626dcfee1396e0be3616534c5c7b718f786b673\n        /* \"TicTacToe.sol\":3826:3833  player2 */\n      0x14\n      0x00\n      swap1\n      sload\n      swap1\n      0x0100\n      exp\n      swap1\n      div\n      0xffffffffffffffffffffffffffffffffffffffff\n      and\n        /* \"TicTacToe.sol\":3835:3852  balanceToTransfer */\n      dup3\n        /* \"TicTacToe.sol\":3812:3853  PayoutSuccess(player2, balanceToTransfer) */\n      mload(0x40)\n      tag_251\n      swap3\n      swap2\n      swap1\n      tag_246\n      jump\t// in\n    tag_251:\n      mload(0x40)\n      dup1\n      swap2\n      sub\n      swap1\n      log1\n        /* \"TicTacToe.sol\":3275:3865  if(msg.sender == player1) {... */\n    tag_247:\n        /* \"TicTacToe.sol\":3233:3872  {... */\n      pop\n        /* \"TicTacToe.sol\":3203:3872  function withdrawWin() public {... */\n      jump\t// out\n        /* \"TicTacToe.sol\":2440:3195  function setWinner(address payable player) private {... */\n    tag_158:\n        /* \"TicTacToe.sol\":2515:2520  false */\n      0x00\n        /* \"TicTacToe.sol\":2502:2512  gameActive */\n      dup1\n      0x02\n        /* \"TicTacToe.sol\":2502:2520  gameActive = false */\n      0x0100\n      exp\n      dup2\n      sload\n      dup2\n      0xff\n      mul\n      not\n      and\n      swap1\n      dup4\n      iszero\n      iszero\n      mul\n      or\n      swap1\n      sstore\n      pop\n        /* \"TicTacToe.sol\":2561:2584  GameOverWithWin(player) */\n      0x8245a3876d42d9b0bdb7f24184c03fc24e3d8a079f492b1ec9ceae70b366edf9\n        /* \"TicTacToe.sol\":2577:2583  player */\n      dup2\n        /* \"TicTacToe.sol\":2561:2584  GameOverWithWin(player) */\n      mload(0x40)\n      tag_253\n      swap2\n      swap1\n      tag_110\n      jump\t// in\n    tag_253:\n      mload(0x40)\n      dup1\n      swap2\n      sub\n      swap1\n      log1\n        /* \"TicTacToe.sol\":2595:2615  uint balanceToPayOut */\n      0x00\n        /* \"TicTacToe.sol\":2618:2639  address(this).balance */\n      selfbalance\n        /* \"TicTacToe.sol\":2595:2639  uint balanceToPayOut = address(this).balance */\n      swap1\n      pop\n        /* \"TicTacToe.sol\":2858:2862  true */\n      0x01\n        /* \"TicTacToe.sol\":2826:2862  player.send(balanceToPayOut) != true */\n      iszero\n      iszero\n        /* \"TicTacToe.sol\":2826:2832  player */\n      dup3\n        /* \"TicTacToe.sol\":2826:2837  player.send */\n      0xffffffffffffffffffffffffffffffffffffffff\n      and\n        /* \"TicTacToe.sol\":2826:2854  player.send(balanceToPayOut) */\n      0x08fc\n        /* \"TicTacToe.sol\":2838:2853  balanceToPayOut */\n      dup4\n        /* \"TicTacToe.sol\":2826:2854  player.send(balanceToPayOut) */\n      swap1\n      dup2\n      iszero\n      mul\n      swap1\n      mload(0x40)\n      0x00\n      mload(0x40)\n      dup1\n      dup4\n      sub\n      dup2\n      dup6\n      dup9\n      dup9\n      call\n      swap4\n      pop\n      pop\n      pop\n      pop\n        /* \"TicTacToe.sol\":2826:2862  player.send(balanceToPayOut) != true */\n      iszero\n      iszero\n      eq\n        /* \"TicTacToe.sol\":2823:3148  if(player.send(balanceToPayOut) != true) {... */\n      tag_255\n      jumpi\n        /* \"TicTacToe.sol\":2892:2899  player1 */\n      0x13\n      0x00\n      swap1\n      sload\n      swap1\n      0x0100\n      exp\n      swap1\n      div\n      0xffffffffffffffffffffffffffffffffffffffff\n      and\n        /* \"TicTacToe.sol\":2882:2899  player == player1 */\n      0xffffffffffffffffffffffffffffffffffffffff\n      and\n        /* \"TicTacToe.sol\":2882:2888  player */\n      dup3\n        /* \"TicTacToe.sol\":2882:2899  player == player1 */\n      0xffffffffffffffffffffffffffffffffffffffff\n      and\n      sub\n        /* \"TicTacToe.sol\":2879:3061  if(player == player1) {... */\n      tag_256\n      jumpi\n        /* \"TicTacToe.sol\":2947:2962  balanceToPayOut */\n      dup1\n        /* \"TicTacToe.sol\":2920:2944  balanceToWithdrawPlayer1 */\n      0x15\n        /* \"TicTacToe.sol\":2920:2962  balanceToWithdrawPlayer1 = balanceToPayOut */\n      dup2\n      swap1\n      sstore\n      pop\n        /* \"TicTacToe.sol\":2879:3061  if(player == player1) {... */\n      jump(tag_257)\n    tag_256:\n        /* \"TicTacToe.sol\":3030:3045  balanceToPayOut */\n      dup1\n        /* \"TicTacToe.sol\":3003:3027  balanceToWithdrawPlayer2 */\n      0x16\n        /* \"TicTacToe.sol\":3003:3045  balanceToWithdrawPlayer2 = balanceToPayOut */\n      dup2\n      swap1\n      sstore\n      pop\n        /* \"TicTacToe.sol\":2879:3061  if(player == player1) {... */\n    tag_257:\n        /* \"TicTacToe.sol\":2823:3148  if(player.send(balanceToPayOut) != true) {... */\n      jump(tag_258)\n    tag_255:\n        /* \"TicTacToe.sol\":3098:3136  PayoutSuccess(player, balanceToPayOut) */\n      0x2a44162a2d5223e37cacacc3f626dcfee1396e0be3616534c5c7b718f786b673\n        /* \"TicTacToe.sol\":3112:3118  player */\n      dup3\n        /* \"TicTacToe.sol\":3120:3135  balanceToPayOut */\n      dup3\n        /* \"TicTacToe.sol\":3098:3136  PayoutSuccess(player, balanceToPayOut) */\n      mload(0x40)\n      tag_259\n      swap3\n      swap2\n      swap1\n      tag_246\n      jump\t// in\n    tag_259:\n      mload(0x40)\n      dup1\n      swap2\n      sub\n      swap1\n      log1\n        /* \"TicTacToe.sol\":2823:3148  if(player.send(balanceToPayOut) != true) {... */\n    tag_258:\n        /* \"TicTacToe.sol\":2491:3195  {... */\n      pop\n        /* \"TicTacToe.sol\":2440:3195  function setWinner(address payable player) private {... */\n      pop\n      jump\t// out\n        /* \"TicTacToe.sol\":3880:4441  function setDraw() private {... */\n    tag_215:\n        /* \"TicTacToe.sol\":3931:3936  false */\n      0x00\n        /* \"TicTacToe.sol\":3918:3928  gameActive */\n      dup1\n      0x02\n        /* \"TicTacToe.sol\":3918:3936  gameActive = false */\n      0x0100\n      exp\n      dup2\n      sload\n      dup2\n      0xff\n      mul\n      not\n      and\n      swap1\n      dup4\n      iszero\n      iszero\n      mul\n      or\n      swap1\n      sstore\n      pop\n        /* \"TicTacToe.sol\":3952:3970  GameOverWithDraw() */\n      0x2207d46a2ba0f2acda06e9a222b40fd004e385738b3f868e63b2c0bfe4bc094c\n      mload(0x40)\n      mload(0x40)\n      dup1\n      swap2\n      sub\n      swap1\n      log1\n        /* \"TicTacToe.sol\":3983:4003  uint balanceToPayOut */\n      0x00\n        /* \"TicTacToe.sol\":4028:4029  2 */\n      0x02\n        /* \"TicTacToe.sol\":4006:4027  address(this).balance */\n      selfbalance\n        /* \"TicTacToe.sol\":4006:4029  address(this).balance/2 */\n      tag_261\n      swap2\n      swap1\n      tag_262\n      jump\t// in\n    tag_261:\n        /* \"TicTacToe.sol\":3983:4029  uint balanceToPayOut = address(this).balance/2 */\n      swap1\n      pop\n        /* \"TicTacToe.sol\":4078:4083  false */\n      0x00\n        /* \"TicTacToe.sol\":4045:4083  player1.send(balanceToPayOut) == false */\n      iszero\n      iszero\n        /* \"TicTacToe.sol\":4045:4052  player1 */\n      0x13\n      0x00\n      swap1\n      sload\n      swap1\n      0x0100\n      exp\n      swap1\n      div\n      0xffffffffffffffffffffffffffffffffffffffff\n      and\n        /* \"TicTacToe.sol\":4045:4057  player1.send */\n      0xffffffffffffffffffffffffffffffffffffffff\n      and\n        /* \"TicTacToe.sol\":4045:4074  player1.send(balanceToPayOut) */\n      0x08fc\n        /* \"TicTacToe.sol\":4058:4073  balanceToPayOut */\n      dup4\n        /* \"TicTacToe.sol\":4045:4074  player1.send(balanceToPayOut) */\n      swap1\n      dup2\n      iszero\n      mul\n      swap1\n      mload(0x40)\n      0x00\n      mload(0x40)\n      dup1\n      dup4\n      sub\n      dup2\n      dup6\n      dup9\n      dup9\n      call\n      swap4\n      pop\n      pop\n      pop\n      pop\n        /* \"TicTacToe.sol\":4045:4083  player1.send(balanceToPayOut) == false */\n      iszero\n      iszero\n      sub\n        /* \"TicTacToe.sol\":4042:4232  if(player1.send(balanceToPayOut) == false) {... */\n      tag_264\n      jumpi\n        /* \"TicTacToe.sol\":4128:4143  balanceToPayOut */\n      dup1\n        /* \"TicTacToe.sol\":4100:4124  balanceToWithdrawPlayer1 */\n      0x15\n      0x00\n        /* \"TicTacToe.sol\":4100:4143  balanceToWithdrawPlayer1 += balanceToPayOut */\n      dup3\n      dup3\n      sload\n      tag_265\n      swap2\n      swap1\n      tag_116\n      jump\t// in\n    tag_265:\n      swap3\n      pop\n      pop\n      dup2\n      swap1\n      sstore\n      pop\n        /* \"TicTacToe.sol\":4042:4232  if(player1.send(balanceToPayOut) == false) {... */\n      jump(tag_266)\n    tag_264:\n        /* \"TicTacToe.sol\":4181:4220  PayoutSuccess(player1, balanceToPayOut) */\n      0x2a44162a2d5223e37cacacc3f626dcfee1396e0be3616534c5c7b718f786b673\n        /* \"TicTacToe.sol\":4195:4202  player1 */\n      0x13\n      0x00\n      swap1\n      sload\n      swap1\n      0x0100\n      exp\n      swap1\n      div\n      0xffffffffffffffffffffffffffffffffffffffff\n      and\n        /* \"TicTacToe.sol\":4204:4219  balanceToPayOut */\n      dup3\n        /* \"TicTacToe.sol\":4181:4220  PayoutSuccess(player1, balanceToPayOut) */\n      mload(0x40)\n      tag_267\n      swap3\n      swap2\n      swap1\n      tag_246\n      jump\t// in\n    tag_267:\n      mload(0x40)\n      dup1\n      swap2\n      sub\n      swap1\n      log1\n        /* \"TicTacToe.sol\":4042:4232  if(player1.send(balanceToPayOut) == false) {... */\n    tag_266:\n        /* \"TicTacToe.sol\":4278:4283  false */\n      0x00\n        /* \"TicTacToe.sol\":4245:4283  player2.send(balanceToPayOut) == false */\n      iszero\n      iszero\n        /* \"TicTacToe.sol\":4245:4252  player2 */\n      0x14\n      0x00\n      swap1\n      sload\n      swap1\n      0x0100\n      exp\n      swap1\n      div\n      0xffffffffffffffffffffffffffffffffffffffff\n      and\n        /* \"TicTacToe.sol\":4245:4257  player2.send */\n      0xffffffffffffffffffffffffffffffffffffffff\n      and\n        /* \"TicTacToe.sol\":4245:4274  player2.send(balanceToPayOut) */\n      0x08fc\n        /* \"TicTacToe.sol\":4258:4273  balanceToPayOut */\n      dup4\n        /* \"TicTacToe.sol\":4245:4274  player2.send(balanceToPayOut) */\n      swap1\n      dup2\n      iszero\n      mul\n      swap1\n      mload(0x40)\n      0x00\n      mload(0x40)\n      dup1\n      dup4\n      sub\n      dup2\n      dup6\n      dup9\n      dup9\n      call\n      swap4\n      pop\n      pop\n      pop\n      pop\n        /* \"TicTacToe.sol\":4245:4283  player2.send(balanceToPayOut) == false */\n      iszero\n      iszero\n      sub\n        /* \"TicTacToe.sol\":4242:4432  if(player2.send(balanceToPayOut) == false) {... */\n      tag_269\n      jumpi\n        /* \"TicTacToe.sol\":4328:4343  balanceToPayOut */\n      dup1\n        /* \"TicTacToe.sol\":4300:4324  balanceToWithdrawPlayer2 */\n      0x16\n      0x00\n        /* \"TicTacToe.sol\":4300:4343  balanceToWithdrawPlayer2 += balanceToPayOut */\n      dup3\n      dup3\n      sload\n      tag_270\n      swap2\n      swap1\n      tag_116\n      jump\t// in\n    tag_270:\n      swap3\n      pop\n      pop\n      dup2\n      swap1\n      sstore\n      pop\n        /* \"TicTacToe.sol\":4242:4432  if(player2.send(balanceToPayOut) == false) {... */\n      jump(tag_271)\n    tag_269:\n        /* \"TicTacToe.sol\":4381:4420  PayoutSuccess(player2, balanceToPayOut) */\n      0x2a44162a2d5223e37cacacc3f626dcfee1396e0be3616534c5c7b718f786b673\n        /* \"TicTacToe.sol\":4395:4402  player2 */\n      0x14\n      0x00\n      swap1\n      sload\n      swap1\n      0x0100\n      exp\n      swap1\n      div\n      0xffffffffffffffffffffffffffffffffffffffff\n      and\n        /* \"TicTacToe.sol\":4404:4419  balanceToPayOut */\n      dup3\n        /* \"TicTacToe.sol\":4381:4420  PayoutSuccess(player2, balanceToPayOut) */\n      mload(0x40)\n      tag_272\n      swap3\n      swap2\n      swap1\n      tag_246\n      jump\t// in\n    tag_272:\n      mload(0x40)\n      dup1\n      swap2\n      sub\n      swap1\n      log1\n        /* \"TicTacToe.sol\":4242:4432  if(player2.send(balanceToPayOut) == false) {... */\n    tag_271:\n        /* \"TicTacToe.sol\":3907:4441  {... */\n      pop\n        /* \"TicTacToe.sol\":3880:4441  function setDraw() private {... */\n      jump\t// out\n    tag_95:\n      mload(0x40)\n      dup1\n      0x60\n      add\n      0x40\n      mstore\n      dup1\n      0x03\n      swap1\n    tag_273:\n      tag_274\n      tag_275\n      jump\t// in\n    tag_274:\n      dup2\n      mstore\n      0x20\n      add\n      swap1\n      0x01\n      swap1\n      sub\n      swap1\n      dup2\n      tag_273\n      jumpi\n      swap1\n      pop\n      pop\n      swap1\n      jump\t// out\n    tag_223:\n      dup3\n      0x03\n      dup1\n      mul\n      dup2\n      add\n      swap3\n      dup3\n      iszero\n      tag_276\n      jumpi\n      swap2\n      0x03\n      mul\n      dup3\n      add\n    tag_277:\n      dup3\n      dup2\n      gt\n      iszero\n      tag_278\n      jumpi\n      dup3\n      dup3\n      swap1\n      0x03\n      tag_279\n      swap3\n      swap2\n      swap1\n      tag_280\n      jump\t// in\n    tag_279:\n      pop\n      swap2\n      0x03\n      add\n      swap2\n      swap1\n      0x03\n      add\n      swap1\n      jump(tag_277)\n    tag_278:\n    tag_276:\n      pop\n      swap1\n      pop\n      tag_281\n      swap2\n      swap1\n      tag_282\n      jump\t// in\n    tag_281:\n      pop\n      swap1\n      jump\t// out\n    tag_275:\n      mload(0x40)\n      dup1\n      0x60\n      add\n      0x40\n      mstore\n      dup1\n      0x03\n      swap1\n      0x20\n      dup3\n      mul\n      dup1\n      calldatasize\n      dup4\n      calldatacopy\n      dup1\n      dup3\n      add\n      swap2\n      pop\n      pop\n      swap1\n      pop\n      pop\n      swap1\n      jump\t// out\n    tag_280:\n      dup3\n      0x03\n      dup2\n      add\n      swap3\n      dup3\n      iszero\n      tag_283\n      jumpi\n      swap2\n      dup3\n      add\n    tag_284:\n      dup3\n      dup2\n      gt\n      iszero\n      tag_285\n      jumpi\n      dup3\n      sload\n      dup3\n      sstore\n      swap2\n      0x01\n      add\n      swap2\n      swap1\n      0x01\n      add\n      swap1\n      jump(tag_284)\n    tag_285:\n    tag_283:\n      pop\n      swap1\n      pop\n      tag_286\n      swap2\n      swap1\n      tag_287\n      jump\t// in\n    tag_286:\n      pop\n      swap1\n      jump\t// out\n    tag_282:\n    tag_288:\n      dup1\n      dup3\n      gt\n      iszero\n      tag_289\n      jumpi\n      0x00\n      dup2\n      dup2\n      tag_290\n      swap2\n      swap1\n      tag_291\n      jump\t// in\n    tag_290:\n      pop\n      0x03\n      add\n      jump(tag_288)\n    tag_289:\n      pop\n      swap1\n      jump\t// out\n    tag_287:\n    tag_292:\n      dup1\n      dup3\n      gt\n      iszero\n      tag_293\n      jumpi\n      0x00\n      dup2\n      0x00\n      swap1\n      sstore\n      pop\n      0x01\n      add\n      jump(tag_292)\n    tag_293:\n      pop\n      swap1\n      jump\t// out\n    tag_291:\n      pop\n      0x00\n      dup2\n      sstore\n      0x01\n      add\n      0x00\n      dup2\n      sstore\n      0x01\n      add\n      0x00\n      swap1\n      sstore\n      jump\t// out\n        /* \"#utility.yul\":7:84   */\n    tag_294:\n        /* \"#utility.yul\":44:51   */\n      0x00\n        /* \"#utility.yul\":73:78   */\n      dup2\n        /* \"#utility.yul\":62:78   */\n      swap1\n      pop\n        /* \"#utility.yul\":7:84   */\n      swap2\n      swap1\n      pop\n      jump\t// out\n        /* \"#utility.yul\":90:208   */\n    tag_295:\n        /* \"#utility.yul\":177:201   */\n      tag_335\n        /* \"#utility.yul\":195:200   */\n      dup2\n        /* \"#utility.yul\":177:201   */\n      tag_294\n      jump\t// in\n    tag_335:\n        /* \"#utility.yul\":172:175   */\n      dup3\n        /* \"#utility.yul\":165:202   */\n      mstore\n        /* \"#utility.yul\":90:208   */\n      pop\n      pop\n      jump\t// out\n        /* \"#utility.yul\":214:436   */\n    tag_27:\n        /* \"#utility.yul\":307:311   */\n      0x00\n        /* \"#utility.yul\":345:347   */\n      0x20\n        /* \"#utility.yul\":334:343   */\n      dup3\n        /* \"#utility.yul\":330:348   */\n      add\n        /* \"#utility.yul\":322:348   */\n      swap1\n      pop\n        /* \"#utility.yul\":358:429   */\n      tag_337\n        /* \"#utility.yul\":426:427   */\n      0x00\n        /* \"#utility.yul\":415:424   */\n      dup4\n        /* \"#utility.yul\":411:428   */\n      add\n        /* \"#utility.yul\":402:408   */\n      dup5\n        /* \"#utility.yul\":358:429   */\n      tag_295\n      jump\t// in\n    tag_337:\n        /* \"#utility.yul\":214:436   */\n      swap3\n      swap2\n      pop\n      pop\n      jump\t// out\n        /* \"#utility.yul\":442:528   */\n    tag_296:\n        /* \"#utility.yul\":477:484   */\n      0x00\n        /* \"#utility.yul\":517:521   */\n      0xff\n        /* \"#utility.yul\":510:515   */\n      dup3\n        /* \"#utility.yul\":506:522   */\n      and\n        /* \"#utility.yul\":495:522   */\n      swap1\n      pop\n        /* \"#utility.yul\":442:528   */\n      swap2\n      swap1\n      pop\n      jump\t// out\n        /* \"#utility.yul\":534:646   */\n    tag_297:\n        /* \"#utility.yul\":617:639   */\n      tag_340\n        /* \"#utility.yul\":633:638   */\n      dup2\n        /* \"#utility.yul\":617:639   */\n      tag_296\n      jump\t// in\n    tag_340:\n        /* \"#utility.yul\":612:615   */\n      dup3\n        /* \"#utility.yul\":605:640   */\n      mstore\n        /* \"#utility.yul\":534:646   */\n      pop\n      pop\n      jump\t// out\n        /* \"#utility.yul\":652:866   */\n    tag_36:\n        /* \"#utility.yul\":741:745   */\n      0x00\n        /* \"#utility.yul\":779:781   */\n      0x20\n        /* \"#utility.yul\":768:777   */\n      dup3\n        /* \"#utility.yul\":764:782   */\n      add\n        /* \"#utility.yul\":756:782   */\n      swap1\n      pop\n        /* \"#utility.yul\":792:859   */\n      tag_342\n        /* \"#utility.yul\":856:857   */\n      0x00\n        /* \"#utility.yul\":845:854   */\n      dup4\n        /* \"#utility.yul\":841:858   */\n      add\n        /* \"#utility.yul\":832:838   */\n      dup5\n        /* \"#utility.yul\":792:859   */\n      tag_297\n      jump\t// in\n    tag_342:\n        /* \"#utility.yul\":652:866   */\n      swap3\n      swap2\n      pop\n      pop\n      jump\t// out\n        /* \"#utility.yul\":872:999   */\n    tag_298:\n        /* \"#utility.yul\":960:966   */\n      0x00\n        /* \"#utility.yul\":988:992   */\n      0x03\n        /* \"#utility.yul\":978:992   */\n      swap1\n      pop\n        /* \"#utility.yul\":872:999   */\n      swap2\n      swap1\n      pop\n      jump\t// out\n        /* \"#utility.yul\":1005:1171   */\n    tag_299:\n        /* \"#utility.yul\":1125:1136   */\n      0x00\n        /* \"#utility.yul\":1162:1165   */\n      dup2\n        /* \"#utility.yul\":1147:1165   */\n      swap1\n      pop\n        /* \"#utility.yul\":1005:1171   */\n      swap3\n      swap2\n      pop\n      pop\n      jump\t// out\n        /* \"#utility.yul\":1177:1298   */\n    tag_300:\n        /* \"#utility.yul\":1265:1269   */\n      0x00\n        /* \"#utility.yul\":1288:1291   */\n      dup2\n        /* \"#utility.yul\":1280:1291   */\n      swap1\n      pop\n        /* \"#utility.yul\":1177:1298   */\n      swap2\n      swap1\n      pop\n      jump\t// out\n        /* \"#utility.yul\":1304:1408   */\n    tag_301:\n        /* \"#utility.yul\":1369:1375   */\n      0x00\n        /* \"#utility.yul\":1397:1401   */\n      0x03\n        /* \"#utility.yul\":1387:1401   */\n      swap1\n      pop\n        /* \"#utility.yul\":1304:1408   */\n      swap2\n      swap1\n      pop\n      jump\t// out\n        /* \"#utility.yul\":1414:1547   */\n    tag_302:\n        /* \"#utility.yul\":1501:1512   */\n      0x00\n        /* \"#utility.yul\":1538:1541   */\n      dup2\n        /* \"#utility.yul\":1523:1541   */\n      swap1\n      pop\n        /* \"#utility.yul\":1414:1547   */\n      swap3\n      swap2\n      pop\n      pop\n      jump\t// out\n        /* \"#utility.yul\":1553:1651   */\n    tag_303:\n        /* \"#utility.yul\":1618:1622   */\n      0x00\n        /* \"#utility.yul\":1641:1644   */\n      dup2\n        /* \"#utility.yul\":1633:1644   */\n      swap1\n      pop\n        /* \"#utility.yul\":1553:1651   */\n      swap2\n      swap1\n      pop\n      jump\t// out\n        /* \"#utility.yul\":1657:1783   */\n    tag_304:\n        /* \"#utility.yul\":1694:1701   */\n      0x00\n        /* \"#utility.yul\":1734:1776   */\n      0xffffffffffffffffffffffffffffffffffffffff\n        /* \"#utility.yul\":1727:1732   */\n      dup3\n        /* \"#utility.yul\":1723:1777   */\n      and\n        /* \"#utility.yul\":1712:1777   */\n      swap1\n      pop\n        /* \"#utility.yul\":1657:1783   */\n      swap2\n      swap1\n      pop\n      jump\t// out\n        /* \"#utility.yul\":1789:1885   */\n    tag_305:\n        /* \"#utility.yul\":1826:1833   */\n      0x00\n        /* \"#utility.yul\":1855:1879   */\n      tag_351\n        /* \"#utility.yul\":1873:1878   */\n      dup3\n        /* \"#utility.yul\":1855:1879   */\n      tag_304\n      jump\t// in\n    tag_351:\n        /* \"#utility.yul\":1844:1879   */\n      swap1\n      pop\n        /* \"#utility.yul\":1789:1885   */\n      swap2\n      swap1\n      pop\n      jump\t// out\n        /* \"#utility.yul\":1891:1999   */\n    tag_306:\n        /* \"#utility.yul\":1968:1992   */\n      tag_353\n        /* \"#utility.yul\":1986:1991   */\n      dup2\n        /* \"#utility.yul\":1968:1992   */\n      tag_305\n      jump\t// in\n    tag_353:\n        /* \"#utility.yul\":1963:1966   */\n      dup3\n        /* \"#utility.yul\":1956:1993   */\n      mstore\n        /* \"#utility.yul\":1891:1999   */\n      pop\n      pop\n      jump\t// out\n        /* \"#utility.yul\":2005:2184   */\n    tag_307:\n        /* \"#utility.yul\":2074:2084   */\n      0x00\n        /* \"#utility.yul\":2095:2141   */\n      tag_355\n        /* \"#utility.yul\":2137:2140   */\n      dup4\n        /* \"#utility.yul\":2129:2135   */\n      dup4\n        /* \"#utility.yul\":2095:2141   */\n      tag_306\n      jump\t// in\n    tag_355:\n        /* \"#utility.yul\":2173:2177   */\n      0x20\n        /* \"#utility.yul\":2168:2171   */\n      dup4\n        /* \"#utility.yul\":2164:2178   */\n      add\n        /* \"#utility.yul\":2150:2178   */\n      swap1\n      pop\n        /* \"#utility.yul\":2005:2184   */\n      swap3\n      swap2\n      pop\n      pop\n      jump\t// out\n        /* \"#utility.yul\":2190:2301   */\n    tag_308:\n        /* \"#utility.yul\":2258:2262   */\n      0x00\n        /* \"#utility.yul\":2290:2294   */\n      0x20\n        /* \"#utility.yul\":2285:2288   */\n      dup3\n        /* \"#utility.yul\":2281:2295   */\n      add\n        /* \"#utility.yul\":2273:2295   */\n      swap1\n      pop\n        /* \"#utility.yul\":2190:2301   */\n      swap2\n      swap1\n      pop\n      jump\t// out\n        /* \"#utility.yul\":2339:3013   */\n    tag_309:\n        /* \"#utility.yul\":2465:2517   */\n      tag_358\n        /* \"#utility.yul\":2511:2516   */\n      dup2\n        /* \"#utility.yul\":2465:2517   */\n      tag_301\n      jump\t// in\n    tag_358:\n        /* \"#utility.yul\":2533:2607   */\n      tag_359\n        /* \"#utility.yul\":2600:2606   */\n      dup2\n        /* \"#utility.yul\":2595:2598   */\n      dup5\n        /* \"#utility.yul\":2533:2607   */\n      tag_302\n      jump\t// in\n    tag_359:\n        /* \"#utility.yul\":2526:2607   */\n      swap3\n      pop\n        /* \"#utility.yul\":2631:2685   */\n      tag_360\n        /* \"#utility.yul\":2679:2684   */\n      dup3\n        /* \"#utility.yul\":2631:2685   */\n      tag_303\n      jump\t// in\n    tag_360:\n        /* \"#utility.yul\":2708:2715   */\n      dup1\n        /* \"#utility.yul\":2739:2740   */\n      0x00\n        /* \"#utility.yul\":2724:3006   */\n    tag_361:\n        /* \"#utility.yul\":2749:2755   */\n      dup4\n        /* \"#utility.yul\":2746:2747   */\n      dup2\n        /* \"#utility.yul\":2743:2756   */\n      lt\n        /* \"#utility.yul\":2724:3006   */\n      iszero\n      tag_363\n      jumpi\n        /* \"#utility.yul\":2825:2831   */\n      dup2\n        /* \"#utility.yul\":2819:2832   */\n      mload\n        /* \"#utility.yul\":2852:2915   */\n      tag_364\n        /* \"#utility.yul\":2911:2914   */\n      dup8\n        /* \"#utility.yul\":2896:2909   */\n      dup3\n        /* \"#utility.yul\":2852:2915   */\n      tag_307\n      jump\t// in\n    tag_364:\n        /* \"#utility.yul\":2845:2915   */\n      swap7\n      pop\n        /* \"#utility.yul\":2938:2996   */\n      tag_365\n        /* \"#utility.yul\":2989:2995   */\n      dup4\n        /* \"#utility.yul\":2938:2996   */\n      tag_308\n      jump\t// in\n    tag_365:\n        /* \"#utility.yul\":2928:2996   */\n      swap3\n      pop\n        /* \"#utility.yul\":2784:3006   */\n      pop\n        /* \"#utility.yul\":2771:2772   */\n      0x01\n        /* \"#utility.yul\":2768:2769   */\n      dup2\n        /* \"#utility.yul\":2764:2773   */\n      add\n        /* \"#utility.yul\":2759:2773   */\n      swap1\n      pop\n        /* \"#utility.yul\":2724:3006   */\n      jump(tag_361)\n    tag_363:\n        /* \"#utility.yul\":2728:2742   */\n      pop\n        /* \"#utility.yul\":2441:3013   */\n      pop\n      pop\n      pop\n        /* \"#utility.yul\":2339:3013   */\n      pop\n      pop\n      jump\t// out\n        /* \"#utility.yul\":3019:3290   */\n    tag_310:\n        /* \"#utility.yul\":3134:3144   */\n      0x00\n        /* \"#utility.yul\":3155:3247   */\n      tag_367\n        /* \"#utility.yul\":3243:3246   */\n      dup4\n        /* \"#utility.yul\":3235:3241   */\n      dup4\n        /* \"#utility.yul\":3155:3247   */\n      tag_309\n      jump\t// in\n    tag_367:\n        /* \"#utility.yul\":3279:3283   */\n      0x60\n        /* \"#utility.yul\":3274:3277   */\n      dup4\n        /* \"#utility.yul\":3270:3284   */\n      add\n        /* \"#utility.yul\":3256:3284   */\n      swap1\n      pop\n        /* \"#utility.yul\":3019:3290   */\n      swap3\n      swap2\n      pop\n      pop\n      jump\t// out\n        /* \"#utility.yul\":3296:3430   */\n    tag_311:\n        /* \"#utility.yul\":3387:3391   */\n      0x00\n        /* \"#utility.yul\":3419:3423   */\n      0x20\n        /* \"#utility.yul\":3414:3417   */\n      dup3\n        /* \"#utility.yul\":3410:3424   */\n      add\n        /* \"#utility.yul\":3402:3424   */\n      swap1\n      pop\n        /* \"#utility.yul\":3296:3430   */\n      swap2\n      swap1\n      pop\n      jump\t// out\n        /* \"#utility.yul\":3474:4352   */\n    tag_312:\n        /* \"#utility.yul\":3656:3731   */\n      tag_370\n        /* \"#utility.yul\":3725:3730   */\n      dup2\n        /* \"#utility.yul\":3656:3731   */\n      tag_298\n      jump\t// in\n    tag_370:\n        /* \"#utility.yul\":3747:3854   */\n      tag_371\n        /* \"#utility.yul\":3847:3853   */\n      dup2\n        /* \"#utility.yul\":3842:3845   */\n      dup5\n        /* \"#utility.yul\":3747:3854   */\n      tag_299\n      jump\t// in\n    tag_371:\n        /* \"#utility.yul\":3740:3854   */\n      swap3\n      pop\n        /* \"#utility.yul\":3878:3955   */\n      tag_372\n        /* \"#utility.yul\":3949:3954   */\n      dup3\n        /* \"#utility.yul\":3878:3955   */\n      tag_300\n      jump\t// in\n    tag_372:\n        /* \"#utility.yul\":3978:3985   */\n      dup1\n        /* \"#utility.yul\":4009:4010   */\n      0x00\n        /* \"#utility.yul\":3994:4345   */\n    tag_373:\n        /* \"#utility.yul\":4019:4025   */\n      dup4\n        /* \"#utility.yul\":4016:4017   */\n      dup2\n        /* \"#utility.yul\":4013:4026   */\n      lt\n        /* \"#utility.yul\":3994:4345   */\n      iszero\n      tag_375\n      jumpi\n        /* \"#utility.yul\":4095:4101   */\n      dup2\n        /* \"#utility.yul\":4089:4102   */\n      mload\n        /* \"#utility.yul\":4122:4231   */\n      tag_376\n        /* \"#utility.yul\":4227:4230   */\n      dup8\n        /* \"#utility.yul\":4212:4225   */\n      dup3\n        /* \"#utility.yul\":4122:4231   */\n      tag_310\n      jump\t// in\n    tag_376:\n        /* \"#utility.yul\":4115:4231   */\n      swap7\n      pop\n        /* \"#utility.yul\":4254:4335   */\n      tag_377\n        /* \"#utility.yul\":4328:4334   */\n      dup4\n        /* \"#utility.yul\":4254:4335   */\n      tag_311\n      jump\t// in\n    tag_377:\n        /* \"#utility.yul\":4244:4335   */\n      swap3\n      pop\n        /* \"#utility.yul\":4054:4345   */\n      pop\n        /* \"#utility.yul\":4041:4042   */\n      0x01\n        /* \"#utility.yul\":4038:4039   */\n      dup2\n        /* \"#utility.yul\":4034:4043   */\n      add\n        /* \"#utility.yul\":4029:4043   */\n      swap1\n      pop\n        /* \"#utility.yul\":3994:4345   */\n      jump(tag_373)\n    tag_375:\n        /* \"#utility.yul\":3998:4012   */\n      pop\n        /* \"#utility.yul\":3632:4352   */\n      pop\n      pop\n      pop\n        /* \"#utility.yul\":3474:4352   */\n      pop\n      pop\n      jump\t// out\n        /* \"#utility.yul\":4358:4765   */\n    tag_41:\n        /* \"#utility.yul\":4543:4547   */\n      0x00\n        /* \"#utility.yul\":4581:4584   */\n      0x0120\n        /* \"#utility.yul\":4570:4579   */\n      dup3\n        /* \"#utility.yul\":4566:4585   */\n      add\n        /* \"#utility.yul\":4558:4585   */\n      swap1\n      pop\n        /* \"#utility.yul\":4595:4758   */\n      tag_379\n        /* \"#utility.yul\":4755:4756   */\n      0x00\n        /* \"#utility.yul\":4744:4753   */\n      dup4\n        /* \"#utility.yul\":4740:4757   */\n      add\n        /* \"#utility.yul\":4731:4737   */\n      dup5\n        /* \"#utility.yul\":4595:4758   */\n      tag_312\n      jump\t// in\n    tag_379:\n        /* \"#utility.yul\":4358:4765   */\n      swap3\n      swap2\n      pop\n      pop\n      jump\t// out\n        /* \"#utility.yul\":4771:4875   */\n    tag_313:\n        /* \"#utility.yul\":4816:4823   */\n      0x00\n        /* \"#utility.yul\":4845:4869   */\n      tag_381\n        /* \"#utility.yul\":4863:4868   */\n      dup3\n        /* \"#utility.yul\":4845:4869   */\n      tag_304\n      jump\t// in\n    tag_381:\n        /* \"#utility.yul\":4834:4869   */\n      swap1\n      pop\n        /* \"#utility.yul\":4771:4875   */\n      swap2\n      swap1\n      pop\n      jump\t// out\n        /* \"#utility.yul\":4881:5023   */\n    tag_314:\n        /* \"#utility.yul\":4984:5016   */\n      tag_383\n        /* \"#utility.yul\":5010:5015   */\n      dup2\n        /* \"#utility.yul\":4984:5016   */\n      tag_313\n      jump\t// in\n    tag_383:\n        /* \"#utility.yul\":4979:4982   */\n      dup3\n        /* \"#utility.yul\":4972:5017   */\n      mstore\n        /* \"#utility.yul\":4881:5023   */\n      pop\n      pop\n      jump\t// out\n        /* \"#utility.yul\":5029:5283   */\n    tag_50:\n        /* \"#utility.yul\":5138:5142   */\n      0x00\n        /* \"#utility.yul\":5176:5178   */\n      0x20\n        /* \"#utility.yul\":5165:5174   */\n      dup3\n        /* \"#utility.yul\":5161:5179   */\n      add\n        /* \"#utility.yul\":5153:5179   */\n      swap1\n      pop\n        /* \"#utility.yul\":5189:5276   */\n      tag_385\n        /* \"#utility.yul\":5273:5274   */\n      0x00\n        /* \"#utility.yul\":5262:5271   */\n      dup4\n        /* \"#utility.yul\":5258:5275   */\n      add\n        /* \"#utility.yul\":5249:5255   */\n      dup5\n        /* \"#utility.yul\":5189:5276   */\n      tag_314\n      jump\t// in\n    tag_385:\n        /* \"#utility.yul\":5029:5283   */\n      swap3\n      swap2\n      pop\n      pop\n      jump\t// out\n        /* \"#utility.yul\":5370:5487   */\n    tag_316:\n        /* \"#utility.yul\":5479:5480   */\n      0x00\n        /* \"#utility.yul\":5476:5477   */\n      dup1\n        /* \"#utility.yul\":5469:5481   */\n      revert\n        /* \"#utility.yul\":5616:5734   */\n    tag_318:\n        /* \"#utility.yul\":5687:5709   */\n      tag_390\n        /* \"#utility.yul\":5703:5708   */\n      dup2\n        /* \"#utility.yul\":5687:5709   */\n      tag_296\n      jump\t// in\n    tag_390:\n        /* \"#utility.yul\":5680:5685   */\n      dup2\n        /* \"#utility.yul\":5677:5710   */\n      eq\n        /* \"#utility.yul\":5667:5728   */\n      tag_391\n      jumpi\n        /* \"#utility.yul\":5724:5725   */\n      0x00\n        /* \"#utility.yul\":5721:5722   */\n      dup1\n        /* \"#utility.yul\":5714:5726   */\n      revert\n        /* \"#utility.yul\":5667:5728   */\n    tag_391:\n        /* \"#utility.yul\":5616:5734   */\n      pop\n      jump\t// out\n        /* \"#utility.yul\":5740:5875   */\n    tag_319:\n        /* \"#utility.yul\":5784:5789   */\n      0x00\n        /* \"#utility.yul\":5822:5828   */\n      dup2\n        /* \"#utility.yul\":5809:5829   */\n      calldataload\n        /* \"#utility.yul\":5800:5829   */\n      swap1\n      pop\n        /* \"#utility.yul\":5838:5869   */\n      tag_393\n        /* \"#utility.yul\":5863:5868   */\n      dup2\n        /* \"#utility.yul\":5838:5869   */\n      tag_318\n      jump\t// in\n    tag_393:\n        /* \"#utility.yul\":5740:5875   */\n      swap3\n      swap2\n      pop\n      pop\n      jump\t// out\n        /* \"#utility.yul\":5881:6347   */\n    tag_56:\n        /* \"#utility.yul\":5945:5951   */\n      0x00\n        /* \"#utility.yul\":5953:5959   */\n      dup1\n        /* \"#utility.yul\":6002:6004   */\n      0x40\n        /* \"#utility.yul\":5990:5999   */\n      dup4\n        /* \"#utility.yul\":5981:5988   */\n      dup6\n        /* \"#utility.yul\":5977:6000   */\n      sub\n        /* \"#utility.yul\":5973:6005   */\n      slt\n        /* \"#utility.yul\":5970:6089   */\n      iszero\n      tag_395\n      jumpi\n        /* \"#utility.yul\":6008:6087   */\n      tag_396\n      tag_316\n      jump\t// in\n    tag_396:\n        /* \"#utility.yul\":5970:6089   */\n    tag_395:\n        /* \"#utility.yul\":6128:6129   */\n      0x00\n        /* \"#utility.yul\":6153:6204   */\n      tag_397\n        /* \"#utility.yul\":6196:6203   */\n      dup6\n        /* \"#utility.yul\":6187:6193   */\n      dup3\n        /* \"#utility.yul\":6176:6185   */\n      dup7\n        /* \"#utility.yul\":6172:6194   */\n      add\n        /* \"#utility.yul\":6153:6204   */\n      tag_319\n      jump\t// in\n    tag_397:\n        /* \"#utility.yul\":6143:6204   */\n      swap3\n      pop\n        /* \"#utility.yul\":6099:6214   */\n      pop\n        /* \"#utility.yul\":6253:6255   */\n      0x20\n        /* \"#utility.yul\":6279:6330   */\n      tag_398\n        /* \"#utility.yul\":6322:6329   */\n      dup6\n        /* \"#utility.yul\":6313:6319   */\n      dup3\n        /* \"#utility.yul\":6302:6311   */\n      dup7\n        /* \"#utility.yul\":6298:6320   */\n      add\n        /* \"#utility.yul\":6279:6330   */\n      tag_319\n      jump\t// in\n    tag_398:\n        /* \"#utility.yul\":6269:6330   */\n      swap2\n      pop\n        /* \"#utility.yul\":6224:6340   */\n      pop\n        /* \"#utility.yul\":5881:6347   */\n      swap3\n      pop\n      swap3\n      swap1\n      pop\n      jump\t// out\n        /* \"#utility.yul\":6353:6443   */\n    tag_320:\n        /* \"#utility.yul\":6387:6394   */\n      0x00\n        /* \"#utility.yul\":6430:6435   */\n      dup2\n        /* \"#utility.yul\":6423:6436   */\n      iszero\n        /* \"#utility.yul\":6416:6437   */\n      iszero\n        /* \"#utility.yul\":6405:6437   */\n      swap1\n      pop\n        /* \"#utility.yul\":6353:6443   */\n      swap2\n      swap1\n      pop\n      jump\t// out\n        /* \"#utility.yul\":6449:6558   */\n    tag_321:\n        /* \"#utility.yul\":6530:6551   */\n      tag_401\n        /* \"#utility.yul\":6545:6550   */\n      dup2\n        /* \"#utility.yul\":6530:6551   */\n      tag_320\n      jump\t// in\n    tag_401:\n        /* \"#utility.yul\":6525:6528   */\n      dup3\n        /* \"#utility.yul\":6518:6552   */\n      mstore\n        /* \"#utility.yul\":6449:6558   */\n      pop\n      pop\n      jump\t// out\n        /* \"#utility.yul\":6564:6774   */\n    tag_90:\n        /* \"#utility.yul\":6651:6655   */\n      0x00\n        /* \"#utility.yul\":6689:6691   */\n      0x20\n        /* \"#utility.yul\":6678:6687   */\n      dup3\n        /* \"#utility.yul\":6674:6692   */\n      add\n        /* \"#utility.yul\":6666:6692   */\n      swap1\n      pop\n        /* \"#utility.yul\":6702:6767   */\n      tag_403\n        /* \"#utility.yul\":6764:6765   */\n      0x00\n        /* \"#utility.yul\":6753:6762   */\n      dup4\n        /* \"#utility.yul\":6749:6766   */\n      add\n        /* \"#utility.yul\":6740:6746   */\n      dup5\n        /* \"#utility.yul\":6702:6767   */\n      tag_321\n      jump\t// in\n    tag_403:\n        /* \"#utility.yul\":6564:6774   */\n      swap3\n      swap2\n      pop\n      pop\n      jump\t// out\n        /* \"#utility.yul\":6780:6960   */\n    tag_105:\n        /* \"#utility.yul\":6828:6905   */\n      0x4e487b7100000000000000000000000000000000000000000000000000000000\n        /* \"#utility.yul\":6825:6826   */\n      0x00\n        /* \"#utility.yul\":6818:6906   */\n      mstore\n        /* \"#utility.yul\":6925:6929   */\n      0x01\n        /* \"#utility.yul\":6922:6923   */\n      0x04\n        /* \"#utility.yul\":6915:6930   */\n      mstore\n        /* \"#utility.yul\":6949:6953   */\n      0x24\n        /* \"#utility.yul\":6946:6947   */\n      0x00\n        /* \"#utility.yul\":6939:6954   */\n      revert\n        /* \"#utility.yul\":6966:7026   */\n    tag_322:\n        /* \"#utility.yul\":6994:6997   */\n      0x00\n        /* \"#utility.yul\":7015:7020   */\n      dup2\n        /* \"#utility.yul\":7008:7020   */\n      swap1\n      pop\n        /* \"#utility.yul\":6966:7026   */\n      swap2\n      swap1\n      pop\n      jump\t// out\n        /* \"#utility.yul\":7032:7174   */\n    tag_323:\n        /* \"#utility.yul\":7082:7091   */\n      0x00\n        /* \"#utility.yul\":7115:7168   */\n      tag_407\n        /* \"#utility.yul\":7133:7167   */\n      tag_408\n        /* \"#utility.yul\":7142:7166   */\n      tag_409\n        /* \"#utility.yul\":7160:7165   */\n      dup5\n        /* \"#utility.yul\":7142:7166   */\n      tag_304\n      jump\t// in\n    tag_409:\n        /* \"#utility.yul\":7133:7167   */\n      tag_322\n      jump\t// in\n    tag_408:\n        /* \"#utility.yul\":7115:7168   */\n      tag_304\n      jump\t// in\n    tag_407:\n        /* \"#utility.yul\":7102:7168   */\n      swap1\n      pop\n        /* \"#utility.yul\":7032:7174   */\n      swap2\n      swap1\n      pop\n      jump\t// out\n        /* \"#utility.yul\":7180:7306   */\n    tag_324:\n        /* \"#utility.yul\":7230:7239   */\n      0x00\n        /* \"#utility.yul\":7263:7300   */\n      tag_411\n        /* \"#utility.yul\":7294:7299   */\n      dup3\n        /* \"#utility.yul\":7263:7300   */\n      tag_323\n      jump\t// in\n    tag_411:\n        /* \"#utility.yul\":7250:7300   */\n      swap1\n      pop\n        /* \"#utility.yul\":7180:7306   */\n      swap2\n      swap1\n      pop\n      jump\t// out\n        /* \"#utility.yul\":7312:7446   */\n    tag_325:\n        /* \"#utility.yul\":7370:7379   */\n      0x00\n        /* \"#utility.yul\":7403:7440   */\n      tag_413\n        /* \"#utility.yul\":7434:7439   */\n      dup3\n        /* \"#utility.yul\":7403:7440   */\n      tag_324\n      jump\t// in\n    tag_413:\n        /* \"#utility.yul\":7390:7440   */\n      swap1\n      pop\n        /* \"#utility.yul\":7312:7446   */\n      swap2\n      swap1\n      pop\n      jump\t// out\n        /* \"#utility.yul\":7452:7599   */\n    tag_326:\n        /* \"#utility.yul\":7547:7592   */\n      tag_415\n        /* \"#utility.yul\":7586:7591   */\n      dup2\n        /* \"#utility.yul\":7547:7592   */\n      tag_325\n      jump\t// in\n    tag_415:\n        /* \"#utility.yul\":7542:7545   */\n      dup3\n        /* \"#utility.yul\":7535:7593   */\n      mstore\n        /* \"#utility.yul\":7452:7599   */\n      pop\n      pop\n      jump\t// out\n        /* \"#utility.yul\":7605:7843   */\n    tag_110:\n        /* \"#utility.yul\":7706:7710   */\n      0x00\n        /* \"#utility.yul\":7744:7746   */\n      0x20\n        /* \"#utility.yul\":7733:7742   */\n      dup3\n        /* \"#utility.yul\":7729:7747   */\n      add\n        /* \"#utility.yul\":7721:7747   */\n      swap1\n      pop\n        /* \"#utility.yul\":7757:7836   */\n      tag_417\n        /* \"#utility.yul\":7833:7834   */\n      0x00\n        /* \"#utility.yul\":7822:7831   */\n      dup4\n        /* \"#utility.yul\":7818:7835   */\n      add\n        /* \"#utility.yul\":7809:7815   */\n      dup5\n        /* \"#utility.yul\":7757:7836   */\n      tag_326\n      jump\t// in\n    tag_417:\n        /* \"#utility.yul\":7605:7843   */\n      swap3\n      swap2\n      pop\n      pop\n      jump\t// out\n        /* \"#utility.yul\":7849:8029   */\n    tag_327:\n        /* \"#utility.yul\":7897:7974   */\n      0x4e487b7100000000000000000000000000000000000000000000000000000000\n        /* \"#utility.yul\":7894:7895   */\n      0x00\n        /* \"#utility.yul\":7887:7975   */\n      mstore\n        /* \"#utility.yul\":7994:7998   */\n      0x12\n        /* \"#utility.yul\":7991:7992   */\n      0x04\n        /* \"#utility.yul\":7984:7999   */\n      mstore\n        /* \"#utility.yul\":8018:8022   */\n      0x24\n        /* \"#utility.yul\":8015:8016   */\n      0x00\n        /* \"#utility.yul\":8008:8023   */\n      revert\n        /* \"#utility.yul\":8035:8211   */\n    tag_112:\n        /* \"#utility.yul\":8067:8068   */\n      0x00\n        /* \"#utility.yul\":8084:8104   */\n      tag_420\n        /* \"#utility.yul\":8102:8103   */\n      dup3\n        /* \"#utility.yul\":8084:8104   */\n      tag_294\n      jump\t// in\n    tag_420:\n        /* \"#utility.yul\":8079:8104   */\n      swap2\n      pop\n        /* \"#utility.yul\":8118:8138   */\n      tag_421\n        /* \"#utility.yul\":8136:8137   */\n      dup4\n        /* \"#utility.yul\":8118:8138   */\n      tag_294\n      jump\t// in\n    tag_421:\n        /* \"#utility.yul\":8113:8138   */\n      swap3\n      pop\n        /* \"#utility.yul\":8157:8158   */\n      dup3\n        /* \"#utility.yul\":8147:8182   */\n      tag_422\n      jumpi\n        /* \"#utility.yul\":8162:8180   */\n      tag_423\n      tag_327\n      jump\t// in\n    tag_423:\n        /* \"#utility.yul\":8147:8182   */\n    tag_422:\n        /* \"#utility.yul\":8203:8204   */\n      dup3\n        /* \"#utility.yul\":8200:8201   */\n      dup3\n        /* \"#utility.yul\":8196:8205   */\n      mod\n        /* \"#utility.yul\":8191:8205   */\n      swap1\n      pop\n        /* \"#utility.yul\":8035:8211   */\n      swap3\n      swap2\n      pop\n      pop\n      jump\t// out\n        /* \"#utility.yul\":8217:8397   */\n    tag_328:\n        /* \"#utility.yul\":8265:8342   */\n      0x4e487b7100000000000000000000000000000000000000000000000000000000\n        /* \"#utility.yul\":8262:8263   */\n      0x00\n        /* \"#utility.yul\":8255:8343   */\n      mstore\n        /* \"#utility.yul\":8362:8366   */\n      0x11\n        /* \"#utility.yul\":8359:8360   */\n      0x04\n        /* \"#utility.yul\":8352:8367   */\n      mstore\n        /* \"#utility.yul\":8386:8390   */\n      0x24\n        /* \"#utility.yul\":8383:8384   */\n      0x00\n        /* \"#utility.yul\":8376:8391   */\n      revert\n        /* \"#utility.yul\":8403:8594   */\n    tag_116:\n        /* \"#utility.yul\":8443:8446   */\n      0x00\n        /* \"#utility.yul\":8462:8482   */\n      tag_426\n        /* \"#utility.yul\":8480:8481   */\n      dup3\n        /* \"#utility.yul\":8462:8482   */\n      tag_294\n      jump\t// in\n    tag_426:\n        /* \"#utility.yul\":8457:8482   */\n      swap2\n      pop\n        /* \"#utility.yul\":8496:8516   */\n      tag_427\n        /* \"#utility.yul\":8514:8515   */\n      dup4\n        /* \"#utility.yul\":8496:8516   */\n      tag_294\n      jump\t// in\n    tag_427:\n        /* \"#utility.yul\":8491:8516   */\n      swap3\n      pop\n        /* \"#utility.yul\":8539:8540   */\n      dup3\n        /* \"#utility.yul\":8536:8537   */\n      dup3\n        /* \"#utility.yul\":8532:8541   */\n      add\n        /* \"#utility.yul\":8525:8541   */\n      swap1\n      pop\n        /* \"#utility.yul\":8560:8563   */\n      dup1\n        /* \"#utility.yul\":8557:8558   */\n      dup3\n        /* \"#utility.yul\":8554:8564   */\n      gt\n        /* \"#utility.yul\":8551:8587   */\n      iszero\n      tag_428\n      jumpi\n        /* \"#utility.yul\":8567:8585   */\n      tag_429\n      tag_328\n      jump\t// in\n    tag_429:\n        /* \"#utility.yul\":8551:8587   */\n    tag_428:\n        /* \"#utility.yul\":8403:8594   */\n      swap3\n      swap2\n      pop\n      pop\n      jump\t// out\n        /* \"#utility.yul\":8600:8780   */\n    tag_121:\n        /* \"#utility.yul\":8648:8725   */\n      0x4e487b7100000000000000000000000000000000000000000000000000000000\n        /* \"#utility.yul\":8645:8646   */\n      0x00\n        /* \"#utility.yul\":8638:8726   */\n      mstore\n        /* \"#utility.yul\":8745:8749   */\n      0x32\n        /* \"#utility.yul\":8742:8743   */\n      0x04\n        /* \"#utility.yul\":8735:8750   */\n      mstore\n        /* \"#utility.yul\":8769:8773   */\n      0x24\n        /* \"#utility.yul\":8766:8767   */\n      0x00\n        /* \"#utility.yul\":8759:8774   */\n      revert\n        /* \"#utility.yul\":8786:8953   */\n    tag_142:\n        /* \"#utility.yul\":8823:8826   */\n      0x00\n        /* \"#utility.yul\":8846:8868   */\n      tag_432\n        /* \"#utility.yul\":8862:8867   */\n      dup3\n        /* \"#utility.yul\":8846:8868   */\n      tag_296\n      jump\t// in\n    tag_432:\n        /* \"#utility.yul\":8837:8868   */\n      swap2\n      pop\n        /* \"#utility.yul\":8890:8894   */\n      0xff\n        /* \"#utility.yul\":8883:8888   */\n      dup3\n        /* \"#utility.yul\":8880:8895   */\n      sub\n        /* \"#utility.yul\":8877:8918   */\n      tag_433\n      jumpi\n        /* \"#utility.yul\":8898:8916   */\n      tag_434\n      tag_328\n      jump\t// in\n    tag_434:\n        /* \"#utility.yul\":8877:8918   */\n    tag_433:\n        /* \"#utility.yul\":8945:8946   */\n      0x01\n        /* \"#utility.yul\":8938:8943   */\n      dup3\n        /* \"#utility.yul\":8934:8947   */\n      add\n        /* \"#utility.yul\":8927:8947   */\n      swap1\n      pop\n        /* \"#utility.yul\":8786:8953   */\n      swap2\n      swap1\n      pop\n      jump\t// out\n        /* \"#utility.yul\":8959:9150   */\n    tag_155:\n        /* \"#utility.yul\":8997:9001   */\n      0x00\n        /* \"#utility.yul\":9017:9035   */\n      tag_436\n        /* \"#utility.yul\":9033:9034   */\n      dup3\n        /* \"#utility.yul\":9017:9035   */\n      tag_296\n      jump\t// in\n    tag_436:\n        /* \"#utility.yul\":9012:9035   */\n      swap2\n      pop\n        /* \"#utility.yul\":9049:9067   */\n      tag_437\n        /* \"#utility.yul\":9065:9066   */\n      dup4\n        /* \"#utility.yul\":9049:9067   */\n      tag_296\n      jump\t// in\n    tag_437:\n        /* \"#utility.yul\":9044:9067   */\n      swap3\n      pop\n        /* \"#utility.yul\":9091:9092   */\n      dup3\n        /* \"#utility.yul\":9088:9089   */\n      dup3\n        /* \"#utility.yul\":9084:9093   */\n      sub\n        /* \"#utility.yul\":9076:9093   */\n      swap1\n      pop\n        /* \"#utility.yul\":9115:9119   */\n      0xff\n        /* \"#utility.yul\":9109:9113   */\n      dup2\n        /* \"#utility.yul\":9106:9120   */\n      gt\n        /* \"#utility.yul\":9103:9143   */\n      iszero\n      tag_438\n      jumpi\n        /* \"#utility.yul\":9123:9141   */\n      tag_439\n      tag_328\n      jump\t// in\n    tag_439:\n        /* \"#utility.yul\":9103:9143   */\n    tag_438:\n        /* \"#utility.yul\":8959:9150   */\n      swap3\n      swap2\n      pop\n      pop\n      jump\t// out\n        /* \"#utility.yul\":9156:9389   */\n    tag_174:\n        /* \"#utility.yul\":9195:9198   */\n      0x00\n        /* \"#utility.yul\":9218:9242   */\n      tag_441\n        /* \"#utility.yul\":9236:9241   */\n      dup3\n        /* \"#utility.yul\":9218:9242   */\n      tag_294\n      jump\t// in\n    tag_441:\n        /* \"#utility.yul\":9209:9242   */\n      swap2\n      pop\n        /* \"#utility.yul\":9264:9330   */\n      0xffffffffffffffffffffffffffffffffffffffffffffffffffffffffffffffff\n        /* \"#utility.yul\":9257:9262   */\n      dup3\n        /* \"#utility.yul\":9254:9331   */\n      sub\n        /* \"#utility.yul\":9251:9354   */\n      tag_442\n      jumpi\n        /* \"#utility.yul\":9334:9352   */\n      tag_443\n      tag_328\n      jump\t// in\n    tag_443:\n        /* \"#utility.yul\":9251:9354   */\n    tag_442:\n        /* \"#utility.yul\":9381:9382   */\n      0x01\n        /* \"#utility.yul\":9374:9379   */\n      dup3\n        /* \"#utility.yul\":9370:9383   */\n      add\n        /* \"#utility.yul\":9363:9383   */\n      swap1\n      pop\n        /* \"#utility.yul\":9156:9389   */\n      swap2\n      swap1\n      pop\n      jump\t// out\n        /* \"#utility.yul\":9395:9583   */\n    tag_192:\n        /* \"#utility.yul\":9433:9436   */\n      0x00\n        /* \"#utility.yul\":9452:9470   */\n      tag_445\n        /* \"#utility.yul\":9468:9469   */\n      dup3\n        /* \"#utility.yul\":9452:9470   */\n      tag_296\n      jump\t// in\n    tag_445:\n        /* \"#utility.yul\":9447:9470   */\n      swap2\n      pop\n        /* \"#utility.yul\":9484:9502   */\n      tag_446\n        /* \"#utility.yul\":9500:9501   */\n      dup4\n        /* \"#utility.yul\":9484:9502   */\n      tag_296\n      jump\t// in\n    tag_446:\n        /* \"#utility.yul\":9479:9502   */\n      swap3\n      pop\n        /* \"#utility.yul\":9525:9526   */\n      dup3\n        /* \"#utility.yul\":9522:9523   */\n      dup3\n        /* \"#utility.yul\":9518:9527   */\n      add\n        /* \"#utility.yul\":9511:9527   */\n      swap1\n      pop\n        /* \"#utility.yul\":9548:9552   */\n      0xff\n        /* \"#utility.yul\":9543:9546   */\n      dup2\n        /* \"#utility.yul\":9540:9553   */\n      gt\n        /* \"#utility.yul\":9537:9576   */\n      iszero\n      tag_447\n      jumpi\n        /* \"#utility.yul\":9556:9574   */\n      tag_448\n      tag_328\n      jump\t// in\n    tag_448:\n        /* \"#utility.yul\":9537:9576   */\n    tag_447:\n        /* \"#utility.yul\":9395:9583   */\n      swap3\n      swap2\n      pop\n      pop\n      jump\t// out\n        /* \"#utility.yul\":9589:9783   */\n    tag_202:\n        /* \"#utility.yul\":9629:9633   */\n      0x00\n        /* \"#utility.yul\":9649:9669   */\n      tag_450\n        /* \"#utility.yul\":9667:9668   */\n      dup3\n        /* \"#utility.yul\":9649:9669   */\n      tag_294\n      jump\t// in\n    tag_450:\n        /* \"#utility.yul\":9644:9669   */\n      swap2\n      pop\n        /* \"#utility.yul\":9683:9703   */\n      tag_451\n        /* \"#utility.yul\":9701:9702   */\n      dup4\n        /* \"#utility.yul\":9683:9703   */\n      tag_294\n      jump\t// in\n    tag_451:\n        /* \"#utility.yul\":9678:9703   */\n      swap3\n      pop\n        /* \"#utility.yul\":9727:9728   */\n      dup3\n        /* \"#utility.yul\":9724:9725   */\n      dup3\n        /* \"#utility.yul\":9720:9729   */\n      sub\n        /* \"#utility.yul\":9712:9729   */\n      swap1\n      pop\n        /* \"#utility.yul\":9751:9752   */\n      dup2\n        /* \"#utility.yul\":9745:9749   */\n      dup2\n        /* \"#utility.yul\":9742:9753   */\n      gt\n        /* \"#utility.yul\":9739:9776   */\n      iszero\n      tag_452\n      jumpi\n        /* \"#utility.yul\":9756:9774   */\n      tag_453\n      tag_328\n      jump\t// in\n    tag_453:\n        /* \"#utility.yul\":9739:9776   */\n    tag_452:\n        /* \"#utility.yul\":9589:9783   */\n      swap3\n      swap2\n      pop\n      pop\n      jump\t// out\n        /* \"#utility.yul\":9789:9891   */\n    tag_329:\n        /* \"#utility.yul\":9831:9839   */\n      0x00\n        /* \"#utility.yul\":9878:9883   */\n      dup2\n        /* \"#utility.yul\":9875:9876   */\n      0x01\n        /* \"#utility.yul\":9871:9884   */\n      shr\n        /* \"#utility.yul\":9850:9884   */\n      swap1\n      pop\n        /* \"#utility.yul\":9789:9891   */\n      swap2\n      swap1\n      pop\n      jump\t// out\n        /* \"#utility.yul\":9897:10745   */\n    tag_330:\n        /* \"#utility.yul\":9958:9963   */\n      0x00\n        /* \"#utility.yul\":9965:9969   */\n      dup1\n        /* \"#utility.yul\":9989:9995   */\n      dup3\n        /* \"#utility.yul\":9980:9995   */\n      swap2\n      pop\n        /* \"#utility.yul\":10013:10018   */\n      dup4\n        /* \"#utility.yul\":10004:10018   */\n      swap1\n      pop\n        /* \"#utility.yul\":10027:10739   */\n    tag_456:\n        /* \"#utility.yul\":10048:10049   */\n      0x01\n        /* \"#utility.yul\":10038:10046   */\n      dup6\n        /* \"#utility.yul\":10035:10050   */\n      gt\n        /* \"#utility.yul\":10027:10739   */\n      iszero\n      tag_458\n      jumpi\n        /* \"#utility.yul\":10143:10147   */\n      dup1\n        /* \"#utility.yul\":10138:10141   */\n      dup7\n        /* \"#utility.yul\":10134:10148   */\n      div\n        /* \"#utility.yul\":10128:10132   */\n      dup2\n        /* \"#utility.yul\":10125:10149   */\n      gt\n        /* \"#utility.yul\":10122:10172   */\n      iszero\n      tag_459\n      jumpi\n        /* \"#utility.yul\":10152:10170   */\n      tag_460\n      tag_328\n      jump\t// in\n    tag_460:\n        /* \"#utility.yul\":10122:10172   */\n    tag_459:\n        /* \"#utility.yul\":10202:10203   */\n      0x01\n        /* \"#utility.yul\":10192:10200   */\n      dup6\n        /* \"#utility.yul\":10188:10204   */\n      and\n        /* \"#utility.yul\":10185:10636   */\n      iszero\n      tag_461\n      jumpi\n        /* \"#utility.yul\":10617:10621   */\n      dup1\n        /* \"#utility.yul\":10610:10615   */\n      dup3\n        /* \"#utility.yul\":10606:10622   */\n      mul\n        /* \"#utility.yul\":10597:10622   */\n      swap2\n      pop\n        /* \"#utility.yul\":10185:10636   */\n    tag_461:\n        /* \"#utility.yul\":10667:10671   */\n      dup1\n        /* \"#utility.yul\":10661:10665   */\n      dup2\n        /* \"#utility.yul\":10657:10672   */\n      mul\n        /* \"#utility.yul\":10649:10672   */\n      swap1\n      pop\n        /* \"#utility.yul\":10697:10729   */\n      tag_462\n        /* \"#utility.yul\":10720:10728   */\n      dup6\n        /* \"#utility.yul\":10697:10729   */\n      tag_329\n      jump\t// in\n    tag_462:\n        /* \"#utility.yul\":10685:10729   */\n      swap5\n      pop\n        /* \"#utility.yul\":10027:10739   */\n      jump(tag_456)\n    tag_458:\n        /* \"#utility.yul\":9897:10745   */\n      swap5\n      pop\n      swap5\n      swap3\n      pop\n      pop\n      pop\n      jump\t// out\n        /* \"#utility.yul\":10751:11824   */\n    tag_331:\n        /* \"#utility.yul\":10805:10810   */\n      0x00\n        /* \"#utility.yul\":10996:11004   */\n      dup3\n        /* \"#utility.yul\":10986:11026   */\n      tag_464\n      jumpi\n        /* \"#utility.yul\":11017:11018   */\n      0x01\n        /* \"#utility.yul\":11008:11018   */\n      swap1\n      pop\n        /* \"#utility.yul\":11019:11024   */\n      jump(tag_463)\n        /* \"#utility.yul\":10986:11026   */\n    tag_464:\n        /* \"#utility.yul\":11045:11049   */\n      dup2\n        /* \"#utility.yul\":11035:11071   */\n      tag_465\n      jumpi\n        /* \"#utility.yul\":11062:11063   */\n      0x00\n        /* \"#utility.yul\":11053:11063   */\n      swap1\n      pop\n        /* \"#utility.yul\":11064:11069   */\n      jump(tag_463)\n        /* \"#utility.yul\":11035:11071   */\n    tag_465:\n        /* \"#utility.yul\":11131:11135   */\n      dup2\n        /* \"#utility.yul\":11179:11180   */\n      0x01\n        /* \"#utility.yul\":11174:11201   */\n      dup2\n      eq\n      tag_467\n      jumpi\n        /* \"#utility.yul\":11215:11216   */\n      0x02\n        /* \"#utility.yul\":11210:11401   */\n      dup2\n      eq\n      tag_468\n      jumpi\n        /* \"#utility.yul\":11124:11401   */\n      jump(tag_466)\n        /* \"#utility.yul\":11174:11201   */\n    tag_467:\n        /* \"#utility.yul\":11192:11193   */\n      0x01\n        /* \"#utility.yul\":11183:11193   */\n      swap2\n      pop\n        /* \"#utility.yul\":11194:11199   */\n      pop\n      jump(tag_463)\n        /* \"#utility.yul\":11210:11401   */\n    tag_468:\n        /* \"#utility.yul\":11255:11258   */\n      0xff\n        /* \"#utility.yul\":11245:11253   */\n      dup5\n        /* \"#utility.yul\":11242:11259   */\n      gt\n        /* \"#utility.yul\":11239:11282   */\n      iszero\n      tag_469\n      jumpi\n        /* \"#utility.yul\":11262:11280   */\n      tag_470\n      tag_328\n      jump\t// in\n    tag_470:\n        /* \"#utility.yul\":11239:11282   */\n    tag_469:\n        /* \"#utility.yul\":11311:11319   */\n      dup4\n        /* \"#utility.yul\":11308:11309   */\n      0x02\n        /* \"#utility.yul\":11304:11320   */\n      exp\n        /* \"#utility.yul\":11295:11320   */\n      swap2\n      pop\n        /* \"#utility.yul\":11346:11349   */\n      dup5\n        /* \"#utility.yul\":11339:11344   */\n      dup3\n        /* \"#utility.yul\":11336:11350   */\n      gt\n        /* \"#utility.yul\":11333:11373   */\n      iszero\n      tag_471\n      jumpi\n        /* \"#utility.yul\":11353:11371   */\n      tag_472\n      tag_328\n      jump\t// in\n    tag_472:\n        /* \"#utility.yul\":11333:11373   */\n    tag_471:\n        /* \"#utility.yul\":11386:11391   */\n      pop\n      jump(tag_463)\n        /* \"#utility.yul\":11124:11401   */\n    tag_466:\n      pop\n        /* \"#utility.yul\":11510:11512   */\n      0x20\n        /* \"#utility.yul\":11500:11508   */\n      dup4\n        /* \"#utility.yul\":11497:11513   */\n      lt\n        /* \"#utility.yul\":11491:11494   */\n      0x0133\n        /* \"#utility.yul\":11485:11489   */\n      dup4\n        /* \"#utility.yul\":11482:11495   */\n      lt\n        /* \"#utility.yul\":11478:11514   */\n      and\n        /* \"#utility.yul\":11460:11462   */\n      0x4e\n        /* \"#utility.yul\":11450:11458   */\n      dup5\n        /* \"#utility.yul\":11447:11463   */\n      lt\n        /* \"#utility.yul\":11442:11444   */\n      0x0b\n        /* \"#utility.yul\":11436:11440   */\n      dup5\n        /* \"#utility.yul\":11433:11445   */\n      lt\n        /* \"#utility.yul\":11429:11464   */\n      and\n        /* \"#utility.yul\":11413:11524   */\n      or\n        /* \"#utility.yul\":11410:11656   */\n      iszero\n      tag_473\n      jumpi\n        /* \"#utility.yul\":11566:11574   */\n      dup3\n        /* \"#utility.yul\":11560:11564   */\n      dup3\n        /* \"#utility.yul\":11556:11575   */\n      exp\n        /* \"#utility.yul\":11547:11575   */\n      swap1\n      pop\n        /* \"#utility.yul\":11601:11604   */\n      dup4\n        /* \"#utility.yul\":11594:11599   */\n      dup2\n        /* \"#utility.yul\":11591:11605   */\n      gt\n        /* \"#utility.yul\":11588:11628   */\n      iszero\n      tag_474\n      jumpi\n        /* \"#utility.yul\":11608:11626   */\n      tag_475\n      tag_328\n      jump\t// in\n    tag_475:\n        /* \"#utility.yul\":11588:11628   */\n    tag_474:\n        /* \"#utility.yul\":11641:11646   */\n      jump(tag_463)\n        /* \"#utility.yul\":11410:11656   */\n    tag_473:\n        /* \"#utility.yul\":11681:11723   */\n      tag_476\n        /* \"#utility.yul\":11719:11722   */\n      dup5\n        /* \"#utility.yul\":11709:11717   */\n      dup5\n        /* \"#utility.yul\":11703:11707   */\n      dup5\n        /* \"#utility.yul\":11700:11701   */\n      0x01\n        /* \"#utility.yul\":11681:11723   */\n      tag_330\n      jump\t// in\n    tag_476:\n        /* \"#utility.yul\":11666:11723   */\n      swap3\n      pop\n      swap1\n      pop\n        /* \"#utility.yul\":11755:11759   */\n      dup2\n        /* \"#utility.yul\":11750:11753   */\n      dup5\n        /* \"#utility.yul\":11746:11760   */\n      div\n        /* \"#utility.yul\":11739:11744   */\n      dup2\n        /* \"#utility.yul\":11736:11761   */\n      gt\n        /* \"#utility.yul\":11733:11784   */\n      iszero\n      tag_477\n      jumpi\n        /* \"#utility.yul\":11764:11782   */\n      tag_478\n      tag_328\n      jump\t// in\n    tag_478:\n        /* \"#utility.yul\":11733:11784   */\n    tag_477:\n        /* \"#utility.yul\":11813:11817   */\n      dup2\n        /* \"#utility.yul\":11806:11811   */\n      dup2\n        /* \"#utility.yul\":11802:11818   */\n      mul\n        /* \"#utility.yul\":11793:11818   */\n      swap1\n      pop\n        /* \"#utility.yul\":10751:11824   */\n    tag_463:\n      swap4\n      swap3\n      pop\n      pop\n      pop\n      jump\t// out\n        /* \"#utility.yul\":11830:12045   */\n    tag_212:\n        /* \"#utility.yul\":11886:11891   */\n      0x00\n        /* \"#utility.yul\":11910:11931   */\n      tag_480\n        /* \"#utility.yul\":11926:11930   */\n      dup3\n        /* \"#utility.yul\":11910:11931   */\n      tag_296\n      jump\t// in\n    tag_480:\n        /* \"#utility.yul\":11902:11931   */\n      swap2\n      pop\n        /* \"#utility.yul\":11952:11977   */\n      tag_481\n        /* \"#utility.yul\":11968:11976   */\n      dup4\n        /* \"#utility.yul\":11952:11977   */\n      tag_296\n      jump\t// in\n    tag_481:\n        /* \"#utility.yul\":11940:11977   */\n      swap3\n      pop\n        /* \"#utility.yul\":11996:12038   */\n      tag_482\n        /* \"#utility.yul\":12033:12037   */\n      0xff\n        /* \"#utility.yul\":12023:12031   */\n      dup5\n        /* \"#utility.yul\":12017:12021   */\n      dup5\n        /* \"#utility.yul\":11996:12038   */\n      tag_331\n      jump\t// in\n    tag_482:\n        /* \"#utility.yul\":11987:12038   */\n      swap1\n      pop\n        /* \"#utility.yul\":11830:12045   */\n      swap3\n      swap2\n      pop\n      pop\n      jump\t// out\n        /* \"#utility.yul\":12051:12399   */\n    tag_246:\n        /* \"#utility.yul\":12180:12184   */\n      0x00\n        /* \"#utility.yul\":12218:12220   */\n      0x40\n        /* \"#utility.yul\":12207:12216   */\n      dup3\n        /* \"#utility.yul\":12203:12221   */\n      add\n        /* \"#utility.yul\":12195:12221   */\n      swap1\n      pop\n        /* \"#utility.yul\":12231:12310   */\n      tag_484\n        /* \"#utility.yul\":12307:12308   */\n      0x00\n        /* \"#utility.yul\":12296:12305   */\n      dup4\n        /* \"#utility.yul\":12292:12309   */\n      add\n        /* \"#utility.yul\":12283:12289   */\n      dup6\n        /* \"#utility.yul\":12231:12310   */\n      tag_326\n      jump\t// in\n    tag_484:\n        /* \"#utility.yul\":12320:12392   */\n      tag_485\n        /* \"#utility.yul\":12388:12390   */\n      0x20\n        /* \"#utility.yul\":12377:12386   */\n      dup4\n        /* \"#utility.yul\":12373:12391   */\n      add\n        /* \"#utility.yul\":12364:12370   */\n      dup5\n        /* \"#utility.yul\":12320:12392   */\n      tag_295\n      jump\t// in\n    tag_485:\n        /* \"#utility.yul\":12051:12399   */\n      swap4\n      swap3\n      pop\n      pop\n      pop\n      jump\t// out\n        /* \"#utility.yul\":12405:12590   */\n    tag_262:\n        /* \"#utility.yul\":12445:12446   */\n      0x00\n        /* \"#utility.yul\":12462:12482   */\n      tag_487\n        /* \"#utility.yul\":12480:12481   */\n      dup3\n        /* \"#utility.yul\":12462:12482   */\n      tag_294\n      jump\t// in\n    tag_487:\n        /* \"#utility.yul\":12457:12482   */\n      swap2\n      pop\n        /* \"#utility.yul\":12496:12516   */\n      tag_488\n        /* \"#utility.yul\":12514:12515   */\n      dup4\n        /* \"#utility.yul\":12496:12516   */\n      tag_294\n      jump\t// in\n    tag_488:\n        /* \"#utility.yul\":12491:12516   */\n      swap3\n      pop\n        /* \"#utility.yul\":12535:12536   */\n      dup3\n        /* \"#utility.yul\":12525:12560   */\n      tag_489\n      jumpi\n        /* \"#utility.yul\":12540:12558   */\n      tag_490\n      tag_327\n      jump\t// in\n    tag_490:\n        /* \"#utility.yul\":12525:12560   */\n    tag_489:\n        /* \"#utility.yul\":12582:12583   */\n      dup3\n        /* \"#utility.yul\":12579:12580   */\n      dup3\n        /* \"#utility.yul\":12575:12584   */\n      div\n        /* \"#utility.yul\":12570:12584   */\n      swap1\n      pop\n        /* \"#utility.yul\":12405:12590   */\n      swap3\n      swap2\n      pop\n      pop\n      jump\t// out\n\n    auxdata: 0xa264697066735822122089b22f553ed060f48915e311c201cfeeffa03e1a6c5d9ae7ed4738de363bc9fa64736f6c63430008110033\n}\n",
				"bytecode": {
					"linkReferences": {},
					"object": "608060405260036000806101000a81548160ff021916908360ff1602179055506301e13380601755601754426200003791906200007c565b601881905550620000b7565b6000819050919050565b7f4e487b7100000000000000000000000000000000000000000000000000000000600052601160045260246000fd5b6000620000898262000043565b9150620000968362000043565b9250828201905080821115620000b157620000b06200004d565b5b92915050565b61238480620000c76000396000f3fe6080604052600436106101095760003560e01c8063976306f011610095578063cab896dc11610064578063cab896dc146102e5578063d30895e414610310578063ea40a2a21461033b578063f020044f14610352578063fb8155031461037d57610109565b8063976306f01461026e578063bb47221914610299578063c51d69f4146102b0578063c95fe2ad146102db57610109565b806347cc53ad116100dc57806347cc53ad146101ba57806359a5f12d146101e55780636c5c8df3146102105780637d3f90741461021a5780637fdffd231461024357610109565b80630d8a52581461010e5780630f2f98681461013957806315885694146101645780633264a34b1461018f575b600080fd5b34801561011a57600080fd5b50610123610394565b6040516101309190611c21565b60405180910390f35b34801561014557600080fd5b5061014e61039a565b60405161015b9190611c21565b60405180910390f35b34801561017057600080fd5b506101796103a0565b6040516101869190611c58565b60405180910390f35b34801561019b57600080fd5b506101a46103b3565b6040516101b19190611dec565b60405180910390f35b3480156101c657600080fd5b506101cf61046c565b6040516101dc9190611c21565b60405180910390f35b3480156101f157600080fd5b506101fa610472565b6040516102079190611e29565b60405180910390f35b610218610498565b005b34801561022657600080fd5b50610241600480360381019061023c9190611e75565b610784565b005b34801561024f57600080fd5b5061025861107a565b6040516102659190611e29565b60405180910390f35b34801561027a57600080fd5b506102836110a0565b6040516102909190611c21565b60405180910390f35b3480156102a557600080fd5b506102ae6110a6565b005b3480156102bc57600080fd5b506102c56111f1565b6040516102d29190611c58565b60405180910390f35b6102e3611202565b005b3480156102f157600080fd5b506102fa6114ee565b6040516103079190611c21565b60405180910390f35b34801561031c57600080fd5b506103256114f9565b6040516103329190611e29565b60405180910390f35b34801561034757600080fd5b5061035061151f565b005b34801561035e57600080fd5b50610367611550565b6040516103749190611ed0565b60405180910390f35b34801561038957600080fd5b50610392611563565b005b60155481565b60165481565b600060019054906101000a900460ff1681565b6103bb611ad7565b6001600380602002604051908101604052809291906000905b828210156104635783826003020160038060200260405190810160405280929190826003801561044f576020028201915b8160009054906101000a900473ffffffffffffffffffffffffffffffffffffffff1673ffffffffffffffffffffffffffffffffffffffff1681526020019060010190808311610405575b5050505050815260200190600101906103d4565b50505050905090565b60185481565b601460009054906101000a900473ffffffffffffffffffffffffffffffffffffffff1681565b600073ffffffffffffffffffffffffffffffffffffffff16601360009054906101000a900473ffffffffffffffffffffffffffffffffffffffff1673ffffffffffffffffffffffffffffffffffffffff16146104f7576104f6611eeb565b5b600073ffffffffffffffffffffffffffffffffffffffff16601460009054906101000a900473ffffffffffffffffffffffffffffffffffffffff1673ffffffffffffffffffffffffffffffffffffffff161461056d576001600060026101000a81548160ff021916908315150217905550610588565b60008060026101000a81548160ff0219169083151502179055505b66038d7ea4c68000341461059b57600080fd5b33601360006101000a81548173ffffffffffffffffffffffffffffffffffffffff021916908373ffffffffffffffffffffffffffffffffffffffff1602179055507f31e760aa525306aba638a784082a013b6a1cc0a9a1789f3f22281c0453b10b1f601360009054906101000a900473ffffffffffffffffffffffffffffffffffffffff1660405161062d9190611f79565b60405180910390a160006002436106449190611fc3565b036106b157601460009054906101000a900473ffffffffffffffffffffffffffffffffffffffff16601960006101000a81548173ffffffffffffffffffffffffffffffffffffffff021916908373ffffffffffffffffffffffffffffffffffffffff160217905550610715565b601360009054906101000a900473ffffffffffffffffffffffffffffffffffffffff16601960006101000a81548173ffffffffffffffffffffffffffffffffffffffff021916908373ffffffffffffffffffffffffffffffffffffffff1602179055505b601754426107239190612023565b6018819055507f637351f91da430278368fb3e486c8c3da47b2e6ce4d28b2c404cb044702ca7e1601960009054906101000a900473ffffffffffffffffffffffffffffffffffffffff1660405161077a9190611f79565b60405180910390a1565b600073ffffffffffffffffffffffffffffffffffffffff1660018360ff16600381106107b3576107b2612057565b5b600302018260ff16600381106107cc576107cb612057565b5b0160009054906101000a900473ffffffffffffffffffffffffffffffffffffffff1673ffffffffffffffffffffffffffffffffffffffff161461080e57600080fd5b426018541161081c57600080fd5b600060029054906101000a900460ff1661083957610838611eeb565b5b60008054906101000a900460ff1660ff168260ff161061085c5761085b611eeb565b5b60008054906101000a900460ff1660ff168160ff161061087f5761087e611eeb565b5b601960009054906101000a900473ffffffffffffffffffffffffffffffffffffffff1673ffffffffffffffffffffffffffffffffffffffff163373ffffffffffffffffffffffffffffffffffffffff16146108d957600080fd5b3360018360ff16600381106108f1576108f0612057565b5b600302018260ff166003811061090a57610909612057565b5b0160006101000a81548173ffffffffffffffffffffffffffffffffffffffff021916908373ffffffffffffffffffffffffffffffffffffffff1602179055506000600181819054906101000a900460ff168092919061096890612086565b91906101000a81548160ff021916908360ff160217905550506017544261098f9190612023565b60188190555060005b60008054906101000a900460ff1660ff168160ff161015610ac357601960009054906101000a900473ffffffffffffffffffffffffffffffffffffffff1673ffffffffffffffffffffffffffffffffffffffff1660018260ff1660038110610a0357610a02612057565b5b600302018360ff1660038110610a1c57610a1b612057565b5b0160009054906101000a900473ffffffffffffffffffffffffffffffffffffffff1673ffffffffffffffffffffffffffffffffffffffff1603610ac357600160008054906101000a900460ff16610a7391906120af565b60ff168160ff1603610ab057610aaa601960009054906101000a900473ffffffffffffffffffffffffffffffffffffffff16611783565b50611076565b8080610abb90612086565b915050610998565b5060005b60008054906101000a900460ff1660ff16811015610be957601960009054906101000a900473ffffffffffffffffffffffffffffffffffffffff1673ffffffffffffffffffffffffffffffffffffffff1660018460ff1660038110610b2f57610b2e612057565b5b600302018260038110610b4557610b44612057565b5b0160009054906101000a900473ffffffffffffffffffffffffffffffffffffffff1673ffffffffffffffffffffffffffffffffffffffff1603610be957600160008054906101000a900460ff16610b9c91906120af565b60ff168103610bd657610bd0601960009054906101000a900473ffffffffffffffffffffffffffffffffffffffff16611783565b50611076565b8080610be1906120e4565b915050610ac7565b508060ff168260ff1603610d1b5760005b60008054906101000a900460ff1660ff16811015610d1957601960009054906101000a900473ffffffffffffffffffffffffffffffffffffffff1673ffffffffffffffffffffffffffffffffffffffff1660018260038110610c5f57610c5e612057565b5b600302018260038110610c7557610c74612057565b5b0160009054906101000a900473ffffffffffffffffffffffffffffffffffffffff1673ffffffffffffffffffffffffffffffffffffffff1603610d1957600160008054906101000a900460ff16610ccc91906120af565b60ff168103610d0657610d00601960009054906101000a900473ffffffffffffffffffffffffffffffffffffffff16611783565b50611076565b8080610d11906120e4565b915050610bfa565b505b600160008054906101000a900460ff16610d3591906120af565b60ff168183610d44919061212c565b60ff1603610e975760005b60008054906101000a900460ff1660ff16811015610e9557601960009054906101000a900473ffffffffffffffffffffffffffffffffffffffff1673ffffffffffffffffffffffffffffffffffffffff1660018260038110610db457610db3612057565b5b6003020182600160008054906101000a900460ff16610dd391906120af565b60ff16610de09190612161565b60038110610df157610df0612057565b5b0160009054906101000a900473ffffffffffffffffffffffffffffffffffffffff1673ffffffffffffffffffffffffffffffffffffffff1603610e9557600160008054906101000a900460ff16610e4891906120af565b60ff168103610e8257610e7c601960009054906101000a900473ffffffffffffffffffffffffffffffffffffffff16611783565b50611076565b8080610e8d906120e4565b915050610d4f565b505b600260008054906101000a900460ff16610eb191906122c8565b60ff16600060019054906101000a900460ff1660ff1603610ed957610ed46118c5565b611076565b601360009054906101000a900473ffffffffffffffffffffffffffffffffffffffff1673ffffffffffffffffffffffffffffffffffffffff16601960009054906101000a900473ffffffffffffffffffffffffffffffffffffffff1673ffffffffffffffffffffffffffffffffffffffff1603610fb857601460009054906101000a900473ffffffffffffffffffffffffffffffffffffffff16601960006101000a81548173ffffffffffffffffffffffffffffffffffffffff021916908373ffffffffffffffffffffffffffffffffffffffff16021790555061101c565b601360009054906101000a900473ffffffffffffffffffffffffffffffffffffffff16601960006101000a81548173ffffffffffffffffffffffffffffffffffffffff021916908373ffffffffffffffffffffffffffffffffffffffff1602179055505b7f637351f91da430278368fb3e486c8c3da47b2e6ce4d28b2c404cb044702ca7e1601960009054906101000a900473ffffffffffffffffffffffffffffffffffffffff1660405161106d9190611f79565b60405180910390a15b5050565b601960009054906101000a900473ffffffffffffffffffffffffffffffffffffffff1681565b60175481565b601360009054906101000a900473ffffffffffffffffffffffffffffffffffffffff1673ffffffffffffffffffffffffffffffffffffffff163373ffffffffffffffffffffffffffffffffffffffff16148061114f5750601460009054906101000a900473ffffffffffffffffffffffffffffffffffffffff1673ffffffffffffffffffffffffffffffffffffffff163373ffffffffffffffffffffffffffffffffffffffff16145b61115857600080fd5b600a600190600361116a929190611b04565b506000601360006101000a81548173ffffffffffffffffffffffffffffffffffffffff021916908373ffffffffffffffffffffffffffffffffffffffff1602179055506000601460006101000a81548173ffffffffffffffffffffffffffffffffffffffff021916908373ffffffffffffffffffffffffffffffffffffffff160217905550565b60008054906101000a900460ff1681565b600073ffffffffffffffffffffffffffffffffffffffff16601460009054906101000a900473ffffffffffffffffffffffffffffffffffffffff1673ffffffffffffffffffffffffffffffffffffffff161461126157611260611eeb565b5b600073ffffffffffffffffffffffffffffffffffffffff16601360009054906101000a900473ffffffffffffffffffffffffffffffffffffffff1673ffffffffffffffffffffffffffffffffffffffff16146112d7576001600060026101000a81548160ff0219169083151502179055506112f2565b60008060026101000a81548160ff0219169083151502179055505b66038d7ea4c68000341461130557600080fd5b33601460006101000a81548173ffffffffffffffffffffffffffffffffffffffff021916908373ffffffffffffffffffffffffffffffffffffffff1602179055507f31e760aa525306aba638a784082a013b6a1cc0a9a1789f3f22281c0453b10b1f601460009054906101000a900473ffffffffffffffffffffffffffffffffffffffff166040516113979190611f79565b60405180910390a160006002436113ae9190611fc3565b0361141b57601460009054906101000a900473ffffffffffffffffffffffffffffffffffffffff16601960006101000a81548173ffffffffffffffffffffffffffffffffffffffff021916908373ffffffffffffffffffffffffffffffffffffffff16021790555061147f565b601360009054906101000a900473ffffffffffffffffffffffffffffffffffffffff16601960006101000a81548173ffffffffffffffffffffffffffffffffffffffff021916908373ffffffffffffffffffffffffffffffffffffffff1602179055505b6017544261148d9190612023565b6018819055507f637351f91da430278368fb3e486c8c3da47b2e6ce4d28b2c404cb044702ca7e1601960009054906101000a900473ffffffffffffffffffffffffffffffffffffffff166040516114e49190611f79565b60405180910390a1565b66038d7ea4c6800081565b601360009054906101000a900473ffffffffffffffffffffffffffffffffffffffff1681565b426018541061152d57600080fd5b600060029054906101000a900460ff1661154657600080fd5b61154e6118c5565b565b600060029054906101000a900460ff1681565b6000601360009054906101000a900473ffffffffffffffffffffffffffffffffffffffff1673ffffffffffffffffffffffffffffffffffffffff163373ffffffffffffffffffffffffffffffffffffffff160361169f576000601554116115c957600080fd5b60155490506000601581905550601360009054906101000a900473ffffffffffffffffffffffffffffffffffffffff1673ffffffffffffffffffffffffffffffffffffffff166108fc829081150290604051600060405180830381858888f1935050505015801561163e573d6000803e3d6000fd5b507f2a44162a2d5223e37cacacc3f626dcfee1396e0be3616534c5c7b718f786b673601360009054906101000a900473ffffffffffffffffffffffffffffffffffffffff16826040516116929291906122f4565b60405180910390a1611780565b6000601654116116ae57600080fd5b60165490506000601681905550601460009054906101000a900473ffffffffffffffffffffffffffffffffffffffff1673ffffffffffffffffffffffffffffffffffffffff166108fc829081150290604051600060405180830381858888f19350505050158015611723573d6000803e3d6000fd5b507f2a44162a2d5223e37cacacc3f626dcfee1396e0be3616534c5c7b718f786b673601460009054906101000a900473ffffffffffffffffffffffffffffffffffffffff16826040516117779291906122f4565b60405180910390a15b50565b60008060026101000a81548160ff0219169083151502179055507f8245a3876d42d9b0bdb7f24184c03fc24e3d8a079f492b1ec9ceae70b366edf9816040516117cc9190611f79565b60405180910390a16000479050600115158273ffffffffffffffffffffffffffffffffffffffff166108fc839081150290604051600060405180830381858888f1935050505015151461188757601360009054906101000a900473ffffffffffffffffffffffffffffffffffffffff1673ffffffffffffffffffffffffffffffffffffffff168273ffffffffffffffffffffffffffffffffffffffff160361187a5780601581905550611882565b806016819055505b6118c1565b7f2a44162a2d5223e37cacacc3f626dcfee1396e0be3616534c5c7b718f786b67382826040516118b89291906122f4565b60405180910390a15b5050565b60008060026101000a81548160ff0219169083151502179055507f2207d46a2ba0f2acda06e9a222b40fd004e385738b3f868e63b2c0bfe4bc094c60405160405180910390a1600060024761191a919061231d565b905060001515601360009054906101000a900473ffffffffffffffffffffffffffffffffffffffff1673ffffffffffffffffffffffffffffffffffffffff166108fc839081150290604051600060405180830381858888f1935050505015150361199c5780601560008282546119909190612023565b925050819055506119f8565b7f2a44162a2d5223e37cacacc3f626dcfee1396e0be3616534c5c7b718f786b673601360009054906101000a900473ffffffffffffffffffffffffffffffffffffffff16826040516119ef9291906122f4565b60405180910390a15b60001515601460009054906101000a900473ffffffffffffffffffffffffffffffffffffffff1673ffffffffffffffffffffffffffffffffffffffff166108fc839081150290604051600060405180830381858888f19350505050151503611a78578060166000828254611a6c9190612023565b92505081905550611ad4565b7f2a44162a2d5223e37cacacc3f626dcfee1396e0be3616534c5c7b718f786b673601460009054906101000a900473ffffffffffffffffffffffffffffffffffffffff1682604051611acb9291906122f4565b60405180910390a15b50565b60405180606001604052806003905b611aee611b53565b815260200190600190039081611ae65790505090565b82600380028101928215611b42579160030282015b82811115611b41578282906003611b31929190611b75565b5091600301919060030190611b19565b5b509050611b4f9190611bb2565b5090565b6040518060600160405280600390602082028036833780820191505090505090565b8260038101928215611ba1579182015b82811115611ba0578254825591600101919060010190611b85565b5b509050611bae9190611bd6565b5090565b5b80821115611bd25760008181611bc99190611bf3565b50600301611bb3565b5090565b5b80821115611bef576000816000905550600101611bd7565b5090565b50600081556001016000815560010160009055565b6000819050919050565b611c1b81611c08565b82525050565b6000602082019050611c366000830184611c12565b92915050565b600060ff82169050919050565b611c5281611c3c565b82525050565b6000602082019050611c6d6000830184611c49565b92915050565b600060039050919050565b600081905092915050565b6000819050919050565b600060039050919050565b600081905092915050565b6000819050919050565b600073ffffffffffffffffffffffffffffffffffffffff82169050919050565b6000611cde82611cb3565b9050919050565b611cee81611cd3565b82525050565b6000611d008383611ce5565b60208301905092915050565b6000602082019050919050565b611d2281611c93565b611d2c8184611c9e565b9250611d3782611ca9565b8060005b83811015611d68578151611d4f8782611cf4565b9650611d5a83611d0c565b925050600181019050611d3b565b505050505050565b6000611d7c8383611d19565b60608301905092915050565b6000602082019050919050565b611d9e81611c73565b611da88184611c7e565b9250611db382611c89565b8060005b83811015611de4578151611dcb8782611d70565b9650611dd683611d88565b925050600181019050611db7565b505050505050565b600061012082019050611e026000830184611d95565b92915050565b6000611e1382611cb3565b9050919050565b611e2381611e08565b82525050565b6000602082019050611e3e6000830184611e1a565b92915050565b600080fd5b611e5281611c3c565b8114611e5d57600080fd5b50565b600081359050611e6f81611e49565b92915050565b60008060408385031215611e8c57611e8b611e44565b5b6000611e9a85828601611e60565b9250506020611eab85828601611e60565b9150509250929050565b60008115159050919050565b611eca81611eb5565b82525050565b6000602082019050611ee56000830184611ec1565b92915050565b7f4e487b7100000000000000000000000000000000000000000000000000000000600052600160045260246000fd5b6000819050919050565b6000611f3f611f3a611f3584611cb3565b611f1a565b611cb3565b9050919050565b6000611f5182611f24565b9050919050565b6000611f6382611f46565b9050919050565b611f7381611f58565b82525050565b6000602082019050611f8e6000830184611f6a565b92915050565b7f4e487b7100000000000000000000000000000000000000000000000000000000600052601260045260246000fd5b6000611fce82611c08565b9150611fd983611c08565b925082611fe957611fe8611f94565b5b828206905092915050565b7f4e487b7100000000000000000000000000000000000000000000000000000000600052601160045260246000fd5b600061202e82611c08565b915061203983611c08565b925082820190508082111561205157612050611ff4565b5b92915050565b7f4e487b7100000000000000000000000000000000000000000000000000000000600052603260045260246000fd5b600061209182611c3c565b915060ff82036120a4576120a3611ff4565b5b600182019050919050565b60006120ba82611c3c565b91506120c583611c3c565b9250828203905060ff8111156120de576120dd611ff4565b5b92915050565b60006120ef82611c08565b91507fffffffffffffffffffffffffffffffffffffffffffffffffffffffffffffffff820361212157612120611ff4565b5b600182019050919050565b600061213782611c3c565b915061214283611c3c565b9250828201905060ff81111561215b5761215a611ff4565b5b92915050565b600061216c82611c08565b915061217783611c08565b925082820390508181111561218f5761218e611ff4565b5b92915050565b60008160011c9050919050565b6000808291508390505b60018511156121ec578086048111156121c8576121c7611ff4565b5b60018516156121d75780820291505b80810290506121e585612195565b94506121ac565b94509492505050565b60008261220557600190506122c1565b8161221357600090506122c1565b8160018114612229576002811461223357612262565b60019150506122c1565b60ff84111561224557612244611ff4565b5b8360020a91508482111561225c5761225b611ff4565b5b506122c1565b5060208310610133831016604e8410600b84101617156122975782820a90508381111561229257612291611ff4565b5b6122c1565b6122a484848460016121a2565b925090508184048111156122bb576122ba611ff4565b5b81810290505b9392505050565b60006122d382611c3c565b91506122de83611c3c565b92506122ec60ff84846121f5565b905092915050565b60006040820190506123096000830185611f6a565b6123166020830184611c12565b9392505050565b600061232882611c08565b915061233383611c08565b92508261234357612342611f94565b5b82820490509291505056fea264697066735822122089b22f553ed060f48915e311c201cfeeffa03e1a6c5d9ae7ed4738de363bc9fa64736f6c63430008110033",
					"opcodes": "PUSH1 0x80 PUSH1 0x40 MSTORE PUSH1 0x3 PUSH1 0x0 DUP1 PUSH2 0x100 EXP DUP2 SLOAD DUP2 PUSH1 0xFF MUL NOT AND SWAP1 DUP4 PUSH1 0xFF AND MUL OR SWAP1 SSTORE POP PUSH4 0x1E13380 PUSH1 0x17 SSTORE PUSH1 0x17 SLOAD TIMESTAMP PUSH3 0x37 SWAP2 SWAP1 PUSH3 0x7C JUMP JUMPDEST PUSH1 0x18 DUP2 SWAP1 SSTORE POP PUSH3 0xB7 JUMP JUMPDEST PUSH1 0x0 DUP2 SWAP1 POP SWAP2 SWAP1 POP JUMP JUMPDEST PUSH32 0x4E487B7100000000000000000000000000000000000000000000000000000000 PUSH1 0x0 MSTORE PUSH1 0x11 PUSH1 0x4 MSTORE PUSH1 0x24 PUSH1 0x0 REVERT JUMPDEST PUSH1 0x0 PUSH3 0x89 DUP3 PUSH3 0x43 JUMP JUMPDEST SWAP2 POP PUSH3 0x96 DUP4 PUSH3 0x43 JUMP JUMPDEST SWAP3 POP DUP3 DUP3 ADD SWAP1 POP DUP1 DUP3 GT ISZERO PUSH3 0xB1 JUMPI PUSH3 0xB0 PUSH3 0x4D JUMP JUMPDEST JUMPDEST SWAP3 SWAP2 POP POP JUMP JUMPDEST PUSH2 0x2384 DUP1 PUSH3 0xC7 PUSH1 0x0 CODECOPY PUSH1 0x0 RETURN INVALID PUSH1 0x80 PUSH1 0x40 MSTORE PUSH1 0x4 CALLDATASIZE LT PUSH2 0x109 JUMPI PUSH1 0x0 CALLDATALOAD PUSH1 0xE0 SHR DUP1 PUSH4 0x976306F0 GT PUSH2 0x95 JUMPI DUP1 PUSH4 0xCAB896DC GT PUSH2 0x64 JUMPI DUP1 PUSH4 0xCAB896DC EQ PUSH2 0x2E5 JUMPI DUP1 PUSH4 0xD30895E4 EQ PUSH2 0x310 JUMPI DUP1 PUSH4 0xEA40A2A2 EQ PUSH2 0x33B JUMPI DUP1 PUSH4 0xF020044F EQ PUSH2 0x352 JUMPI DUP1 PUSH4 0xFB815503 EQ PUSH2 0x37D JUMPI PUSH2 0x109 JUMP JUMPDEST DUP1 PUSH4 0x976306F0 EQ PUSH2 0x26E JUMPI DUP1 PUSH4 0xBB472219 EQ PUSH2 0x299 JUMPI DUP1 PUSH4 0xC51D69F4 EQ PUSH2 0x2B0 JUMPI DUP1 PUSH4 0xC95FE2AD EQ PUSH2 0x2DB JUMPI PUSH2 0x109 JUMP JUMPDEST DUP1 PUSH4 0x47CC53AD GT PUSH2 0xDC JUMPI DUP1 PUSH4 0x47CC53AD EQ PUSH2 0x1BA JUMPI DUP1 PUSH4 0x59A5F12D EQ PUSH2 0x1E5 JUMPI DUP1 PUSH4 0x6C5C8DF3 EQ PUSH2 0x210 JUMPI DUP1 PUSH4 0x7D3F9074 EQ PUSH2 0x21A JUMPI DUP1 PUSH4 0x7FDFFD23 EQ PUSH2 0x243 JUMPI PUSH2 0x109 JUMP JUMPDEST DUP1 PUSH4 0xD8A5258 EQ PUSH2 0x10E JUMPI DUP1 PUSH4 0xF2F9868 EQ PUSH2 0x139 JUMPI DUP1 PUSH4 0x15885694 EQ PUSH2 0x164 JUMPI DUP1 PUSH4 0x3264A34B EQ PUSH2 0x18F JUMPI JUMPDEST PUSH1 0x0 DUP1 REVERT JUMPDEST CALLVALUE DUP1 ISZERO PUSH2 0x11A JUMPI PUSH1 0x0 DUP1 REVERT JUMPDEST POP PUSH2 0x123 PUSH2 0x394 JUMP JUMPDEST PUSH1 0x40 MLOAD PUSH2 0x130 SWAP2 SWAP1 PUSH2 0x1C21 JUMP JUMPDEST PUSH1 0x40 MLOAD DUP1 SWAP2 SUB SWAP1 RETURN JUMPDEST CALLVALUE DUP1 ISZERO PUSH2 0x145 JUMPI PUSH1 0x0 DUP1 REVERT JUMPDEST POP PUSH2 0x14E PUSH2 0x39A JUMP JUMPDEST PUSH1 0x40 MLOAD PUSH2 0x15B SWAP2 SWAP1 PUSH2 0x1C21 JUMP JUMPDEST PUSH1 0x40 MLOAD DUP1 SWAP2 SUB SWAP1 RETURN JUMPDEST CALLVALUE DUP1 ISZERO PUSH2 0x170 JUMPI PUSH1 0x0 DUP1 REVERT JUMPDEST POP PUSH2 0x179 PUSH2 0x3A0 JUMP JUMPDEST PUSH1 0x40 MLOAD PUSH2 0x186 SWAP2 SWAP1 PUSH2 0x1C58 JUMP JUMPDEST PUSH1 0x40 MLOAD DUP1 SWAP2 SUB SWAP1 RETURN JUMPDEST CALLVALUE DUP1 ISZERO PUSH2 0x19B JUMPI PUSH1 0x0 DUP1 REVERT JUMPDEST POP PUSH2 0x1A4 PUSH2 0x3B3 JUMP JUMPDEST PUSH1 0x40 MLOAD PUSH2 0x1B1 SWAP2 SWAP1 PUSH2 0x1DEC JUMP JUMPDEST PUSH1 0x40 MLOAD DUP1 SWAP2 SUB SWAP1 RETURN JUMPDEST CALLVALUE DUP1 ISZERO PUSH2 0x1C6 JUMPI PUSH1 0x0 DUP1 REVERT JUMPDEST POP PUSH2 0x1CF PUSH2 0x46C JUMP JUMPDEST PUSH1 0x40 MLOAD PUSH2 0x1DC SWAP2 SWAP1 PUSH2 0x1C21 JUMP JUMPDEST PUSH1 0x40 MLOAD DUP1 SWAP2 SUB SWAP1 RETURN JUMPDEST CALLVALUE DUP1 ISZERO PUSH2 0x1F1 JUMPI PUSH1 0x0 DUP1 REVERT JUMPDEST POP PUSH2 0x1FA PUSH2 0x472 JUMP JUMPDEST PUSH1 0x40 MLOAD PUSH2 0x207 SWAP2 SWAP1 PUSH2 0x1E29 JUMP JUMPDEST PUSH1 0x40 MLOAD DUP1 SWAP2 SUB SWAP1 RETURN JUMPDEST PUSH2 0x218 PUSH2 0x498 JUMP JUMPDEST STOP JUMPDEST CALLVALUE DUP1 ISZERO PUSH2 0x226 JUMPI PUSH1 0x0 DUP1 REVERT JUMPDEST POP PUSH2 0x241 PUSH1 0x4 DUP1 CALLDATASIZE SUB DUP2 ADD SWAP1 PUSH2 0x23C SWAP2 SWAP1 PUSH2 0x1E75 JUMP JUMPDEST PUSH2 0x784 JUMP JUMPDEST STOP JUMPDEST CALLVALUE DUP1 ISZERO PUSH2 0x24F JUMPI PUSH1 0x0 DUP1 REVERT JUMPDEST POP PUSH2 0x258 PUSH2 0x107A JUMP JUMPDEST PUSH1 0x40 MLOAD PUSH2 0x265 SWAP2 SWAP1 PUSH2 0x1E29 JUMP JUMPDEST PUSH1 0x40 MLOAD DUP1 SWAP2 SUB SWAP1 RETURN JUMPDEST CALLVALUE DUP1 ISZERO PUSH2 0x27A JUMPI PUSH1 0x0 DUP1 REVERT JUMPDEST POP PUSH2 0x283 PUSH2 0x10A0 JUMP JUMPDEST PUSH1 0x40 MLOAD PUSH2 0x290 SWAP2 SWAP1 PUSH2 0x1C21 JUMP JUMPDEST PUSH1 0x40 MLOAD DUP1 SWAP2 SUB SWAP1 RETURN JUMPDEST CALLVALUE DUP1 ISZERO PUSH2 0x2A5 JUMPI PUSH1 0x0 DUP1 REVERT JUMPDEST POP PUSH2 0x2AE PUSH2 0x10A6 JUMP JUMPDEST STOP JUMPDEST CALLVALUE DUP1 ISZERO PUSH2 0x2BC JUMPI PUSH1 0x0 DUP1 REVERT JUMPDEST POP PUSH2 0x2C5 PUSH2 0x11F1 JUMP JUMPDEST PUSH1 0x40 MLOAD PUSH2 0x2D2 SWAP2 SWAP1 PUSH2 0x1C58 JUMP JUMPDEST PUSH1 0x40 MLOAD DUP1 SWAP2 SUB SWAP1 RETURN JUMPDEST PUSH2 0x2E3 PUSH2 0x1202 JUMP JUMPDEST STOP JUMPDEST CALLVALUE DUP1 ISZERO PUSH2 0x2F1 JUMPI PUSH1 0x0 DUP1 REVERT JUMPDEST POP PUSH2 0x2FA PUSH2 0x14EE JUMP JUMPDEST PUSH1 0x40 MLOAD PUSH2 0x307 SWAP2 SWAP1 PUSH2 0x1C21 JUMP JUMPDEST PUSH1 0x40 MLOAD DUP1 SWAP2 SUB SWAP1 RETURN JUMPDEST CALLVALUE DUP1 ISZERO PUSH2 0x31C JUMPI PUSH1 0x0 DUP1 REVERT JUMPDEST POP PUSH2 0x325 PUSH2 0x14F9 JUMP JUMPDEST PUSH1 0x40 MLOAD PUSH2 0x332 SWAP2 SWAP1 PUSH2 0x1E29 JUMP JUMPDEST PUSH1 0x40 MLOAD DUP1 SWAP2 SUB SWAP1 RETURN JUMPDEST CALLVALUE DUP1 ISZERO PUSH2 0x347 JUMPI PUSH1 0x0 DUP1 REVERT JUMPDEST POP PUSH2 0x350 PUSH2 0x151F JUMP JUMPDEST STOP JUMPDEST CALLVALUE DUP1 ISZERO PUSH2 0x35E JUMPI PUSH1 0x0 DUP1 REVERT JUMPDEST POP PUSH2 0x367 PUSH2 0x1550 JUMP JUMPDEST PUSH1 0x40 MLOAD PUSH2 0x374 SWAP2 SWAP1 PUSH2 0x1ED0 JUMP JUMPDEST PUSH1 0x40 MLOAD DUP1 SWAP2 SUB SWAP1 RETURN JUMPDEST CALLVALUE DUP1 ISZERO PUSH2 0x389 JUMPI PUSH1 0x0 DUP1 REVERT JUMPDEST POP PUSH2 0x392 PUSH2 0x1563 JUMP JUMPDEST STOP JUMPDEST PUSH1 0x15 SLOAD DUP2 JUMP JUMPDEST PUSH1 0x16 SLOAD DUP2 JUMP JUMPDEST PUSH1 0x0 PUSH1 0x1 SWAP1 SLOAD SWAP1 PUSH2 0x100 EXP SWAP1 DIV PUSH1 0xFF AND DUP2 JUMP JUMPDEST PUSH2 0x3BB PUSH2 0x1AD7 JUMP JUMPDEST PUSH1 0x1 PUSH1 0x3 DUP1 PUSH1 0x20 MUL PUSH1 0x40 MLOAD SWAP1 DUP2 ADD PUSH1 0x40 MSTORE DUP1 SWAP3 SWAP2 SWAP1 PUSH1 0x0 SWAP1 JUMPDEST DUP3 DUP3 LT ISZERO PUSH2 0x463 JUMPI DUP4 DUP3 PUSH1 0x3 MUL ADD PUSH1 0x3 DUP1 PUSH1 0x20 MUL PUSH1 0x40 MLOAD SWAP1 DUP2 ADD PUSH1 0x40 MSTORE DUP1 SWAP3 SWAP2 SWAP1 DUP3 PUSH1 0x3 DUP1 ISZERO PUSH2 0x44F JUMPI PUSH1 0x20 MUL DUP3 ADD SWAP2 JUMPDEST DUP2 PUSH1 0x0 SWAP1 SLOAD SWAP1 PUSH2 0x100 EXP SWAP1 DIV PUSH20 0xFFFFFFFFFFFFFFFFFFFFFFFFFFFFFFFFFFFFFFFF AND PUSH20 0xFFFFFFFFFFFFFFFFFFFFFFFFFFFFFFFFFFFFFFFF AND DUP2 MSTORE PUSH1 0x20 ADD SWAP1 PUSH1 0x1 ADD SWAP1 DUP1 DUP4 GT PUSH2 0x405 JUMPI JUMPDEST POP POP POP POP POP DUP2 MSTORE PUSH1 0x20 ADD SWAP1 PUSH1 0x1 ADD SWAP1 PUSH2 0x3D4 JUMP JUMPDEST POP POP POP POP SWAP1 POP SWAP1 JUMP JUMPDEST PUSH1 0x18 SLOAD DUP2 JUMP JUMPDEST PUSH1 0x14 PUSH1 0x0 SWAP1 SLOAD SWAP1 PUSH2 0x100 EXP SWAP1 DIV PUSH20 0xFFFFFFFFFFFFFFFFFFFFFFFFFFFFFFFFFFFFFFFF AND DUP2 JUMP JUMPDEST PUSH1 0x0 PUSH20 0xFFFFFFFFFFFFFFFFFFFFFFFFFFFFFFFFFFFFFFFF AND PUSH1 0x13 PUSH1 0x0 SWAP1 SLOAD SWAP1 PUSH2 0x100 EXP SWAP1 DIV PUSH20 0xFFFFFFFFFFFFFFFFFFFFFFFFFFFFFFFFFFFFFFFF AND PUSH20 0xFFFFFFFFFFFFFFFFFFFFFFFFFFFFFFFFFFFFFFFF AND EQ PUSH2 0x4F7 JUMPI PUSH2 0x4F6 PUSH2 0x1EEB JUMP JUMPDEST JUMPDEST PUSH1 0x0 PUSH20 0xFFFFFFFFFFFFFFFFFFFFFFFFFFFFFFFFFFFFFFFF AND PUSH1 0x14 PUSH1 0x0 SWAP1 SLOAD SWAP1 PUSH2 0x100 EXP SWAP1 DIV PUSH20 0xFFFFFFFFFFFFFFFFFFFFFFFFFFFFFFFFFFFFFFFF AND PUSH20 0xFFFFFFFFFFFFFFFFFFFFFFFFFFFFFFFFFFFFFFFF AND EQ PUSH2 0x56D JUMPI PUSH1 0x1 PUSH1 0x0 PUSH1 0x2 PUSH2 0x100 EXP DUP2 SLOAD DUP2 PUSH1 0xFF MUL NOT AND SWAP1 DUP4 ISZERO ISZERO MUL OR SWAP1 SSTORE POP PUSH2 0x588 JUMP JUMPDEST PUSH1 0x0 DUP1 PUSH1 0x2 PUSH2 0x100 EXP DUP2 SLOAD DUP2 PUSH1 0xFF MUL NOT AND SWAP1 DUP4 ISZERO ISZERO MUL OR SWAP1 SSTORE POP JUMPDEST PUSH7 0x38D7EA4C68000 CALLVALUE EQ PUSH2 0x59B JUMPI PUSH1 0x0 DUP1 REVERT JUMPDEST CALLER PUSH1 0x13 PUSH1 0x0 PUSH2 0x100 EXP DUP2 SLOAD DUP2 PUSH20 0xFFFFFFFFFFFFFFFFFFFFFFFFFFFFFFFFFFFFFFFF MUL NOT AND SWAP1 DUP4 PUSH20 0xFFFFFFFFFFFFFFFFFFFFFFFFFFFFFFFFFFFFFFFF AND MUL OR SWAP1 SSTORE POP PUSH32 0x31E760AA525306ABA638A784082A013B6A1CC0A9A1789F3F22281C0453B10B1F PUSH1 0x13 PUSH1 0x0 SWAP1 SLOAD SWAP1 PUSH2 0x100 EXP SWAP1 DIV PUSH20 0xFFFFFFFFFFFFFFFFFFFFFFFFFFFFFFFFFFFFFFFF AND PUSH1 0x40 MLOAD PUSH2 0x62D SWAP2 SWAP1 PUSH2 0x1F79 JUMP JUMPDEST PUSH1 0x40 MLOAD DUP1 SWAP2 SUB SWAP1 LOG1 PUSH1 0x0 PUSH1 0x2 NUMBER PUSH2 0x644 SWAP2 SWAP1 PUSH2 0x1FC3 JUMP JUMPDEST SUB PUSH2 0x6B1 JUMPI PUSH1 0x14 PUSH1 0x0 SWAP1 SLOAD SWAP1 PUSH2 0x100 EXP SWAP1 DIV PUSH20 0xFFFFFFFFFFFFFFFFFFFFFFFFFFFFFFFFFFFFFFFF AND PUSH1 0x19 PUSH1 0x0 PUSH2 0x100 EXP DUP2 SLOAD DUP2 PUSH20 0xFFFFFFFFFFFFFFFFFFFFFFFFFFFFFFFFFFFFFFFF MUL NOT AND SWAP1 DUP4 PUSH20 0xFFFFFFFFFFFFFFFFFFFFFFFFFFFFFFFFFFFFFFFF AND MUL OR SWAP1 SSTORE POP PUSH2 0x715 JUMP JUMPDEST PUSH1 0x13 PUSH1 0x0 SWAP1 SLOAD SWAP1 PUSH2 0x100 EXP SWAP1 DIV PUSH20 0xFFFFFFFFFFFFFFFFFFFFFFFFFFFFFFFFFFFFFFFF AND PUSH1 0x19 PUSH1 0x0 PUSH2 0x100 EXP DUP2 SLOAD DUP2 PUSH20 0xFFFFFFFFFFFFFFFFFFFFFFFFFFFFFFFFFFFFFFFF MUL NOT AND SWAP1 DUP4 PUSH20 0xFFFFFFFFFFFFFFFFFFFFFFFFFFFFFFFFFFFFFFFF AND MUL OR SWAP1 SSTORE POP JUMPDEST PUSH1 0x17 SLOAD TIMESTAMP PUSH2 0x723 SWAP2 SWAP1 PUSH2 0x2023 JUMP JUMPDEST PUSH1 0x18 DUP2 SWAP1 SSTORE POP PUSH32 0x637351F91DA430278368FB3E486C8C3DA47B2E6CE4D28B2C404CB044702CA7E1 PUSH1 0x19 PUSH1 0x0 SWAP1 SLOAD SWAP1 PUSH2 0x100 EXP SWAP1 DIV PUSH20 0xFFFFFFFFFFFFFFFFFFFFFFFFFFFFFFFFFFFFFFFF AND PUSH1 0x40 MLOAD PUSH2 0x77A SWAP2 SWAP1 PUSH2 0x1F79 JUMP JUMPDEST PUSH1 0x40 MLOAD DUP1 SWAP2 SUB SWAP1 LOG1 JUMP JUMPDEST PUSH1 0x0 PUSH20 0xFFFFFFFFFFFFFFFFFFFFFFFFFFFFFFFFFFFFFFFF AND PUSH1 0x1 DUP4 PUSH1 0xFF AND PUSH1 0x3 DUP2 LT PUSH2 0x7B3 JUMPI PUSH2 0x7B2 PUSH2 0x2057 JUMP JUMPDEST JUMPDEST PUSH1 0x3 MUL ADD DUP3 PUSH1 0xFF AND PUSH1 0x3 DUP2 LT PUSH2 0x7CC JUMPI PUSH2 0x7CB PUSH2 0x2057 JUMP JUMPDEST JUMPDEST ADD PUSH1 0x0 SWAP1 SLOAD SWAP1 PUSH2 0x100 EXP SWAP1 DIV PUSH20 0xFFFFFFFFFFFFFFFFFFFFFFFFFFFFFFFFFFFFFFFF AND PUSH20 0xFFFFFFFFFFFFFFFFFFFFFFFFFFFFFFFFFFFFFFFF AND EQ PUSH2 0x80E JUMPI PUSH1 0x0 DUP1 REVERT JUMPDEST TIMESTAMP PUSH1 0x18 SLOAD GT PUSH2 0x81C JUMPI PUSH1 0x0 DUP1 REVERT JUMPDEST PUSH1 0x0 PUSH1 0x2 SWAP1 SLOAD SWAP1 PUSH2 0x100 EXP SWAP1 DIV PUSH1 0xFF AND PUSH2 0x839 JUMPI PUSH2 0x838 PUSH2 0x1EEB JUMP JUMPDEST JUMPDEST PUSH1 0x0 DUP1 SLOAD SWAP1 PUSH2 0x100 EXP SWAP1 DIV PUSH1 0xFF AND PUSH1 0xFF AND DUP3 PUSH1 0xFF AND LT PUSH2 0x85C JUMPI PUSH2 0x85B PUSH2 0x1EEB JUMP JUMPDEST JUMPDEST PUSH1 0x0 DUP1 SLOAD SWAP1 PUSH2 0x100 EXP SWAP1 DIV PUSH1 0xFF AND PUSH1 0xFF AND DUP2 PUSH1 0xFF AND LT PUSH2 0x87F JUMPI PUSH2 0x87E PUSH2 0x1EEB JUMP JUMPDEST JUMPDEST PUSH1 0x19 PUSH1 0x0 SWAP1 SLOAD SWAP1 PUSH2 0x100 EXP SWAP1 DIV PUSH20 0xFFFFFFFFFFFFFFFFFFFFFFFFFFFFFFFFFFFFFFFF AND PUSH20 0xFFFFFFFFFFFFFFFFFFFFFFFFFFFFFFFFFFFFFFFF AND CALLER PUSH20 0xFFFFFFFFFFFFFFFFFFFFFFFFFFFFFFFFFFFFFFFF AND EQ PUSH2 0x8D9 JUMPI PUSH1 0x0 DUP1 REVERT JUMPDEST CALLER PUSH1 0x1 DUP4 PUSH1 0xFF AND PUSH1 0x3 DUP2 LT PUSH2 0x8F1 JUMPI PUSH2 0x8F0 PUSH2 0x2057 JUMP JUMPDEST JUMPDEST PUSH1 0x3 MUL ADD DUP3 PUSH1 0xFF AND PUSH1 0x3 DUP2 LT PUSH2 0x90A JUMPI PUSH2 0x909 PUSH2 0x2057 JUMP JUMPDEST JUMPDEST ADD PUSH1 0x0 PUSH2 0x100 EXP DUP2 SLOAD DUP2 PUSH20 0xFFFFFFFFFFFFFFFFFFFFFFFFFFFFFFFFFFFFFFFF MUL NOT AND SWAP1 DUP4 PUSH20 0xFFFFFFFFFFFFFFFFFFFFFFFFFFFFFFFFFFFFFFFF AND MUL OR SWAP1 SSTORE POP PUSH1 0x0 PUSH1 0x1 DUP2 DUP2 SWAP1 SLOAD SWAP1 PUSH2 0x100 EXP SWAP1 DIV PUSH1 0xFF AND DUP1 SWAP3 SWAP2 SWAP1 PUSH2 0x968 SWAP1 PUSH2 0x2086 JUMP JUMPDEST SWAP2 SWAP1 PUSH2 0x100 EXP DUP2 SLOAD DUP2 PUSH1 0xFF MUL NOT AND SWAP1 DUP4 PUSH1 0xFF AND MUL OR SWAP1 SSTORE POP POP PUSH1 0x17 SLOAD TIMESTAMP PUSH2 0x98F SWAP2 SWAP1 PUSH2 0x2023 JUMP JUMPDEST PUSH1 0x18 DUP2 SWAP1 SSTORE POP PUSH1 0x0 JUMPDEST PUSH1 0x0 DUP1 SLOAD SWAP1 PUSH2 0x100 EXP SWAP1 DIV PUSH1 0xFF AND PUSH1 0xFF AND DUP2 PUSH1 0xFF AND LT ISZERO PUSH2 0xAC3 JUMPI PUSH1 0x19 PUSH1 0x0 SWAP1 SLOAD SWAP1 PUSH2 0x100 EXP SWAP1 DIV PUSH20 0xFFFFFFFFFFFFFFFFFFFFFFFFFFFFFFFFFFFFFFFF AND PUSH20 0xFFFFFFFFFFFFFFFFFFFFFFFFFFFFFFFFFFFFFFFF AND PUSH1 0x1 DUP3 PUSH1 0xFF AND PUSH1 0x3 DUP2 LT PUSH2 0xA03 JUMPI PUSH2 0xA02 PUSH2 0x2057 JUMP JUMPDEST JUMPDEST PUSH1 0x3 MUL ADD DUP4 PUSH1 0xFF AND PUSH1 0x3 DUP2 LT PUSH2 0xA1C JUMPI PUSH2 0xA1B PUSH2 0x2057 JUMP JUMPDEST JUMPDEST ADD PUSH1 0x0 SWAP1 SLOAD SWAP1 PUSH2 0x100 EXP SWAP1 DIV PUSH20 0xFFFFFFFFFFFFFFFFFFFFFFFFFFFFFFFFFFFFFFFF AND PUSH20 0xFFFFFFFFFFFFFFFFFFFFFFFFFFFFFFFFFFFFFFFF AND SUB PUSH2 0xAC3 JUMPI PUSH1 0x1 PUSH1 0x0 DUP1 SLOAD SWAP1 PUSH2 0x100 EXP SWAP1 DIV PUSH1 0xFF AND PUSH2 0xA73 SWAP2 SWAP1 PUSH2 0x20AF JUMP JUMPDEST PUSH1 0xFF AND DUP2 PUSH1 0xFF AND SUB PUSH2 0xAB0 JUMPI PUSH2 0xAAA PUSH1 0x19 PUSH1 0x0 SWAP1 SLOAD SWAP1 PUSH2 0x100 EXP SWAP1 DIV PUSH20 0xFFFFFFFFFFFFFFFFFFFFFFFFFFFFFFFFFFFFFFFF AND PUSH2 0x1783 JUMP JUMPDEST POP PUSH2 0x1076 JUMP JUMPDEST DUP1 DUP1 PUSH2 0xABB SWAP1 PUSH2 0x2086 JUMP JUMPDEST SWAP2 POP POP PUSH2 0x998 JUMP JUMPDEST POP PUSH1 0x0 JUMPDEST PUSH1 0x0 DUP1 SLOAD SWAP1 PUSH2 0x100 EXP SWAP1 DIV PUSH1 0xFF AND PUSH1 0xFF AND DUP2 LT ISZERO PUSH2 0xBE9 JUMPI PUSH1 0x19 PUSH1 0x0 SWAP1 SLOAD SWAP1 PUSH2 0x100 EXP SWAP1 DIV PUSH20 0xFFFFFFFFFFFFFFFFFFFFFFFFFFFFFFFFFFFFFFFF AND PUSH20 0xFFFFFFFFFFFFFFFFFFFFFFFFFFFFFFFFFFFFFFFF AND PUSH1 0x1 DUP5 PUSH1 0xFF AND PUSH1 0x3 DUP2 LT PUSH2 0xB2F JUMPI PUSH2 0xB2E PUSH2 0x2057 JUMP JUMPDEST JUMPDEST PUSH1 0x3 MUL ADD DUP3 PUSH1 0x3 DUP2 LT PUSH2 0xB45 JUMPI PUSH2 0xB44 PUSH2 0x2057 JUMP JUMPDEST JUMPDEST ADD PUSH1 0x0 SWAP1 SLOAD SWAP1 PUSH2 0x100 EXP SWAP1 DIV PUSH20 0xFFFFFFFFFFFFFFFFFFFFFFFFFFFFFFFFFFFFFFFF AND PUSH20 0xFFFFFFFFFFFFFFFFFFFFFFFFFFFFFFFFFFFFFFFF AND SUB PUSH2 0xBE9 JUMPI PUSH1 0x1 PUSH1 0x0 DUP1 SLOAD SWAP1 PUSH2 0x100 EXP SWAP1 DIV PUSH1 0xFF AND PUSH2 0xB9C SWAP2 SWAP1 PUSH2 0x20AF JUMP JUMPDEST PUSH1 0xFF AND DUP2 SUB PUSH2 0xBD6 JUMPI PUSH2 0xBD0 PUSH1 0x19 PUSH1 0x0 SWAP1 SLOAD SWAP1 PUSH2 0x100 EXP SWAP1 DIV PUSH20 0xFFFFFFFFFFFFFFFFFFFFFFFFFFFFFFFFFFFFFFFF AND PUSH2 0x1783 JUMP JUMPDEST POP PUSH2 0x1076 JUMP JUMPDEST DUP1 DUP1 PUSH2 0xBE1 SWAP1 PUSH2 0x20E4 JUMP JUMPDEST SWAP2 POP POP PUSH2 0xAC7 JUMP JUMPDEST POP DUP1 PUSH1 0xFF AND DUP3 PUSH1 0xFF AND SUB PUSH2 0xD1B JUMPI PUSH1 0x0 JUMPDEST PUSH1 0x0 DUP1 SLOAD SWAP1 PUSH2 0x100 EXP SWAP1 DIV PUSH1 0xFF AND PUSH1 0xFF AND DUP2 LT ISZERO PUSH2 0xD19 JUMPI PUSH1 0x19 PUSH1 0x0 SWAP1 SLOAD SWAP1 PUSH2 0x100 EXP SWAP1 DIV PUSH20 0xFFFFFFFFFFFFFFFFFFFFFFFFFFFFFFFFFFFFFFFF AND PUSH20 0xFFFFFFFFFFFFFFFFFFFFFFFFFFFFFFFFFFFFFFFF AND PUSH1 0x1 DUP3 PUSH1 0x3 DUP2 LT PUSH2 0xC5F JUMPI PUSH2 0xC5E PUSH2 0x2057 JUMP JUMPDEST JUMPDEST PUSH1 0x3 MUL ADD DUP3 PUSH1 0x3 DUP2 LT PUSH2 0xC75 JUMPI PUSH2 0xC74 PUSH2 0x2057 JUMP JUMPDEST JUMPDEST ADD PUSH1 0x0 SWAP1 SLOAD SWAP1 PUSH2 0x100 EXP SWAP1 DIV PUSH20 0xFFFFFFFFFFFFFFFFFFFFFFFFFFFFFFFFFFFFFFFF AND PUSH20 0xFFFFFFFFFFFFFFFFFFFFFFFFFFFFFFFFFFFFFFFF AND SUB PUSH2 0xD19 JUMPI PUSH1 0x1 PUSH1 0x0 DUP1 SLOAD SWAP1 PUSH2 0x100 EXP SWAP1 DIV PUSH1 0xFF AND PUSH2 0xCCC SWAP2 SWAP1 PUSH2 0x20AF JUMP JUMPDEST PUSH1 0xFF AND DUP2 SUB PUSH2 0xD06 JUMPI PUSH2 0xD00 PUSH1 0x19 PUSH1 0x0 SWAP1 SLOAD SWAP1 PUSH2 0x100 EXP SWAP1 DIV PUSH20 0xFFFFFFFFFFFFFFFFFFFFFFFFFFFFFFFFFFFFFFFF AND PUSH2 0x1783 JUMP JUMPDEST POP PUSH2 0x1076 JUMP JUMPDEST DUP1 DUP1 PUSH2 0xD11 SWAP1 PUSH2 0x20E4 JUMP JUMPDEST SWAP2 POP POP PUSH2 0xBFA JUMP JUMPDEST POP JUMPDEST PUSH1 0x1 PUSH1 0x0 DUP1 SLOAD SWAP1 PUSH2 0x100 EXP SWAP1 DIV PUSH1 0xFF AND PUSH2 0xD35 SWAP2 SWAP1 PUSH2 0x20AF JUMP JUMPDEST PUSH1 0xFF AND DUP2 DUP4 PUSH2 0xD44 SWAP2 SWAP1 PUSH2 0x212C JUMP JUMPDEST PUSH1 0xFF AND SUB PUSH2 0xE97 JUMPI PUSH1 0x0 JUMPDEST PUSH1 0x0 DUP1 SLOAD SWAP1 PUSH2 0x100 EXP SWAP1 DIV PUSH1 0xFF AND PUSH1 0xFF AND DUP2 LT ISZERO PUSH2 0xE95 JUMPI PUSH1 0x19 PUSH1 0x0 SWAP1 SLOAD SWAP1 PUSH2 0x100 EXP SWAP1 DIV PUSH20 0xFFFFFFFFFFFFFFFFFFFFFFFFFFFFFFFFFFFFFFFF AND PUSH20 0xFFFFFFFFFFFFFFFFFFFFFFFFFFFFFFFFFFFFFFFF AND PUSH1 0x1 DUP3 PUSH1 0x3 DUP2 LT PUSH2 0xDB4 JUMPI PUSH2 0xDB3 PUSH2 0x2057 JUMP JUMPDEST JUMPDEST PUSH1 0x3 MUL ADD DUP3 PUSH1 0x1 PUSH1 0x0 DUP1 SLOAD SWAP1 PUSH2 0x100 EXP SWAP1 DIV PUSH1 0xFF AND PUSH2 0xDD3 SWAP2 SWAP1 PUSH2 0x20AF JUMP JUMPDEST PUSH1 0xFF AND PUSH2 0xDE0 SWAP2 SWAP1 PUSH2 0x2161 JUMP JUMPDEST PUSH1 0x3 DUP2 LT PUSH2 0xDF1 JUMPI PUSH2 0xDF0 PUSH2 0x2057 JUMP JUMPDEST JUMPDEST ADD PUSH1 0x0 SWAP1 SLOAD SWAP1 PUSH2 0x100 EXP SWAP1 DIV PUSH20 0xFFFFFFFFFFFFFFFFFFFFFFFFFFFFFFFFFFFFFFFF AND PUSH20 0xFFFFFFFFFFFFFFFFFFFFFFFFFFFFFFFFFFFFFFFF AND SUB PUSH2 0xE95 JUMPI PUSH1 0x1 PUSH1 0x0 DUP1 SLOAD SWAP1 PUSH2 0x100 EXP SWAP1 DIV PUSH1 0xFF AND PUSH2 0xE48 SWAP2 SWAP1 PUSH2 0x20AF JUMP JUMPDEST PUSH1 0xFF AND DUP2 SUB PUSH2 0xE82 JUMPI PUSH2 0xE7C PUSH1 0x19 PUSH1 0x0 SWAP1 SLOAD SWAP1 PUSH2 0x100 EXP SWAP1 DIV PUSH20 0xFFFFFFFFFFFFFFFFFFFFFFFFFFFFFFFFFFFFFFFF AND PUSH2 0x1783 JUMP JUMPDEST POP PUSH2 0x1076 JUMP JUMPDEST DUP1 DUP1 PUSH2 0xE8D SWAP1 PUSH2 0x20E4 JUMP JUMPDEST SWAP2 POP POP PUSH2 0xD4F JUMP JUMPDEST POP JUMPDEST PUSH1 0x2 PUSH1 0x0 DUP1 SLOAD SWAP1 PUSH2 0x100 EXP SWAP1 DIV PUSH1 0xFF AND PUSH2 0xEB1 SWAP2 SWAP1 PUSH2 0x22C8 JUMP JUMPDEST PUSH1 0xFF AND PUSH1 0x0 PUSH1 0x1 SWAP1 SLOAD SWAP1 PUSH2 0x100 EXP SWAP1 DIV PUSH1 0xFF AND PUSH1 0xFF AND SUB PUSH2 0xED9 JUMPI PUSH2 0xED4 PUSH2 0x18C5 JUMP JUMPDEST PUSH2 0x1076 JUMP JUMPDEST PUSH1 0x13 PUSH1 0x0 SWAP1 SLOAD SWAP1 PUSH2 0x100 EXP SWAP1 DIV PUSH20 0xFFFFFFFFFFFFFFFFFFFFFFFFFFFFFFFFFFFFFFFF AND PUSH20 0xFFFFFFFFFFFFFFFFFFFFFFFFFFFFFFFFFFFFFFFF AND PUSH1 0x19 PUSH1 0x0 SWAP1 SLOAD SWAP1 PUSH2 0x100 EXP SWAP1 DIV PUSH20 0xFFFFFFFFFFFFFFFFFFFFFFFFFFFFFFFFFFFFFFFF AND PUSH20 0xFFFFFFFFFFFFFFFFFFFFFFFFFFFFFFFFFFFFFFFF AND SUB PUSH2 0xFB8 JUMPI PUSH1 0x14 PUSH1 0x0 SWAP1 SLOAD SWAP1 PUSH2 0x100 EXP SWAP1 DIV PUSH20 0xFFFFFFFFFFFFFFFFFFFFFFFFFFFFFFFFFFFFFFFF AND PUSH1 0x19 PUSH1 0x0 PUSH2 0x100 EXP DUP2 SLOAD DUP2 PUSH20 0xFFFFFFFFFFFFFFFFFFFFFFFFFFFFFFFFFFFFFFFF MUL NOT AND SWAP1 DUP4 PUSH20 0xFFFFFFFFFFFFFFFFFFFFFFFFFFFFFFFFFFFFFFFF AND MUL OR SWAP1 SSTORE POP PUSH2 0x101C JUMP JUMPDEST PUSH1 0x13 PUSH1 0x0 SWAP1 SLOAD SWAP1 PUSH2 0x100 EXP SWAP1 DIV PUSH20 0xFFFFFFFFFFFFFFFFFFFFFFFFFFFFFFFFFFFFFFFF AND PUSH1 0x19 PUSH1 0x0 PUSH2 0x100 EXP DUP2 SLOAD DUP2 PUSH20 0xFFFFFFFFFFFFFFFFFFFFFFFFFFFFFFFFFFFFFFFF MUL NOT AND SWAP1 DUP4 PUSH20 0xFFFFFFFFFFFFFFFFFFFFFFFFFFFFFFFFFFFFFFFF AND MUL OR SWAP1 SSTORE POP JUMPDEST PUSH32 0x637351F91DA430278368FB3E486C8C3DA47B2E6CE4D28B2C404CB044702CA7E1 PUSH1 0x19 PUSH1 0x0 SWAP1 SLOAD SWAP1 PUSH2 0x100 EXP SWAP1 DIV PUSH20 0xFFFFFFFFFFFFFFFFFFFFFFFFFFFFFFFFFFFFFFFF AND PUSH1 0x40 MLOAD PUSH2 0x106D SWAP2 SWAP1 PUSH2 0x1F79 JUMP JUMPDEST PUSH1 0x40 MLOAD DUP1 SWAP2 SUB SWAP1 LOG1 JUMPDEST POP POP JUMP JUMPDEST PUSH1 0x19 PUSH1 0x0 SWAP1 SLOAD SWAP1 PUSH2 0x100 EXP SWAP1 DIV PUSH20 0xFFFFFFFFFFFFFFFFFFFFFFFFFFFFFFFFFFFFFFFF AND DUP2 JUMP JUMPDEST PUSH1 0x17 SLOAD DUP2 JUMP JUMPDEST PUSH1 0x13 PUSH1 0x0 SWAP1 SLOAD SWAP1 PUSH2 0x100 EXP SWAP1 DIV PUSH20 0xFFFFFFFFFFFFFFFFFFFFFFFFFFFFFFFFFFFFFFFF AND PUSH20 0xFFFFFFFFFFFFFFFFFFFFFFFFFFFFFFFFFFFFFFFF AND CALLER PUSH20 0xFFFFFFFFFFFFFFFFFFFFFFFFFFFFFFFFFFFFFFFF AND EQ DUP1 PUSH2 0x114F JUMPI POP PUSH1 0x14 PUSH1 0x0 SWAP1 SLOAD SWAP1 PUSH2 0x100 EXP SWAP1 DIV PUSH20 0xFFFFFFFFFFFFFFFFFFFFFFFFFFFFFFFFFFFFFFFF AND PUSH20 0xFFFFFFFFFFFFFFFFFFFFFFFFFFFFFFFFFFFFFFFF AND CALLER PUSH20 0xFFFFFFFFFFFFFFFFFFFFFFFFFFFFFFFFFFFFFFFF AND EQ JUMPDEST PUSH2 0x1158 JUMPI PUSH1 0x0 DUP1 REVERT JUMPDEST PUSH1 0xA PUSH1 0x1 SWAP1 PUSH1 0x3 PUSH2 0x116A SWAP3 SWAP2 SWAP1 PUSH2 0x1B04 JUMP JUMPDEST POP PUSH1 0x0 PUSH1 0x13 PUSH1 0x0 PUSH2 0x100 EXP DUP2 SLOAD DUP2 PUSH20 0xFFFFFFFFFFFFFFFFFFFFFFFFFFFFFFFFFFFFFFFF MUL NOT AND SWAP1 DUP4 PUSH20 0xFFFFFFFFFFFFFFFFFFFFFFFFFFFFFFFFFFFFFFFF AND MUL OR SWAP1 SSTORE POP PUSH1 0x0 PUSH1 0x14 PUSH1 0x0 PUSH2 0x100 EXP DUP2 SLOAD DUP2 PUSH20 0xFFFFFFFFFFFFFFFFFFFFFFFFFFFFFFFFFFFFFFFF MUL NOT AND SWAP1 DUP4 PUSH20 0xFFFFFFFFFFFFFFFFFFFFFFFFFFFFFFFFFFFFFFFF AND MUL OR SWAP1 SSTORE POP JUMP JUMPDEST PUSH1 0x0 DUP1 SLOAD SWAP1 PUSH2 0x100 EXP SWAP1 DIV PUSH1 0xFF AND DUP2 JUMP JUMPDEST PUSH1 0x0 PUSH20 0xFFFFFFFFFFFFFFFFFFFFFFFFFFFFFFFFFFFFFFFF AND PUSH1 0x14 PUSH1 0x0 SWAP1 SLOAD SWAP1 PUSH2 0x100 EXP SWAP1 DIV PUSH20 0xFFFFFFFFFFFFFFFFFFFFFFFFFFFFFFFFFFFFFFFF AND PUSH20 0xFFFFFFFFFFFFFFFFFFFFFFFFFFFFFFFFFFFFFFFF AND EQ PUSH2 0x1261 JUMPI PUSH2 0x1260 PUSH2 0x1EEB JUMP JUMPDEST JUMPDEST PUSH1 0x0 PUSH20 0xFFFFFFFFFFFFFFFFFFFFFFFFFFFFFFFFFFFFFFFF AND PUSH1 0x13 PUSH1 0x0 SWAP1 SLOAD SWAP1 PUSH2 0x100 EXP SWAP1 DIV PUSH20 0xFFFFFFFFFFFFFFFFFFFFFFFFFFFFFFFFFFFFFFFF AND PUSH20 0xFFFFFFFFFFFFFFFFFFFFFFFFFFFFFFFFFFFFFFFF AND EQ PUSH2 0x12D7 JUMPI PUSH1 0x1 PUSH1 0x0 PUSH1 0x2 PUSH2 0x100 EXP DUP2 SLOAD DUP2 PUSH1 0xFF MUL NOT AND SWAP1 DUP4 ISZERO ISZERO MUL OR SWAP1 SSTORE POP PUSH2 0x12F2 JUMP JUMPDEST PUSH1 0x0 DUP1 PUSH1 0x2 PUSH2 0x100 EXP DUP2 SLOAD DUP2 PUSH1 0xFF MUL NOT AND SWAP1 DUP4 ISZERO ISZERO MUL OR SWAP1 SSTORE POP JUMPDEST PUSH7 0x38D7EA4C68000 CALLVALUE EQ PUSH2 0x1305 JUMPI PUSH1 0x0 DUP1 REVERT JUMPDEST CALLER PUSH1 0x14 PUSH1 0x0 PUSH2 0x100 EXP DUP2 SLOAD DUP2 PUSH20 0xFFFFFFFFFFFFFFFFFFFFFFFFFFFFFFFFFFFFFFFF MUL NOT AND SWAP1 DUP4 PUSH20 0xFFFFFFFFFFFFFFFFFFFFFFFFFFFFFFFFFFFFFFFF AND MUL OR SWAP1 SSTORE POP PUSH32 0x31E760AA525306ABA638A784082A013B6A1CC0A9A1789F3F22281C0453B10B1F PUSH1 0x14 PUSH1 0x0 SWAP1 SLOAD SWAP1 PUSH2 0x100 EXP SWAP1 DIV PUSH20 0xFFFFFFFFFFFFFFFFFFFFFFFFFFFFFFFFFFFFFFFF AND PUSH1 0x40 MLOAD PUSH2 0x1397 SWAP2 SWAP1 PUSH2 0x1F79 JUMP JUMPDEST PUSH1 0x40 MLOAD DUP1 SWAP2 SUB SWAP1 LOG1 PUSH1 0x0 PUSH1 0x2 NUMBER PUSH2 0x13AE SWAP2 SWAP1 PUSH2 0x1FC3 JUMP JUMPDEST SUB PUSH2 0x141B JUMPI PUSH1 0x14 PUSH1 0x0 SWAP1 SLOAD SWAP1 PUSH2 0x100 EXP SWAP1 DIV PUSH20 0xFFFFFFFFFFFFFFFFFFFFFFFFFFFFFFFFFFFFFFFF AND PUSH1 0x19 PUSH1 0x0 PUSH2 0x100 EXP DUP2 SLOAD DUP2 PUSH20 0xFFFFFFFFFFFFFFFFFFFFFFFFFFFFFFFFFFFFFFFF MUL NOT AND SWAP1 DUP4 PUSH20 0xFFFFFFFFFFFFFFFFFFFFFFFFFFFFFFFFFFFFFFFF AND MUL OR SWAP1 SSTORE POP PUSH2 0x147F JUMP JUMPDEST PUSH1 0x13 PUSH1 0x0 SWAP1 SLOAD SWAP1 PUSH2 0x100 EXP SWAP1 DIV PUSH20 0xFFFFFFFFFFFFFFFFFFFFFFFFFFFFFFFFFFFFFFFF AND PUSH1 0x19 PUSH1 0x0 PUSH2 0x100 EXP DUP2 SLOAD DUP2 PUSH20 0xFFFFFFFFFFFFFFFFFFFFFFFFFFFFFFFFFFFFFFFF MUL NOT AND SWAP1 DUP4 PUSH20 0xFFFFFFFFFFFFFFFFFFFFFFFFFFFFFFFFFFFFFFFF AND MUL OR SWAP1 SSTORE POP JUMPDEST PUSH1 0x17 SLOAD TIMESTAMP PUSH2 0x148D SWAP2 SWAP1 PUSH2 0x2023 JUMP JUMPDEST PUSH1 0x18 DUP2 SWAP1 SSTORE POP PUSH32 0x637351F91DA430278368FB3E486C8C3DA47B2E6CE4D28B2C404CB044702CA7E1 PUSH1 0x19 PUSH1 0x0 SWAP1 SLOAD SWAP1 PUSH2 0x100 EXP SWAP1 DIV PUSH20 0xFFFFFFFFFFFFFFFFFFFFFFFFFFFFFFFFFFFFFFFF AND PUSH1 0x40 MLOAD PUSH2 0x14E4 SWAP2 SWAP1 PUSH2 0x1F79 JUMP JUMPDEST PUSH1 0x40 MLOAD DUP1 SWAP2 SUB SWAP1 LOG1 JUMP JUMPDEST PUSH7 0x38D7EA4C68000 DUP2 JUMP JUMPDEST PUSH1 0x13 PUSH1 0x0 SWAP1 SLOAD SWAP1 PUSH2 0x100 EXP SWAP1 DIV PUSH20 0xFFFFFFFFFFFFFFFFFFFFFFFFFFFFFFFFFFFFFFFF AND DUP2 JUMP JUMPDEST TIMESTAMP PUSH1 0x18 SLOAD LT PUSH2 0x152D JUMPI PUSH1 0x0 DUP1 REVERT JUMPDEST PUSH1 0x0 PUSH1 0x2 SWAP1 SLOAD SWAP1 PUSH2 0x100 EXP SWAP1 DIV PUSH1 0xFF AND PUSH2 0x1546 JUMPI PUSH1 0x0 DUP1 REVERT JUMPDEST PUSH2 0x154E PUSH2 0x18C5 JUMP JUMPDEST JUMP JUMPDEST PUSH1 0x0 PUSH1 0x2 SWAP1 SLOAD SWAP1 PUSH2 0x100 EXP SWAP1 DIV PUSH1 0xFF AND DUP2 JUMP JUMPDEST PUSH1 0x0 PUSH1 0x13 PUSH1 0x0 SWAP1 SLOAD SWAP1 PUSH2 0x100 EXP SWAP1 DIV PUSH20 0xFFFFFFFFFFFFFFFFFFFFFFFFFFFFFFFFFFFFFFFF AND PUSH20 0xFFFFFFFFFFFFFFFFFFFFFFFFFFFFFFFFFFFFFFFF AND CALLER PUSH20 0xFFFFFFFFFFFFFFFFFFFFFFFFFFFFFFFFFFFFFFFF AND SUB PUSH2 0x169F JUMPI PUSH1 0x0 PUSH1 0x15 SLOAD GT PUSH2 0x15C9 JUMPI PUSH1 0x0 DUP1 REVERT JUMPDEST PUSH1 0x15 SLOAD SWAP1 POP PUSH1 0x0 PUSH1 0x15 DUP2 SWAP1 SSTORE POP PUSH1 0x13 PUSH1 0x0 SWAP1 SLOAD SWAP1 PUSH2 0x100 EXP SWAP1 DIV PUSH20 0xFFFFFFFFFFFFFFFFFFFFFFFFFFFFFFFFFFFFFFFF AND PUSH20 0xFFFFFFFFFFFFFFFFFFFFFFFFFFFFFFFFFFFFFFFF AND PUSH2 0x8FC DUP3 SWAP1 DUP2 ISZERO MUL SWAP1 PUSH1 0x40 MLOAD PUSH1 0x0 PUSH1 0x40 MLOAD DUP1 DUP4 SUB DUP2 DUP6 DUP9 DUP9 CALL SWAP4 POP POP POP POP ISZERO DUP1 ISZERO PUSH2 0x163E JUMPI RETURNDATASIZE PUSH1 0x0 DUP1 RETURNDATACOPY RETURNDATASIZE PUSH1 0x0 REVERT JUMPDEST POP PUSH32 0x2A44162A2D5223E37CACACC3F626DCFEE1396E0BE3616534C5C7B718F786B673 PUSH1 0x13 PUSH1 0x0 SWAP1 SLOAD SWAP1 PUSH2 0x100 EXP SWAP1 DIV PUSH20 0xFFFFFFFFFFFFFFFFFFFFFFFFFFFFFFFFFFFFFFFF AND DUP3 PUSH1 0x40 MLOAD PUSH2 0x1692 SWAP3 SWAP2 SWAP1 PUSH2 0x22F4 JUMP JUMPDEST PUSH1 0x40 MLOAD DUP1 SWAP2 SUB SWAP1 LOG1 PUSH2 0x1780 JUMP JUMPDEST PUSH1 0x0 PUSH1 0x16 SLOAD GT PUSH2 0x16AE JUMPI PUSH1 0x0 DUP1 REVERT JUMPDEST PUSH1 0x16 SLOAD SWAP1 POP PUSH1 0x0 PUSH1 0x16 DUP2 SWAP1 SSTORE POP PUSH1 0x14 PUSH1 0x0 SWAP1 SLOAD SWAP1 PUSH2 0x100 EXP SWAP1 DIV PUSH20 0xFFFFFFFFFFFFFFFFFFFFFFFFFFFFFFFFFFFFFFFF AND PUSH20 0xFFFFFFFFFFFFFFFFFFFFFFFFFFFFFFFFFFFFFFFF AND PUSH2 0x8FC DUP3 SWAP1 DUP2 ISZERO MUL SWAP1 PUSH1 0x40 MLOAD PUSH1 0x0 PUSH1 0x40 MLOAD DUP1 DUP4 SUB DUP2 DUP6 DUP9 DUP9 CALL SWAP4 POP POP POP POP ISZERO DUP1 ISZERO PUSH2 0x1723 JUMPI RETURNDATASIZE PUSH1 0x0 DUP1 RETURNDATACOPY RETURNDATASIZE PUSH1 0x0 REVERT JUMPDEST POP PUSH32 0x2A44162A2D5223E37CACACC3F626DCFEE1396E0BE3616534C5C7B718F786B673 PUSH1 0x14 PUSH1 0x0 SWAP1 SLOAD SWAP1 PUSH2 0x100 EXP SWAP1 DIV PUSH20 0xFFFFFFFFFFFFFFFFFFFFFFFFFFFFFFFFFFFFFFFF AND DUP3 PUSH1 0x40 MLOAD PUSH2 0x1777 SWAP3 SWAP2 SWAP1 PUSH2 0x22F4 JUMP JUMPDEST PUSH1 0x40 MLOAD DUP1 SWAP2 SUB SWAP1 LOG1 JUMPDEST POP JUMP JUMPDEST PUSH1 0x0 DUP1 PUSH1 0x2 PUSH2 0x100 EXP DUP2 SLOAD DUP2 PUSH1 0xFF MUL NOT AND SWAP1 DUP4 ISZERO ISZERO MUL OR SWAP1 SSTORE POP PUSH32 0x8245A3876D42D9B0BDB7F24184C03FC24E3D8A079F492B1EC9CEAE70B366EDF9 DUP2 PUSH1 0x40 MLOAD PUSH2 0x17CC SWAP2 SWAP1 PUSH2 0x1F79 JUMP JUMPDEST PUSH1 0x40 MLOAD DUP1 SWAP2 SUB SWAP1 LOG1 PUSH1 0x0 SELFBALANCE SWAP1 POP PUSH1 0x1 ISZERO ISZERO DUP3 PUSH20 0xFFFFFFFFFFFFFFFFFFFFFFFFFFFFFFFFFFFFFFFF AND PUSH2 0x8FC DUP4 SWAP1 DUP2 ISZERO MUL SWAP1 PUSH1 0x40 MLOAD PUSH1 0x0 PUSH1 0x40 MLOAD DUP1 DUP4 SUB DUP2 DUP6 DUP9 DUP9 CALL SWAP4 POP POP POP POP ISZERO ISZERO EQ PUSH2 0x1887 JUMPI PUSH1 0x13 PUSH1 0x0 SWAP1 SLOAD SWAP1 PUSH2 0x100 EXP SWAP1 DIV PUSH20 0xFFFFFFFFFFFFFFFFFFFFFFFFFFFFFFFFFFFFFFFF AND PUSH20 0xFFFFFFFFFFFFFFFFFFFFFFFFFFFFFFFFFFFFFFFF AND DUP3 PUSH20 0xFFFFFFFFFFFFFFFFFFFFFFFFFFFFFFFFFFFFFFFF AND SUB PUSH2 0x187A JUMPI DUP1 PUSH1 0x15 DUP2 SWAP1 SSTORE POP PUSH2 0x1882 JUMP JUMPDEST DUP1 PUSH1 0x16 DUP2 SWAP1 SSTORE POP JUMPDEST PUSH2 0x18C1 JUMP JUMPDEST PUSH32 0x2A44162A2D5223E37CACACC3F626DCFEE1396E0BE3616534C5C7B718F786B673 DUP3 DUP3 PUSH1 0x40 MLOAD PUSH2 0x18B8 SWAP3 SWAP2 SWAP1 PUSH2 0x22F4 JUMP JUMPDEST PUSH1 0x40 MLOAD DUP1 SWAP2 SUB SWAP1 LOG1 JUMPDEST POP POP JUMP JUMPDEST PUSH1 0x0 DUP1 PUSH1 0x2 PUSH2 0x100 EXP DUP2 SLOAD DUP2 PUSH1 0xFF MUL NOT AND SWAP1 DUP4 ISZERO ISZERO MUL OR SWAP1 SSTORE POP PUSH32 0x2207D46A2BA0F2ACDA06E9A222B40FD004E385738B3F868E63B2C0BFE4BC094C PUSH1 0x40 MLOAD PUSH1 0x40 MLOAD DUP1 SWAP2 SUB SWAP1 LOG1 PUSH1 0x0 PUSH1 0x2 SELFBALANCE PUSH2 0x191A SWAP2 SWAP1 PUSH2 0x231D JUMP JUMPDEST SWAP1 POP PUSH1 0x0 ISZERO ISZERO PUSH1 0x13 PUSH1 0x0 SWAP1 SLOAD SWAP1 PUSH2 0x100 EXP SWAP1 DIV PUSH20 0xFFFFFFFFFFFFFFFFFFFFFFFFFFFFFFFFFFFFFFFF AND PUSH20 0xFFFFFFFFFFFFFFFFFFFFFFFFFFFFFFFFFFFFFFFF AND PUSH2 0x8FC DUP4 SWAP1 DUP2 ISZERO MUL SWAP1 PUSH1 0x40 MLOAD PUSH1 0x0 PUSH1 0x40 MLOAD DUP1 DUP4 SUB DUP2 DUP6 DUP9 DUP9 CALL SWAP4 POP POP POP POP ISZERO ISZERO SUB PUSH2 0x199C JUMPI DUP1 PUSH1 0x15 PUSH1 0x0 DUP3 DUP3 SLOAD PUSH2 0x1990 SWAP2 SWAP1 PUSH2 0x2023 JUMP JUMPDEST SWAP3 POP POP DUP2 SWAP1 SSTORE POP PUSH2 0x19F8 JUMP JUMPDEST PUSH32 0x2A44162A2D5223E37CACACC3F626DCFEE1396E0BE3616534C5C7B718F786B673 PUSH1 0x13 PUSH1 0x0 SWAP1 SLOAD SWAP1 PUSH2 0x100 EXP SWAP1 DIV PUSH20 0xFFFFFFFFFFFFFFFFFFFFFFFFFFFFFFFFFFFFFFFF AND DUP3 PUSH1 0x40 MLOAD PUSH2 0x19EF SWAP3 SWAP2 SWAP1 PUSH2 0x22F4 JUMP JUMPDEST PUSH1 0x40 MLOAD DUP1 SWAP2 SUB SWAP1 LOG1 JUMPDEST PUSH1 0x0 ISZERO ISZERO PUSH1 0x14 PUSH1 0x0 SWAP1 SLOAD SWAP1 PUSH2 0x100 EXP SWAP1 DIV PUSH20 0xFFFFFFFFFFFFFFFFFFFFFFFFFFFFFFFFFFFFFFFF AND PUSH20 0xFFFFFFFFFFFFFFFFFFFFFFFFFFFFFFFFFFFFFFFF AND PUSH2 0x8FC DUP4 SWAP1 DUP2 ISZERO MUL SWAP1 PUSH1 0x40 MLOAD PUSH1 0x0 PUSH1 0x40 MLOAD DUP1 DUP4 SUB DUP2 DUP6 DUP9 DUP9 CALL SWAP4 POP POP POP POP ISZERO ISZERO SUB PUSH2 0x1A78 JUMPI DUP1 PUSH1 0x16 PUSH1 0x0 DUP3 DUP3 SLOAD PUSH2 0x1A6C SWAP2 SWAP1 PUSH2 0x2023 JUMP JUMPDEST SWAP3 POP POP DUP2 SWAP1 SSTORE POP PUSH2 0x1AD4 JUMP JUMPDEST PUSH32 0x2A44162A2D5223E37CACACC3F626DCFEE1396E0BE3616534C5C7B718F786B673 PUSH1 0x14 PUSH1 0x0 SWAP1 SLOAD SWAP1 PUSH2 0x100 EXP SWAP1 DIV PUSH20 0xFFFFFFFFFFFFFFFFFFFFFFFFFFFFFFFFFFFFFFFF AND DUP3 PUSH1 0x40 MLOAD PUSH2 0x1ACB SWAP3 SWAP2 SWAP1 PUSH2 0x22F4 JUMP JUMPDEST PUSH1 0x40 MLOAD DUP1 SWAP2 SUB SWAP1 LOG1 JUMPDEST POP JUMP JUMPDEST PUSH1 0x40 MLOAD DUP1 PUSH1 0x60 ADD PUSH1 0x40 MSTORE DUP1 PUSH1 0x3 SWAP1 JUMPDEST PUSH2 0x1AEE PUSH2 0x1B53 JUMP JUMPDEST DUP2 MSTORE PUSH1 0x20 ADD SWAP1 PUSH1 0x1 SWAP1 SUB SWAP1 DUP2 PUSH2 0x1AE6 JUMPI SWAP1 POP POP SWAP1 JUMP JUMPDEST DUP3 PUSH1 0x3 DUP1 MUL DUP2 ADD SWAP3 DUP3 ISZERO PUSH2 0x1B42 JUMPI SWAP2 PUSH1 0x3 MUL DUP3 ADD JUMPDEST DUP3 DUP2 GT ISZERO PUSH2 0x1B41 JUMPI DUP3 DUP3 SWAP1 PUSH1 0x3 PUSH2 0x1B31 SWAP3 SWAP2 SWAP1 PUSH2 0x1B75 JUMP JUMPDEST POP SWAP2 PUSH1 0x3 ADD SWAP2 SWAP1 PUSH1 0x3 ADD SWAP1 PUSH2 0x1B19 JUMP JUMPDEST JUMPDEST POP SWAP1 POP PUSH2 0x1B4F SWAP2 SWAP1 PUSH2 0x1BB2 JUMP JUMPDEST POP SWAP1 JUMP JUMPDEST PUSH1 0x40 MLOAD DUP1 PUSH1 0x60 ADD PUSH1 0x40 MSTORE DUP1 PUSH1 0x3 SWAP1 PUSH1 0x20 DUP3 MUL DUP1 CALLDATASIZE DUP4 CALLDATACOPY DUP1 DUP3 ADD SWAP2 POP POP SWAP1 POP POP SWAP1 JUMP JUMPDEST DUP3 PUSH1 0x3 DUP2 ADD SWAP3 DUP3 ISZERO PUSH2 0x1BA1 JUMPI SWAP2 DUP3 ADD JUMPDEST DUP3 DUP2 GT ISZERO PUSH2 0x1BA0 JUMPI DUP3 SLOAD DUP3 SSTORE SWAP2 PUSH1 0x1 ADD SWAP2 SWAP1 PUSH1 0x1 ADD SWAP1 PUSH2 0x1B85 JUMP JUMPDEST JUMPDEST POP SWAP1 POP PUSH2 0x1BAE SWAP2 SWAP1 PUSH2 0x1BD6 JUMP JUMPDEST POP SWAP1 JUMP JUMPDEST JUMPDEST DUP1 DUP3 GT ISZERO PUSH2 0x1BD2 JUMPI PUSH1 0x0 DUP2 DUP2 PUSH2 0x1BC9 SWAP2 SWAP1 PUSH2 0x1BF3 JUMP JUMPDEST POP PUSH1 0x3 ADD PUSH2 0x1BB3 JUMP JUMPDEST POP SWAP1 JUMP JUMPDEST JUMPDEST DUP1 DUP3 GT ISZERO PUSH2 0x1BEF JUMPI PUSH1 0x0 DUP2 PUSH1 0x0 SWAP1 SSTORE POP PUSH1 0x1 ADD PUSH2 0x1BD7 JUMP JUMPDEST POP SWAP1 JUMP JUMPDEST POP PUSH1 0x0 DUP2 SSTORE PUSH1 0x1 ADD PUSH1 0x0 DUP2 SSTORE PUSH1 0x1 ADD PUSH1 0x0 SWAP1 SSTORE JUMP JUMPDEST PUSH1 0x0 DUP2 SWAP1 POP SWAP2 SWAP1 POP JUMP JUMPDEST PUSH2 0x1C1B DUP2 PUSH2 0x1C08 JUMP JUMPDEST DUP3 MSTORE POP POP JUMP JUMPDEST PUSH1 0x0 PUSH1 0x20 DUP3 ADD SWAP1 POP PUSH2 0x1C36 PUSH1 0x0 DUP4 ADD DUP5 PUSH2 0x1C12 JUMP JUMPDEST SWAP3 SWAP2 POP POP JUMP JUMPDEST PUSH1 0x0 PUSH1 0xFF DUP3 AND SWAP1 POP SWAP2 SWAP1 POP JUMP JUMPDEST PUSH2 0x1C52 DUP2 PUSH2 0x1C3C JUMP JUMPDEST DUP3 MSTORE POP POP JUMP JUMPDEST PUSH1 0x0 PUSH1 0x20 DUP3 ADD SWAP1 POP PUSH2 0x1C6D PUSH1 0x0 DUP4 ADD DUP5 PUSH2 0x1C49 JUMP JUMPDEST SWAP3 SWAP2 POP POP JUMP JUMPDEST PUSH1 0x0 PUSH1 0x3 SWAP1 POP SWAP2 SWAP1 POP JUMP JUMPDEST PUSH1 0x0 DUP2 SWAP1 POP SWAP3 SWAP2 POP POP JUMP JUMPDEST PUSH1 0x0 DUP2 SWAP1 POP SWAP2 SWAP1 POP JUMP JUMPDEST PUSH1 0x0 PUSH1 0x3 SWAP1 POP SWAP2 SWAP1 POP JUMP JUMPDEST PUSH1 0x0 DUP2 SWAP1 POP SWAP3 SWAP2 POP POP JUMP JUMPDEST PUSH1 0x0 DUP2 SWAP1 POP SWAP2 SWAP1 POP JUMP JUMPDEST PUSH1 0x0 PUSH20 0xFFFFFFFFFFFFFFFFFFFFFFFFFFFFFFFFFFFFFFFF DUP3 AND SWAP1 POP SWAP2 SWAP1 POP JUMP JUMPDEST PUSH1 0x0 PUSH2 0x1CDE DUP3 PUSH2 0x1CB3 JUMP JUMPDEST SWAP1 POP SWAP2 SWAP1 POP JUMP JUMPDEST PUSH2 0x1CEE DUP2 PUSH2 0x1CD3 JUMP JUMPDEST DUP3 MSTORE POP POP JUMP JUMPDEST PUSH1 0x0 PUSH2 0x1D00 DUP4 DUP4 PUSH2 0x1CE5 JUMP JUMPDEST PUSH1 0x20 DUP4 ADD SWAP1 POP SWAP3 SWAP2 POP POP JUMP JUMPDEST PUSH1 0x0 PUSH1 0x20 DUP3 ADD SWAP1 POP SWAP2 SWAP1 POP JUMP JUMPDEST PUSH2 0x1D22 DUP2 PUSH2 0x1C93 JUMP JUMPDEST PUSH2 0x1D2C DUP2 DUP5 PUSH2 0x1C9E JUMP JUMPDEST SWAP3 POP PUSH2 0x1D37 DUP3 PUSH2 0x1CA9 JUMP JUMPDEST DUP1 PUSH1 0x0 JUMPDEST DUP4 DUP2 LT ISZERO PUSH2 0x1D68 JUMPI DUP2 MLOAD PUSH2 0x1D4F DUP8 DUP3 PUSH2 0x1CF4 JUMP JUMPDEST SWAP7 POP PUSH2 0x1D5A DUP4 PUSH2 0x1D0C JUMP JUMPDEST SWAP3 POP POP PUSH1 0x1 DUP2 ADD SWAP1 POP PUSH2 0x1D3B JUMP JUMPDEST POP POP POP POP POP POP JUMP JUMPDEST PUSH1 0x0 PUSH2 0x1D7C DUP4 DUP4 PUSH2 0x1D19 JUMP JUMPDEST PUSH1 0x60 DUP4 ADD SWAP1 POP SWAP3 SWAP2 POP POP JUMP JUMPDEST PUSH1 0x0 PUSH1 0x20 DUP3 ADD SWAP1 POP SWAP2 SWAP1 POP JUMP JUMPDEST PUSH2 0x1D9E DUP2 PUSH2 0x1C73 JUMP JUMPDEST PUSH2 0x1DA8 DUP2 DUP5 PUSH2 0x1C7E JUMP JUMPDEST SWAP3 POP PUSH2 0x1DB3 DUP3 PUSH2 0x1C89 JUMP JUMPDEST DUP1 PUSH1 0x0 JUMPDEST DUP4 DUP2 LT ISZERO PUSH2 0x1DE4 JUMPI DUP2 MLOAD PUSH2 0x1DCB DUP8 DUP3 PUSH2 0x1D70 JUMP JUMPDEST SWAP7 POP PUSH2 0x1DD6 DUP4 PUSH2 0x1D88 JUMP JUMPDEST SWAP3 POP POP PUSH1 0x1 DUP2 ADD SWAP1 POP PUSH2 0x1DB7 JUMP JUMPDEST POP POP POP POP POP POP JUMP JUMPDEST PUSH1 0x0 PUSH2 0x120 DUP3 ADD SWAP1 POP PUSH2 0x1E02 PUSH1 0x0 DUP4 ADD DUP5 PUSH2 0x1D95 JUMP JUMPDEST SWAP3 SWAP2 POP POP JUMP JUMPDEST PUSH1 0x0 PUSH2 0x1E13 DUP3 PUSH2 0x1CB3 JUMP JUMPDEST SWAP1 POP SWAP2 SWAP1 POP JUMP JUMPDEST PUSH2 0x1E23 DUP2 PUSH2 0x1E08 JUMP JUMPDEST DUP3 MSTORE POP POP JUMP JUMPDEST PUSH1 0x0 PUSH1 0x20 DUP3 ADD SWAP1 POP PUSH2 0x1E3E PUSH1 0x0 DUP4 ADD DUP5 PUSH2 0x1E1A JUMP JUMPDEST SWAP3 SWAP2 POP POP JUMP JUMPDEST PUSH1 0x0 DUP1 REVERT JUMPDEST PUSH2 0x1E52 DUP2 PUSH2 0x1C3C JUMP JUMPDEST DUP2 EQ PUSH2 0x1E5D JUMPI PUSH1 0x0 DUP1 REVERT JUMPDEST POP JUMP JUMPDEST PUSH1 0x0 DUP2 CALLDATALOAD SWAP1 POP PUSH2 0x1E6F DUP2 PUSH2 0x1E49 JUMP JUMPDEST SWAP3 SWAP2 POP POP JUMP JUMPDEST PUSH1 0x0 DUP1 PUSH1 0x40 DUP4 DUP6 SUB SLT ISZERO PUSH2 0x1E8C JUMPI PUSH2 0x1E8B PUSH2 0x1E44 JUMP JUMPDEST JUMPDEST PUSH1 0x0 PUSH2 0x1E9A DUP6 DUP3 DUP7 ADD PUSH2 0x1E60 JUMP JUMPDEST SWAP3 POP POP PUSH1 0x20 PUSH2 0x1EAB DUP6 DUP3 DUP7 ADD PUSH2 0x1E60 JUMP JUMPDEST SWAP2 POP POP SWAP3 POP SWAP3 SWAP1 POP JUMP JUMPDEST PUSH1 0x0 DUP2 ISZERO ISZERO SWAP1 POP SWAP2 SWAP1 POP JUMP JUMPDEST PUSH2 0x1ECA DUP2 PUSH2 0x1EB5 JUMP JUMPDEST DUP3 MSTORE POP POP JUMP JUMPDEST PUSH1 0x0 PUSH1 0x20 DUP3 ADD SWAP1 POP PUSH2 0x1EE5 PUSH1 0x0 DUP4 ADD DUP5 PUSH2 0x1EC1 JUMP JUMPDEST SWAP3 SWAP2 POP POP JUMP JUMPDEST PUSH32 0x4E487B7100000000000000000000000000000000000000000000000000000000 PUSH1 0x0 MSTORE PUSH1 0x1 PUSH1 0x4 MSTORE PUSH1 0x24 PUSH1 0x0 REVERT JUMPDEST PUSH1 0x0 DUP2 SWAP1 POP SWAP2 SWAP1 POP JUMP JUMPDEST PUSH1 0x0 PUSH2 0x1F3F PUSH2 0x1F3A PUSH2 0x1F35 DUP5 PUSH2 0x1CB3 JUMP JUMPDEST PUSH2 0x1F1A JUMP JUMPDEST PUSH2 0x1CB3 JUMP JUMPDEST SWAP1 POP SWAP2 SWAP1 POP JUMP JUMPDEST PUSH1 0x0 PUSH2 0x1F51 DUP3 PUSH2 0x1F24 JUMP JUMPDEST SWAP1 POP SWAP2 SWAP1 POP JUMP JUMPDEST PUSH1 0x0 PUSH2 0x1F63 DUP3 PUSH2 0x1F46 JUMP JUMPDEST SWAP1 POP SWAP2 SWAP1 POP JUMP JUMPDEST PUSH2 0x1F73 DUP2 PUSH2 0x1F58 JUMP JUMPDEST DUP3 MSTORE POP POP JUMP JUMPDEST PUSH1 0x0 PUSH1 0x20 DUP3 ADD SWAP1 POP PUSH2 0x1F8E PUSH1 0x0 DUP4 ADD DUP5 PUSH2 0x1F6A JUMP JUMPDEST SWAP3 SWAP2 POP POP JUMP JUMPDEST PUSH32 0x4E487B7100000000000000000000000000000000000000000000000000000000 PUSH1 0x0 MSTORE PUSH1 0x12 PUSH1 0x4 MSTORE PUSH1 0x24 PUSH1 0x0 REVERT JUMPDEST PUSH1 0x0 PUSH2 0x1FCE DUP3 PUSH2 0x1C08 JUMP JUMPDEST SWAP2 POP PUSH2 0x1FD9 DUP4 PUSH2 0x1C08 JUMP JUMPDEST SWAP3 POP DUP3 PUSH2 0x1FE9 JUMPI PUSH2 0x1FE8 PUSH2 0x1F94 JUMP JUMPDEST JUMPDEST DUP3 DUP3 MOD SWAP1 POP SWAP3 SWAP2 POP POP JUMP JUMPDEST PUSH32 0x4E487B7100000000000000000000000000000000000000000000000000000000 PUSH1 0x0 MSTORE PUSH1 0x11 PUSH1 0x4 MSTORE PUSH1 0x24 PUSH1 0x0 REVERT JUMPDEST PUSH1 0x0 PUSH2 0x202E DUP3 PUSH2 0x1C08 JUMP JUMPDEST SWAP2 POP PUSH2 0x2039 DUP4 PUSH2 0x1C08 JUMP JUMPDEST SWAP3 POP DUP3 DUP3 ADD SWAP1 POP DUP1 DUP3 GT ISZERO PUSH2 0x2051 JUMPI PUSH2 0x2050 PUSH2 0x1FF4 JUMP JUMPDEST JUMPDEST SWAP3 SWAP2 POP POP JUMP JUMPDEST PUSH32 0x4E487B7100000000000000000000000000000000000000000000000000000000 PUSH1 0x0 MSTORE PUSH1 0x32 PUSH1 0x4 MSTORE PUSH1 0x24 PUSH1 0x0 REVERT JUMPDEST PUSH1 0x0 PUSH2 0x2091 DUP3 PUSH2 0x1C3C JUMP JUMPDEST SWAP2 POP PUSH1 0xFF DUP3 SUB PUSH2 0x20A4 JUMPI PUSH2 0x20A3 PUSH2 0x1FF4 JUMP JUMPDEST JUMPDEST PUSH1 0x1 DUP3 ADD SWAP1 POP SWAP2 SWAP1 POP JUMP JUMPDEST PUSH1 0x0 PUSH2 0x20BA DUP3 PUSH2 0x1C3C JUMP JUMPDEST SWAP2 POP PUSH2 0x20C5 DUP4 PUSH2 0x1C3C JUMP JUMPDEST SWAP3 POP DUP3 DUP3 SUB SWAP1 POP PUSH1 0xFF DUP2 GT ISZERO PUSH2 0x20DE JUMPI PUSH2 0x20DD PUSH2 0x1FF4 JUMP JUMPDEST JUMPDEST SWAP3 SWAP2 POP POP JUMP JUMPDEST PUSH1 0x0 PUSH2 0x20EF DUP3 PUSH2 0x1C08 JUMP JUMPDEST SWAP2 POP PUSH32 0xFFFFFFFFFFFFFFFFFFFFFFFFFFFFFFFFFFFFFFFFFFFFFFFFFFFFFFFFFFFFFFFF DUP3 SUB PUSH2 0x2121 JUMPI PUSH2 0x2120 PUSH2 0x1FF4 JUMP JUMPDEST JUMPDEST PUSH1 0x1 DUP3 ADD SWAP1 POP SWAP2 SWAP1 POP JUMP JUMPDEST PUSH1 0x0 PUSH2 0x2137 DUP3 PUSH2 0x1C3C JUMP JUMPDEST SWAP2 POP PUSH2 0x2142 DUP4 PUSH2 0x1C3C JUMP JUMPDEST SWAP3 POP DUP3 DUP3 ADD SWAP1 POP PUSH1 0xFF DUP2 GT ISZERO PUSH2 0x215B JUMPI PUSH2 0x215A PUSH2 0x1FF4 JUMP JUMPDEST JUMPDEST SWAP3 SWAP2 POP POP JUMP JUMPDEST PUSH1 0x0 PUSH2 0x216C DUP3 PUSH2 0x1C08 JUMP JUMPDEST SWAP2 POP PUSH2 0x2177 DUP4 PUSH2 0x1C08 JUMP JUMPDEST SWAP3 POP DUP3 DUP3 SUB SWAP1 POP DUP2 DUP2 GT ISZERO PUSH2 0x218F JUMPI PUSH2 0x218E PUSH2 0x1FF4 JUMP JUMPDEST JUMPDEST SWAP3 SWAP2 POP POP JUMP JUMPDEST PUSH1 0x0 DUP2 PUSH1 0x1 SHR SWAP1 POP SWAP2 SWAP1 POP JUMP JUMPDEST PUSH1 0x0 DUP1 DUP3 SWAP2 POP DUP4 SWAP1 POP JUMPDEST PUSH1 0x1 DUP6 GT ISZERO PUSH2 0x21EC JUMPI DUP1 DUP7 DIV DUP2 GT ISZERO PUSH2 0x21C8 JUMPI PUSH2 0x21C7 PUSH2 0x1FF4 JUMP JUMPDEST JUMPDEST PUSH1 0x1 DUP6 AND ISZERO PUSH2 0x21D7 JUMPI DUP1 DUP3 MUL SWAP2 POP JUMPDEST DUP1 DUP2 MUL SWAP1 POP PUSH2 0x21E5 DUP6 PUSH2 0x2195 JUMP JUMPDEST SWAP5 POP PUSH2 0x21AC JUMP JUMPDEST SWAP5 POP SWAP5 SWAP3 POP POP POP JUMP JUMPDEST PUSH1 0x0 DUP3 PUSH2 0x2205 JUMPI PUSH1 0x1 SWAP1 POP PUSH2 0x22C1 JUMP JUMPDEST DUP2 PUSH2 0x2213 JUMPI PUSH1 0x0 SWAP1 POP PUSH2 0x22C1 JUMP JUMPDEST DUP2 PUSH1 0x1 DUP2 EQ PUSH2 0x2229 JUMPI PUSH1 0x2 DUP2 EQ PUSH2 0x2233 JUMPI PUSH2 0x2262 JUMP JUMPDEST PUSH1 0x1 SWAP2 POP POP PUSH2 0x22C1 JUMP JUMPDEST PUSH1 0xFF DUP5 GT ISZERO PUSH2 0x2245 JUMPI PUSH2 0x2244 PUSH2 0x1FF4 JUMP JUMPDEST JUMPDEST DUP4 PUSH1 0x2 EXP SWAP2 POP DUP5 DUP3 GT ISZERO PUSH2 0x225C JUMPI PUSH2 0x225B PUSH2 0x1FF4 JUMP JUMPDEST JUMPDEST POP PUSH2 0x22C1 JUMP JUMPDEST POP PUSH1 0x20 DUP4 LT PUSH2 0x133 DUP4 LT AND PUSH1 0x4E DUP5 LT PUSH1 0xB DUP5 LT AND OR ISZERO PUSH2 0x2297 JUMPI DUP3 DUP3 EXP SWAP1 POP DUP4 DUP2 GT ISZERO PUSH2 0x2292 JUMPI PUSH2 0x2291 PUSH2 0x1FF4 JUMP JUMPDEST JUMPDEST PUSH2 0x22C1 JUMP JUMPDEST PUSH2 0x22A4 DUP5 DUP5 DUP5 PUSH1 0x1 PUSH2 0x21A2 JUMP JUMPDEST SWAP3 POP SWAP1 POP DUP2 DUP5 DIV DUP2 GT ISZERO PUSH2 0x22BB JUMPI PUSH2 0x22BA PUSH2 0x1FF4 JUMP JUMPDEST JUMPDEST DUP2 DUP2 MUL SWAP1 POP JUMPDEST SWAP4 SWAP3 POP POP POP JUMP JUMPDEST PUSH1 0x0 PUSH2 0x22D3 DUP3 PUSH2 0x1C3C JUMP JUMPDEST SWAP2 POP PUSH2 0x22DE DUP4 PUSH2 0x1C3C JUMP JUMPDEST SWAP3 POP PUSH2 0x22EC PUSH1 0xFF DUP5 DUP5 PUSH2 0x21F5 JUMP JUMPDEST SWAP1 POP SWAP3 SWAP2 POP POP JUMP JUMPDEST PUSH1 0x0 PUSH1 0x40 DUP3 ADD SWAP1 POP PUSH2 0x2309 PUSH1 0x0 DUP4 ADD DUP6 PUSH2 0x1F6A JUMP JUMPDEST PUSH2 0x2316 PUSH1 0x20 DUP4 ADD DUP5 PUSH2 0x1C12 JUMP JUMPDEST SWAP4 SWAP3 POP POP POP JUMP JUMPDEST PUSH1 0x0 PUSH2 0x2328 DUP3 PUSH2 0x1C08 JUMP JUMPDEST SWAP2 POP PUSH2 0x2333 DUP4 PUSH2 0x1C08 JUMP JUMPDEST SWAP3 POP DUP3 PUSH2 0x2343 JUMPI PUSH2 0x2342 PUSH2 0x1F94 JUMP JUMPDEST JUMPDEST DUP3 DUP3 DIV SWAP1 POP SWAP3 SWAP2 POP POP JUMP INVALID LOG2 PUSH5 0x6970667358 0x22 SLT KECCAK256 DUP10 0xB2 0x2F SSTORE RETURNDATACOPY 0xD0 PUSH1 0xF4 DUP10 ISZERO 0xE3 GT 0xC2 ADD 0xCF 0xEE SELFDESTRUCT LOG0 RETURNDATACOPY BYTE PUSH13 0x5D9AE7ED4738DE363BC9FA6473 PUSH16 0x6C634300081100330000000000000000 "
				},
				"gasEstimates": {
					"creation": {
						"codeDepositCost": "1818400",
						"executionCost": "infinite",
						"totalCost": "infinite"
					},
					"external": {
						"activePlayer()": "2625",
						"balanceToWithdrawPlayer1()": "2453",
						"balanceToWithdrawPlayer2()": "2475",
						"boardSize()": "2535",
						"emergecyCashout()": "infinite",
						"gameActive()": "2609",
						"gameCost()": "351",
						"gameValidUntil()": "2452",
						"getBoard()": "infinite",
						"joinGameasPlayer1()": "infinite",
						"joinGameasPlayer2()": "infinite",
						"movesCounter()": "2589",
						"player1()": "2558",
						"player2()": "2559",
						"resetGame()": "infinite",
						"setStone(uint8,uint8)": "infinite",
						"timeToReact()": "2452",
						"withdrawWin()": "infinite"
					},
					"internal": {
						"setDraw()": "infinite",
						"setWinner(address payable)": "infinite"
					}
				},
				"methodIdentifiers": {
					"activePlayer()": "7fdffd23",
					"balanceToWithdrawPlayer1()": "0d8a5258",
					"balanceToWithdrawPlayer2()": "0f2f9868",
					"boardSize()": "c51d69f4",
					"emergecyCashout()": "ea40a2a2",
					"gameActive()": "f020044f",
					"gameCost()": "cab896dc",
					"gameValidUntil()": "47cc53ad",
					"getBoard()": "3264a34b",
					"joinGameasPlayer1()": "6c5c8df3",
					"joinGameasPlayer2()": "c95fe2ad",
					"movesCounter()": "15885694",
					"player1()": "d30895e4",
					"player2()": "59a5f12d",
					"resetGame()": "bb472219",
					"setStone(uint8,uint8)": "7d3f9074",
					"timeToReact()": "976306f0",
					"withdrawWin()": "fb815503"
				}
			},
			"storageLayout": {
				"storage": [
					{
						"astId": 7,
						"contract": "TicTacToe.sol:TicTacToe",
						"label": "boardSize",
						"offset": 0,
						"slot": "0",
						"type": "t_uint8"
					},
					{
						"astId": 9,
						"contract": "TicTacToe.sol:TicTacToe",
						"label": "movesCounter",
						"offset": 1,
						"slot": "0",
						"type": "t_uint8"
					},
					{
						"astId": 11,
						"contract": "TicTacToe.sol:TicTacToe",
						"label": "gameActive",
						"offset": 2,
						"slot": "0",
						"type": "t_bool"
					},
					{
						"astId": 17,
						"contract": "TicTacToe.sol:TicTacToe",
						"label": "board",
						"offset": 0,
						"slot": "1",
						"type": "t_array(t_array(t_address)3_storage)3_storage"
					},
					{
						"astId": 23,
						"contract": "TicTacToe.sol:TicTacToe",
						"label": "emptyBoard",
						"offset": 0,
						"slot": "10",
						"type": "t_array(t_array(t_address)3_storage)3_storage"
					},
					{
						"astId": 25,
						"contract": "TicTacToe.sol:TicTacToe",
						"label": "player1",
						"offset": 0,
						"slot": "19",
						"type": "t_address_payable"
					},
					{
						"astId": 27,
						"contract": "TicTacToe.sol:TicTacToe",
						"label": "player2",
						"offset": 0,
						"slot": "20",
						"type": "t_address_payable"
					},
					{
						"astId": 29,
						"contract": "TicTacToe.sol:TicTacToe",
						"label": "balanceToWithdrawPlayer1",
						"offset": 0,
						"slot": "21",
						"type": "t_uint256"
					},
					{
						"astId": 31,
						"contract": "TicTacToe.sol:TicTacToe",
						"label": "balanceToWithdrawPlayer2",
						"offset": 0,
						"slot": "22",
						"type": "t_uint256"
					},
					{
						"astId": 34,
						"contract": "TicTacToe.sol:TicTacToe",
						"label": "timeToReact",
						"offset": 0,
						"slot": "23",
						"type": "t_uint256"
					},
					{
						"astId": 36,
						"contract": "TicTacToe.sol:TicTacToe",
						"label": "gameValidUntil",
						"offset": 0,
						"slot": "24",
						"type": "t_uint256"
					},
					{
						"astId": 38,
						"contract": "TicTacToe.sol:TicTacToe",
						"label": "activePlayer",
						"offset": 0,
						"slot": "25",
						"type": "t_address_payable"
					}
				],
				"types": {
					"t_address": {
						"encoding": "inplace",
						"label": "address",
						"numberOfBytes": "20"
					},
					"t_address_payable": {
						"encoding": "inplace",
						"label": "address payable",
						"numberOfBytes": "20"
					},
					"t_array(t_address)3_storage": {
						"base": "t_address",
						"encoding": "inplace",
						"label": "address[3]",
						"numberOfBytes": "96"
					},
					"t_array(t_array(t_address)3_storage)3_storage": {
						"base": "t_array(t_address)3_storage",
						"encoding": "inplace",
						"label": "address[3][3]",
						"numberOfBytes": "288"
					},
					"t_bool": {
						"encoding": "inplace",
						"label": "bool",
						"numberOfBytes": "1"
					},
					"t_uint256": {
						"encoding": "inplace",
						"label": "uint256",
						"numberOfBytes": "32"
					},
					"t_uint8": {
						"encoding": "inplace",
						"label": "uint8",
						"numberOfBytes": "1"
					}
				}
			},
			"userdoc": {
				"kind": "user",
				"methods": {},
				"version": 1
			}
		}
	}
}