{
  "contractName": "TicTacToe",
  "abi": [
    {
      "inputs": [],
      "stateMutability": "payable",
      "type": "constructor",
      "payable": true
    },
    {
      "anonymous": false,
      "inputs": [],
      "name": "GameOverWithDraw",
      "type": "event"
    },
    {
      "anonymous": false,
      "inputs": [
        {
          "indexed": false,
          "internalType": "address",
          "name": "winner",
          "type": "address"
        }
      ],
      "name": "GameOverWithWin",
      "type": "event"
    },
    {
      "anonymous": false,
      "inputs": [
        {
          "indexed": false,
          "internalType": "address",
          "name": "player",
          "type": "address"
        }
      ],
      "name": "NextPlayer",
      "type": "event"
    },
    {
      "anonymous": false,
      "inputs": [
        {
          "indexed": false,
          "internalType": "address",
          "name": "receiver",
          "type": "address"
        },
        {
          "indexed": false,
          "internalType": "uint256",
          "name": "amountInWei",
          "type": "uint256"
        }
      ],
      "name": "PayoutSuccess",
      "type": "event"
    },
    {
      "anonymous": false,
      "inputs": [
        {
          "indexed": false,
          "internalType": "address",
          "name": "player",
          "type": "address"
        }
      ],
      "name": "PlayerJoined",
      "type": "event"
    },
    {
      "inputs": [],
      "name": "activePlayer",
      "outputs": [
        {
          "internalType": "address payable",
          "name": "",
          "type": "address"
        }
      ],
      "stateMutability": "view",
      "type": "function",
      "constant": true
    },
    {
      "inputs": [],
      "name": "balanceToWithdrawPlayer1",
      "outputs": [
        {
          "internalType": "uint256",
          "name": "",
          "type": "uint256"
        }
      ],
      "stateMutability": "view",
      "type": "function",
      "constant": true
    },
    {
      "inputs": [],
      "name": "balanceToWithdrawPlayer2",
      "outputs": [
        {
          "internalType": "uint256",
          "name": "",
          "type": "uint256"
        }
      ],
      "stateMutability": "view",
      "type": "function",
      "constant": true
    },
    {
      "inputs": [],
      "name": "boardSize",
      "outputs": [
        {
          "internalType": "uint8",
          "name": "",
          "type": "uint8"
        }
      ],
      "stateMutability": "view",
      "type": "function",
      "constant": true
    },
    {
      "inputs": [],
      "name": "gameActive",
      "outputs": [
        {
          "internalType": "bool",
          "name": "",
          "type": "bool"
        }
      ],
      "stateMutability": "view",
      "type": "function",
      "constant": true
    },
    {
      "inputs": [],
      "name": "gameCost",
      "outputs": [
        {
          "internalType": "uint256",
          "name": "",
          "type": "uint256"
        }
      ],
      "stateMutability": "view",
      "type": "function",
      "constant": true
    },
    {
      "inputs": [],
      "name": "gameValidUntil",
      "outputs": [
        {
          "internalType": "uint256",
          "name": "",
          "type": "uint256"
        }
      ],
      "stateMutability": "view",
      "type": "function",
      "constant": true
    },
    {
      "inputs": [],
      "name": "movesCounter",
      "outputs": [
        {
          "internalType": "uint8",
          "name": "",
          "type": "uint8"
        }
      ],
      "stateMutability": "view",
      "type": "function",
      "constant": true
    },
    {
      "inputs": [],
      "name": "player1",
      "outputs": [
        {
          "internalType": "address payable",
          "name": "",
          "type": "address"
        }
      ],
      "stateMutability": "view",
      "type": "function",
      "constant": true
    },
    {
      "inputs": [],
      "name": "player2",
      "outputs": [
        {
          "internalType": "address payable",
          "name": "",
          "type": "address"
        }
      ],
      "stateMutability": "view",
      "type": "function",
      "constant": true
    },
    {
      "inputs": [],
      "name": "timeToReact",
      "outputs": [
        {
          "internalType": "uint256",
          "name": "",
          "type": "uint256"
        }
      ],
      "stateMutability": "view",
      "type": "function",
      "constant": true
    },
    {
      "inputs": [],
      "name": "joinGameasPlayer1",
      "outputs": [],
      "stateMutability": "payable",
      "type": "function",
      "payable": true
    },
    {
      "inputs": [],
      "name": "joinGameasPlayer2",
      "outputs": [],
      "stateMutability": "payable",
      "type": "function",
      "payable": true
    },
    {
      "inputs": [],
      "name": "getBoard",
      "outputs": [
        {
          "internalType": "address[3][3]",
          "name": "",
          "type": "address[3][3]"
        }
      ],
      "stateMutability": "view",
      "type": "function",
      "constant": true
    },
    {
      "inputs": [],
      "name": "resetGame",
      "outputs": [],
      "stateMutability": "nonpayable",
      "type": "function"
    },
    {
      "inputs": [],
      "name": "withdrawWin",
      "outputs": [],
      "stateMutability": "nonpayable",
      "type": "function"
    },
    {
      "inputs": [],
      "name": "emergecyCashout",
      "outputs": [],
      "stateMutability": "nonpayable",
      "type": "function"
    },
    {
      "inputs": [
        {
          "internalType": "uint8",
          "name": "x",
          "type": "uint8"
        },
        {
          "internalType": "uint8",
          "name": "y",
          "type": "uint8"
        }
      ],
      "name": "setStone",
      "outputs": [],
      "stateMutability": "nonpayable",
      "type": "function"
    }
  ],
  "bytecode": "0x608060405260036000806101000a81548160ff021916908360ff1602179055506301e13380601755601754426200003791906200007c565b601881905550620000d9565b6000819050919050565b7f4e487b7100000000000000000000000000000000000000000000000000000000600052601160045260246000fd5b6000620000898262000043565b9150620000968362000043565b9250827fffffffffffffffffffffffffffffffffffffffffffffffffffffffffffffffff03821115620000ce57620000cd6200004d565b5b828201905092915050565b6123a780620000e96000396000f3fe6080604052600436106101095760003560e01c8063976306f011610095578063cab896dc11610064578063cab896dc146102e5578063d30895e414610310578063ea40a2a21461033b578063f020044f14610352578063fb8155031461037d57610109565b8063976306f01461026e578063bb47221914610299578063c51d69f4146102b0578063c95fe2ad146102db57610109565b806347cc53ad116100dc57806347cc53ad146101ba57806359a5f12d146101e55780636c5c8df3146102105780637d3f90741461021a5780637fdffd231461024357610109565b80630d8a52581461010e5780630f2f98681461013957806315885694146101645780633264a34b1461018f575b600080fd5b34801561011a57600080fd5b50610123610394565b6040516101309190611c21565b60405180910390f35b34801561014557600080fd5b5061014e61039a565b60405161015b9190611c21565b60405180910390f35b34801561017057600080fd5b506101796103a0565b6040516101869190611c58565b60405180910390f35b34801561019b57600080fd5b506101a46103b3565b6040516101b19190611dec565b60405180910390f35b3480156101c657600080fd5b506101cf61046c565b6040516101dc9190611c21565b60405180910390f35b3480156101f157600080fd5b506101fa610472565b6040516102079190611e29565b60405180910390f35b610218610498565b005b34801561022657600080fd5b50610241600480360381019061023c9190611e75565b610784565b005b34801561024f57600080fd5b5061025861107a565b6040516102659190611e29565b60405180910390f35b34801561027a57600080fd5b506102836110a0565b6040516102909190611c21565b60405180910390f35b3480156102a557600080fd5b506102ae6110a6565b005b3480156102bc57600080fd5b506102c56111f1565b6040516102d29190611c58565b60405180910390f35b6102e3611202565b005b3480156102f157600080fd5b506102fa6114ee565b6040516103079190611c21565b60405180910390f35b34801561031c57600080fd5b506103256114f9565b6040516103329190611e29565b60405180910390f35b34801561034757600080fd5b5061035061151f565b005b34801561035e57600080fd5b50610367611550565b6040516103749190611ed0565b60405180910390f35b34801561038957600080fd5b50610392611563565b005b60155481565b60165481565b600060019054906101000a900460ff1681565b6103bb611ad7565b6001600380602002604051908101604052809291906000905b828210156104635783826003020160038060200260405190810160405280929190826003801561044f576020028201915b8160009054906101000a900473ffffffffffffffffffffffffffffffffffffffff1673ffffffffffffffffffffffffffffffffffffffff1681526020019060010190808311610405575b5050505050815260200190600101906103d4565b50505050905090565b60185481565b601460009054906101000a900473ffffffffffffffffffffffffffffffffffffffff1681565b600073ffffffffffffffffffffffffffffffffffffffff16601360009054906101000a900473ffffffffffffffffffffffffffffffffffffffff1673ffffffffffffffffffffffffffffffffffffffff16146104f7576104f6611eeb565b5b600073ffffffffffffffffffffffffffffffffffffffff16601460009054906101000a900473ffffffffffffffffffffffffffffffffffffffff1673ffffffffffffffffffffffffffffffffffffffff161461056d576001600060026101000a81548160ff021916908315150217905550610588565b60008060026101000a81548160ff0219169083151502179055505b66038d7ea4c68000341461059b57600080fd5b33601360006101000a81548173ffffffffffffffffffffffffffffffffffffffff021916908373ffffffffffffffffffffffffffffffffffffffff1602179055507f31e760aa525306aba638a784082a013b6a1cc0a9a1789f3f22281c0453b10b1f601360009054906101000a900473ffffffffffffffffffffffffffffffffffffffff1660405161062d9190611f79565b60405180910390a160006002436106449190611fc3565b036106b157601460009054906101000a900473ffffffffffffffffffffffffffffffffffffffff16601960006101000a81548173ffffffffffffffffffffffffffffffffffffffff021916908373ffffffffffffffffffffffffffffffffffffffff160217905550610715565b601360009054906101000a900473ffffffffffffffffffffffffffffffffffffffff16601960006101000a81548173ffffffffffffffffffffffffffffffffffffffff021916908373ffffffffffffffffffffffffffffffffffffffff1602179055505b601754426107239190612023565b6018819055507f637351f91da430278368fb3e486c8c3da47b2e6ce4d28b2c404cb044702ca7e1601960009054906101000a900473ffffffffffffffffffffffffffffffffffffffff1660405161077a9190611f79565b60405180910390a1565b600073ffffffffffffffffffffffffffffffffffffffff1660018360ff16600381106107b3576107b2612079565b5b600302018260ff16600381106107cc576107cb612079565b5b0160009054906101000a900473ffffffffffffffffffffffffffffffffffffffff1673ffffffffffffffffffffffffffffffffffffffff161461080e57600080fd5b426018541161081c57600080fd5b600060029054906101000a900460ff1661083957610838611eeb565b5b60008054906101000a900460ff1660ff168260ff161061085c5761085b611eeb565b5b60008054906101000a900460ff1660ff168160ff161061087f5761087e611eeb565b5b601960009054906101000a900473ffffffffffffffffffffffffffffffffffffffff1673ffffffffffffffffffffffffffffffffffffffff163373ffffffffffffffffffffffffffffffffffffffff16146108d957600080fd5b3360018360ff16600381106108f1576108f0612079565b5b600302018260ff166003811061090a57610909612079565b5b0160006101000a81548173ffffffffffffffffffffffffffffffffffffffff021916908373ffffffffffffffffffffffffffffffffffffffff1602179055506000600181819054906101000a900460ff1680929190610968906120a8565b91906101000a81548160ff021916908360ff160217905550506017544261098f9190612023565b60188190555060005b60008054906101000a900460ff1660ff168160ff161015610ac357601960009054906101000a900473ffffffffffffffffffffffffffffffffffffffff1673ffffffffffffffffffffffffffffffffffffffff1660018260ff1660038110610a0357610a02612079565b5b600302018360ff1660038110610a1c57610a1b612079565b5b0160009054906101000a900473ffffffffffffffffffffffffffffffffffffffff1673ffffffffffffffffffffffffffffffffffffffff1603610ac357600160008054906101000a900460ff16610a7391906120d1565b60ff168160ff1603610ab057610aaa601960009054906101000a900473ffffffffffffffffffffffffffffffffffffffff16611783565b50611076565b8080610abb906120a8565b915050610998565b5060005b60008054906101000a900460ff1660ff16811015610be957601960009054906101000a900473ffffffffffffffffffffffffffffffffffffffff1673ffffffffffffffffffffffffffffffffffffffff1660018460ff1660038110610b2f57610b2e612079565b5b600302018260038110610b4557610b44612079565b5b0160009054906101000a900473ffffffffffffffffffffffffffffffffffffffff1673ffffffffffffffffffffffffffffffffffffffff1603610be957600160008054906101000a900460ff16610b9c91906120d1565b60ff168103610bd657610bd0601960009054906101000a900473ffffffffffffffffffffffffffffffffffffffff16611783565b50611076565b8080610be190612105565b915050610ac7565b508060ff168260ff1603610d1b5760005b60008054906101000a900460ff1660ff16811015610d1957601960009054906101000a900473ffffffffffffffffffffffffffffffffffffffff1673ffffffffffffffffffffffffffffffffffffffff1660018260038110610c5f57610c5e612079565b5b600302018260038110610c7557610c74612079565b5b0160009054906101000a900473ffffffffffffffffffffffffffffffffffffffff1673ffffffffffffffffffffffffffffffffffffffff1603610d1957600160008054906101000a900460ff16610ccc91906120d1565b60ff168103610d0657610d00601960009054906101000a900473ffffffffffffffffffffffffffffffffffffffff16611783565b50611076565b8080610d1190612105565b915050610bfa565b505b600160008054906101000a900460ff16610d3591906120d1565b60ff168183610d44919061214d565b60ff1603610e975760005b60008054906101000a900460ff1660ff16811015610e9557601960009054906101000a900473ffffffffffffffffffffffffffffffffffffffff1673ffffffffffffffffffffffffffffffffffffffff1660018260038110610db457610db3612079565b5b6003020182600160008054906101000a900460ff16610dd391906120d1565b60ff16610de09190612184565b60038110610df157610df0612079565b5b0160009054906101000a900473ffffffffffffffffffffffffffffffffffffffff1673ffffffffffffffffffffffffffffffffffffffff1603610e9557600160008054906101000a900460ff16610e4891906120d1565b60ff168103610e8257610e7c601960009054906101000a900473ffffffffffffffffffffffffffffffffffffffff16611783565b50611076565b8080610e8d90612105565b915050610d4f565b505b600260008054906101000a900460ff16610eb191906122eb565b60ff16600060019054906101000a900460ff1660ff1603610ed957610ed46118c5565b611076565b601360009054906101000a900473ffffffffffffffffffffffffffffffffffffffff1673ffffffffffffffffffffffffffffffffffffffff16601960009054906101000a900473ffffffffffffffffffffffffffffffffffffffff1673ffffffffffffffffffffffffffffffffffffffff1603610fb857601460009054906101000a900473ffffffffffffffffffffffffffffffffffffffff16601960006101000a81548173ffffffffffffffffffffffffffffffffffffffff021916908373ffffffffffffffffffffffffffffffffffffffff16021790555061101c565b601360009054906101000a900473ffffffffffffffffffffffffffffffffffffffff16601960006101000a81548173ffffffffffffffffffffffffffffffffffffffff021916908373ffffffffffffffffffffffffffffffffffffffff1602179055505b7f637351f91da430278368fb3e486c8c3da47b2e6ce4d28b2c404cb044702ca7e1601960009054906101000a900473ffffffffffffffffffffffffffffffffffffffff1660405161106d9190611f79565b60405180910390a15b5050565b601960009054906101000a900473ffffffffffffffffffffffffffffffffffffffff1681565b60175481565b601360009054906101000a900473ffffffffffffffffffffffffffffffffffffffff1673ffffffffffffffffffffffffffffffffffffffff163373ffffffffffffffffffffffffffffffffffffffff16148061114f5750601460009054906101000a900473ffffffffffffffffffffffffffffffffffffffff1673ffffffffffffffffffffffffffffffffffffffff163373ffffffffffffffffffffffffffffffffffffffff16145b61115857600080fd5b600a600190600361116a929190611b04565b506000601360006101000a81548173ffffffffffffffffffffffffffffffffffffffff021916908373ffffffffffffffffffffffffffffffffffffffff1602179055506000601460006101000a81548173ffffffffffffffffffffffffffffffffffffffff021916908373ffffffffffffffffffffffffffffffffffffffff160217905550565b60008054906101000a900460ff1681565b600073ffffffffffffffffffffffffffffffffffffffff16601460009054906101000a900473ffffffffffffffffffffffffffffffffffffffff1673ffffffffffffffffffffffffffffffffffffffff161461126157611260611eeb565b5b600073ffffffffffffffffffffffffffffffffffffffff16601360009054906101000a900473ffffffffffffffffffffffffffffffffffffffff1673ffffffffffffffffffffffffffffffffffffffff16146112d7576001600060026101000a81548160ff0219169083151502179055506112f2565b60008060026101000a81548160ff0219169083151502179055505b66038d7ea4c68000341461130557600080fd5b33601460006101000a81548173ffffffffffffffffffffffffffffffffffffffff021916908373ffffffffffffffffffffffffffffffffffffffff1602179055507f31e760aa525306aba638a784082a013b6a1cc0a9a1789f3f22281c0453b10b1f601460009054906101000a900473ffffffffffffffffffffffffffffffffffffffff166040516113979190611f79565b60405180910390a160006002436113ae9190611fc3565b0361141b57601460009054906101000a900473ffffffffffffffffffffffffffffffffffffffff16601960006101000a81548173ffffffffffffffffffffffffffffffffffffffff021916908373ffffffffffffffffffffffffffffffffffffffff16021790555061147f565b601360009054906101000a900473ffffffffffffffffffffffffffffffffffffffff16601960006101000a81548173ffffffffffffffffffffffffffffffffffffffff021916908373ffffffffffffffffffffffffffffffffffffffff1602179055505b6017544261148d9190612023565b6018819055507f637351f91da430278368fb3e486c8c3da47b2e6ce4d28b2c404cb044702ca7e1601960009054906101000a900473ffffffffffffffffffffffffffffffffffffffff166040516114e49190611f79565b60405180910390a1565b66038d7ea4c6800081565b601360009054906101000a900473ffffffffffffffffffffffffffffffffffffffff1681565b426018541061152d57600080fd5b600060029054906101000a900460ff1661154657600080fd5b61154e6118c5565b565b600060029054906101000a900460ff1681565b6000601360009054906101000a900473ffffffffffffffffffffffffffffffffffffffff1673ffffffffffffffffffffffffffffffffffffffff163373ffffffffffffffffffffffffffffffffffffffff160361169f576000601554116115c957600080fd5b60155490506000601581905550601360009054906101000a900473ffffffffffffffffffffffffffffffffffffffff1673ffffffffffffffffffffffffffffffffffffffff166108fc829081150290604051600060405180830381858888f1935050505015801561163e573d6000803e3d6000fd5b507f2a44162a2d5223e37cacacc3f626dcfee1396e0be3616534c5c7b718f786b673601360009054906101000a900473ffffffffffffffffffffffffffffffffffffffff1682604051611692929190612317565b60405180910390a1611780565b6000601654116116ae57600080fd5b60165490506000601681905550601460009054906101000a900473ffffffffffffffffffffffffffffffffffffffff1673ffffffffffffffffffffffffffffffffffffffff166108fc829081150290604051600060405180830381858888f19350505050158015611723573d6000803e3d6000fd5b507f2a44162a2d5223e37cacacc3f626dcfee1396e0be3616534c5c7b718f786b673601460009054906101000a900473ffffffffffffffffffffffffffffffffffffffff1682604051611777929190612317565b60405180910390a15b50565b60008060026101000a81548160ff0219169083151502179055507f8245a3876d42d9b0bdb7f24184c03fc24e3d8a079f492b1ec9ceae70b366edf9816040516117cc9190611f79565b60405180910390a16000479050600115158273ffffffffffffffffffffffffffffffffffffffff166108fc839081150290604051600060405180830381858888f1935050505015151461188757601360009054906101000a900473ffffffffffffffffffffffffffffffffffffffff1673ffffffffffffffffffffffffffffffffffffffff168273ffffffffffffffffffffffffffffffffffffffff160361187a5780601581905550611882565b806016819055505b6118c1565b7f2a44162a2d5223e37cacacc3f626dcfee1396e0be3616534c5c7b718f786b67382826040516118b8929190612317565b60405180910390a15b5050565b60008060026101000a81548160ff0219169083151502179055507f2207d46a2ba0f2acda06e9a222b40fd004e385738b3f868e63b2c0bfe4bc094c60405160405180910390a1600060024761191a9190612340565b905060001515601360009054906101000a900473ffffffffffffffffffffffffffffffffffffffff1673ffffffffffffffffffffffffffffffffffffffff166108fc839081150290604051600060405180830381858888f1935050505015150361199c5780601560008282546119909190612023565b925050819055506119f8565b7f2a44162a2d5223e37cacacc3f626dcfee1396e0be3616534c5c7b718f786b673601360009054906101000a900473ffffffffffffffffffffffffffffffffffffffff16826040516119ef929190612317565b60405180910390a15b60001515601460009054906101000a900473ffffffffffffffffffffffffffffffffffffffff1673ffffffffffffffffffffffffffffffffffffffff166108fc839081150290604051600060405180830381858888f19350505050151503611a78578060166000828254611a6c9190612023565b92505081905550611ad4565b7f2a44162a2d5223e37cacacc3f626dcfee1396e0be3616534c5c7b718f786b673601460009054906101000a900473ffffffffffffffffffffffffffffffffffffffff1682604051611acb929190612317565b60405180910390a15b50565b60405180606001604052806003905b611aee611b53565b815260200190600190039081611ae65790505090565b82600380028101928215611b42579160030282015b82811115611b41578282906003611b31929190611b75565b5091600301919060030190611b19565b5b509050611b4f9190611bb2565b5090565b6040518060600160405280600390602082028036833780820191505090505090565b8260038101928215611ba1579182015b82811115611ba0578254825591600101919060010190611b85565b5b509050611bae9190611bd6565b5090565b5b80821115611bd25760008181611bc99190611bf3565b50600301611bb3565b5090565b5b80821115611bef576000816000905550600101611bd7565b5090565b50600081556001016000815560010160009055565b6000819050919050565b611c1b81611c08565b82525050565b6000602082019050611c366000830184611c12565b92915050565b600060ff82169050919050565b611c5281611c3c565b82525050565b6000602082019050611c6d6000830184611c49565b92915050565b600060039050919050565b600081905092915050565b6000819050919050565b600060039050919050565b600081905092915050565b6000819050919050565b600073ffffffffffffffffffffffffffffffffffffffff82169050919050565b6000611cde82611cb3565b9050919050565b611cee81611cd3565b82525050565b6000611d008383611ce5565b60208301905092915050565b6000602082019050919050565b611d2281611c93565b611d2c8184611c9e565b9250611d3782611ca9565b8060005b83811015611d68578151611d4f8782611cf4565b9650611d5a83611d0c565b925050600181019050611d3b565b505050505050565b6000611d7c8383611d19565b60608301905092915050565b6000602082019050919050565b611d9e81611c73565b611da88184611c7e565b9250611db382611c89565b8060005b83811015611de4578151611dcb8782611d70565b9650611dd683611d88565b925050600181019050611db7565b505050505050565b600061012082019050611e026000830184611d95565b92915050565b6000611e1382611cb3565b9050919050565b611e2381611e08565b82525050565b6000602082019050611e3e6000830184611e1a565b92915050565b600080fd5b611e5281611c3c565b8114611e5d57600080fd5b50565b600081359050611e6f81611e49565b92915050565b60008060408385031215611e8c57611e8b611e44565b5b6000611e9a85828601611e60565b9250506020611eab85828601611e60565b9150509250929050565b60008115159050919050565b611eca81611eb5565b82525050565b6000602082019050611ee56000830184611ec1565b92915050565b7f4e487b7100000000000000000000000000000000000000000000000000000000600052600160045260246000fd5b6000819050919050565b6000611f3f611f3a611f3584611cb3565b611f1a565b611cb3565b9050919050565b6000611f5182611f24565b9050919050565b6000611f6382611f46565b9050919050565b611f7381611f58565b82525050565b6000602082019050611f8e6000830184611f6a565b92915050565b7f4e487b7100000000000000000000000000000000000000000000000000000000600052601260045260246000fd5b6000611fce82611c08565b9150611fd983611c08565b925082611fe957611fe8611f94565b5b828206905092915050565b7f4e487b7100000000000000000000000000000000000000000000000000000000600052601160045260246000fd5b600061202e82611c08565b915061203983611c08565b9250827fffffffffffffffffffffffffffffffffffffffffffffffffffffffffffffffff0382111561206e5761206d611ff4565b5b828201905092915050565b7f4e487b7100000000000000000000000000000000000000000000000000000000600052603260045260246000fd5b60006120b382611c3c565b915060ff82036120c6576120c5611ff4565b5b600182019050919050565b60006120dc82611c3c565b91506120e783611c3c565b9250828210156120fa576120f9611ff4565b5b828203905092915050565b600061211082611c08565b91507fffffffffffffffffffffffffffffffffffffffffffffffffffffffffffffffff820361214257612141611ff4565b5b600182019050919050565b600061215882611c3c565b915061216383611c3c565b92508260ff0382111561217957612178611ff4565b5b828201905092915050565b600061218f82611c08565b915061219a83611c08565b9250828210156121ad576121ac611ff4565b5b828203905092915050565b60008160011c9050919050565b6000808291508390505b600185111561220f578086048111156121eb576121ea611ff4565b5b60018516156121fa5780820291505b8081029050612208856121b8565b94506121cf565b94509492505050565b60008261222857600190506122e4565b8161223657600090506122e4565b816001811461224c576002811461225657612285565b60019150506122e4565b60ff84111561226857612267611ff4565b5b8360020a91508482111561227f5761227e611ff4565b5b506122e4565b5060208310610133831016604e8410600b84101617156122ba5782820a9050838111156122b5576122b4611ff4565b5b6122e4565b6122c784848460016121c5565b925090508184048111156122de576122dd611ff4565b5b81810290505b9392505050565b60006122f682611c3c565b915061230183611c3c565b925061230f60ff8484612218565b905092915050565b600060408201905061232c6000830185611f6a565b6123396020830184611c12565b9392505050565b600061234b82611c08565b915061235683611c08565b92508261236657612365611f94565b5b82820490509291505056fea26469706673582212203e1bdf580abe1ef45996e33c01d7f2d493eac0c17fc9d2bbfc40cf1140bca23864736f6c634300080e0033",
  "immutableReferences": {},
  "source": "// SPDX-License-Identifier: MIT\r\npragma solidity ^0.8.14;\r\n\r\ncontract TicTacToe {\r\n    uint constant public gameCost = 0.001 ether;\r\n    \r\n    uint8 public boardSize = 3;\r\n\r\n    uint8 public movesCounter;\r\n    \r\n    bool public gameActive;\r\n    \r\n    address[3][3] board;\r\n    address[3][3] emptyBoard;\r\n    \r\n    address payable public player1;\r\n    address payable public player2;\r\n\r\n    uint public balanceToWithdrawPlayer1;\r\n    uint public balanceToWithdrawPlayer2;\r\n\r\n    uint public timeToReact = 365 days;\r\n    uint public gameValidUntil;\r\n\r\n    address payable public activePlayer;\r\n\r\n    event PlayerJoined(address player);\r\n    event NextPlayer(address player);\r\n    event GameOverWithWin(address winner);\r\n    event GameOverWithDraw();\r\n    event PayoutSuccess(address receiver, uint amountInWei);\r\n\r\n    constructor() payable {\r\n        gameValidUntil = block.timestamp + timeToReact;\r\n    }\r\n\r\n    function joinGameasPlayer1() public payable {\r\n        assert(player1 == address(0));\r\n        if(player2 != address(0)){\r\n            gameActive = true;\r\n        }else{\r\n            gameActive = false;            \r\n        }\r\n\r\n        require(msg.value == gameCost);\r\n\r\n        player1 = payable(msg.sender);\r\n        emit PlayerJoined(player1);\r\n        if(block.number % 2 == 0) {\r\n            activePlayer = player2;\r\n        } else {\r\n            activePlayer = player1;\r\n        }\r\n\r\n        gameValidUntil = block.timestamp + timeToReact;\r\n\r\n        emit NextPlayer(activePlayer);\r\n    }\r\n\r\n    function joinGameasPlayer2() public payable {\r\n        assert(player2 == address(0));\r\n        if(player1 != address(0)){\r\n            gameActive = true;\r\n        }else{\r\n            gameActive = false;            \r\n        }\r\n\r\n        require(msg.value == gameCost);\r\n\r\n        player2 = payable(msg.sender);\r\n        emit PlayerJoined(player2);\r\n        if(block.number % 2 == 0) {\r\n            activePlayer = player2;\r\n        } else {\r\n            activePlayer = player1;\r\n        }\r\n\r\n        gameValidUntil = block.timestamp + timeToReact;\r\n\r\n        emit NextPlayer(activePlayer);\r\n    }\r\n\r\n    function getBoard() public view returns(address[3][3] memory) {\r\n        return board;\r\n    }\r\n\r\n    function resetGame() public {\r\n        require((msg.sender == player1)||(msg.sender == player2));\r\n        board = emptyBoard;\r\n        player1 = payable(address(0));\r\n        player2 = payable(address(0));\r\n    }\r\n\r\n    function setWinner(address payable player) private {\r\n        gameActive = false;\r\n        //emit an event\r\n        emit GameOverWithWin(player);\r\n        uint balanceToPayOut = address(this).balance;\r\n         /**\r\n        * In Real-World application consider removing the player.send part completely and let the player\r\n        * Withdraw the money later on!\r\n         */\r\n        if(player.send(balanceToPayOut) != true) {\r\n            if(player == player1) {\r\n                balanceToWithdrawPlayer1 = balanceToPayOut;\r\n            } else {\r\n                balanceToWithdrawPlayer2 = balanceToPayOut;\r\n            }\r\n        } else {\r\n            emit PayoutSuccess(player, balanceToPayOut);\r\n        }\r\n        //transfer money to the winner\r\n    }\r\n\r\n    function withdrawWin() public {\r\n      uint balanceToTransfer;\r\n        if(msg.sender == player1) {\r\n            require(balanceToWithdrawPlayer1 > 0);\r\n            balanceToTransfer = balanceToWithdrawPlayer1;\r\n            balanceToWithdrawPlayer1 = 0;\r\n            player1.transfer(balanceToTransfer);\r\n\r\n            emit PayoutSuccess(player1, balanceToTransfer);\r\n        } else {\r\n\r\n            require(balanceToWithdrawPlayer2 > 0);\r\n            balanceToTransfer = balanceToWithdrawPlayer2;\r\n            balanceToWithdrawPlayer2 = 0;\r\n            player2.transfer(balanceToTransfer);\r\n            emit PayoutSuccess(player2, balanceToTransfer);\r\n        }\r\n    }\r\n\r\n    function setDraw() private {\r\n        gameActive = false;\r\n        emit GameOverWithDraw();\r\n\r\n        uint balanceToPayOut = address(this).balance/2;\r\n\r\n        if(player1.send(balanceToPayOut) == false) {\r\n            balanceToWithdrawPlayer1 += balanceToPayOut;\r\n        } else {\r\n            emit PayoutSuccess(player1, balanceToPayOut);\r\n        }\r\n        if(player2.send(balanceToPayOut) == false) {\r\n            balanceToWithdrawPlayer2 += balanceToPayOut;\r\n        } else {\r\n            emit PayoutSuccess(player2, balanceToPayOut);\r\n        }\r\n\r\n    }\r\n\r\n    function emergecyCashout() public {\r\n        require(gameValidUntil < block.timestamp);\r\n        require(gameActive);\r\n        setDraw();\r\n    }\r\n\r\n\r\n    function setStone(uint8 x, uint8 y) public {\r\n        require(board[x][y] == address(0));\r\n        require(gameValidUntil > block.timestamp);\r\n        assert(gameActive);\r\n        assert(x < boardSize);\r\n        assert(y < boardSize);\r\n        require(msg.sender == activePlayer);\r\n        board[x][y] = msg.sender;\r\n        movesCounter++;\r\n        gameValidUntil = block.timestamp + timeToReact;\r\n\r\n        for(uint8 i = 0; i < boardSize; i++) {\r\n            if(board[i][y] != activePlayer) {\r\n                break;\r\n            }\r\n            //win\r\n            if(i == boardSize - 1) {\r\n                //winner\r\n                setWinner(activePlayer);\r\n                return;\r\n            }\r\n        }\r\n        for(uint i = 0; i < boardSize; i++) {\r\n            if(board[x][i] != activePlayer) {\r\n                break;\r\n            }\r\n            //win\r\n\r\n            if(i == boardSize - 1) {\r\n                //winner\r\n                setWinner(activePlayer);\r\n                return;\r\n            }\r\n        }\r\n\r\n        //diagonale\r\n        if(x == y) {\r\n            for(uint i = 0; i < boardSize; i++) {\r\n                if(board[i][i] != activePlayer) {\r\n                    break;\r\n                }\r\n                //win\r\n                if(i == boardSize - 1) {\r\n                    //winner\r\n                    setWinner(activePlayer);\r\n                    return;\r\n                }\r\n            }\r\n        }\r\n\r\n        //anti-diagonale\r\n        if((x+y) == boardSize-1) {\r\n            for(uint i = 0; i < boardSize; i++) {\r\n                if(board[i][(boardSize-1)-i] != activePlayer) {\r\n                    break;\r\n                }\r\n                //win\r\n\r\n                if(i == boardSize - 1) {\r\n                    //winner\r\n                    setWinner(activePlayer);\r\n                    return;\r\n                }\r\n            }\r\n        }\r\n\r\n        //draw\r\n        if(movesCounter == (boardSize**2)) {\r\n            //draw\r\n            setDraw();\r\n            return;\r\n        }\r\n\r\n        if(activePlayer == player1) {\r\n            activePlayer = player2;\r\n        } else {\r\n            activePlayer = player1;\r\n        }\r\n        emit NextPlayer(activePlayer);\r\n    }\r\n}",
  "sourcePath": "C:\\Users\\SSAR\\Desktop\\CertifiedBlockchain - sepolia\\truffle\\contracts\\TicTacToe.sol",
  "compiler": {
    "name": "solc",
    "version": "0.8.14+commit.80d49f37.Emscripten.clang"
  },
  "schemaVersion": "3.4.12",
  "updatedAt": "2023-02-19T04:24:01.046Z",
  "networkType": "ethereum",
  "devdoc": {
    "kind": "dev",
    "methods": {},
    "version": 1
  },
  "userdoc": {
    "kind": "user",
    "methods": {},
    "version": 1
  }
}