{
	"data": {
		"bytecode": {
			"linkReferences": {},
			"object": "608060405260036000806101000a81548160ff021916908360ff1602179055506301e13380601755601754426200003791906200007c565b601881905550620000b7565b6000819050919050565b7f4e487b7100000000000000000000000000000000000000000000000000000000600052601160045260246000fd5b6000620000898262000043565b9150620000968362000043565b9250828201905080821115620000b157620000b06200004d565b5b92915050565b61238480620000c76000396000f3fe6080604052600436106101095760003560e01c8063976306f011610095578063cab896dc11610064578063cab896dc146102e5578063d30895e414610310578063ea40a2a21461033b578063f020044f14610352578063fb8155031461037d57610109565b8063976306f01461026e578063bb47221914610299578063c51d69f4146102b0578063c95fe2ad146102db57610109565b806347cc53ad116100dc57806347cc53ad146101ba57806359a5f12d146101e55780636c5c8df3146102105780637d3f90741461021a5780637fdffd231461024357610109565b80630d8a52581461010e5780630f2f98681461013957806315885694146101645780633264a34b1461018f575b600080fd5b34801561011a57600080fd5b50610123610394565b6040516101309190611c21565b60405180910390f35b34801561014557600080fd5b5061014e61039a565b60405161015b9190611c21565b60405180910390f35b34801561017057600080fd5b506101796103a0565b6040516101869190611c58565b60405180910390f35b34801561019b57600080fd5b506101a46103b3565b6040516101b19190611dec565b60405180910390f35b3480156101c657600080fd5b506101cf61046c565b6040516101dc9190611c21565b60405180910390f35b3480156101f157600080fd5b506101fa610472565b6040516102079190611e29565b60405180910390f35b610218610498565b005b34801561022657600080fd5b50610241600480360381019061023c9190611e75565b610784565b005b34801561024f57600080fd5b5061025861107a565b6040516102659190611e29565b60405180910390f35b34801561027a57600080fd5b506102836110a0565b6040516102909190611c21565b60405180910390f35b3480156102a557600080fd5b506102ae6110a6565b005b3480156102bc57600080fd5b506102c56111f1565b6040516102d29190611c58565b60405180910390f35b6102e3611202565b005b3480156102f157600080fd5b506102fa6114ee565b6040516103079190611c21565b60405180910390f35b34801561031c57600080fd5b506103256114f9565b6040516103329190611e29565b60405180910390f35b34801561034757600080fd5b5061035061151f565b005b34801561035e57600080fd5b50610367611550565b6040516103749190611ed0565b60405180910390f35b34801561038957600080fd5b50610392611563565b005b60155481565b60165481565b600060019054906101000a900460ff1681565b6103bb611ad7565b6001600380602002604051908101604052809291906000905b828210156104635783826003020160038060200260405190810160405280929190826003801561044f576020028201915b8160009054906101000a900473ffffffffffffffffffffffffffffffffffffffff1673ffffffffffffffffffffffffffffffffffffffff1681526020019060010190808311610405575b5050505050815260200190600101906103d4565b50505050905090565b60185481565b601460009054906101000a900473ffffffffffffffffffffffffffffffffffffffff1681565b600073ffffffffffffffffffffffffffffffffffffffff16601360009054906101000a900473ffffffffffffffffffffffffffffffffffffffff1673ffffffffffffffffffffffffffffffffffffffff16146104f7576104f6611eeb565b5b600073ffffffffffffffffffffffffffffffffffffffff16601460009054906101000a900473ffffffffffffffffffffffffffffffffffffffff1673ffffffffffffffffffffffffffffffffffffffff161461056d576001600060026101000a81548160ff021916908315150217905550610588565b60008060026101000a81548160ff0219169083151502179055505b66038d7ea4c68000341461059b57600080fd5b33601360006101000a81548173ffffffffffffffffffffffffffffffffffffffff021916908373ffffffffffffffffffffffffffffffffffffffff1602179055507f31e760aa525306aba638a784082a013b6a1cc0a9a1789f3f22281c0453b10b1f601360009054906101000a900473ffffffffffffffffffffffffffffffffffffffff1660405161062d9190611f79565b60405180910390a160006002436106449190611fc3565b036106b157601460009054906101000a900473ffffffffffffffffffffffffffffffffffffffff16601960006101000a81548173ffffffffffffffffffffffffffffffffffffffff021916908373ffffffffffffffffffffffffffffffffffffffff160217905550610715565b601360009054906101000a900473ffffffffffffffffffffffffffffffffffffffff16601960006101000a81548173ffffffffffffffffffffffffffffffffffffffff021916908373ffffffffffffffffffffffffffffffffffffffff1602179055505b601754426107239190612023565b6018819055507f637351f91da430278368fb3e486c8c3da47b2e6ce4d28b2c404cb044702ca7e1601960009054906101000a900473ffffffffffffffffffffffffffffffffffffffff1660405161077a9190611f79565b60405180910390a1565b600073ffffffffffffffffffffffffffffffffffffffff1660018360ff16600381106107b3576107b2612057565b5b600302018260ff16600381106107cc576107cb612057565b5b0160009054906101000a900473ffffffffffffffffffffffffffffffffffffffff1673ffffffffffffffffffffffffffffffffffffffff161461080e57600080fd5b426018541161081c57600080fd5b600060029054906101000a900460ff1661083957610838611eeb565b5b60008054906101000a900460ff1660ff168260ff161061085c5761085b611eeb565b5b60008054906101000a900460ff1660ff168160ff161061087f5761087e611eeb565b5b601960009054906101000a900473ffffffffffffffffffffffffffffffffffffffff1673ffffffffffffffffffffffffffffffffffffffff163373ffffffffffffffffffffffffffffffffffffffff16146108d957600080fd5b3360018360ff16600381106108f1576108f0612057565b5b600302018260ff166003811061090a57610909612057565b5b0160006101000a81548173ffffffffffffffffffffffffffffffffffffffff021916908373ffffffffffffffffffffffffffffffffffffffff1602179055506000600181819054906101000a900460ff168092919061096890612086565b91906101000a81548160ff021916908360ff160217905550506017544261098f9190612023565b60188190555060005b60008054906101000a900460ff1660ff168160ff161015610ac357601960009054906101000a900473ffffffffffffffffffffffffffffffffffffffff1673ffffffffffffffffffffffffffffffffffffffff1660018260ff1660038110610a0357610a02612057565b5b600302018360ff1660038110610a1c57610a1b612057565b5b0160009054906101000a900473ffffffffffffffffffffffffffffffffffffffff1673ffffffffffffffffffffffffffffffffffffffff1603610ac357600160008054906101000a900460ff16610a7391906120af565b60ff168160ff1603610ab057610aaa601960009054906101000a900473ffffffffffffffffffffffffffffffffffffffff16611783565b50611076565b8080610abb90612086565b915050610998565b5060005b60008054906101000a900460ff1660ff16811015610be957601960009054906101000a900473ffffffffffffffffffffffffffffffffffffffff1673ffffffffffffffffffffffffffffffffffffffff1660018460ff1660038110610b2f57610b2e612057565b5b600302018260038110610b4557610b44612057565b5b0160009054906101000a900473ffffffffffffffffffffffffffffffffffffffff1673ffffffffffffffffffffffffffffffffffffffff1603610be957600160008054906101000a900460ff16610b9c91906120af565b60ff168103610bd657610bd0601960009054906101000a900473ffffffffffffffffffffffffffffffffffffffff16611783565b50611076565b8080610be1906120e4565b915050610ac7565b508060ff168260ff1603610d1b5760005b60008054906101000a900460ff1660ff16811015610d1957601960009054906101000a900473ffffffffffffffffffffffffffffffffffffffff1673ffffffffffffffffffffffffffffffffffffffff1660018260038110610c5f57610c5e612057565b5b600302018260038110610c7557610c74612057565b5b0160009054906101000a900473ffffffffffffffffffffffffffffffffffffffff1673ffffffffffffffffffffffffffffffffffffffff1603610d1957600160008054906101000a900460ff16610ccc91906120af565b60ff168103610d0657610d00601960009054906101000a900473ffffffffffffffffffffffffffffffffffffffff16611783565b50611076565b8080610d11906120e4565b915050610bfa565b505b600160008054906101000a900460ff16610d3591906120af565b60ff168183610d44919061212c565b60ff1603610e975760005b60008054906101000a900460ff1660ff16811015610e9557601960009054906101000a900473ffffffffffffffffffffffffffffffffffffffff1673ffffffffffffffffffffffffffffffffffffffff1660018260038110610db457610db3612057565b5b6003020182600160008054906101000a900460ff16610dd391906120af565b60ff16610de09190612161565b60038110610df157610df0612057565b5b0160009054906101000a900473ffffffffffffffffffffffffffffffffffffffff1673ffffffffffffffffffffffffffffffffffffffff1603610e9557600160008054906101000a900460ff16610e4891906120af565b60ff168103610e8257610e7c601960009054906101000a900473ffffffffffffffffffffffffffffffffffffffff16611783565b50611076565b8080610e8d906120e4565b915050610d4f565b505b600260008054906101000a900460ff16610eb191906122c8565b60ff16600060019054906101000a900460ff1660ff1603610ed957610ed46118c5565b611076565b601360009054906101000a900473ffffffffffffffffffffffffffffffffffffffff1673ffffffffffffffffffffffffffffffffffffffff16601960009054906101000a900473ffffffffffffffffffffffffffffffffffffffff1673ffffffffffffffffffffffffffffffffffffffff1603610fb857601460009054906101000a900473ffffffffffffffffffffffffffffffffffffffff16601960006101000a81548173ffffffffffffffffffffffffffffffffffffffff021916908373ffffffffffffffffffffffffffffffffffffffff16021790555061101c565b601360009054906101000a900473ffffffffffffffffffffffffffffffffffffffff16601960006101000a81548173ffffffffffffffffffffffffffffffffffffffff021916908373ffffffffffffffffffffffffffffffffffffffff1602179055505b7f637351f91da430278368fb3e486c8c3da47b2e6ce4d28b2c404cb044702ca7e1601960009054906101000a900473ffffffffffffffffffffffffffffffffffffffff1660405161106d9190611f79565b60405180910390a15b5050565b601960009054906101000a900473ffffffffffffffffffffffffffffffffffffffff1681565b60175481565b601360009054906101000a900473ffffffffffffffffffffffffffffffffffffffff1673ffffffffffffffffffffffffffffffffffffffff163373ffffffffffffffffffffffffffffffffffffffff16148061114f5750601460009054906101000a900473ffffffffffffffffffffffffffffffffffffffff1673ffffffffffffffffffffffffffffffffffffffff163373ffffffffffffffffffffffffffffffffffffffff16145b61115857600080fd5b600a600190600361116a929190611b04565b506000601360006101000a81548173ffffffffffffffffffffffffffffffffffffffff021916908373ffffffffffffffffffffffffffffffffffffffff1602179055506000601460006101000a81548173ffffffffffffffffffffffffffffffffffffffff021916908373ffffffffffffffffffffffffffffffffffffffff160217905550565b60008054906101000a900460ff1681565b600073ffffffffffffffffffffffffffffffffffffffff16601460009054906101000a900473ffffffffffffffffffffffffffffffffffffffff1673ffffffffffffffffffffffffffffffffffffffff161461126157611260611eeb565b5b600073ffffffffffffffffffffffffffffffffffffffff16601360009054906101000a900473ffffffffffffffffffffffffffffffffffffffff1673ffffffffffffffffffffffffffffffffffffffff16146112d7576001600060026101000a81548160ff0219169083151502179055506112f2565b60008060026101000a81548160ff0219169083151502179055505b66038d7ea4c68000341461130557600080fd5b33601460006101000a81548173ffffffffffffffffffffffffffffffffffffffff021916908373ffffffffffffffffffffffffffffffffffffffff1602179055507f31e760aa525306aba638a784082a013b6a1cc0a9a1789f3f22281c0453b10b1f601460009054906101000a900473ffffffffffffffffffffffffffffffffffffffff166040516113979190611f79565b60405180910390a160006002436113ae9190611fc3565b0361141b57601460009054906101000a900473ffffffffffffffffffffffffffffffffffffffff16601960006101000a81548173ffffffffffffffffffffffffffffffffffffffff021916908373ffffffffffffffffffffffffffffffffffffffff16021790555061147f565b601360009054906101000a900473ffffffffffffffffffffffffffffffffffffffff16601960006101000a81548173ffffffffffffffffffffffffffffffffffffffff021916908373ffffffffffffffffffffffffffffffffffffffff1602179055505b6017544261148d9190612023565b6018819055507f637351f91da430278368fb3e486c8c3da47b2e6ce4d28b2c404cb044702ca7e1601960009054906101000a900473ffffffffffffffffffffffffffffffffffffffff166040516114e49190611f79565b60405180910390a1565b66038d7ea4c6800081565b601360009054906101000a900473ffffffffffffffffffffffffffffffffffffffff1681565b426018541061152d57600080fd5b600060029054906101000a900460ff1661154657600080fd5b61154e6118c5565b565b600060029054906101000a900460ff1681565b6000601360009054906101000a900473ffffffffffffffffffffffffffffffffffffffff1673ffffffffffffffffffffffffffffffffffffffff163373ffffffffffffffffffffffffffffffffffffffff160361169f576000601554116115c957600080fd5b60155490506000601581905550601360009054906101000a900473ffffffffffffffffffffffffffffffffffffffff1673ffffffffffffffffffffffffffffffffffffffff166108fc829081150290604051600060405180830381858888f1935050505015801561163e573d6000803e3d6000fd5b507f2a44162a2d5223e37cacacc3f626dcfee1396e0be3616534c5c7b718f786b673601360009054906101000a900473ffffffffffffffffffffffffffffffffffffffff16826040516116929291906122f4565b60405180910390a1611780565b6000601654116116ae57600080fd5b60165490506000601681905550601460009054906101000a900473ffffffffffffffffffffffffffffffffffffffff1673ffffffffffffffffffffffffffffffffffffffff166108fc829081150290604051600060405180830381858888f19350505050158015611723573d6000803e3d6000fd5b507f2a44162a2d5223e37cacacc3f626dcfee1396e0be3616534c5c7b718f786b673601460009054906101000a900473ffffffffffffffffffffffffffffffffffffffff16826040516117779291906122f4565b60405180910390a15b50565b60008060026101000a81548160ff0219169083151502179055507f8245a3876d42d9b0bdb7f24184c03fc24e3d8a079f492b1ec9ceae70b366edf9816040516117cc9190611f79565b60405180910390a16000479050600115158273ffffffffffffffffffffffffffffffffffffffff166108fc839081150290604051600060405180830381858888f1935050505015151461188757601360009054906101000a900473ffffffffffffffffffffffffffffffffffffffff1673ffffffffffffffffffffffffffffffffffffffff168273ffffffffffffffffffffffffffffffffffffffff160361187a5780601581905550611882565b806016819055505b6118c1565b7f2a44162a2d5223e37cacacc3f626dcfee1396e0be3616534c5c7b718f786b67382826040516118b89291906122f4565b60405180910390a15b5050565b60008060026101000a81548160ff0219169083151502179055507f2207d46a2ba0f2acda06e9a222b40fd004e385738b3f868e63b2c0bfe4bc094c60405160405180910390a1600060024761191a919061231d565b905060001515601360009054906101000a900473ffffffffffffffffffffffffffffffffffffffff1673ffffffffffffffffffffffffffffffffffffffff166108fc839081150290604051600060405180830381858888f1935050505015150361199c5780601560008282546119909190612023565b925050819055506119f8565b7f2a44162a2d5223e37cacacc3f626dcfee1396e0be3616534c5c7b718f786b673601360009054906101000a900473ffffffffffffffffffffffffffffffffffffffff16826040516119ef9291906122f4565b60405180910390a15b60001515601460009054906101000a900473ffffffffffffffffffffffffffffffffffffffff1673ffffffffffffffffffffffffffffffffffffffff166108fc839081150290604051600060405180830381858888f19350505050151503611a78578060166000828254611a6c9190612023565b92505081905550611ad4565b7f2a44162a2d5223e37cacacc3f626dcfee1396e0be3616534c5c7b718f786b673601460009054906101000a900473ffffffffffffffffffffffffffffffffffffffff1682604051611acb9291906122f4565b60405180910390a15b50565b60405180606001604052806003905b611aee611b53565b815260200190600190039081611ae65790505090565b82600380028101928215611b42579160030282015b82811115611b41578282906003611b31929190611b75565b5091600301919060030190611b19565b5b509050611b4f9190611bb2565b5090565b6040518060600160405280600390602082028036833780820191505090505090565b8260038101928215611ba1579182015b82811115611ba0578254825591600101919060010190611b85565b5b509050611bae9190611bd6565b5090565b5b80821115611bd25760008181611bc99190611bf3565b50600301611bb3565b5090565b5b80821115611bef576000816000905550600101611bd7565b5090565b50600081556001016000815560010160009055565b6000819050919050565b611c1b81611c08565b82525050565b6000602082019050611c366000830184611c12565b92915050565b600060ff82169050919050565b611c5281611c3c565b82525050565b6000602082019050611c6d6000830184611c49565b92915050565b600060039050919050565b600081905092915050565b6000819050919050565b600060039050919050565b600081905092915050565b6000819050919050565b600073ffffffffffffffffffffffffffffffffffffffff82169050919050565b6000611cde82611cb3565b9050919050565b611cee81611cd3565b82525050565b6000611d008383611ce5565b60208301905092915050565b6000602082019050919050565b611d2281611c93565b611d2c8184611c9e565b9250611d3782611ca9565b8060005b83811015611d68578151611d4f8782611cf4565b9650611d5a83611d0c565b925050600181019050611d3b565b505050505050565b6000611d7c8383611d19565b60608301905092915050565b6000602082019050919050565b611d9e81611c73565b611da88184611c7e565b9250611db382611c89565b8060005b83811015611de4578151611dcb8782611d70565b9650611dd683611d88565b925050600181019050611db7565b505050505050565b600061012082019050611e026000830184611d95565b92915050565b6000611e1382611cb3565b9050919050565b611e2381611e08565b82525050565b6000602082019050611e3e6000830184611e1a565b92915050565b600080fd5b611e5281611c3c565b8114611e5d57600080fd5b50565b600081359050611e6f81611e49565b92915050565b60008060408385031215611e8c57611e8b611e44565b5b6000611e9a85828601611e60565b9250506020611eab85828601611e60565b9150509250929050565b60008115159050919050565b611eca81611eb5565b82525050565b6000602082019050611ee56000830184611ec1565b92915050565b7f4e487b7100000000000000000000000000000000000000000000000000000000600052600160045260246000fd5b6000819050919050565b6000611f3f611f3a611f3584611cb3565b611f1a565b611cb3565b9050919050565b6000611f5182611f24565b9050919050565b6000611f6382611f46565b9050919050565b611f7381611f58565b82525050565b6000602082019050611f8e6000830184611f6a565b92915050565b7f4e487b7100000000000000000000000000000000000000000000000000000000600052601260045260246000fd5b6000611fce82611c08565b9150611fd983611c08565b925082611fe957611fe8611f94565b5b828206905092915050565b7f4e487b7100000000000000000000000000000000000000000000000000000000600052601160045260246000fd5b600061202e82611c08565b915061203983611c08565b925082820190508082111561205157612050611ff4565b5b92915050565b7f4e487b7100000000000000000000000000000000000000000000000000000000600052603260045260246000fd5b600061209182611c3c565b915060ff82036120a4576120a3611ff4565b5b600182019050919050565b60006120ba82611c3c565b91506120c583611c3c565b9250828203905060ff8111156120de576120dd611ff4565b5b92915050565b60006120ef82611c08565b91507fffffffffffffffffffffffffffffffffffffffffffffffffffffffffffffffff820361212157612120611ff4565b5b600182019050919050565b600061213782611c3c565b915061214283611c3c565b9250828201905060ff81111561215b5761215a611ff4565b5b92915050565b600061216c82611c08565b915061217783611c08565b925082820390508181111561218f5761218e611ff4565b5b92915050565b60008160011c9050919050565b6000808291508390505b60018511156121ec578086048111156121c8576121c7611ff4565b5b60018516156121d75780820291505b80810290506121e585612195565b94506121ac565b94509492505050565b60008261220557600190506122c1565b8161221357600090506122c1565b8160018114612229576002811461223357612262565b60019150506122c1565b60ff84111561224557612244611ff4565b5b8360020a91508482111561225c5761225b611ff4565b5b506122c1565b5060208310610133831016604e8410600b84101617156122975782820a90508381111561229257612291611ff4565b5b6122c1565b6122a484848460016121a2565b925090508184048111156122bb576122ba611ff4565b5b81810290505b9392505050565b60006122d382611c3c565b91506122de83611c3c565b92506122ec60ff84846121f5565b905092915050565b60006040820190506123096000830185611f6a565b6123166020830184611c12565b9392505050565b600061232882611c08565b915061233383611c08565b92508261234357612342611f94565b5b82820490509291505056fea264697066735822122089b22f553ed060f48915e311c201cfeeffa03e1a6c5d9ae7ed4738de363bc9fa64736f6c63430008110033",
			"opcodes": "PUSH1 0x80 PUSH1 0x40 MSTORE PUSH1 0x3 PUSH1 0x0 DUP1 PUSH2 0x100 EXP DUP2 SLOAD DUP2 PUSH1 0xFF MUL NOT AND SWAP1 DUP4 PUSH1 0xFF AND MUL OR SWAP1 SSTORE POP PUSH4 0x1E13380 PUSH1 0x17 SSTORE PUSH1 0x17 SLOAD TIMESTAMP PUSH3 0x37 SWAP2 SWAP1 PUSH3 0x7C JUMP JUMPDEST PUSH1 0x18 DUP2 SWAP1 SSTORE POP PUSH3 0xB7 JUMP JUMPDEST PUSH1 0x0 DUP2 SWAP1 POP SWAP2 SWAP1 POP JUMP JUMPDEST PUSH32 0x4E487B7100000000000000000000000000000000000000000000000000000000 PUSH1 0x0 MSTORE PUSH1 0x11 PUSH1 0x4 MSTORE PUSH1 0x24 PUSH1 0x0 REVERT JUMPDEST PUSH1 0x0 PUSH3 0x89 DUP3 PUSH3 0x43 JUMP JUMPDEST SWAP2 POP PUSH3 0x96 DUP4 PUSH3 0x43 JUMP JUMPDEST SWAP3 POP DUP3 DUP3 ADD SWAP1 POP DUP1 DUP3 GT ISZERO PUSH3 0xB1 JUMPI PUSH3 0xB0 PUSH3 0x4D JUMP JUMPDEST JUMPDEST SWAP3 SWAP2 POP POP JUMP JUMPDEST PUSH2 0x2384 DUP1 PUSH3 0xC7 PUSH1 0x0 CODECOPY PUSH1 0x0 RETURN INVALID PUSH1 0x80 PUSH1 0x40 MSTORE PUSH1 0x4 CALLDATASIZE LT PUSH2 0x109 JUMPI PUSH1 0x0 CALLDATALOAD PUSH1 0xE0 SHR DUP1 PUSH4 0x976306F0 GT PUSH2 0x95 JUMPI DUP1 PUSH4 0xCAB896DC GT PUSH2 0x64 JUMPI DUP1 PUSH4 0xCAB896DC EQ PUSH2 0x2E5 JUMPI DUP1 PUSH4 0xD30895E4 EQ PUSH2 0x310 JUMPI DUP1 PUSH4 0xEA40A2A2 EQ PUSH2 0x33B JUMPI DUP1 PUSH4 0xF020044F EQ PUSH2 0x352 JUMPI DUP1 PUSH4 0xFB815503 EQ PUSH2 0x37D JUMPI PUSH2 0x109 JUMP JUMPDEST DUP1 PUSH4 0x976306F0 EQ PUSH2 0x26E JUMPI DUP1 PUSH4 0xBB472219 EQ PUSH2 0x299 JUMPI DUP1 PUSH4 0xC51D69F4 EQ PUSH2 0x2B0 JUMPI DUP1 PUSH4 0xC95FE2AD EQ PUSH2 0x2DB JUMPI PUSH2 0x109 JUMP JUMPDEST DUP1 PUSH4 0x47CC53AD GT PUSH2 0xDC JUMPI DUP1 PUSH4 0x47CC53AD EQ PUSH2 0x1BA JUMPI DUP1 PUSH4 0x59A5F12D EQ PUSH2 0x1E5 JUMPI DUP1 PUSH4 0x6C5C8DF3 EQ PUSH2 0x210 JUMPI DUP1 PUSH4 0x7D3F9074 EQ PUSH2 0x21A JUMPI DUP1 PUSH4 0x7FDFFD23 EQ PUSH2 0x243 JUMPI PUSH2 0x109 JUMP JUMPDEST DUP1 PUSH4 0xD8A5258 EQ PUSH2 0x10E JUMPI DUP1 PUSH4 0xF2F9868 EQ PUSH2 0x139 JUMPI DUP1 PUSH4 0x15885694 EQ PUSH2 0x164 JUMPI DUP1 PUSH4 0x3264A34B EQ PUSH2 0x18F JUMPI JUMPDEST PUSH1 0x0 DUP1 REVERT JUMPDEST CALLVALUE DUP1 ISZERO PUSH2 0x11A JUMPI PUSH1 0x0 DUP1 REVERT JUMPDEST POP PUSH2 0x123 PUSH2 0x394 JUMP JUMPDEST PUSH1 0x40 MLOAD PUSH2 0x130 SWAP2 SWAP1 PUSH2 0x1C21 JUMP JUMPDEST PUSH1 0x40 MLOAD DUP1 SWAP2 SUB SWAP1 RETURN JUMPDEST CALLVALUE DUP1 ISZERO PUSH2 0x145 JUMPI PUSH1 0x0 DUP1 REVERT JUMPDEST POP PUSH2 0x14E PUSH2 0x39A JUMP JUMPDEST PUSH1 0x40 MLOAD PUSH2 0x15B SWAP2 SWAP1 PUSH2 0x1C21 JUMP JUMPDEST PUSH1 0x40 MLOAD DUP1 SWAP2 SUB SWAP1 RETURN JUMPDEST CALLVALUE DUP1 ISZERO PUSH2 0x170 JUMPI PUSH1 0x0 DUP1 REVERT JUMPDEST POP PUSH2 0x179 PUSH2 0x3A0 JUMP JUMPDEST PUSH1 0x40 MLOAD PUSH2 0x186 SWAP2 SWAP1 PUSH2 0x1C58 JUMP JUMPDEST PUSH1 0x40 MLOAD DUP1 SWAP2 SUB SWAP1 RETURN JUMPDEST CALLVALUE DUP1 ISZERO PUSH2 0x19B JUMPI PUSH1 0x0 DUP1 REVERT JUMPDEST POP PUSH2 0x1A4 PUSH2 0x3B3 JUMP JUMPDEST PUSH1 0x40 MLOAD PUSH2 0x1B1 SWAP2 SWAP1 PUSH2 0x1DEC JUMP JUMPDEST PUSH1 0x40 MLOAD DUP1 SWAP2 SUB SWAP1 RETURN JUMPDEST CALLVALUE DUP1 ISZERO PUSH2 0x1C6 JUMPI PUSH1 0x0 DUP1 REVERT JUMPDEST POP PUSH2 0x1CF PUSH2 0x46C JUMP JUMPDEST PUSH1 0x40 MLOAD PUSH2 0x1DC SWAP2 SWAP1 PUSH2 0x1C21 JUMP JUMPDEST PUSH1 0x40 MLOAD DUP1 SWAP2 SUB SWAP1 RETURN JUMPDEST CALLVALUE DUP1 ISZERO PUSH2 0x1F1 JUMPI PUSH1 0x0 DUP1 REVERT JUMPDEST POP PUSH2 0x1FA PUSH2 0x472 JUMP JUMPDEST PUSH1 0x40 MLOAD PUSH2 0x207 SWAP2 SWAP1 PUSH2 0x1E29 JUMP JUMPDEST PUSH1 0x40 MLOAD DUP1 SWAP2 SUB SWAP1 RETURN JUMPDEST PUSH2 0x218 PUSH2 0x498 JUMP JUMPDEST STOP JUMPDEST CALLVALUE DUP1 ISZERO PUSH2 0x226 JUMPI PUSH1 0x0 DUP1 REVERT JUMPDEST POP PUSH2 0x241 PUSH1 0x4 DUP1 CALLDATASIZE SUB DUP2 ADD SWAP1 PUSH2 0x23C SWAP2 SWAP1 PUSH2 0x1E75 JUMP JUMPDEST PUSH2 0x784 JUMP JUMPDEST STOP JUMPDEST CALLVALUE DUP1 ISZERO PUSH2 0x24F JUMPI PUSH1 0x0 DUP1 REVERT JUMPDEST POP PUSH2 0x258 PUSH2 0x107A JUMP JUMPDEST PUSH1 0x40 MLOAD PUSH2 0x265 SWAP2 SWAP1 PUSH2 0x1E29 JUMP JUMPDEST PUSH1 0x40 MLOAD DUP1 SWAP2 SUB SWAP1 RETURN JUMPDEST CALLVALUE DUP1 ISZERO PUSH2 0x27A JUMPI PUSH1 0x0 DUP1 REVERT JUMPDEST POP PUSH2 0x283 PUSH2 0x10A0 JUMP JUMPDEST PUSH1 0x40 MLOAD PUSH2 0x290 SWAP2 SWAP1 PUSH2 0x1C21 JUMP JUMPDEST PUSH1 0x40 MLOAD DUP1 SWAP2 SUB SWAP1 RETURN JUMPDEST CALLVALUE DUP1 ISZERO PUSH2 0x2A5 JUMPI PUSH1 0x0 DUP1 REVERT JUMPDEST POP PUSH2 0x2AE PUSH2 0x10A6 JUMP JUMPDEST STOP JUMPDEST CALLVALUE DUP1 ISZERO PUSH2 0x2BC JUMPI PUSH1 0x0 DUP1 REVERT JUMPDEST POP PUSH2 0x2C5 PUSH2 0x11F1 JUMP JUMPDEST PUSH1 0x40 MLOAD PUSH2 0x2D2 SWAP2 SWAP1 PUSH2 0x1C58 JUMP JUMPDEST PUSH1 0x40 MLOAD DUP1 SWAP2 SUB SWAP1 RETURN JUMPDEST PUSH2 0x2E3 PUSH2 0x1202 JUMP JUMPDEST STOP JUMPDEST CALLVALUE DUP1 ISZERO PUSH2 0x2F1 JUMPI PUSH1 0x0 DUP1 REVERT JUMPDEST POP PUSH2 0x2FA PUSH2 0x14EE JUMP JUMPDEST PUSH1 0x40 MLOAD PUSH2 0x307 SWAP2 SWAP1 PUSH2 0x1C21 JUMP JUMPDEST PUSH1 0x40 MLOAD DUP1 SWAP2 SUB SWAP1 RETURN JUMPDEST CALLVALUE DUP1 ISZERO PUSH2 0x31C JUMPI PUSH1 0x0 DUP1 REVERT JUMPDEST POP PUSH2 0x325 PUSH2 0x14F9 JUMP JUMPDEST PUSH1 0x40 MLOAD PUSH2 0x332 SWAP2 SWAP1 PUSH2 0x1E29 JUMP JUMPDEST PUSH1 0x40 MLOAD DUP1 SWAP2 SUB SWAP1 RETURN JUMPDEST CALLVALUE DUP1 ISZERO PUSH2 0x347 JUMPI PUSH1 0x0 DUP1 REVERT JUMPDEST POP PUSH2 0x350 PUSH2 0x151F JUMP JUMPDEST STOP JUMPDEST CALLVALUE DUP1 ISZERO PUSH2 0x35E JUMPI PUSH1 0x0 DUP1 REVERT JUMPDEST POP PUSH2 0x367 PUSH2 0x1550 JUMP JUMPDEST PUSH1 0x40 MLOAD PUSH2 0x374 SWAP2 SWAP1 PUSH2 0x1ED0 JUMP JUMPDEST PUSH1 0x40 MLOAD DUP1 SWAP2 SUB SWAP1 RETURN JUMPDEST CALLVALUE DUP1 ISZERO PUSH2 0x389 JUMPI PUSH1 0x0 DUP1 REVERT JUMPDEST POP PUSH2 0x392 PUSH2 0x1563 JUMP JUMPDEST STOP JUMPDEST PUSH1 0x15 SLOAD DUP2 JUMP JUMPDEST PUSH1 0x16 SLOAD DUP2 JUMP JUMPDEST PUSH1 0x0 PUSH1 0x1 SWAP1 SLOAD SWAP1 PUSH2 0x100 EXP SWAP1 DIV PUSH1 0xFF AND DUP2 JUMP JUMPDEST PUSH2 0x3BB PUSH2 0x1AD7 JUMP JUMPDEST PUSH1 0x1 PUSH1 0x3 DUP1 PUSH1 0x20 MUL PUSH1 0x40 MLOAD SWAP1 DUP2 ADD PUSH1 0x40 MSTORE DUP1 SWAP3 SWAP2 SWAP1 PUSH1 0x0 SWAP1 JUMPDEST DUP3 DUP3 LT ISZERO PUSH2 0x463 JUMPI DUP4 DUP3 PUSH1 0x3 MUL ADD PUSH1 0x3 DUP1 PUSH1 0x20 MUL PUSH1 0x40 MLOAD SWAP1 DUP2 ADD PUSH1 0x40 MSTORE DUP1 SWAP3 SWAP2 SWAP1 DUP3 PUSH1 0x3 DUP1 ISZERO PUSH2 0x44F JUMPI PUSH1 0x20 MUL DUP3 ADD SWAP2 JUMPDEST DUP2 PUSH1 0x0 SWAP1 SLOAD SWAP1 PUSH2 0x100 EXP SWAP1 DIV PUSH20 0xFFFFFFFFFFFFFFFFFFFFFFFFFFFFFFFFFFFFFFFF AND PUSH20 0xFFFFFFFFFFFFFFFFFFFFFFFFFFFFFFFFFFFFFFFF AND DUP2 MSTORE PUSH1 0x20 ADD SWAP1 PUSH1 0x1 ADD SWAP1 DUP1 DUP4 GT PUSH2 0x405 JUMPI JUMPDEST POP POP POP POP POP DUP2 MSTORE PUSH1 0x20 ADD SWAP1 PUSH1 0x1 ADD SWAP1 PUSH2 0x3D4 JUMP JUMPDEST POP POP POP POP SWAP1 POP SWAP1 JUMP JUMPDEST PUSH1 0x18 SLOAD DUP2 JUMP JUMPDEST PUSH1 0x14 PUSH1 0x0 SWAP1 SLOAD SWAP1 PUSH2 0x100 EXP SWAP1 DIV PUSH20 0xFFFFFFFFFFFFFFFFFFFFFFFFFFFFFFFFFFFFFFFF AND DUP2 JUMP JUMPDEST PUSH1 0x0 PUSH20 0xFFFFFFFFFFFFFFFFFFFFFFFFFFFFFFFFFFFFFFFF AND PUSH1 0x13 PUSH1 0x0 SWAP1 SLOAD SWAP1 PUSH2 0x100 EXP SWAP1 DIV PUSH20 0xFFFFFFFFFFFFFFFFFFFFFFFFFFFFFFFFFFFFFFFF AND PUSH20 0xFFFFFFFFFFFFFFFFFFFFFFFFFFFFFFFFFFFFFFFF AND EQ PUSH2 0x4F7 JUMPI PUSH2 0x4F6 PUSH2 0x1EEB JUMP JUMPDEST JUMPDEST PUSH1 0x0 PUSH20 0xFFFFFFFFFFFFFFFFFFFFFFFFFFFFFFFFFFFFFFFF AND PUSH1 0x14 PUSH1 0x0 SWAP1 SLOAD SWAP1 PUSH2 0x100 EXP SWAP1 DIV PUSH20 0xFFFFFFFFFFFFFFFFFFFFFFFFFFFFFFFFFFFFFFFF AND PUSH20 0xFFFFFFFFFFFFFFFFFFFFFFFFFFFFFFFFFFFFFFFF AND EQ PUSH2 0x56D JUMPI PUSH1 0x1 PUSH1 0x0 PUSH1 0x2 PUSH2 0x100 EXP DUP2 SLOAD DUP2 PUSH1 0xFF MUL NOT AND SWAP1 DUP4 ISZERO ISZERO MUL OR SWAP1 SSTORE POP PUSH2 0x588 JUMP JUMPDEST PUSH1 0x0 DUP1 PUSH1 0x2 PUSH2 0x100 EXP DUP2 SLOAD DUP2 PUSH1 0xFF MUL NOT AND SWAP1 DUP4 ISZERO ISZERO MUL OR SWAP1 SSTORE POP JUMPDEST PUSH7 0x38D7EA4C68000 CALLVALUE EQ PUSH2 0x59B JUMPI PUSH1 0x0 DUP1 REVERT JUMPDEST CALLER PUSH1 0x13 PUSH1 0x0 PUSH2 0x100 EXP DUP2 SLOAD DUP2 PUSH20 0xFFFFFFFFFFFFFFFFFFFFFFFFFFFFFFFFFFFFFFFF MUL NOT AND SWAP1 DUP4 PUSH20 0xFFFFFFFFFFFFFFFFFFFFFFFFFFFFFFFFFFFFFFFF AND MUL OR SWAP1 SSTORE POP PUSH32 0x31E760AA525306ABA638A784082A013B6A1CC0A9A1789F3F22281C0453B10B1F PUSH1 0x13 PUSH1 0x0 SWAP1 SLOAD SWAP1 PUSH2 0x100 EXP SWAP1 DIV PUSH20 0xFFFFFFFFFFFFFFFFFFFFFFFFFFFFFFFFFFFFFFFF AND PUSH1 0x40 MLOAD PUSH2 0x62D SWAP2 SWAP1 PUSH2 0x1F79 JUMP JUMPDEST PUSH1 0x40 MLOAD DUP1 SWAP2 SUB SWAP1 LOG1 PUSH1 0x0 PUSH1 0x2 NUMBER PUSH2 0x644 SWAP2 SWAP1 PUSH2 0x1FC3 JUMP JUMPDEST SUB PUSH2 0x6B1 JUMPI PUSH1 0x14 PUSH1 0x0 SWAP1 SLOAD SWAP1 PUSH2 0x100 EXP SWAP1 DIV PUSH20 0xFFFFFFFFFFFFFFFFFFFFFFFFFFFFFFFFFFFFFFFF AND PUSH1 0x19 PUSH1 0x0 PUSH2 0x100 EXP DUP2 SLOAD DUP2 PUSH20 0xFFFFFFFFFFFFFFFFFFFFFFFFFFFFFFFFFFFFFFFF MUL NOT AND SWAP1 DUP4 PUSH20 0xFFFFFFFFFFFFFFFFFFFFFFFFFFFFFFFFFFFFFFFF AND MUL OR SWAP1 SSTORE POP PUSH2 0x715 JUMP JUMPDEST PUSH1 0x13 PUSH1 0x0 SWAP1 SLOAD SWAP1 PUSH2 0x100 EXP SWAP1 DIV PUSH20 0xFFFFFFFFFFFFFFFFFFFFFFFFFFFFFFFFFFFFFFFF AND PUSH1 0x19 PUSH1 0x0 PUSH2 0x100 EXP DUP2 SLOAD DUP2 PUSH20 0xFFFFFFFFFFFFFFFFFFFFFFFFFFFFFFFFFFFFFFFF MUL NOT AND SWAP1 DUP4 PUSH20 0xFFFFFFFFFFFFFFFFFFFFFFFFFFFFFFFFFFFFFFFF AND MUL OR SWAP1 SSTORE POP JUMPDEST PUSH1 0x17 SLOAD TIMESTAMP PUSH2 0x723 SWAP2 SWAP1 PUSH2 0x2023 JUMP JUMPDEST PUSH1 0x18 DUP2 SWAP1 SSTORE POP PUSH32 0x637351F91DA430278368FB3E486C8C3DA47B2E6CE4D28B2C404CB044702CA7E1 PUSH1 0x19 PUSH1 0x0 SWAP1 SLOAD SWAP1 PUSH2 0x100 EXP SWAP1 DIV PUSH20 0xFFFFFFFFFFFFFFFFFFFFFFFFFFFFFFFFFFFFFFFF AND PUSH1 0x40 MLOAD PUSH2 0x77A SWAP2 SWAP1 PUSH2 0x1F79 JUMP JUMPDEST PUSH1 0x40 MLOAD DUP1 SWAP2 SUB SWAP1 LOG1 JUMP JUMPDEST PUSH1 0x0 PUSH20 0xFFFFFFFFFFFFFFFFFFFFFFFFFFFFFFFFFFFFFFFF AND PUSH1 0x1 DUP4 PUSH1 0xFF AND PUSH1 0x3 DUP2 LT PUSH2 0x7B3 JUMPI PUSH2 0x7B2 PUSH2 0x2057 JUMP JUMPDEST JUMPDEST PUSH1 0x3 MUL ADD DUP3 PUSH1 0xFF AND PUSH1 0x3 DUP2 LT PUSH2 0x7CC JUMPI PUSH2 0x7CB PUSH2 0x2057 JUMP JUMPDEST JUMPDEST ADD PUSH1 0x0 SWAP1 SLOAD SWAP1 PUSH2 0x100 EXP SWAP1 DIV PUSH20 0xFFFFFFFFFFFFFFFFFFFFFFFFFFFFFFFFFFFFFFFF AND PUSH20 0xFFFFFFFFFFFFFFFFFFFFFFFFFFFFFFFFFFFFFFFF AND EQ PUSH2 0x80E JUMPI PUSH1 0x0 DUP1 REVERT JUMPDEST TIMESTAMP PUSH1 0x18 SLOAD GT PUSH2 0x81C JUMPI PUSH1 0x0 DUP1 REVERT JUMPDEST PUSH1 0x0 PUSH1 0x2 SWAP1 SLOAD SWAP1 PUSH2 0x100 EXP SWAP1 DIV PUSH1 0xFF AND PUSH2 0x839 JUMPI PUSH2 0x838 PUSH2 0x1EEB JUMP JUMPDEST JUMPDEST PUSH1 0x0 DUP1 SLOAD SWAP1 PUSH2 0x100 EXP SWAP1 DIV PUSH1 0xFF AND PUSH1 0xFF AND DUP3 PUSH1 0xFF AND LT PUSH2 0x85C JUMPI PUSH2 0x85B PUSH2 0x1EEB JUMP JUMPDEST JUMPDEST PUSH1 0x0 DUP1 SLOAD SWAP1 PUSH2 0x100 EXP SWAP1 DIV PUSH1 0xFF AND PUSH1 0xFF AND DUP2 PUSH1 0xFF AND LT PUSH2 0x87F JUMPI PUSH2 0x87E PUSH2 0x1EEB JUMP JUMPDEST JUMPDEST PUSH1 0x19 PUSH1 0x0 SWAP1 SLOAD SWAP1 PUSH2 0x100 EXP SWAP1 DIV PUSH20 0xFFFFFFFFFFFFFFFFFFFFFFFFFFFFFFFFFFFFFFFF AND PUSH20 0xFFFFFFFFFFFFFFFFFFFFFFFFFFFFFFFFFFFFFFFF AND CALLER PUSH20 0xFFFFFFFFFFFFFFFFFFFFFFFFFFFFFFFFFFFFFFFF AND EQ PUSH2 0x8D9 JUMPI PUSH1 0x0 DUP1 REVERT JUMPDEST CALLER PUSH1 0x1 DUP4 PUSH1 0xFF AND PUSH1 0x3 DUP2 LT PUSH2 0x8F1 JUMPI PUSH2 0x8F0 PUSH2 0x2057 JUMP JUMPDEST JUMPDEST PUSH1 0x3 MUL ADD DUP3 PUSH1 0xFF AND PUSH1 0x3 DUP2 LT PUSH2 0x90A JUMPI PUSH2 0x909 PUSH2 0x2057 JUMP JUMPDEST JUMPDEST ADD PUSH1 0x0 PUSH2 0x100 EXP DUP2 SLOAD DUP2 PUSH20 0xFFFFFFFFFFFFFFFFFFFFFFFFFFFFFFFFFFFFFFFF MUL NOT AND SWAP1 DUP4 PUSH20 0xFFFFFFFFFFFFFFFFFFFFFFFFFFFFFFFFFFFFFFFF AND MUL OR SWAP1 SSTORE POP PUSH1 0x0 PUSH1 0x1 DUP2 DUP2 SWAP1 SLOAD SWAP1 PUSH2 0x100 EXP SWAP1 DIV PUSH1 0xFF AND DUP1 SWAP3 SWAP2 SWAP1 PUSH2 0x968 SWAP1 PUSH2 0x2086 JUMP JUMPDEST SWAP2 SWAP1 PUSH2 0x100 EXP DUP2 SLOAD DUP2 PUSH1 0xFF MUL NOT AND SWAP1 DUP4 PUSH1 0xFF AND MUL OR SWAP1 SSTORE POP POP PUSH1 0x17 SLOAD TIMESTAMP PUSH2 0x98F SWAP2 SWAP1 PUSH2 0x2023 JUMP JUMPDEST PUSH1 0x18 DUP2 SWAP1 SSTORE POP PUSH1 0x0 JUMPDEST PUSH1 0x0 DUP1 SLOAD SWAP1 PUSH2 0x100 EXP SWAP1 DIV PUSH1 0xFF AND PUSH1 0xFF AND DUP2 PUSH1 0xFF AND LT ISZERO PUSH2 0xAC3 JUMPI PUSH1 0x19 PUSH1 0x0 SWAP1 SLOAD SWAP1 PUSH2 0x100 EXP SWAP1 DIV PUSH20 0xFFFFFFFFFFFFFFFFFFFFFFFFFFFFFFFFFFFFFFFF AND PUSH20 0xFFFFFFFFFFFFFFFFFFFFFFFFFFFFFFFFFFFFFFFF AND PUSH1 0x1 DUP3 PUSH1 0xFF AND PUSH1 0x3 DUP2 LT PUSH2 0xA03 JUMPI PUSH2 0xA02 PUSH2 0x2057 JUMP JUMPDEST JUMPDEST PUSH1 0x3 MUL ADD DUP4 PUSH1 0xFF AND PUSH1 0x3 DUP2 LT PUSH2 0xA1C JUMPI PUSH2 0xA1B PUSH2 0x2057 JUMP JUMPDEST JUMPDEST ADD PUSH1 0x0 SWAP1 SLOAD SWAP1 PUSH2 0x100 EXP SWAP1 DIV PUSH20 0xFFFFFFFFFFFFFFFFFFFFFFFFFFFFFFFFFFFFFFFF AND PUSH20 0xFFFFFFFFFFFFFFFFFFFFFFFFFFFFFFFFFFFFFFFF AND SUB PUSH2 0xAC3 JUMPI PUSH1 0x1 PUSH1 0x0 DUP1 SLOAD SWAP1 PUSH2 0x100 EXP SWAP1 DIV PUSH1 0xFF AND PUSH2 0xA73 SWAP2 SWAP1 PUSH2 0x20AF JUMP JUMPDEST PUSH1 0xFF AND DUP2 PUSH1 0xFF AND SUB PUSH2 0xAB0 JUMPI PUSH2 0xAAA PUSH1 0x19 PUSH1 0x0 SWAP1 SLOAD SWAP1 PUSH2 0x100 EXP SWAP1 DIV PUSH20 0xFFFFFFFFFFFFFFFFFFFFFFFFFFFFFFFFFFFFFFFF AND PUSH2 0x1783 JUMP JUMPDEST POP PUSH2 0x1076 JUMP JUMPDEST DUP1 DUP1 PUSH2 0xABB SWAP1 PUSH2 0x2086 JUMP JUMPDEST SWAP2 POP POP PUSH2 0x998 JUMP JUMPDEST POP PUSH1 0x0 JUMPDEST PUSH1 0x0 DUP1 SLOAD SWAP1 PUSH2 0x100 EXP SWAP1 DIV PUSH1 0xFF AND PUSH1 0xFF AND DUP2 LT ISZERO PUSH2 0xBE9 JUMPI PUSH1 0x19 PUSH1 0x0 SWAP1 SLOAD SWAP1 PUSH2 0x100 EXP SWAP1 DIV PUSH20 0xFFFFFFFFFFFFFFFFFFFFFFFFFFFFFFFFFFFFFFFF AND PUSH20 0xFFFFFFFFFFFFFFFFFFFFFFFFFFFFFFFFFFFFFFFF AND PUSH1 0x1 DUP5 PUSH1 0xFF AND PUSH1 0x3 DUP2 LT PUSH2 0xB2F JUMPI PUSH2 0xB2E PUSH2 0x2057 JUMP JUMPDEST JUMPDEST PUSH1 0x3 MUL ADD DUP3 PUSH1 0x3 DUP2 LT PUSH2 0xB45 JUMPI PUSH2 0xB44 PUSH2 0x2057 JUMP JUMPDEST JUMPDEST ADD PUSH1 0x0 SWAP1 SLOAD SWAP1 PUSH2 0x100 EXP SWAP1 DIV PUSH20 0xFFFFFFFFFFFFFFFFFFFFFFFFFFFFFFFFFFFFFFFF AND PUSH20 0xFFFFFFFFFFFFFFFFFFFFFFFFFFFFFFFFFFFFFFFF AND SUB PUSH2 0xBE9 JUMPI PUSH1 0x1 PUSH1 0x0 DUP1 SLOAD SWAP1 PUSH2 0x100 EXP SWAP1 DIV PUSH1 0xFF AND PUSH2 0xB9C SWAP2 SWAP1 PUSH2 0x20AF JUMP JUMPDEST PUSH1 0xFF AND DUP2 SUB PUSH2 0xBD6 JUMPI PUSH2 0xBD0 PUSH1 0x19 PUSH1 0x0 SWAP1 SLOAD SWAP1 PUSH2 0x100 EXP SWAP1 DIV PUSH20 0xFFFFFFFFFFFFFFFFFFFFFFFFFFFFFFFFFFFFFFFF AND PUSH2 0x1783 JUMP JUMPDEST POP PUSH2 0x1076 JUMP JUMPDEST DUP1 DUP1 PUSH2 0xBE1 SWAP1 PUSH2 0x20E4 JUMP JUMPDEST SWAP2 POP POP PUSH2 0xAC7 JUMP JUMPDEST POP DUP1 PUSH1 0xFF AND DUP3 PUSH1 0xFF AND SUB PUSH2 0xD1B JUMPI PUSH1 0x0 JUMPDEST PUSH1 0x0 DUP1 SLOAD SWAP1 PUSH2 0x100 EXP SWAP1 DIV PUSH1 0xFF AND PUSH1 0xFF AND DUP2 LT ISZERO PUSH2 0xD19 JUMPI PUSH1 0x19 PUSH1 0x0 SWAP1 SLOAD SWAP1 PUSH2 0x100 EXP SWAP1 DIV PUSH20 0xFFFFFFFFFFFFFFFFFFFFFFFFFFFFFFFFFFFFFFFF AND PUSH20 0xFFFFFFFFFFFFFFFFFFFFFFFFFFFFFFFFFFFFFFFF AND PUSH1 0x1 DUP3 PUSH1 0x3 DUP2 LT PUSH2 0xC5F JUMPI PUSH2 0xC5E PUSH2 0x2057 JUMP JUMPDEST JUMPDEST PUSH1 0x3 MUL ADD DUP3 PUSH1 0x3 DUP2 LT PUSH2 0xC75 JUMPI PUSH2 0xC74 PUSH2 0x2057 JUMP JUMPDEST JUMPDEST ADD PUSH1 0x0 SWAP1 SLOAD SWAP1 PUSH2 0x100 EXP SWAP1 DIV PUSH20 0xFFFFFFFFFFFFFFFFFFFFFFFFFFFFFFFFFFFFFFFF AND PUSH20 0xFFFFFFFFFFFFFFFFFFFFFFFFFFFFFFFFFFFFFFFF AND SUB PUSH2 0xD19 JUMPI PUSH1 0x1 PUSH1 0x0 DUP1 SLOAD SWAP1 PUSH2 0x100 EXP SWAP1 DIV PUSH1 0xFF AND PUSH2 0xCCC SWAP2 SWAP1 PUSH2 0x20AF JUMP JUMPDEST PUSH1 0xFF AND DUP2 SUB PUSH2 0xD06 JUMPI PUSH2 0xD00 PUSH1 0x19 PUSH1 0x0 SWAP1 SLOAD SWAP1 PUSH2 0x100 EXP SWAP1 DIV PUSH20 0xFFFFFFFFFFFFFFFFFFFFFFFFFFFFFFFFFFFFFFFF AND PUSH2 0x1783 JUMP JUMPDEST POP PUSH2 0x1076 JUMP JUMPDEST DUP1 DUP1 PUSH2 0xD11 SWAP1 PUSH2 0x20E4 JUMP JUMPDEST SWAP2 POP POP PUSH2 0xBFA JUMP JUMPDEST POP JUMPDEST PUSH1 0x1 PUSH1 0x0 DUP1 SLOAD SWAP1 PUSH2 0x100 EXP SWAP1 DIV PUSH1 0xFF AND PUSH2 0xD35 SWAP2 SWAP1 PUSH2 0x20AF JUMP JUMPDEST PUSH1 0xFF AND DUP2 DUP4 PUSH2 0xD44 SWAP2 SWAP1 PUSH2 0x212C JUMP JUMPDEST PUSH1 0xFF AND SUB PUSH2 0xE97 JUMPI PUSH1 0x0 JUMPDEST PUSH1 0x0 DUP1 SLOAD SWAP1 PUSH2 0x100 EXP SWAP1 DIV PUSH1 0xFF AND PUSH1 0xFF AND DUP2 LT ISZERO PUSH2 0xE95 JUMPI PUSH1 0x19 PUSH1 0x0 SWAP1 SLOAD SWAP1 PUSH2 0x100 EXP SWAP1 DIV PUSH20 0xFFFFFFFFFFFFFFFFFFFFFFFFFFFFFFFFFFFFFFFF AND PUSH20 0xFFFFFFFFFFFFFFFFFFFFFFFFFFFFFFFFFFFFFFFF AND PUSH1 0x1 DUP3 PUSH1 0x3 DUP2 LT PUSH2 0xDB4 JUMPI PUSH2 0xDB3 PUSH2 0x2057 JUMP JUMPDEST JUMPDEST PUSH1 0x3 MUL ADD DUP3 PUSH1 0x1 PUSH1 0x0 DUP1 SLOAD SWAP1 PUSH2 0x100 EXP SWAP1 DIV PUSH1 0xFF AND PUSH2 0xDD3 SWAP2 SWAP1 PUSH2 0x20AF JUMP JUMPDEST PUSH1 0xFF AND PUSH2 0xDE0 SWAP2 SWAP1 PUSH2 0x2161 JUMP JUMPDEST PUSH1 0x3 DUP2 LT PUSH2 0xDF1 JUMPI PUSH2 0xDF0 PUSH2 0x2057 JUMP JUMPDEST JUMPDEST ADD PUSH1 0x0 SWAP1 SLOAD SWAP1 PUSH2 0x100 EXP SWAP1 DIV PUSH20 0xFFFFFFFFFFFFFFFFFFFFFFFFFFFFFFFFFFFFFFFF AND PUSH20 0xFFFFFFFFFFFFFFFFFFFFFFFFFFFFFFFFFFFFFFFF AND SUB PUSH2 0xE95 JUMPI PUSH1 0x1 PUSH1 0x0 DUP1 SLOAD SWAP1 PUSH2 0x100 EXP SWAP1 DIV PUSH1 0xFF AND PUSH2 0xE48 SWAP2 SWAP1 PUSH2 0x20AF JUMP JUMPDEST PUSH1 0xFF AND DUP2 SUB PUSH2 0xE82 JUMPI PUSH2 0xE7C PUSH1 0x19 PUSH1 0x0 SWAP1 SLOAD SWAP1 PUSH2 0x100 EXP SWAP1 DIV PUSH20 0xFFFFFFFFFFFFFFFFFFFFFFFFFFFFFFFFFFFFFFFF AND PUSH2 0x1783 JUMP JUMPDEST POP PUSH2 0x1076 JUMP JUMPDEST DUP1 DUP1 PUSH2 0xE8D SWAP1 PUSH2 0x20E4 JUMP JUMPDEST SWAP2 POP POP PUSH2 0xD4F JUMP JUMPDEST POP JUMPDEST PUSH1 0x2 PUSH1 0x0 DUP1 SLOAD SWAP1 PUSH2 0x100 EXP SWAP1 DIV PUSH1 0xFF AND PUSH2 0xEB1 SWAP2 SWAP1 PUSH2 0x22C8 JUMP JUMPDEST PUSH1 0xFF AND PUSH1 0x0 PUSH1 0x1 SWAP1 SLOAD SWAP1 PUSH2 0x100 EXP SWAP1 DIV PUSH1 0xFF AND PUSH1 0xFF AND SUB PUSH2 0xED9 JUMPI PUSH2 0xED4 PUSH2 0x18C5 JUMP JUMPDEST PUSH2 0x1076 JUMP JUMPDEST PUSH1 0x13 PUSH1 0x0 SWAP1 SLOAD SWAP1 PUSH2 0x100 EXP SWAP1 DIV PUSH20 0xFFFFFFFFFFFFFFFFFFFFFFFFFFFFFFFFFFFFFFFF AND PUSH20 0xFFFFFFFFFFFFFFFFFFFFFFFFFFFFFFFFFFFFFFFF AND PUSH1 0x19 PUSH1 0x0 SWAP1 SLOAD SWAP1 PUSH2 0x100 EXP SWAP1 DIV PUSH20 0xFFFFFFFFFFFFFFFFFFFFFFFFFFFFFFFFFFFFFFFF AND PUSH20 0xFFFFFFFFFFFFFFFFFFFFFFFFFFFFFFFFFFFFFFFF AND SUB PUSH2 0xFB8 JUMPI PUSH1 0x14 PUSH1 0x0 SWAP1 SLOAD SWAP1 PUSH2 0x100 EXP SWAP1 DIV PUSH20 0xFFFFFFFFFFFFFFFFFFFFFFFFFFFFFFFFFFFFFFFF AND PUSH1 0x19 PUSH1 0x0 PUSH2 0x100 EXP DUP2 SLOAD DUP2 PUSH20 0xFFFFFFFFFFFFFFFFFFFFFFFFFFFFFFFFFFFFFFFF MUL NOT AND SWAP1 DUP4 PUSH20 0xFFFFFFFFFFFFFFFFFFFFFFFFFFFFFFFFFFFFFFFF AND MUL OR SWAP1 SSTORE POP PUSH2 0x101C JUMP JUMPDEST PUSH1 0x13 PUSH1 0x0 SWAP1 SLOAD SWAP1 PUSH2 0x100 EXP SWAP1 DIV PUSH20 0xFFFFFFFFFFFFFFFFFFFFFFFFFFFFFFFFFFFFFFFF AND PUSH1 0x19 PUSH1 0x0 PUSH2 0x100 EXP DUP2 SLOAD DUP2 PUSH20 0xFFFFFFFFFFFFFFFFFFFFFFFFFFFFFFFFFFFFFFFF MUL NOT AND SWAP1 DUP4 PUSH20 0xFFFFFFFFFFFFFFFFFFFFFFFFFFFFFFFFFFFFFFFF AND MUL OR SWAP1 SSTORE POP JUMPDEST PUSH32 0x637351F91DA430278368FB3E486C8C3DA47B2E6CE4D28B2C404CB044702CA7E1 PUSH1 0x19 PUSH1 0x0 SWAP1 SLOAD SWAP1 PUSH2 0x100 EXP SWAP1 DIV PUSH20 0xFFFFFFFFFFFFFFFFFFFFFFFFFFFFFFFFFFFFFFFF AND PUSH1 0x40 MLOAD PUSH2 0x106D SWAP2 SWAP1 PUSH2 0x1F79 JUMP JUMPDEST PUSH1 0x40 MLOAD DUP1 SWAP2 SUB SWAP1 LOG1 JUMPDEST POP POP JUMP JUMPDEST PUSH1 0x19 PUSH1 0x0 SWAP1 SLOAD SWAP1 PUSH2 0x100 EXP SWAP1 DIV PUSH20 0xFFFFFFFFFFFFFFFFFFFFFFFFFFFFFFFFFFFFFFFF AND DUP2 JUMP JUMPDEST PUSH1 0x17 SLOAD DUP2 JUMP JUMPDEST PUSH1 0x13 PUSH1 0x0 SWAP1 SLOAD SWAP1 PUSH2 0x100 EXP SWAP1 DIV PUSH20 0xFFFFFFFFFFFFFFFFFFFFFFFFFFFFFFFFFFFFFFFF AND PUSH20 0xFFFFFFFFFFFFFFFFFFFFFFFFFFFFFFFFFFFFFFFF AND CALLER PUSH20 0xFFFFFFFFFFFFFFFFFFFFFFFFFFFFFFFFFFFFFFFF AND EQ DUP1 PUSH2 0x114F JUMPI POP PUSH1 0x14 PUSH1 0x0 SWAP1 SLOAD SWAP1 PUSH2 0x100 EXP SWAP1 DIV PUSH20 0xFFFFFFFFFFFFFFFFFFFFFFFFFFFFFFFFFFFFFFFF AND PUSH20 0xFFFFFFFFFFFFFFFFFFFFFFFFFFFFFFFFFFFFFFFF AND CALLER PUSH20 0xFFFFFFFFFFFFFFFFFFFFFFFFFFFFFFFFFFFFFFFF AND EQ JUMPDEST PUSH2 0x1158 JUMPI PUSH1 0x0 DUP1 REVERT JUMPDEST PUSH1 0xA PUSH1 0x1 SWAP1 PUSH1 0x3 PUSH2 0x116A SWAP3 SWAP2 SWAP1 PUSH2 0x1B04 JUMP JUMPDEST POP PUSH1 0x0 PUSH1 0x13 PUSH1 0x0 PUSH2 0x100 EXP DUP2 SLOAD DUP2 PUSH20 0xFFFFFFFFFFFFFFFFFFFFFFFFFFFFFFFFFFFFFFFF MUL NOT AND SWAP1 DUP4 PUSH20 0xFFFFFFFFFFFFFFFFFFFFFFFFFFFFFFFFFFFFFFFF AND MUL OR SWAP1 SSTORE POP PUSH1 0x0 PUSH1 0x14 PUSH1 0x0 PUSH2 0x100 EXP DUP2 SLOAD DUP2 PUSH20 0xFFFFFFFFFFFFFFFFFFFFFFFFFFFFFFFFFFFFFFFF MUL NOT AND SWAP1 DUP4 PUSH20 0xFFFFFFFFFFFFFFFFFFFFFFFFFFFFFFFFFFFFFFFF AND MUL OR SWAP1 SSTORE POP JUMP JUMPDEST PUSH1 0x0 DUP1 SLOAD SWAP1 PUSH2 0x100 EXP SWAP1 DIV PUSH1 0xFF AND DUP2 JUMP JUMPDEST PUSH1 0x0 PUSH20 0xFFFFFFFFFFFFFFFFFFFFFFFFFFFFFFFFFFFFFFFF AND PUSH1 0x14 PUSH1 0x0 SWAP1 SLOAD SWAP1 PUSH2 0x100 EXP SWAP1 DIV PUSH20 0xFFFFFFFFFFFFFFFFFFFFFFFFFFFFFFFFFFFFFFFF AND PUSH20 0xFFFFFFFFFFFFFFFFFFFFFFFFFFFFFFFFFFFFFFFF AND EQ PUSH2 0x1261 JUMPI PUSH2 0x1260 PUSH2 0x1EEB JUMP JUMPDEST JUMPDEST PUSH1 0x0 PUSH20 0xFFFFFFFFFFFFFFFFFFFFFFFFFFFFFFFFFFFFFFFF AND PUSH1 0x13 PUSH1 0x0 SWAP1 SLOAD SWAP1 PUSH2 0x100 EXP SWAP1 DIV PUSH20 0xFFFFFFFFFFFFFFFFFFFFFFFFFFFFFFFFFFFFFFFF AND PUSH20 0xFFFFFFFFFFFFFFFFFFFFFFFFFFFFFFFFFFFFFFFF AND EQ PUSH2 0x12D7 JUMPI PUSH1 0x1 PUSH1 0x0 PUSH1 0x2 PUSH2 0x100 EXP DUP2 SLOAD DUP2 PUSH1 0xFF MUL NOT AND SWAP1 DUP4 ISZERO ISZERO MUL OR SWAP1 SSTORE POP PUSH2 0x12F2 JUMP JUMPDEST PUSH1 0x0 DUP1 PUSH1 0x2 PUSH2 0x100 EXP DUP2 SLOAD DUP2 PUSH1 0xFF MUL NOT AND SWAP1 DUP4 ISZERO ISZERO MUL OR SWAP1 SSTORE POP JUMPDEST PUSH7 0x38D7EA4C68000 CALLVALUE EQ PUSH2 0x1305 JUMPI PUSH1 0x0 DUP1 REVERT JUMPDEST CALLER PUSH1 0x14 PUSH1 0x0 PUSH2 0x100 EXP DUP2 SLOAD DUP2 PUSH20 0xFFFFFFFFFFFFFFFFFFFFFFFFFFFFFFFFFFFFFFFF MUL NOT AND SWAP1 DUP4 PUSH20 0xFFFFFFFFFFFFFFFFFFFFFFFFFFFFFFFFFFFFFFFF AND MUL OR SWAP1 SSTORE POP PUSH32 0x31E760AA525306ABA638A784082A013B6A1CC0A9A1789F3F22281C0453B10B1F PUSH1 0x14 PUSH1 0x0 SWAP1 SLOAD SWAP1 PUSH2 0x100 EXP SWAP1 DIV PUSH20 0xFFFFFFFFFFFFFFFFFFFFFFFFFFFFFFFFFFFFFFFF AND PUSH1 0x40 MLOAD PUSH2 0x1397 SWAP2 SWAP1 PUSH2 0x1F79 JUMP JUMPDEST PUSH1 0x40 MLOAD DUP1 SWAP2 SUB SWAP1 LOG1 PUSH1 0x0 PUSH1 0x2 NUMBER PUSH2 0x13AE SWAP2 SWAP1 PUSH2 0x1FC3 JUMP JUMPDEST SUB PUSH2 0x141B JUMPI PUSH1 0x14 PUSH1 0x0 SWAP1 SLOAD SWAP1 PUSH2 0x100 EXP SWAP1 DIV PUSH20 0xFFFFFFFFFFFFFFFFFFFFFFFFFFFFFFFFFFFFFFFF AND PUSH1 0x19 PUSH1 0x0 PUSH2 0x100 EXP DUP2 SLOAD DUP2 PUSH20 0xFFFFFFFFFFFFFFFFFFFFFFFFFFFFFFFFFFFFFFFF MUL NOT AND SWAP1 DUP4 PUSH20 0xFFFFFFFFFFFFFFFFFFFFFFFFFFFFFFFFFFFFFFFF AND MUL OR SWAP1 SSTORE POP PUSH2 0x147F JUMP JUMPDEST PUSH1 0x13 PUSH1 0x0 SWAP1 SLOAD SWAP1 PUSH2 0x100 EXP SWAP1 DIV PUSH20 0xFFFFFFFFFFFFFFFFFFFFFFFFFFFFFFFFFFFFFFFF AND PUSH1 0x19 PUSH1 0x0 PUSH2 0x100 EXP DUP2 SLOAD DUP2 PUSH20 0xFFFFFFFFFFFFFFFFFFFFFFFFFFFFFFFFFFFFFFFF MUL NOT AND SWAP1 DUP4 PUSH20 0xFFFFFFFFFFFFFFFFFFFFFFFFFFFFFFFFFFFFFFFF AND MUL OR SWAP1 SSTORE POP JUMPDEST PUSH1 0x17 SLOAD TIMESTAMP PUSH2 0x148D SWAP2 SWAP1 PUSH2 0x2023 JUMP JUMPDEST PUSH1 0x18 DUP2 SWAP1 SSTORE POP PUSH32 0x637351F91DA430278368FB3E486C8C3DA47B2E6CE4D28B2C404CB044702CA7E1 PUSH1 0x19 PUSH1 0x0 SWAP1 SLOAD SWAP1 PUSH2 0x100 EXP SWAP1 DIV PUSH20 0xFFFFFFFFFFFFFFFFFFFFFFFFFFFFFFFFFFFFFFFF AND PUSH1 0x40 MLOAD PUSH2 0x14E4 SWAP2 SWAP1 PUSH2 0x1F79 JUMP JUMPDEST PUSH1 0x40 MLOAD DUP1 SWAP2 SUB SWAP1 LOG1 JUMP JUMPDEST PUSH7 0x38D7EA4C68000 DUP2 JUMP JUMPDEST PUSH1 0x13 PUSH1 0x0 SWAP1 SLOAD SWAP1 PUSH2 0x100 EXP SWAP1 DIV PUSH20 0xFFFFFFFFFFFFFFFFFFFFFFFFFFFFFFFFFFFFFFFF AND DUP2 JUMP JUMPDEST TIMESTAMP PUSH1 0x18 SLOAD LT PUSH2 0x152D JUMPI PUSH1 0x0 DUP1 REVERT JUMPDEST PUSH1 0x0 PUSH1 0x2 SWAP1 SLOAD SWAP1 PUSH2 0x100 EXP SWAP1 DIV PUSH1 0xFF AND PUSH2 0x1546 JUMPI PUSH1 0x0 DUP1 REVERT JUMPDEST PUSH2 0x154E PUSH2 0x18C5 JUMP JUMPDEST JUMP JUMPDEST PUSH1 0x0 PUSH1 0x2 SWAP1 SLOAD SWAP1 PUSH2 0x100 EXP SWAP1 DIV PUSH1 0xFF AND DUP2 JUMP JUMPDEST PUSH1 0x0 PUSH1 0x13 PUSH1 0x0 SWAP1 SLOAD SWAP1 PUSH2 0x100 EXP SWAP1 DIV PUSH20 0xFFFFFFFFFFFFFFFFFFFFFFFFFFFFFFFFFFFFFFFF AND PUSH20 0xFFFFFFFFFFFFFFFFFFFFFFFFFFFFFFFFFFFFFFFF AND CALLER PUSH20 0xFFFFFFFFFFFFFFFFFFFFFFFFFFFFFFFFFFFFFFFF AND SUB PUSH2 0x169F JUMPI PUSH1 0x0 PUSH1 0x15 SLOAD GT PUSH2 0x15C9 JUMPI PUSH1 0x0 DUP1 REVERT JUMPDEST PUSH1 0x15 SLOAD SWAP1 POP PUSH1 0x0 PUSH1 0x15 DUP2 SWAP1 SSTORE POP PUSH1 0x13 PUSH1 0x0 SWAP1 SLOAD SWAP1 PUSH2 0x100 EXP SWAP1 DIV PUSH20 0xFFFFFFFFFFFFFFFFFFFFFFFFFFFFFFFFFFFFFFFF AND PUSH20 0xFFFFFFFFFFFFFFFFFFFFFFFFFFFFFFFFFFFFFFFF AND PUSH2 0x8FC DUP3 SWAP1 DUP2 ISZERO MUL SWAP1 PUSH1 0x40 MLOAD PUSH1 0x0 PUSH1 0x40 MLOAD DUP1 DUP4 SUB DUP2 DUP6 DUP9 DUP9 CALL SWAP4 POP POP POP POP ISZERO DUP1 ISZERO PUSH2 0x163E JUMPI RETURNDATASIZE PUSH1 0x0 DUP1 RETURNDATACOPY RETURNDATASIZE PUSH1 0x0 REVERT JUMPDEST POP PUSH32 0x2A44162A2D5223E37CACACC3F626DCFEE1396E0BE3616534C5C7B718F786B673 PUSH1 0x13 PUSH1 0x0 SWAP1 SLOAD SWAP1 PUSH2 0x100 EXP SWAP1 DIV PUSH20 0xFFFFFFFFFFFFFFFFFFFFFFFFFFFFFFFFFFFFFFFF AND DUP3 PUSH1 0x40 MLOAD PUSH2 0x1692 SWAP3 SWAP2 SWAP1 PUSH2 0x22F4 JUMP JUMPDEST PUSH1 0x40 MLOAD DUP1 SWAP2 SUB SWAP1 LOG1 PUSH2 0x1780 JUMP JUMPDEST PUSH1 0x0 PUSH1 0x16 SLOAD GT PUSH2 0x16AE JUMPI PUSH1 0x0 DUP1 REVERT JUMPDEST PUSH1 0x16 SLOAD SWAP1 POP PUSH1 0x0 PUSH1 0x16 DUP2 SWAP1 SSTORE POP PUSH1 0x14 PUSH1 0x0 SWAP1 SLOAD SWAP1 PUSH2 0x100 EXP SWAP1 DIV PUSH20 0xFFFFFFFFFFFFFFFFFFFFFFFFFFFFFFFFFFFFFFFF AND PUSH20 0xFFFFFFFFFFFFFFFFFFFFFFFFFFFFFFFFFFFFFFFF AND PUSH2 0x8FC DUP3 SWAP1 DUP2 ISZERO MUL SWAP1 PUSH1 0x40 MLOAD PUSH1 0x0 PUSH1 0x40 MLOAD DUP1 DUP4 SUB DUP2 DUP6 DUP9 DUP9 CALL SWAP4 POP POP POP POP ISZERO DUP1 ISZERO PUSH2 0x1723 JUMPI RETURNDATASIZE PUSH1 0x0 DUP1 RETURNDATACOPY RETURNDATASIZE PUSH1 0x0 REVERT JUMPDEST POP PUSH32 0x2A44162A2D5223E37CACACC3F626DCFEE1396E0BE3616534C5C7B718F786B673 PUSH1 0x14 PUSH1 0x0 SWAP1 SLOAD SWAP1 PUSH2 0x100 EXP SWAP1 DIV PUSH20 0xFFFFFFFFFFFFFFFFFFFFFFFFFFFFFFFFFFFFFFFF AND DUP3 PUSH1 0x40 MLOAD PUSH2 0x1777 SWAP3 SWAP2 SWAP1 PUSH2 0x22F4 JUMP JUMPDEST PUSH1 0x40 MLOAD DUP1 SWAP2 SUB SWAP1 LOG1 JUMPDEST POP JUMP JUMPDEST PUSH1 0x0 DUP1 PUSH1 0x2 PUSH2 0x100 EXP DUP2 SLOAD DUP2 PUSH1 0xFF MUL NOT AND SWAP1 DUP4 ISZERO ISZERO MUL OR SWAP1 SSTORE POP PUSH32 0x8245A3876D42D9B0BDB7F24184C03FC24E3D8A079F492B1EC9CEAE70B366EDF9 DUP2 PUSH1 0x40 MLOAD PUSH2 0x17CC SWAP2 SWAP1 PUSH2 0x1F79 JUMP JUMPDEST PUSH1 0x40 MLOAD DUP1 SWAP2 SUB SWAP1 LOG1 PUSH1 0x0 SELFBALANCE SWAP1 POP PUSH1 0x1 ISZERO ISZERO DUP3 PUSH20 0xFFFFFFFFFFFFFFFFFFFFFFFFFFFFFFFFFFFFFFFF AND PUSH2 0x8FC DUP4 SWAP1 DUP2 ISZERO MUL SWAP1 PUSH1 0x40 MLOAD PUSH1 0x0 PUSH1 0x40 MLOAD DUP1 DUP4 SUB DUP2 DUP6 DUP9 DUP9 CALL SWAP4 POP POP POP POP ISZERO ISZERO EQ PUSH2 0x1887 JUMPI PUSH1 0x13 PUSH1 0x0 SWAP1 SLOAD SWAP1 PUSH2 0x100 EXP SWAP1 DIV PUSH20 0xFFFFFFFFFFFFFFFFFFFFFFFFFFFFFFFFFFFFFFFF AND PUSH20 0xFFFFFFFFFFFFFFFFFFFFFFFFFFFFFFFFFFFFFFFF AND DUP3 PUSH20 0xFFFFFFFFFFFFFFFFFFFFFFFFFFFFFFFFFFFFFFFF AND SUB PUSH2 0x187A JUMPI DUP1 PUSH1 0x15 DUP2 SWAP1 SSTORE POP PUSH2 0x1882 JUMP JUMPDEST DUP1 PUSH1 0x16 DUP2 SWAP1 SSTORE POP JUMPDEST PUSH2 0x18C1 JUMP JUMPDEST PUSH32 0x2A44162A2D5223E37CACACC3F626DCFEE1396E0BE3616534C5C7B718F786B673 DUP3 DUP3 PUSH1 0x40 MLOAD PUSH2 0x18B8 SWAP3 SWAP2 SWAP1 PUSH2 0x22F4 JUMP JUMPDEST PUSH1 0x40 MLOAD DUP1 SWAP2 SUB SWAP1 LOG1 JUMPDEST POP POP JUMP JUMPDEST PUSH1 0x0 DUP1 PUSH1 0x2 PUSH2 0x100 EXP DUP2 SLOAD DUP2 PUSH1 0xFF MUL NOT AND SWAP1 DUP4 ISZERO ISZERO MUL OR SWAP1 SSTORE POP PUSH32 0x2207D46A2BA0F2ACDA06E9A222B40FD004E385738B3F868E63B2C0BFE4BC094C PUSH1 0x40 MLOAD PUSH1 0x40 MLOAD DUP1 SWAP2 SUB SWAP1 LOG1 PUSH1 0x0 PUSH1 0x2 SELFBALANCE PUSH2 0x191A SWAP2 SWAP1 PUSH2 0x231D JUMP JUMPDEST SWAP1 POP PUSH1 0x0 ISZERO ISZERO PUSH1 0x13 PUSH1 0x0 SWAP1 SLOAD SWAP1 PUSH2 0x100 EXP SWAP1 DIV PUSH20 0xFFFFFFFFFFFFFFFFFFFFFFFFFFFFFFFFFFFFFFFF AND PUSH20 0xFFFFFFFFFFFFFFFFFFFFFFFFFFFFFFFFFFFFFFFF AND PUSH2 0x8FC DUP4 SWAP1 DUP2 ISZERO MUL SWAP1 PUSH1 0x40 MLOAD PUSH1 0x0 PUSH1 0x40 MLOAD DUP1 DUP4 SUB DUP2 DUP6 DUP9 DUP9 CALL SWAP4 POP POP POP POP ISZERO ISZERO SUB PUSH2 0x199C JUMPI DUP1 PUSH1 0x15 PUSH1 0x0 DUP3 DUP3 SLOAD PUSH2 0x1990 SWAP2 SWAP1 PUSH2 0x2023 JUMP JUMPDEST SWAP3 POP POP DUP2 SWAP1 SSTORE POP PUSH2 0x19F8 JUMP JUMPDEST PUSH32 0x2A44162A2D5223E37CACACC3F626DCFEE1396E0BE3616534C5C7B718F786B673 PUSH1 0x13 PUSH1 0x0 SWAP1 SLOAD SWAP1 PUSH2 0x100 EXP SWAP1 DIV PUSH20 0xFFFFFFFFFFFFFFFFFFFFFFFFFFFFFFFFFFFFFFFF AND DUP3 PUSH1 0x40 MLOAD PUSH2 0x19EF SWAP3 SWAP2 SWAP1 PUSH2 0x22F4 JUMP JUMPDEST PUSH1 0x40 MLOAD DUP1 SWAP2 SUB SWAP1 LOG1 JUMPDEST PUSH1 0x0 ISZERO ISZERO PUSH1 0x14 PUSH1 0x0 SWAP1 SLOAD SWAP1 PUSH2 0x100 EXP SWAP1 DIV PUSH20 0xFFFFFFFFFFFFFFFFFFFFFFFFFFFFFFFFFFFFFFFF AND PUSH20 0xFFFFFFFFFFFFFFFFFFFFFFFFFFFFFFFFFFFFFFFF AND PUSH2 0x8FC DUP4 SWAP1 DUP2 ISZERO MUL SWAP1 PUSH1 0x40 MLOAD PUSH1 0x0 PUSH1 0x40 MLOAD DUP1 DUP4 SUB DUP2 DUP6 DUP9 DUP9 CALL SWAP4 POP POP POP POP ISZERO ISZERO SUB PUSH2 0x1A78 JUMPI DUP1 PUSH1 0x16 PUSH1 0x0 DUP3 DUP3 SLOAD PUSH2 0x1A6C SWAP2 SWAP1 PUSH2 0x2023 JUMP JUMPDEST SWAP3 POP POP DUP2 SWAP1 SSTORE POP PUSH2 0x1AD4 JUMP JUMPDEST PUSH32 0x2A44162A2D5223E37CACACC3F626DCFEE1396E0BE3616534C5C7B718F786B673 PUSH1 0x14 PUSH1 0x0 SWAP1 SLOAD SWAP1 PUSH2 0x100 EXP SWAP1 DIV PUSH20 0xFFFFFFFFFFFFFFFFFFFFFFFFFFFFFFFFFFFFFFFF AND DUP3 PUSH1 0x40 MLOAD PUSH2 0x1ACB SWAP3 SWAP2 SWAP1 PUSH2 0x22F4 JUMP JUMPDEST PUSH1 0x40 MLOAD DUP1 SWAP2 SUB SWAP1 LOG1 JUMPDEST POP JUMP JUMPDEST PUSH1 0x40 MLOAD DUP1 PUSH1 0x60 ADD PUSH1 0x40 MSTORE DUP1 PUSH1 0x3 SWAP1 JUMPDEST PUSH2 0x1AEE PUSH2 0x1B53 JUMP JUMPDEST DUP2 MSTORE PUSH1 0x20 ADD SWAP1 PUSH1 0x1 SWAP1 SUB SWAP1 DUP2 PUSH2 0x1AE6 JUMPI SWAP1 POP POP SWAP1 JUMP JUMPDEST DUP3 PUSH1 0x3 DUP1 MUL DUP2 ADD SWAP3 DUP3 ISZERO PUSH2 0x1B42 JUMPI SWAP2 PUSH1 0x3 MUL DUP3 ADD JUMPDEST DUP3 DUP2 GT ISZERO PUSH2 0x1B41 JUMPI DUP3 DUP3 SWAP1 PUSH1 0x3 PUSH2 0x1B31 SWAP3 SWAP2 SWAP1 PUSH2 0x1B75 JUMP JUMPDEST POP SWAP2 PUSH1 0x3 ADD SWAP2 SWAP1 PUSH1 0x3 ADD SWAP1 PUSH2 0x1B19 JUMP JUMPDEST JUMPDEST POP SWAP1 POP PUSH2 0x1B4F SWAP2 SWAP1 PUSH2 0x1BB2 JUMP JUMPDEST POP SWAP1 JUMP JUMPDEST PUSH1 0x40 MLOAD DUP1 PUSH1 0x60 ADD PUSH1 0x40 MSTORE DUP1 PUSH1 0x3 SWAP1 PUSH1 0x20 DUP3 MUL DUP1 CALLDATASIZE DUP4 CALLDATACOPY DUP1 DUP3 ADD SWAP2 POP POP SWAP1 POP POP SWAP1 JUMP JUMPDEST DUP3 PUSH1 0x3 DUP2 ADD SWAP3 DUP3 ISZERO PUSH2 0x1BA1 JUMPI SWAP2 DUP3 ADD JUMPDEST DUP3 DUP2 GT ISZERO PUSH2 0x1BA0 JUMPI DUP3 SLOAD DUP3 SSTORE SWAP2 PUSH1 0x1 ADD SWAP2 SWAP1 PUSH1 0x1 ADD SWAP1 PUSH2 0x1B85 JUMP JUMPDEST JUMPDEST POP SWAP1 POP PUSH2 0x1BAE SWAP2 SWAP1 PUSH2 0x1BD6 JUMP JUMPDEST POP SWAP1 JUMP JUMPDEST JUMPDEST DUP1 DUP3 GT ISZERO PUSH2 0x1BD2 JUMPI PUSH1 0x0 DUP2 DUP2 PUSH2 0x1BC9 SWAP2 SWAP1 PUSH2 0x1BF3 JUMP JUMPDEST POP PUSH1 0x3 ADD PUSH2 0x1BB3 JUMP JUMPDEST POP SWAP1 JUMP JUMPDEST JUMPDEST DUP1 DUP3 GT ISZERO PUSH2 0x1BEF JUMPI PUSH1 0x0 DUP2 PUSH1 0x0 SWAP1 SSTORE POP PUSH1 0x1 ADD PUSH2 0x1BD7 JUMP JUMPDEST POP SWAP1 JUMP JUMPDEST POP PUSH1 0x0 DUP2 SSTORE PUSH1 0x1 ADD PUSH1 0x0 DUP2 SSTORE PUSH1 0x1 ADD PUSH1 0x0 SWAP1 SSTORE JUMP JUMPDEST PUSH1 0x0 DUP2 SWAP1 POP SWAP2 SWAP1 POP JUMP JUMPDEST PUSH2 0x1C1B DUP2 PUSH2 0x1C08 JUMP JUMPDEST DUP3 MSTORE POP POP JUMP JUMPDEST PUSH1 0x0 PUSH1 0x20 DUP3 ADD SWAP1 POP PUSH2 0x1C36 PUSH1 0x0 DUP4 ADD DUP5 PUSH2 0x1C12 JUMP JUMPDEST SWAP3 SWAP2 POP POP JUMP JUMPDEST PUSH1 0x0 PUSH1 0xFF DUP3 AND SWAP1 POP SWAP2 SWAP1 POP JUMP JUMPDEST PUSH2 0x1C52 DUP2 PUSH2 0x1C3C JUMP JUMPDEST DUP3 MSTORE POP POP JUMP JUMPDEST PUSH1 0x0 PUSH1 0x20 DUP3 ADD SWAP1 POP PUSH2 0x1C6D PUSH1 0x0 DUP4 ADD DUP5 PUSH2 0x1C49 JUMP JUMPDEST SWAP3 SWAP2 POP POP JUMP JUMPDEST PUSH1 0x0 PUSH1 0x3 SWAP1 POP SWAP2 SWAP1 POP JUMP JUMPDEST PUSH1 0x0 DUP2 SWAP1 POP SWAP3 SWAP2 POP POP JUMP JUMPDEST PUSH1 0x0 DUP2 SWAP1 POP SWAP2 SWAP1 POP JUMP JUMPDEST PUSH1 0x0 PUSH1 0x3 SWAP1 POP SWAP2 SWAP1 POP JUMP JUMPDEST PUSH1 0x0 DUP2 SWAP1 POP SWAP3 SWAP2 POP POP JUMP JUMPDEST PUSH1 0x0 DUP2 SWAP1 POP SWAP2 SWAP1 POP JUMP JUMPDEST PUSH1 0x0 PUSH20 0xFFFFFFFFFFFFFFFFFFFFFFFFFFFFFFFFFFFFFFFF DUP3 AND SWAP1 POP SWAP2 SWAP1 POP JUMP JUMPDEST PUSH1 0x0 PUSH2 0x1CDE DUP3 PUSH2 0x1CB3 JUMP JUMPDEST SWAP1 POP SWAP2 SWAP1 POP JUMP JUMPDEST PUSH2 0x1CEE DUP2 PUSH2 0x1CD3 JUMP JUMPDEST DUP3 MSTORE POP POP JUMP JUMPDEST PUSH1 0x0 PUSH2 0x1D00 DUP4 DUP4 PUSH2 0x1CE5 JUMP JUMPDEST PUSH1 0x20 DUP4 ADD SWAP1 POP SWAP3 SWAP2 POP POP JUMP JUMPDEST PUSH1 0x0 PUSH1 0x20 DUP3 ADD SWAP1 POP SWAP2 SWAP1 POP JUMP JUMPDEST PUSH2 0x1D22 DUP2 PUSH2 0x1C93 JUMP JUMPDEST PUSH2 0x1D2C DUP2 DUP5 PUSH2 0x1C9E JUMP JUMPDEST SWAP3 POP PUSH2 0x1D37 DUP3 PUSH2 0x1CA9 JUMP JUMPDEST DUP1 PUSH1 0x0 JUMPDEST DUP4 DUP2 LT ISZERO PUSH2 0x1D68 JUMPI DUP2 MLOAD PUSH2 0x1D4F DUP8 DUP3 PUSH2 0x1CF4 JUMP JUMPDEST SWAP7 POP PUSH2 0x1D5A DUP4 PUSH2 0x1D0C JUMP JUMPDEST SWAP3 POP POP PUSH1 0x1 DUP2 ADD SWAP1 POP PUSH2 0x1D3B JUMP JUMPDEST POP POP POP POP POP POP JUMP JUMPDEST PUSH1 0x0 PUSH2 0x1D7C DUP4 DUP4 PUSH2 0x1D19 JUMP JUMPDEST PUSH1 0x60 DUP4 ADD SWAP1 POP SWAP3 SWAP2 POP POP JUMP JUMPDEST PUSH1 0x0 PUSH1 0x20 DUP3 ADD SWAP1 POP SWAP2 SWAP1 POP JUMP JUMPDEST PUSH2 0x1D9E DUP2 PUSH2 0x1C73 JUMP JUMPDEST PUSH2 0x1DA8 DUP2 DUP5 PUSH2 0x1C7E JUMP JUMPDEST SWAP3 POP PUSH2 0x1DB3 DUP3 PUSH2 0x1C89 JUMP JUMPDEST DUP1 PUSH1 0x0 JUMPDEST DUP4 DUP2 LT ISZERO PUSH2 0x1DE4 JUMPI DUP2 MLOAD PUSH2 0x1DCB DUP8 DUP3 PUSH2 0x1D70 JUMP JUMPDEST SWAP7 POP PUSH2 0x1DD6 DUP4 PUSH2 0x1D88 JUMP JUMPDEST SWAP3 POP POP PUSH1 0x1 DUP2 ADD SWAP1 POP PUSH2 0x1DB7 JUMP JUMPDEST POP POP POP POP POP POP JUMP JUMPDEST PUSH1 0x0 PUSH2 0x120 DUP3 ADD SWAP1 POP PUSH2 0x1E02 PUSH1 0x0 DUP4 ADD DUP5 PUSH2 0x1D95 JUMP JUMPDEST SWAP3 SWAP2 POP POP JUMP JUMPDEST PUSH1 0x0 PUSH2 0x1E13 DUP3 PUSH2 0x1CB3 JUMP JUMPDEST SWAP1 POP SWAP2 SWAP1 POP JUMP JUMPDEST PUSH2 0x1E23 DUP2 PUSH2 0x1E08 JUMP JUMPDEST DUP3 MSTORE POP POP JUMP JUMPDEST PUSH1 0x0 PUSH1 0x20 DUP3 ADD SWAP1 POP PUSH2 0x1E3E PUSH1 0x0 DUP4 ADD DUP5 PUSH2 0x1E1A JUMP JUMPDEST SWAP3 SWAP2 POP POP JUMP JUMPDEST PUSH1 0x0 DUP1 REVERT JUMPDEST PUSH2 0x1E52 DUP2 PUSH2 0x1C3C JUMP JUMPDEST DUP2 EQ PUSH2 0x1E5D JUMPI PUSH1 0x0 DUP1 REVERT JUMPDEST POP JUMP JUMPDEST PUSH1 0x0 DUP2 CALLDATALOAD SWAP1 POP PUSH2 0x1E6F DUP2 PUSH2 0x1E49 JUMP JUMPDEST SWAP3 SWAP2 POP POP JUMP JUMPDEST PUSH1 0x0 DUP1 PUSH1 0x40 DUP4 DUP6 SUB SLT ISZERO PUSH2 0x1E8C JUMPI PUSH2 0x1E8B PUSH2 0x1E44 JUMP JUMPDEST JUMPDEST PUSH1 0x0 PUSH2 0x1E9A DUP6 DUP3 DUP7 ADD PUSH2 0x1E60 JUMP JUMPDEST SWAP3 POP POP PUSH1 0x20 PUSH2 0x1EAB DUP6 DUP3 DUP7 ADD PUSH2 0x1E60 JUMP JUMPDEST SWAP2 POP POP SWAP3 POP SWAP3 SWAP1 POP JUMP JUMPDEST PUSH1 0x0 DUP2 ISZERO ISZERO SWAP1 POP SWAP2 SWAP1 POP JUMP JUMPDEST PUSH2 0x1ECA DUP2 PUSH2 0x1EB5 JUMP JUMPDEST DUP3 MSTORE POP POP JUMP JUMPDEST PUSH1 0x0 PUSH1 0x20 DUP3 ADD SWAP1 POP PUSH2 0x1EE5 PUSH1 0x0 DUP4 ADD DUP5 PUSH2 0x1EC1 JUMP JUMPDEST SWAP3 SWAP2 POP POP JUMP JUMPDEST PUSH32 0x4E487B7100000000000000000000000000000000000000000000000000000000 PUSH1 0x0 MSTORE PUSH1 0x1 PUSH1 0x4 MSTORE PUSH1 0x24 PUSH1 0x0 REVERT JUMPDEST PUSH1 0x0 DUP2 SWAP1 POP SWAP2 SWAP1 POP JUMP JUMPDEST PUSH1 0x0 PUSH2 0x1F3F PUSH2 0x1F3A PUSH2 0x1F35 DUP5 PUSH2 0x1CB3 JUMP JUMPDEST PUSH2 0x1F1A JUMP JUMPDEST PUSH2 0x1CB3 JUMP JUMPDEST SWAP1 POP SWAP2 SWAP1 POP JUMP JUMPDEST PUSH1 0x0 PUSH2 0x1F51 DUP3 PUSH2 0x1F24 JUMP JUMPDEST SWAP1 POP SWAP2 SWAP1 POP JUMP JUMPDEST PUSH1 0x0 PUSH2 0x1F63 DUP3 PUSH2 0x1F46 JUMP JUMPDEST SWAP1 POP SWAP2 SWAP1 POP JUMP JUMPDEST PUSH2 0x1F73 DUP2 PUSH2 0x1F58 JUMP JUMPDEST DUP3 MSTORE POP POP JUMP JUMPDEST PUSH1 0x0 PUSH1 0x20 DUP3 ADD SWAP1 POP PUSH2 0x1F8E PUSH1 0x0 DUP4 ADD DUP5 PUSH2 0x1F6A JUMP JUMPDEST SWAP3 SWAP2 POP POP JUMP JUMPDEST PUSH32 0x4E487B7100000000000000000000000000000000000000000000000000000000 PUSH1 0x0 MSTORE PUSH1 0x12 PUSH1 0x4 MSTORE PUSH1 0x24 PUSH1 0x0 REVERT JUMPDEST PUSH1 0x0 PUSH2 0x1FCE DUP3 PUSH2 0x1C08 JUMP JUMPDEST SWAP2 POP PUSH2 0x1FD9 DUP4 PUSH2 0x1C08 JUMP JUMPDEST SWAP3 POP DUP3 PUSH2 0x1FE9 JUMPI PUSH2 0x1FE8 PUSH2 0x1F94 JUMP JUMPDEST JUMPDEST DUP3 DUP3 MOD SWAP1 POP SWAP3 SWAP2 POP POP JUMP JUMPDEST PUSH32 0x4E487B7100000000000000000000000000000000000000000000000000000000 PUSH1 0x0 MSTORE PUSH1 0x11 PUSH1 0x4 MSTORE PUSH1 0x24 PUSH1 0x0 REVERT JUMPDEST PUSH1 0x0 PUSH2 0x202E DUP3 PUSH2 0x1C08 JUMP JUMPDEST SWAP2 POP PUSH2 0x2039 DUP4 PUSH2 0x1C08 JUMP JUMPDEST SWAP3 POP DUP3 DUP3 ADD SWAP1 POP DUP1 DUP3 GT ISZERO PUSH2 0x2051 JUMPI PUSH2 0x2050 PUSH2 0x1FF4 JUMP JUMPDEST JUMPDEST SWAP3 SWAP2 POP POP JUMP JUMPDEST PUSH32 0x4E487B7100000000000000000000000000000000000000000000000000000000 PUSH1 0x0 MSTORE PUSH1 0x32 PUSH1 0x4 MSTORE PUSH1 0x24 PUSH1 0x0 REVERT JUMPDEST PUSH1 0x0 PUSH2 0x2091 DUP3 PUSH2 0x1C3C JUMP JUMPDEST SWAP2 POP PUSH1 0xFF DUP3 SUB PUSH2 0x20A4 JUMPI PUSH2 0x20A3 PUSH2 0x1FF4 JUMP JUMPDEST JUMPDEST PUSH1 0x1 DUP3 ADD SWAP1 POP SWAP2 SWAP1 POP JUMP JUMPDEST PUSH1 0x0 PUSH2 0x20BA DUP3 PUSH2 0x1C3C JUMP JUMPDEST SWAP2 POP PUSH2 0x20C5 DUP4 PUSH2 0x1C3C JUMP JUMPDEST SWAP3 POP DUP3 DUP3 SUB SWAP1 POP PUSH1 0xFF DUP2 GT ISZERO PUSH2 0x20DE JUMPI PUSH2 0x20DD PUSH2 0x1FF4 JUMP JUMPDEST JUMPDEST SWAP3 SWAP2 POP POP JUMP JUMPDEST PUSH1 0x0 PUSH2 0x20EF DUP3 PUSH2 0x1C08 JUMP JUMPDEST SWAP2 POP PUSH32 0xFFFFFFFFFFFFFFFFFFFFFFFFFFFFFFFFFFFFFFFFFFFFFFFFFFFFFFFFFFFFFFFF DUP3 SUB PUSH2 0x2121 JUMPI PUSH2 0x2120 PUSH2 0x1FF4 JUMP JUMPDEST JUMPDEST PUSH1 0x1 DUP3 ADD SWAP1 POP SWAP2 SWAP1 POP JUMP JUMPDEST PUSH1 0x0 PUSH2 0x2137 DUP3 PUSH2 0x1C3C JUMP JUMPDEST SWAP2 POP PUSH2 0x2142 DUP4 PUSH2 0x1C3C JUMP JUMPDEST SWAP3 POP DUP3 DUP3 ADD SWAP1 POP PUSH1 0xFF DUP2 GT ISZERO PUSH2 0x215B JUMPI PUSH2 0x215A PUSH2 0x1FF4 JUMP JUMPDEST JUMPDEST SWAP3 SWAP2 POP POP JUMP JUMPDEST PUSH1 0x0 PUSH2 0x216C DUP3 PUSH2 0x1C08 JUMP JUMPDEST SWAP2 POP PUSH2 0x2177 DUP4 PUSH2 0x1C08 JUMP JUMPDEST SWAP3 POP DUP3 DUP3 SUB SWAP1 POP DUP2 DUP2 GT ISZERO PUSH2 0x218F JUMPI PUSH2 0x218E PUSH2 0x1FF4 JUMP JUMPDEST JUMPDEST SWAP3 SWAP2 POP POP JUMP JUMPDEST PUSH1 0x0 DUP2 PUSH1 0x1 SHR SWAP1 POP SWAP2 SWAP1 POP JUMP JUMPDEST PUSH1 0x0 DUP1 DUP3 SWAP2 POP DUP4 SWAP1 POP JUMPDEST PUSH1 0x1 DUP6 GT ISZERO PUSH2 0x21EC JUMPI DUP1 DUP7 DIV DUP2 GT ISZERO PUSH2 0x21C8 JUMPI PUSH2 0x21C7 PUSH2 0x1FF4 JUMP JUMPDEST JUMPDEST PUSH1 0x1 DUP6 AND ISZERO PUSH2 0x21D7 JUMPI DUP1 DUP3 MUL SWAP2 POP JUMPDEST DUP1 DUP2 MUL SWAP1 POP PUSH2 0x21E5 DUP6 PUSH2 0x2195 JUMP JUMPDEST SWAP5 POP PUSH2 0x21AC JUMP JUMPDEST SWAP5 POP SWAP5 SWAP3 POP POP POP JUMP JUMPDEST PUSH1 0x0 DUP3 PUSH2 0x2205 JUMPI PUSH1 0x1 SWAP1 POP PUSH2 0x22C1 JUMP JUMPDEST DUP2 PUSH2 0x2213 JUMPI PUSH1 0x0 SWAP1 POP PUSH2 0x22C1 JUMP JUMPDEST DUP2 PUSH1 0x1 DUP2 EQ PUSH2 0x2229 JUMPI PUSH1 0x2 DUP2 EQ PUSH2 0x2233 JUMPI PUSH2 0x2262 JUMP JUMPDEST PUSH1 0x1 SWAP2 POP POP PUSH2 0x22C1 JUMP JUMPDEST PUSH1 0xFF DUP5 GT ISZERO PUSH2 0x2245 JUMPI PUSH2 0x2244 PUSH2 0x1FF4 JUMP JUMPDEST JUMPDEST DUP4 PUSH1 0x2 EXP SWAP2 POP DUP5 DUP3 GT ISZERO PUSH2 0x225C JUMPI PUSH2 0x225B PUSH2 0x1FF4 JUMP JUMPDEST JUMPDEST POP PUSH2 0x22C1 JUMP JUMPDEST POP PUSH1 0x20 DUP4 LT PUSH2 0x133 DUP4 LT AND PUSH1 0x4E DUP5 LT PUSH1 0xB DUP5 LT AND OR ISZERO PUSH2 0x2297 JUMPI DUP3 DUP3 EXP SWAP1 POP DUP4 DUP2 GT ISZERO PUSH2 0x2292 JUMPI PUSH2 0x2291 PUSH2 0x1FF4 JUMP JUMPDEST JUMPDEST PUSH2 0x22C1 JUMP JUMPDEST PUSH2 0x22A4 DUP5 DUP5 DUP5 PUSH1 0x1 PUSH2 0x21A2 JUMP JUMPDEST SWAP3 POP SWAP1 POP DUP2 DUP5 DIV DUP2 GT ISZERO PUSH2 0x22BB JUMPI PUSH2 0x22BA PUSH2 0x1FF4 JUMP JUMPDEST JUMPDEST DUP2 DUP2 MUL SWAP1 POP JUMPDEST SWAP4 SWAP3 POP POP POP JUMP JUMPDEST PUSH1 0x0 PUSH2 0x22D3 DUP3 PUSH2 0x1C3C JUMP JUMPDEST SWAP2 POP PUSH2 0x22DE DUP4 PUSH2 0x1C3C JUMP JUMPDEST SWAP3 POP PUSH2 0x22EC PUSH1 0xFF DUP5 DUP5 PUSH2 0x21F5 JUMP JUMPDEST SWAP1 POP SWAP3 SWAP2 POP POP JUMP JUMPDEST PUSH1 0x0 PUSH1 0x40 DUP3 ADD SWAP1 POP PUSH2 0x2309 PUSH1 0x0 DUP4 ADD DUP6 PUSH2 0x1F6A JUMP JUMPDEST PUSH2 0x2316 PUSH1 0x20 DUP4 ADD DUP5 PUSH2 0x1C12 JUMP JUMPDEST SWAP4 SWAP3 POP POP POP JUMP JUMPDEST PUSH1 0x0 PUSH2 0x2328 DUP3 PUSH2 0x1C08 JUMP JUMPDEST SWAP2 POP PUSH2 0x2333 DUP4 PUSH2 0x1C08 JUMP JUMPDEST SWAP3 POP DUP3 PUSH2 0x2343 JUMPI PUSH2 0x2342 PUSH2 0x1F94 JUMP JUMPDEST JUMPDEST DUP3 DUP3 DIV SWAP1 POP SWAP3 SWAP2 POP POP JUMP INVALID LOG2 PUSH5 0x6970667358 0x22 SLT KECCAK256 DUP10 0xB2 0x2F SSTORE RETURNDATACOPY 0xD0 PUSH1 0xF4 DUP10 ISZERO 0xE3 GT 0xC2 ADD 0xCF 0xEE SELFDESTRUCT LOG0 RETURNDATACOPY BYTE PUSH13 0x5D9AE7ED4738DE363BC9FA6473 PUSH16 0x6C634300081100330000000000000000 "
		},
		"gasEstimates": {
			"creation": {
				"codeDepositCost": "1818400",
				"executionCost": "infinite",
				"totalCost": "infinite"
			},
			"external": {
				"activePlayer()": "2625",
				"balanceToWithdrawPlayer1()": "2453",
				"balanceToWithdrawPlayer2()": "2475",
				"boardSize()": "2535",
				"emergecyCashout()": "infinite",
				"gameActive()": "2609",
				"gameCost()": "351",
				"gameValidUntil()": "2452",
				"getBoard()": "infinite",
				"joinGameasPlayer1()": "infinite",
				"joinGameasPlayer2()": "infinite",
				"movesCounter()": "2589",
				"player1()": "2558",
				"player2()": "2559",
				"resetGame()": "infinite",
				"setStone(uint8,uint8)": "infinite",
				"timeToReact()": "2452",
				"withdrawWin()": "infinite"
			},
			"internal": {
				"setDraw()": "infinite",
				"setWinner(address payable)": "infinite"
			}
		},
		"methodIdentifiers": {
			"activePlayer()": "7fdffd23",
			"balanceToWithdrawPlayer1()": "0d8a5258",
			"balanceToWithdrawPlayer2()": "0f2f9868",
			"boardSize()": "c51d69f4",
			"emergecyCashout()": "ea40a2a2",
			"gameActive()": "f020044f",
			"gameCost()": "cab896dc",
			"gameValidUntil()": "47cc53ad",
			"getBoard()": "3264a34b",
			"joinGameasPlayer1()": "6c5c8df3",
			"joinGameasPlayer2()": "c95fe2ad",
			"movesCounter()": "15885694",
			"player1()": "d30895e4",
			"player2()": "59a5f12d",
			"resetGame()": "bb472219",
			"setStone(uint8,uint8)": "7d3f9074",
			"timeToReact()": "976306f0",
			"withdrawWin()": "fb815503"
		}
	},
	"abi": [
		{
			"inputs": [],
			"stateMutability": "payable",
			"type": "constructor"
		},
		{
			"anonymous": false,
			"inputs": [],
			"name": "GameOverWithDraw",
			"type": "event"
		},
		{
			"anonymous": false,
			"inputs": [
				{
					"indexed": false,
					"internalType": "address",
					"name": "winner",
					"type": "address"
				}
			],
			"name": "GameOverWithWin",
			"type": "event"
		},
		{
			"anonymous": false,
			"inputs": [
				{
					"indexed": false,
					"internalType": "address",
					"name": "player",
					"type": "address"
				}
			],
			"name": "NextPlayer",
			"type": "event"
		},
		{
			"anonymous": false,
			"inputs": [
				{
					"indexed": false,
					"internalType": "address",
					"name": "receiver",
					"type": "address"
				},
				{
					"indexed": false,
					"internalType": "uint256",
					"name": "amountInWei",
					"type": "uint256"
				}
			],
			"name": "PayoutSuccess",
			"type": "event"
		},
		{
			"anonymous": false,
			"inputs": [
				{
					"indexed": false,
					"internalType": "address",
					"name": "player",
					"type": "address"
				}
			],
			"name": "PlayerJoined",
			"type": "event"
		},
		{
			"inputs": [],
			"name": "activePlayer",
			"outputs": [
				{
					"internalType": "address payable",
					"name": "",
					"type": "address"
				}
			],
			"stateMutability": "view",
			"type": "function"
		},
		{
			"inputs": [],
			"name": "balanceToWithdrawPlayer1",
			"outputs": [
				{
					"internalType": "uint256",
					"name": "",
					"type": "uint256"
				}
			],
			"stateMutability": "view",
			"type": "function"
		},
		{
			"inputs": [],
			"name": "balanceToWithdrawPlayer2",
			"outputs": [
				{
					"internalType": "uint256",
					"name": "",
					"type": "uint256"
				}
			],
			"stateMutability": "view",
			"type": "function"
		},
		{
			"inputs": [],
			"name": "boardSize",
			"outputs": [
				{
					"internalType": "uint8",
					"name": "",
					"type": "uint8"
				}
			],
			"stateMutability": "view",
			"type": "function"
		},
		{
			"inputs": [],
			"name": "emergecyCashout",
			"outputs": [],
			"stateMutability": "nonpayable",
			"type": "function"
		},
		{
			"inputs": [],
			"name": "gameActive",
			"outputs": [
				{
					"internalType": "bool",
					"name": "",
					"type": "bool"
				}
			],
			"stateMutability": "view",
			"type": "function"
		},
		{
			"inputs": [],
			"name": "gameCost",
			"outputs": [
				{
					"internalType": "uint256",
					"name": "",
					"type": "uint256"
				}
			],
			"stateMutability": "view",
			"type": "function"
		},
		{
			"inputs": [],
			"name": "gameValidUntil",
			"outputs": [
				{
					"internalType": "uint256",
					"name": "",
					"type": "uint256"
				}
			],
			"stateMutability": "view",
			"type": "function"
		},
		{
			"inputs": [],
			"name": "getBoard",
			"outputs": [
				{
					"internalType": "address[3][3]",
					"name": "",
					"type": "address[3][3]"
				}
			],
			"stateMutability": "view",
			"type": "function"
		},
		{
			"inputs": [],
			"name": "joinGameasPlayer1",
			"outputs": [],
			"stateMutability": "payable",
			"type": "function"
		},
		{
			"inputs": [],
			"name": "joinGameasPlayer2",
			"outputs": [],
			"stateMutability": "payable",
			"type": "function"
		},
		{
			"inputs": [],
			"name": "movesCounter",
			"outputs": [
				{
					"internalType": "uint8",
					"name": "",
					"type": "uint8"
				}
			],
			"stateMutability": "view",
			"type": "function"
		},
		{
			"inputs": [],
			"name": "player1",
			"outputs": [
				{
					"internalType": "address payable",
					"name": "",
					"type": "address"
				}
			],
			"stateMutability": "view",
			"type": "function"
		},
		{
			"inputs": [],
			"name": "player2",
			"outputs": [
				{
					"internalType": "address payable",
					"name": "",
					"type": "address"
				}
			],
			"stateMutability": "view",
			"type": "function"
		},
		{
			"inputs": [],
			"name": "resetGame",
			"outputs": [],
			"stateMutability": "nonpayable",
			"type": "function"
		},
		{
			"inputs": [
				{
					"internalType": "uint8",
					"name": "x",
					"type": "uint8"
				},
				{
					"internalType": "uint8",
					"name": "y",
					"type": "uint8"
				}
			],
			"name": "setStone",
			"outputs": [],
			"stateMutability": "nonpayable",
			"type": "function"
		},
		{
			"inputs": [],
			"name": "timeToReact",
			"outputs": [
				{
					"internalType": "uint256",
					"name": "",
					"type": "uint256"
				}
			],
			"stateMutability": "view",
			"type": "function"
		},
		{
			"inputs": [],
			"name": "withdrawWin",
			"outputs": [],
			"stateMutability": "nonpayable",
			"type": "function"
		}
	]
}